{
	"contracts/1_Tictactoe.sol": {
		"TicTacToe": {
			"abi": [
				{
					"inputs": [],
					"stateMutability": "nonpayable",
					"type": "constructor"
				},
				{
					"inputs": [],
					"name": "getBoard",
					"outputs": [
						{
							"internalType": "enum TicTacToe.Move[9]",
							"name": "",
							"type": "uint8[9]"
						}
					],
					"stateMutability": "view",
					"type": "function"
				},
				{
					"inputs": [],
					"name": "joinGame",
					"outputs": [],
					"stateMutability": "nonpayable",
					"type": "function"
				},
				{
					"inputs": [
						{
							"internalType": "uint8",
							"name": "location",
							"type": "uint8"
						}
					],
					"name": "move",
					"outputs": [],
					"stateMutability": "nonpayable",
					"type": "function"
				},
				{
					"inputs": [],
					"name": "nextMove",
					"outputs": [
						{
							"internalType": "enum TicTacToe.Move",
							"name": "",
							"type": "uint8"
						}
					],
					"stateMutability": "view",
					"type": "function"
				},
				{
					"inputs": [],
					"name": "player1",
					"outputs": [
						{
							"internalType": "address",
							"name": "",
							"type": "address"
						}
					],
					"stateMutability": "view",
					"type": "function"
				},
				{
					"inputs": [],
					"name": "player2",
					"outputs": [
						{
							"internalType": "address",
							"name": "",
							"type": "address"
						}
					],
					"stateMutability": "view",
					"type": "function"
				},
				{
					"inputs": [],
					"name": "resetGame",
					"outputs": [],
					"stateMutability": "nonpayable",
					"type": "function"
				},
				{
					"inputs": [],
					"name": "status",
					"outputs": [
						{
							"internalType": "enum TicTacToe.GameStatus",
							"name": "",
							"type": "uint8"
						}
					],
					"stateMutability": "view",
					"type": "function"
				}
			],
			"devdoc": {
				"details": "Implements a tic-tac-toe game with betting",
				"kind": "dev",
				"methods": {},
				"title": "TicTacToe",
				"version": 1
			},
			"evm": {
				"assembly": "    /* \"contracts/1_Tictactoe.sol\":150:2009  contract TicTacToe {... */\n  mstore(0x40, 0x80)\n    /* \"contracts/1_Tictactoe.sol\":547:602  constructor() {... */\n  callvalue\n  dup1\n  iszero\n  tag_1\n  jumpi\n  0x00\n  dup1\n  revert\ntag_1:\n  pop\n    /* \"contracts/1_Tictactoe.sol\":580:595  GameStatus.None */\n  0x03\n    /* \"contracts/1_Tictactoe.sol\":571:577  status */\n  0x01\n  0x14\n    /* \"contracts/1_Tictactoe.sol\":571:595  status = GameStatus.None */\n  0x0100\n  exp\n  dup2\n  sload\n  dup2\n  0xff\n  mul\n  not\n  and\n  swap1\n  dup4\n  0x03\n  dup2\n  gt\n  iszero\n  tag_4\n  jumpi\n  tag_5\n  tag_6\n  jump\t// in\ntag_5:\ntag_4:\n  mul\n  or\n  swap1\n  sstore\n  pop\n    /* \"contracts/1_Tictactoe.sol\":150:2009  contract TicTacToe {... */\n  jump(tag_7)\n    /* \"#utility.yul\":7:187   */\ntag_6:\n    /* \"#utility.yul\":55:132   */\n  0x4e487b7100000000000000000000000000000000000000000000000000000000\n    /* \"#utility.yul\":52:53   */\n  0x00\n    /* \"#utility.yul\":45:133   */\n  mstore\n    /* \"#utility.yul\":152:156   */\n  0x21\n    /* \"#utility.yul\":149:150   */\n  0x04\n    /* \"#utility.yul\":142:157   */\n  mstore\n    /* \"#utility.yul\":176:180   */\n  0x24\n    /* \"#utility.yul\":173:174   */\n  0x00\n    /* \"#utility.yul\":166:181   */\n  revert\n    /* \"contracts/1_Tictactoe.sol\":150:2009  contract TicTacToe {... */\ntag_7:\n  dataSize(sub_0)\n  dup1\n  dataOffset(sub_0)\n  0x00\n  codecopy\n  0x00\n  return\nstop\n\nsub_0: assembly {\n        /* \"contracts/1_Tictactoe.sol\":150:2009  contract TicTacToe {... */\n      mstore(0x40, 0x80)\n      callvalue\n      dup1\n      iszero\n      tag_1\n      jumpi\n      0x00\n      dup1\n      revert\n    tag_1:\n      pop\n      jumpi(tag_2, lt(calldatasize, 0x04))\n      shr(0xe0, calldataload(0x00))\n      dup1\n      0x82df5242\n      gt\n      tag_11\n      jumpi\n      dup1\n      0x82df5242\n      eq\n      tag_7\n      jumpi\n      dup1\n      0xbb472219\n      eq\n      tag_8\n      jumpi\n      dup1\n      0xd30895e4\n      eq\n      tag_9\n      jumpi\n      dup1\n      0xd4f77b1c\n      eq\n      tag_10\n      jumpi\n      jump(tag_2)\n    tag_11:\n      dup1\n      0x200d2ed2\n      eq\n      tag_3\n      jumpi\n      dup1\n      0x3264a34b\n      eq\n      tag_4\n      jumpi\n      dup1\n      0x59a5f12d\n      eq\n      tag_5\n      jumpi\n      dup1\n      0x70e87aaf\n      eq\n      tag_6\n      jumpi\n    tag_2:\n      0x00\n      dup1\n      revert\n        /* \"contracts/1_Tictactoe.sol\":401:425  GameStatus public status */\n    tag_3:\n      tag_12\n      tag_13\n      jump\t// in\n    tag_12:\n      mload(0x40)\n      tag_14\n      swap2\n      swap1\n      tag_15\n      jump\t// in\n    tag_14:\n      mload(0x40)\n      dup1\n      swap2\n      sub\n      swap1\n      return\n        /* \"contracts/1_Tictactoe.sol\":1643:1730  function getBoard() external view returns(Move[9] memory) {... */\n    tag_4:\n      tag_16\n      tag_17\n      jump\t// in\n    tag_16:\n      mload(0x40)\n      tag_18\n      swap2\n      swap1\n      tag_19\n      jump\t// in\n    tag_18:\n      mload(0x40)\n      dup1\n      swap2\n      sub\n      swap1\n      return\n        /* \"contracts/1_Tictactoe.sol\":367:389  address public player2 */\n    tag_5:\n      tag_20\n      tag_21\n      jump\t// in\n    tag_20:\n      mload(0x40)\n      tag_22\n      swap2\n      swap1\n      tag_23\n      jump\t// in\n    tag_22:\n      mload(0x40)\n      dup1\n      swap2\n      sub\n      swap1\n      return\n        /* \"contracts/1_Tictactoe.sol\":1144:1637  function move(uint8 location) external {... */\n    tag_6:\n      tag_24\n      0x04\n      dup1\n      calldatasize\n      sub\n      dup2\n      add\n      swap1\n      tag_25\n      swap2\n      swap1\n      tag_26\n      jump\t// in\n    tag_25:\n      tag_27\n      jump\t// in\n    tag_24:\n      stop\n        /* \"contracts/1_Tictactoe.sol\":431:451  Move public nextMove */\n    tag_7:\n      tag_28\n      tag_29\n      jump\t// in\n    tag_28:\n      mload(0x40)\n      tag_30\n      swap2\n      swap1\n      tag_31\n      jump\t// in\n    tag_30:\n      mload(0x40)\n      dup1\n      swap2\n      sub\n      swap1\n      return\n        /* \"contracts/1_Tictactoe.sol\":883:1138  function resetGame() external {... */\n    tag_8:\n      tag_32\n      tag_33\n      jump\t// in\n    tag_32:\n      stop\n        /* \"contracts/1_Tictactoe.sol\":339:361  address public player1 */\n    tag_9:\n      tag_34\n      tag_35\n      jump\t// in\n    tag_34:\n      mload(0x40)\n      tag_36\n      swap2\n      swap1\n      tag_23\n      jump\t// in\n    tag_36:\n      mload(0x40)\n      dup1\n      swap2\n      sub\n      swap1\n      return\n        /* \"contracts/1_Tictactoe.sol\":608:877  function joinGame() external {... */\n    tag_10:\n      tag_37\n      tag_38\n      jump\t// in\n    tag_37:\n      stop\n        /* \"contracts/1_Tictactoe.sol\":401:425  GameStatus public status */\n    tag_13:\n      0x01\n      0x14\n      swap1\n      sload\n      swap1\n      0x0100\n      exp\n      swap1\n      div\n      0xff\n      and\n      dup2\n      jump\t// out\n        /* \"contracts/1_Tictactoe.sol\":1643:1730  function getBoard() external view returns(Move[9] memory) {... */\n    tag_17:\n        /* \"contracts/1_Tictactoe.sol\":1685:1699  Move[9] memory */\n      tag_39\n      tag_40\n      jump\t// in\n    tag_39:\n        /* \"contracts/1_Tictactoe.sol\":1718:1723  board */\n      0x02\n        /* \"contracts/1_Tictactoe.sol\":1711:1723  return board */\n      0x09\n      dup1\n      0x20\n      mul\n      mload(0x40)\n      swap1\n      dup2\n      add\n      0x40\n      mstore\n      dup1\n      swap3\n      swap2\n      swap1\n      dup3\n      0x09\n      dup1\n      iszero\n      tag_42\n      jumpi\n      0x20\n      mul\n      dup3\n      add\n      swap2\n      0x00\n      swap1\n    tag_43:\n      dup3\n      dup3\n      swap1\n      sload\n      swap1\n      0x0100\n      exp\n      swap1\n      div\n      0xff\n      and\n      0x02\n      dup2\n      gt\n      iszero\n      tag_44\n      jumpi\n      tag_45\n      tag_46\n      jump\t// in\n    tag_45:\n    tag_44:\n      dup2\n      mstore\n      0x20\n      add\n      swap1\n      0x01\n      add\n      swap1\n      0x20\n      dup3\n      0x00\n      add\n      div\n      swap3\n      dup4\n      add\n      swap3\n      0x01\n      sub\n      dup3\n      mul\n      swap2\n      pop\n      dup1\n      dup5\n      gt\n      tag_43\n      jumpi\n      swap1\n      pop\n    tag_42:\n      pop\n      pop\n      pop\n      pop\n      pop\n      swap1\n      pop\n        /* \"contracts/1_Tictactoe.sol\":1643:1730  function getBoard() external view returns(Move[9] memory) {... */\n      swap1\n      jump\t// out\n        /* \"contracts/1_Tictactoe.sol\":367:389  address public player2 */\n    tag_21:\n      0x01\n      0x00\n      swap1\n      sload\n      swap1\n      0x0100\n      exp\n      swap1\n      div\n      0xffffffffffffffffffffffffffffffffffffffff\n      and\n      dup2\n      jump\t// out\n        /* \"contracts/1_Tictactoe.sol\":1144:1637  function move(uint8 location) external {... */\n    tag_27:\n        /* \"contracts/1_Tictactoe.sol\":1220:1221  0 */\n      0x00\n        /* \"contracts/1_Tictactoe.sol\":1201:1222  player1 != address(0) */\n      0xffffffffffffffffffffffffffffffffffffffff\n      and\n        /* \"contracts/1_Tictactoe.sol\":1201:1208  player1 */\n      0x00\n      dup1\n      sload\n      swap1\n      0x0100\n      exp\n      swap1\n      div\n      0xffffffffffffffffffffffffffffffffffffffff\n      and\n        /* \"contracts/1_Tictactoe.sol\":1201:1222  player1 != address(0) */\n      0xffffffffffffffffffffffffffffffffffffffff\n      and\n      eq\n      iszero\n        /* \"contracts/1_Tictactoe.sol\":1193:1253  require(player1 != address(0), \"First player hasn't joined\") */\n      tag_48\n      jumpi\n      mload(0x40)\n      0x08c379a000000000000000000000000000000000000000000000000000000000\n      dup2\n      mstore\n      0x04\n      add\n      tag_49\n      swap1\n      tag_50\n      jump\t// in\n    tag_49:\n      mload(0x40)\n      dup1\n      swap2\n      sub\n      swap1\n      revert\n    tag_48:\n        /* \"contracts/1_Tictactoe.sol\":1290:1291  0 */\n      0x00\n        /* \"contracts/1_Tictactoe.sol\":1271:1292  player2 != address(0) */\n      0xffffffffffffffffffffffffffffffffffffffff\n      and\n        /* \"contracts/1_Tictactoe.sol\":1271:1278  player2 */\n      0x01\n      0x00\n      swap1\n      sload\n      swap1\n      0x0100\n      exp\n      swap1\n      div\n      0xffffffffffffffffffffffffffffffffffffffff\n      and\n        /* \"contracts/1_Tictactoe.sol\":1271:1292  player2 != address(0) */\n      0xffffffffffffffffffffffffffffffffffffffff\n      and\n      eq\n      iszero\n        /* \"contracts/1_Tictactoe.sol\":1263:1324  require(player2 != address(0), \"Second player hasn't joined\") */\n      tag_51\n      jumpi\n      mload(0x40)\n      0x08c379a000000000000000000000000000000000000000000000000000000000\n      dup2\n      mstore\n      0x04\n      add\n      tag_52\n      swap1\n      tag_53\n      jump\t// in\n    tag_52:\n      mload(0x40)\n      dup1\n      swap2\n      sub\n      swap1\n      revert\n    tag_51:\n        /* \"contracts/1_Tictactoe.sol\":1352:1367  GameStatus.None */\n      0x03\n        /* \"contracts/1_Tictactoe.sol\":1342:1367  status == GameStatus.None */\n      dup1\n      dup2\n      gt\n      iszero\n      tag_54\n      jumpi\n      tag_55\n      tag_46\n      jump\t// in\n    tag_55:\n    tag_54:\n        /* \"contracts/1_Tictactoe.sol\":1342:1348  status */\n      0x01\n      0x14\n      swap1\n      sload\n      swap1\n      0x0100\n      exp\n      swap1\n      div\n      0xff\n      and\n        /* \"contracts/1_Tictactoe.sol\":1342:1367  status == GameStatus.None */\n      0x03\n      dup2\n      gt\n      iszero\n      tag_56\n      jumpi\n      tag_57\n      tag_46\n      jump\t// in\n    tag_57:\n    tag_56:\n      eq\n        /* \"contracts/1_Tictactoe.sol\":1334:1384  require(status == GameStatus.None, \"Game is over\") */\n      tag_58\n      jumpi\n      mload(0x40)\n      0x08c379a000000000000000000000000000000000000000000000000000000000\n      dup2\n      mstore\n      0x04\n      add\n      tag_59\n      swap1\n      tag_60\n      jump\t// in\n    tag_59:\n      mload(0x40)\n      dup1\n      swap2\n      sub\n      swap1\n      revert\n    tag_58:\n        /* \"contracts/1_Tictactoe.sol\":1413:1414  9 */\n      0x09\n        /* \"contracts/1_Tictactoe.sol\":1402:1410  location */\n      dup2\n        /* \"contracts/1_Tictactoe.sol\":1402:1414  location < 9 */\n      0xff\n      and\n      lt\n        /* \"contracts/1_Tictactoe.sol\":1394:1440  require(location < 9, \"Give a valid location\") */\n      tag_61\n      jumpi\n      mload(0x40)\n      0x08c379a000000000000000000000000000000000000000000000000000000000\n      dup2\n      mstore\n      0x04\n      add\n      tag_62\n      swap1\n      tag_63\n      jump\t// in\n    tag_62:\n      mload(0x40)\n      dup1\n      swap2\n      sub\n      swap1\n      revert\n    tag_61:\n        /* \"contracts/1_Tictactoe.sol\":1472:1490  getCurrentPlayer() */\n      tag_64\n        /* \"contracts/1_Tictactoe.sol\":1472:1488  getCurrentPlayer */\n      tag_65\n        /* \"contracts/1_Tictactoe.sol\":1472:1490  getCurrentPlayer() */\n      jump\t// in\n    tag_64:\n        /* \"contracts/1_Tictactoe.sol\":1458:1490  msg.sender == getCurrentPlayer() */\n      0xffffffffffffffffffffffffffffffffffffffff\n      and\n        /* \"contracts/1_Tictactoe.sol\":1458:1468  msg.sender */\n      caller\n        /* \"contracts/1_Tictactoe.sol\":1458:1490  msg.sender == getCurrentPlayer() */\n      0xffffffffffffffffffffffffffffffffffffffff\n      and\n      eq\n        /* \"contracts/1_Tictactoe.sol\":1450:1513  require(msg.sender == getCurrentPlayer(), \"It's not your turn\") */\n      tag_66\n      jumpi\n      mload(0x40)\n      0x08c379a000000000000000000000000000000000000000000000000000000000\n      dup2\n      mstore\n      0x04\n      add\n      tag_67\n      swap1\n      tag_68\n      jump\t// in\n    tag_67:\n      mload(0x40)\n      dup1\n      swap2\n      sub\n      swap1\n      revert\n    tag_66:\n        /* \"contracts/1_Tictactoe.sol\":1550:1559  Move.None */\n      0x02\n        /* \"contracts/1_Tictactoe.sol\":1531:1559  board[location] == Move.None */\n      dup1\n      dup2\n      gt\n      iszero\n      tag_69\n      jumpi\n      tag_70\n      tag_46\n      jump\t// in\n    tag_70:\n    tag_69:\n        /* \"contracts/1_Tictactoe.sol\":1531:1536  board */\n      0x02\n        /* \"contracts/1_Tictactoe.sol\":1537:1545  location */\n      dup3\n        /* \"contracts/1_Tictactoe.sol\":1531:1546  board[location] */\n      0xff\n      and\n      0x09\n      dup2\n      lt\n      tag_71\n      jumpi\n      tag_72\n      tag_73\n      jump\t// in\n    tag_72:\n    tag_71:\n      0x20\n      swap2\n      dup3\n      dup3\n      div\n      add\n      swap2\n      swap1\n      mod\n      swap1\n      sload\n      swap1\n      0x0100\n      exp\n      swap1\n      div\n      0xff\n      and\n        /* \"contracts/1_Tictactoe.sol\":1531:1559  board[location] == Move.None */\n      0x02\n      dup2\n      gt\n      iszero\n      tag_75\n      jumpi\n      tag_76\n      tag_46\n      jump\t// in\n    tag_76:\n    tag_75:\n      eq\n        /* \"contracts/1_Tictactoe.sol\":1523:1594  require(board[location] == Move.None, \"Someone already made this move\") */\n      tag_77\n      jumpi\n      mload(0x40)\n      0x08c379a000000000000000000000000000000000000000000000000000000000\n      dup2\n      mstore\n      0x04\n      add\n      tag_78\n      swap1\n      tag_79\n      jump\t// in\n    tag_78:\n      mload(0x40)\n      dup1\n      swap2\n      sub\n      swap1\n      revert\n    tag_77:\n        /* \"contracts/1_Tictactoe.sol\":1622:1630  nextMove */\n      0x01\n      0x15\n      swap1\n      sload\n      swap1\n      0x0100\n      exp\n      swap1\n      div\n      0xff\n      and\n        /* \"contracts/1_Tictactoe.sol\":1604:1609  board */\n      0x02\n        /* \"contracts/1_Tictactoe.sol\":1610:1618  location */\n      dup3\n        /* \"contracts/1_Tictactoe.sol\":1604:1619  board[location] */\n      0xff\n      and\n      0x09\n      dup2\n      lt\n      tag_80\n      jumpi\n      tag_81\n      tag_73\n      jump\t// in\n    tag_81:\n    tag_80:\n      0x20\n      swap2\n      dup3\n      dup3\n      div\n      add\n      swap2\n      swap1\n      mod\n        /* \"contracts/1_Tictactoe.sol\":1604:1630  board[location] = nextMove */\n      0x0100\n      exp\n      dup2\n      sload\n      dup2\n      0xff\n      mul\n      not\n      and\n      swap1\n      dup4\n      0x02\n      dup2\n      gt\n      iszero\n      tag_83\n      jumpi\n      tag_84\n      tag_46\n      jump\t// in\n    tag_84:\n    tag_83:\n      mul\n      or\n      swap1\n      sstore\n      pop\n        /* \"contracts/1_Tictactoe.sol\":1144:1637  function move(uint8 location) external {... */\n      pop\n      jump\t// out\n        /* \"contracts/1_Tictactoe.sol\":431:451  Move public nextMove */\n    tag_29:\n      0x01\n      0x15\n      swap1\n      sload\n      swap1\n      0x0100\n      exp\n      swap1\n      div\n      0xff\n      and\n      dup2\n      jump\t// out\n        /* \"contracts/1_Tictactoe.sol\":883:1138  function resetGame() external {... */\n    tag_33:\n        /* \"contracts/1_Tictactoe.sol\":941:956  GameStatus.None */\n      0x03\n        /* \"contracts/1_Tictactoe.sol\":931:956  status != GameStatus.None */\n      dup1\n      dup2\n      gt\n      iszero\n      tag_86\n      jumpi\n      tag_87\n      tag_46\n      jump\t// in\n    tag_87:\n    tag_86:\n        /* \"contracts/1_Tictactoe.sol\":931:937  status */\n      0x01\n      0x14\n      swap1\n      sload\n      swap1\n      0x0100\n      exp\n      swap1\n      div\n      0xff\n      and\n        /* \"contracts/1_Tictactoe.sol\":931:956  status != GameStatus.None */\n      0x03\n      dup2\n      gt\n      iszero\n      tag_88\n      jumpi\n      tag_89\n      tag_46\n      jump\t// in\n    tag_89:\n    tag_88:\n      eq\n      iszero\n        /* \"contracts/1_Tictactoe.sol\":923:982  require(status != GameStatus.None, \"Game is still running\") */\n      tag_90\n      jumpi\n      mload(0x40)\n      0x08c379a000000000000000000000000000000000000000000000000000000000\n      dup2\n      mstore\n      0x04\n      add\n      tag_91\n      swap1\n      tag_92\n      jump\t// in\n    tag_91:\n      mload(0x40)\n      dup1\n      swap2\n      sub\n      swap1\n      revert\n    tag_90:\n        /* \"contracts/1_Tictactoe.sol\":1001:1016  GameStatus.None */\n      0x03\n        /* \"contracts/1_Tictactoe.sol\":992:998  status */\n      0x01\n      0x14\n        /* \"contracts/1_Tictactoe.sol\":992:1016  status = GameStatus.None */\n      0x0100\n      exp\n      dup2\n      sload\n      dup2\n      0xff\n      mul\n      not\n      and\n      swap1\n      dup4\n      0x03\n      dup2\n      gt\n      iszero\n      tag_93\n      jumpi\n      tag_94\n      tag_46\n      jump\t// in\n    tag_94:\n    tag_93:\n      mul\n      or\n      swap1\n      sstore\n      pop\n        /* \"contracts/1_Tictactoe.sol\":1037:1049  Move.Player1 */\n      0x00\n        /* \"contracts/1_Tictactoe.sol\":1026:1034  nextMove */\n      0x01\n      0x15\n        /* \"contracts/1_Tictactoe.sol\":1026:1049  nextMove = Move.Player1 */\n      0x0100\n      exp\n      dup2\n      sload\n      dup2\n      0xff\n      mul\n      not\n      and\n      swap1\n      dup4\n      0x02\n      dup2\n      gt\n      iszero\n      tag_95\n      jumpi\n      tag_96\n      tag_46\n      jump\t// in\n    tag_96:\n    tag_95:\n      mul\n      or\n      swap1\n      sstore\n      pop\n        /* \"contracts/1_Tictactoe.sol\":1077:1078  0 */\n      0x00\n        /* \"contracts/1_Tictactoe.sol\":1059:1066  player1 */\n      dup1\n      0x00\n        /* \"contracts/1_Tictactoe.sol\":1059:1079  player1 = address(0) */\n      0x0100\n      exp\n      dup2\n      sload\n      dup2\n      0xffffffffffffffffffffffffffffffffffffffff\n      mul\n      not\n      and\n      swap1\n      dup4\n      0xffffffffffffffffffffffffffffffffffffffff\n      and\n      mul\n      or\n      swap1\n      sstore\n      pop\n        /* \"contracts/1_Tictactoe.sol\":1107:1108  0 */\n      0x00\n        /* \"contracts/1_Tictactoe.sol\":1089:1096  player2 */\n      0x01\n      0x00\n        /* \"contracts/1_Tictactoe.sol\":1089:1109  player2 = address(0) */\n      0x0100\n      exp\n      dup2\n      sload\n      dup2\n      0xffffffffffffffffffffffffffffffffffffffff\n      mul\n      not\n      and\n      swap1\n      dup4\n      0xffffffffffffffffffffffffffffffffffffffff\n      and\n      mul\n      or\n      swap1\n      sstore\n      pop\n        /* \"contracts/1_Tictactoe.sol\":1126:1131  board */\n      0x02\n      0x00\n        /* \"contracts/1_Tictactoe.sol\":1119:1131  delete board */\n      tag_97\n      swap2\n      swap1\n      tag_98\n      jump\t// in\n    tag_97:\n        /* \"contracts/1_Tictactoe.sol\":883:1138  function resetGame() external {... */\n      jump\t// out\n        /* \"contracts/1_Tictactoe.sol\":339:361  address public player1 */\n    tag_35:\n      0x00\n      dup1\n      sload\n      swap1\n      0x0100\n      exp\n      swap1\n      div\n      0xffffffffffffffffffffffffffffffffffffffff\n      and\n      dup2\n      jump\t// out\n        /* \"contracts/1_Tictactoe.sol\":608:877  function joinGame() external {... */\n    tag_38:\n        /* \"contracts/1_Tictactoe.sol\":674:675  0 */\n      0x00\n        /* \"contracts/1_Tictactoe.sol\":655:676  player1 == address(0) */\n      0xffffffffffffffffffffffffffffffffffffffff\n      and\n        /* \"contracts/1_Tictactoe.sol\":655:662  player1 */\n      0x00\n      dup1\n      sload\n      swap1\n      0x0100\n      exp\n      swap1\n      div\n      0xffffffffffffffffffffffffffffffffffffffff\n      and\n        /* \"contracts/1_Tictactoe.sol\":655:676  player1 == address(0) */\n      0xffffffffffffffffffffffffffffffffffffffff\n      and\n      eq\n        /* \"contracts/1_Tictactoe.sol\":655:701  player1 == address(0) || player2 == address(0) */\n      dup1\n      tag_100\n      jumpi\n      pop\n        /* \"contracts/1_Tictactoe.sol\":699:700  0 */\n      0x00\n        /* \"contracts/1_Tictactoe.sol\":680:701  player2 == address(0) */\n      0xffffffffffffffffffffffffffffffffffffffff\n      and\n        /* \"contracts/1_Tictactoe.sol\":680:687  player2 */\n      0x01\n      0x00\n      swap1\n      sload\n      swap1\n      0x0100\n      exp\n      swap1\n      div\n      0xffffffffffffffffffffffffffffffffffffffff\n      and\n        /* \"contracts/1_Tictactoe.sol\":680:701  player2 == address(0) */\n      0xffffffffffffffffffffffffffffffffffffffff\n      and\n      eq\n        /* \"contracts/1_Tictactoe.sol\":655:701  player1 == address(0) || player2 == address(0) */\n    tag_100:\n        /* \"contracts/1_Tictactoe.sol\":647:734  require(player1 == address(0) || player2 == address(0), \"Game is full, wait your turn\") */\n      tag_101\n      jumpi\n      mload(0x40)\n      0x08c379a000000000000000000000000000000000000000000000000000000000\n      dup2\n      mstore\n      0x04\n      add\n      tag_102\n      swap1\n      tag_103\n      jump\t// in\n    tag_102:\n      mload(0x40)\n      dup1\n      swap2\n      sub\n      swap1\n      revert\n    tag_101:\n        /* \"contracts/1_Tictactoe.sol\":767:768  0 */\n      0x00\n        /* \"contracts/1_Tictactoe.sol\":748:769  player1 == address(0) */\n      0xffffffffffffffffffffffffffffffffffffffff\n      and\n        /* \"contracts/1_Tictactoe.sol\":748:755  player1 */\n      0x00\n      dup1\n      sload\n      swap1\n      0x0100\n      exp\n      swap1\n      div\n      0xffffffffffffffffffffffffffffffffffffffff\n      and\n        /* \"contracts/1_Tictactoe.sol\":748:769  player1 == address(0) */\n      0xffffffffffffffffffffffffffffffffffffffff\n      and\n      eq\n        /* \"contracts/1_Tictactoe.sol\":744:871  if (player1 == address(0)) {... */\n      iszero\n      tag_104\n      jumpi\n        /* \"contracts/1_Tictactoe.sol\":795:805  msg.sender */\n      caller\n        /* \"contracts/1_Tictactoe.sol\":785:792  player1 */\n      0x00\n      dup1\n        /* \"contracts/1_Tictactoe.sol\":785:805  player1 = msg.sender */\n      0x0100\n      exp\n      dup2\n      sload\n      dup2\n      0xffffffffffffffffffffffffffffffffffffffff\n      mul\n      not\n      and\n      swap1\n      dup4\n      0xffffffffffffffffffffffffffffffffffffffff\n      and\n      mul\n      or\n      swap1\n      sstore\n      pop\n        /* \"contracts/1_Tictactoe.sol\":744:871  if (player1 == address(0)) {... */\n      jump(tag_105)\n    tag_104:\n        /* \"contracts/1_Tictactoe.sol\":846:856  msg.sender */\n      caller\n        /* \"contracts/1_Tictactoe.sol\":836:843  player2 */\n      0x01\n      0x00\n        /* \"contracts/1_Tictactoe.sol\":836:856  player2 = msg.sender */\n      0x0100\n      exp\n      dup2\n      sload\n      dup2\n      0xffffffffffffffffffffffffffffffffffffffff\n      mul\n      not\n      and\n      swap1\n      dup4\n      0xffffffffffffffffffffffffffffffffffffffff\n      and\n      mul\n      or\n      swap1\n      sstore\n      pop\n        /* \"contracts/1_Tictactoe.sol\":744:871  if (player1 == address(0)) {... */\n    tag_105:\n        /* \"contracts/1_Tictactoe.sol\":608:877  function joinGame() external {... */\n      jump\t// out\n        /* \"contracts/1_Tictactoe.sol\":1751:2007  function getCurrentPlayer() private view returns (address player) {... */\n    tag_65:\n        /* \"contracts/1_Tictactoe.sol\":1801:1815  address player */\n      0x00\n        /* \"contracts/1_Tictactoe.sol\":1843:1855  Move.Player1 */\n      dup1\n        /* \"contracts/1_Tictactoe.sol\":1831:1855  nextMove == Move.Player1 */\n      0x02\n      dup2\n      gt\n      iszero\n      tag_107\n      jumpi\n      tag_108\n      tag_46\n      jump\t// in\n    tag_108:\n    tag_107:\n        /* \"contracts/1_Tictactoe.sol\":1831:1839  nextMove */\n      0x01\n      0x15\n      swap1\n      sload\n      swap1\n      0x0100\n      exp\n      swap1\n      div\n      0xff\n      and\n        /* \"contracts/1_Tictactoe.sol\":1831:1855  nextMove == Move.Player1 */\n      0x02\n      dup2\n      gt\n      iszero\n      tag_109\n      jumpi\n      tag_110\n      tag_46\n      jump\t// in\n    tag_110:\n    tag_109:\n      eq\n        /* \"contracts/1_Tictactoe.sol\":1827:1896  if (nextMove == Move.Player1) {... */\n      iszero\n      tag_111\n      jumpi\n        /* \"contracts/1_Tictactoe.sol\":1878:1885  player1 */\n      0x00\n      dup1\n      sload\n      swap1\n      0x0100\n      exp\n      swap1\n      div\n      0xffffffffffffffffffffffffffffffffffffffff\n      and\n        /* \"contracts/1_Tictactoe.sol\":1871:1885  return player1 */\n      swap1\n      pop\n      jump(tag_106)\n        /* \"contracts/1_Tictactoe.sol\":1827:1896  if (nextMove == Move.Player1) {... */\n    tag_111:\n        /* \"contracts/1_Tictactoe.sol\":1921:1933  Move.Player2 */\n      0x01\n        /* \"contracts/1_Tictactoe.sol\":1909:1933  nextMove == Move.Player2 */\n      0x02\n      dup2\n      gt\n      iszero\n      tag_112\n      jumpi\n      tag_113\n      tag_46\n      jump\t// in\n    tag_113:\n    tag_112:\n        /* \"contracts/1_Tictactoe.sol\":1909:1917  nextMove */\n      0x01\n      0x15\n      swap1\n      sload\n      swap1\n      0x0100\n      exp\n      swap1\n      div\n      0xff\n      and\n        /* \"contracts/1_Tictactoe.sol\":1909:1933  nextMove == Move.Player2 */\n      0x02\n      dup2\n      gt\n      iszero\n      tag_114\n      jumpi\n      tag_115\n      tag_46\n      jump\t// in\n    tag_115:\n    tag_114:\n      eq\n        /* \"contracts/1_Tictactoe.sol\":1905:1974  if (nextMove == Move.Player2) {... */\n      iszero\n      tag_116\n      jumpi\n        /* \"contracts/1_Tictactoe.sol\":1956:1963  player2 */\n      0x01\n      0x00\n      swap1\n      sload\n      swap1\n      0x0100\n      exp\n      swap1\n      div\n      0xffffffffffffffffffffffffffffffffffffffff\n      and\n        /* \"contracts/1_Tictactoe.sol\":1949:1963  return player2 */\n      swap1\n      pop\n      jump(tag_106)\n        /* \"contracts/1_Tictactoe.sol\":1905:1974  if (nextMove == Move.Player2) {... */\n    tag_116:\n        /* \"contracts/1_Tictactoe.sol\":1998:1999  0 */\n      0x00\n        /* \"contracts/1_Tictactoe.sol\":1983:2000  return address(0) */\n      swap1\n      pop\n        /* \"contracts/1_Tictactoe.sol\":1751:2007  function getCurrentPlayer() private view returns (address player) {... */\n    tag_106:\n      swap1\n      jump\t// out\n    tag_40:\n      mload(0x40)\n      dup1\n      0x0120\n      add\n      0x40\n      mstore\n      dup1\n      0x09\n      swap1\n      0x20\n      dup3\n      mul\n      dup1\n      calldatasize\n      dup4\n      calldatacopy\n      dup1\n      dup3\n      add\n      swap2\n      pop\n      pop\n      swap1\n      pop\n      pop\n      swap1\n      jump\t// out\n    tag_98:\n      pop\n      0x00\n      swap1\n      sstore\n      jump\t// out\n        /* \"#utility.yul\":7:142   */\n    tag_118:\n        /* \"#utility.yul\":51:56   */\n      0x00\n        /* \"#utility.yul\":89:95   */\n      dup2\n        /* \"#utility.yul\":76:96   */\n      calldataload\n        /* \"#utility.yul\":67:96   */\n      swap1\n      pop\n        /* \"#utility.yul\":105:136   */\n      tag_120\n        /* \"#utility.yul\":130:135   */\n      dup2\n        /* \"#utility.yul\":105:136   */\n      tag_121\n      jump\t// in\n    tag_120:\n        /* \"#utility.yul\":7:142   */\n      swap3\n      swap2\n      pop\n      pop\n      jump\t// out\n        /* \"#utility.yul\":148:473   */\n    tag_26:\n        /* \"#utility.yul\":205:211   */\n      0x00\n        /* \"#utility.yul\":254:256   */\n      0x20\n        /* \"#utility.yul\":242:251   */\n      dup3\n        /* \"#utility.yul\":233:240   */\n      dup5\n        /* \"#utility.yul\":229:252   */\n      sub\n        /* \"#utility.yul\":225:257   */\n      slt\n        /* \"#utility.yul\":222:341   */\n      iszero\n      tag_123\n      jumpi\n        /* \"#utility.yul\":260:339   */\n      tag_124\n      tag_125\n      jump\t// in\n    tag_124:\n        /* \"#utility.yul\":222:341   */\n    tag_123:\n        /* \"#utility.yul\":380:381   */\n      0x00\n        /* \"#utility.yul\":405:456   */\n      tag_126\n        /* \"#utility.yul\":448:455   */\n      dup5\n        /* \"#utility.yul\":439:445   */\n      dup3\n        /* \"#utility.yul\":428:437   */\n      dup6\n        /* \"#utility.yul\":424:446   */\n      add\n        /* \"#utility.yul\":405:456   */\n      tag_118\n      jump\t// in\n    tag_126:\n        /* \"#utility.yul\":395:456   */\n      swap2\n      pop\n        /* \"#utility.yul\":351:466   */\n      pop\n        /* \"#utility.yul\":148:473   */\n      swap3\n      swap2\n      pop\n      pop\n      jump\t// out\n        /* \"#utility.yul\":479:666   */\n    tag_127:\n        /* \"#utility.yul\":552:562   */\n      0x00\n        /* \"#utility.yul\":573:623   */\n      tag_129\n        /* \"#utility.yul\":619:622   */\n      dup4\n        /* \"#utility.yul\":611:617   */\n      dup4\n        /* \"#utility.yul\":573:623   */\n      tag_130\n      jump\t// in\n    tag_129:\n        /* \"#utility.yul\":655:659   */\n      0x20\n        /* \"#utility.yul\":650:653   */\n      dup4\n        /* \"#utility.yul\":646:660   */\n      add\n        /* \"#utility.yul\":632:660   */\n      swap1\n      pop\n        /* \"#utility.yul\":479:666   */\n      swap3\n      swap2\n      pop\n      pop\n      jump\t// out\n        /* \"#utility.yul\":672:790   */\n    tag_131:\n        /* \"#utility.yul\":759:783   */\n      tag_133\n        /* \"#utility.yul\":777:782   */\n      dup2\n        /* \"#utility.yul\":759:783   */\n      tag_134\n      jump\t// in\n    tag_133:\n        /* \"#utility.yul\":754:757   */\n      dup3\n        /* \"#utility.yul\":747:784   */\n      mstore\n        /* \"#utility.yul\":672:790   */\n      pop\n      pop\n      jump\t// out\n        /* \"#utility.yul\":838:1556   */\n    tag_135:\n        /* \"#utility.yul\":978:1036   */\n      tag_137\n        /* \"#utility.yul\":1030:1035   */\n      dup2\n        /* \"#utility.yul\":978:1036   */\n      tag_138\n      jump\t// in\n    tag_137:\n        /* \"#utility.yul\":1052:1134   */\n      tag_139\n        /* \"#utility.yul\":1127:1133   */\n      dup2\n        /* \"#utility.yul\":1122:1125   */\n      dup5\n        /* \"#utility.yul\":1052:1134   */\n      tag_140\n      jump\t// in\n    tag_139:\n        /* \"#utility.yul\":1045:1134   */\n      swap3\n      pop\n        /* \"#utility.yul\":1158:1218   */\n      tag_141\n        /* \"#utility.yul\":1212:1217   */\n      dup3\n        /* \"#utility.yul\":1158:1218   */\n      tag_142\n      jump\t// in\n    tag_141:\n        /* \"#utility.yul\":1241:1248   */\n      dup1\n        /* \"#utility.yul\":1272:1273   */\n      0x00\n        /* \"#utility.yul\":1257:1549   */\n    tag_143:\n        /* \"#utility.yul\":1282:1288   */\n      dup4\n        /* \"#utility.yul\":1279:1280   */\n      dup2\n        /* \"#utility.yul\":1276:1289   */\n      lt\n        /* \"#utility.yul\":1257:1549   */\n      iszero\n      tag_145\n      jumpi\n        /* \"#utility.yul\":1358:1364   */\n      dup2\n        /* \"#utility.yul\":1352:1365   */\n      mload\n        /* \"#utility.yul\":1385:1452   */\n      tag_146\n        /* \"#utility.yul\":1448:1451   */\n      dup8\n        /* \"#utility.yul\":1433:1446   */\n      dup3\n        /* \"#utility.yul\":1385:1452   */\n      tag_127\n      jump\t// in\n    tag_146:\n        /* \"#utility.yul\":1378:1452   */\n      swap7\n      pop\n        /* \"#utility.yul\":1475:1539   */\n      tag_147\n        /* \"#utility.yul\":1532:1538   */\n      dup4\n        /* \"#utility.yul\":1475:1539   */\n      tag_148\n      jump\t// in\n    tag_147:\n        /* \"#utility.yul\":1465:1539   */\n      swap3\n      pop\n        /* \"#utility.yul\":1317:1549   */\n      pop\n        /* \"#utility.yul\":1304:1305   */\n      0x01\n        /* \"#utility.yul\":1301:1302   */\n      dup2\n        /* \"#utility.yul\":1297:1306   */\n      add\n        /* \"#utility.yul\":1292:1306   */\n      swap1\n      pop\n        /* \"#utility.yul\":1257:1549   */\n      jump(tag_143)\n    tag_145:\n        /* \"#utility.yul\":1261:1275   */\n      pop\n        /* \"#utility.yul\":954:1556   */\n      pop\n      pop\n      pop\n        /* \"#utility.yul\":838:1556   */\n      pop\n      pop\n      jump\t// out\n        /* \"#utility.yul\":1562:1715   */\n    tag_149:\n        /* \"#utility.yul\":1660:1708   */\n      tag_151\n        /* \"#utility.yul\":1702:1707   */\n      dup2\n        /* \"#utility.yul\":1660:1708   */\n      tag_152\n      jump\t// in\n    tag_151:\n        /* \"#utility.yul\":1655:1658   */\n      dup3\n        /* \"#utility.yul\":1648:1709   */\n      mstore\n        /* \"#utility.yul\":1562:1715   */\n      pop\n      pop\n      jump\t// out\n        /* \"#utility.yul\":1721:1850   */\n    tag_130:\n        /* \"#utility.yul\":1802:1843   */\n      tag_154\n        /* \"#utility.yul\":1837:1842   */\n      dup2\n        /* \"#utility.yul\":1802:1843   */\n      tag_155\n      jump\t// in\n    tag_154:\n        /* \"#utility.yul\":1797:1800   */\n      dup3\n        /* \"#utility.yul\":1790:1844   */\n      mstore\n        /* \"#utility.yul\":1721:1850   */\n      pop\n      pop\n      jump\t// out\n        /* \"#utility.yul\":1856:1995   */\n    tag_156:\n        /* \"#utility.yul\":1947:1988   */\n      tag_158\n        /* \"#utility.yul\":1982:1987   */\n      dup2\n        /* \"#utility.yul\":1947:1988   */\n      tag_155\n      jump\t// in\n    tag_158:\n        /* \"#utility.yul\":1942:1945   */\n      dup3\n        /* \"#utility.yul\":1935:1989   */\n      mstore\n        /* \"#utility.yul\":1856:1995   */\n      pop\n      pop\n      jump\t// out\n        /* \"#utility.yul\":2001:2367   */\n    tag_159:\n        /* \"#utility.yul\":2143:2146   */\n      0x00\n        /* \"#utility.yul\":2164:2231   */\n      tag_161\n        /* \"#utility.yul\":2228:2230   */\n      0x15\n        /* \"#utility.yul\":2223:2226   */\n      dup4\n        /* \"#utility.yul\":2164:2231   */\n      tag_162\n      jump\t// in\n    tag_161:\n        /* \"#utility.yul\":2157:2231   */\n      swap2\n      pop\n        /* \"#utility.yul\":2240:2333   */\n      tag_163\n        /* \"#utility.yul\":2329:2332   */\n      dup3\n        /* \"#utility.yul\":2240:2333   */\n      tag_164\n      jump\t// in\n    tag_163:\n        /* \"#utility.yul\":2358:2360   */\n      0x20\n        /* \"#utility.yul\":2353:2356   */\n      dup3\n        /* \"#utility.yul\":2349:2361   */\n      add\n        /* \"#utility.yul\":2342:2361   */\n      swap1\n      pop\n        /* \"#utility.yul\":2001:2367   */\n      swap2\n      swap1\n      pop\n      jump\t// out\n        /* \"#utility.yul\":2373:2739   */\n    tag_165:\n        /* \"#utility.yul\":2515:2518   */\n      0x00\n        /* \"#utility.yul\":2536:2603   */\n      tag_167\n        /* \"#utility.yul\":2600:2602   */\n      0x15\n        /* \"#utility.yul\":2595:2598   */\n      dup4\n        /* \"#utility.yul\":2536:2603   */\n      tag_162\n      jump\t// in\n    tag_167:\n        /* \"#utility.yul\":2529:2603   */\n      swap2\n      pop\n        /* \"#utility.yul\":2612:2705   */\n      tag_168\n        /* \"#utility.yul\":2701:2704   */\n      dup3\n        /* \"#utility.yul\":2612:2705   */\n      tag_169\n      jump\t// in\n    tag_168:\n        /* \"#utility.yul\":2730:2732   */\n      0x20\n        /* \"#utility.yul\":2725:2728   */\n      dup3\n        /* \"#utility.yul\":2721:2733   */\n      add\n        /* \"#utility.yul\":2714:2733   */\n      swap1\n      pop\n        /* \"#utility.yul\":2373:2739   */\n      swap2\n      swap1\n      pop\n      jump\t// out\n        /* \"#utility.yul\":2745:3111   */\n    tag_170:\n        /* \"#utility.yul\":2887:2890   */\n      0x00\n        /* \"#utility.yul\":2908:2975   */\n      tag_172\n        /* \"#utility.yul\":2972:2974   */\n      0x1c\n        /* \"#utility.yul\":2967:2970   */\n      dup4\n        /* \"#utility.yul\":2908:2975   */\n      tag_162\n      jump\t// in\n    tag_172:\n        /* \"#utility.yul\":2901:2975   */\n      swap2\n      pop\n        /* \"#utility.yul\":2984:3077   */\n      tag_173\n        /* \"#utility.yul\":3073:3076   */\n      dup3\n        /* \"#utility.yul\":2984:3077   */\n      tag_174\n      jump\t// in\n    tag_173:\n        /* \"#utility.yul\":3102:3104   */\n      0x20\n        /* \"#utility.yul\":3097:3100   */\n      dup3\n        /* \"#utility.yul\":3093:3105   */\n      add\n        /* \"#utility.yul\":3086:3105   */\n      swap1\n      pop\n        /* \"#utility.yul\":2745:3111   */\n      swap2\n      swap1\n      pop\n      jump\t// out\n        /* \"#utility.yul\":3117:3483   */\n    tag_175:\n        /* \"#utility.yul\":3259:3262   */\n      0x00\n        /* \"#utility.yul\":3280:3347   */\n      tag_177\n        /* \"#utility.yul\":3344:3346   */\n      0x12\n        /* \"#utility.yul\":3339:3342   */\n      dup4\n        /* \"#utility.yul\":3280:3347   */\n      tag_162\n      jump\t// in\n    tag_177:\n        /* \"#utility.yul\":3273:3347   */\n      swap2\n      pop\n        /* \"#utility.yul\":3356:3449   */\n      tag_178\n        /* \"#utility.yul\":3445:3448   */\n      dup3\n        /* \"#utility.yul\":3356:3449   */\n      tag_179\n      jump\t// in\n    tag_178:\n        /* \"#utility.yul\":3474:3476   */\n      0x20\n        /* \"#utility.yul\":3469:3472   */\n      dup3\n        /* \"#utility.yul\":3465:3477   */\n      add\n        /* \"#utility.yul\":3458:3477   */\n      swap1\n      pop\n        /* \"#utility.yul\":3117:3483   */\n      swap2\n      swap1\n      pop\n      jump\t// out\n        /* \"#utility.yul\":3489:3855   */\n    tag_180:\n        /* \"#utility.yul\":3631:3634   */\n      0x00\n        /* \"#utility.yul\":3652:3719   */\n      tag_182\n        /* \"#utility.yul\":3716:3718   */\n      0x0c\n        /* \"#utility.yul\":3711:3714   */\n      dup4\n        /* \"#utility.yul\":3652:3719   */\n      tag_162\n      jump\t// in\n    tag_182:\n        /* \"#utility.yul\":3645:3719   */\n      swap2\n      pop\n        /* \"#utility.yul\":3728:3821   */\n      tag_183\n        /* \"#utility.yul\":3817:3820   */\n      dup3\n        /* \"#utility.yul\":3728:3821   */\n      tag_184\n      jump\t// in\n    tag_183:\n        /* \"#utility.yul\":3846:3848   */\n      0x20\n        /* \"#utility.yul\":3841:3844   */\n      dup3\n        /* \"#utility.yul\":3837:3849   */\n      add\n        /* \"#utility.yul\":3830:3849   */\n      swap1\n      pop\n        /* \"#utility.yul\":3489:3855   */\n      swap2\n      swap1\n      pop\n      jump\t// out\n        /* \"#utility.yul\":3861:4227   */\n    tag_185:\n        /* \"#utility.yul\":4003:4006   */\n      0x00\n        /* \"#utility.yul\":4024:4091   */\n      tag_187\n        /* \"#utility.yul\":4088:4090   */\n      0x1a\n        /* \"#utility.yul\":4083:4086   */\n      dup4\n        /* \"#utility.yul\":4024:4091   */\n      tag_162\n      jump\t// in\n    tag_187:\n        /* \"#utility.yul\":4017:4091   */\n      swap2\n      pop\n        /* \"#utility.yul\":4100:4193   */\n      tag_188\n        /* \"#utility.yul\":4189:4192   */\n      dup3\n        /* \"#utility.yul\":4100:4193   */\n      tag_189\n      jump\t// in\n    tag_188:\n        /* \"#utility.yul\":4218:4220   */\n      0x20\n        /* \"#utility.yul\":4213:4216   */\n      dup3\n        /* \"#utility.yul\":4209:4221   */\n      add\n        /* \"#utility.yul\":4202:4221   */\n      swap1\n      pop\n        /* \"#utility.yul\":3861:4227   */\n      swap2\n      swap1\n      pop\n      jump\t// out\n        /* \"#utility.yul\":4233:4599   */\n    tag_190:\n        /* \"#utility.yul\":4375:4378   */\n      0x00\n        /* \"#utility.yul\":4396:4463   */\n      tag_192\n        /* \"#utility.yul\":4460:4462   */\n      0x1b\n        /* \"#utility.yul\":4455:4458   */\n      dup4\n        /* \"#utility.yul\":4396:4463   */\n      tag_162\n      jump\t// in\n    tag_192:\n        /* \"#utility.yul\":4389:4463   */\n      swap2\n      pop\n        /* \"#utility.yul\":4472:4565   */\n      tag_193\n        /* \"#utility.yul\":4561:4564   */\n      dup3\n        /* \"#utility.yul\":4472:4565   */\n      tag_194\n      jump\t// in\n    tag_193:\n        /* \"#utility.yul\":4590:4592   */\n      0x20\n        /* \"#utility.yul\":4585:4588   */\n      dup3\n        /* \"#utility.yul\":4581:4593   */\n      add\n        /* \"#utility.yul\":4574:4593   */\n      swap1\n      pop\n        /* \"#utility.yul\":4233:4599   */\n      swap2\n      swap1\n      pop\n      jump\t// out\n        /* \"#utility.yul\":4605:4971   */\n    tag_195:\n        /* \"#utility.yul\":4747:4750   */\n      0x00\n        /* \"#utility.yul\":4768:4835   */\n      tag_197\n        /* \"#utility.yul\":4832:4834   */\n      0x1e\n        /* \"#utility.yul\":4827:4830   */\n      dup4\n        /* \"#utility.yul\":4768:4835   */\n      tag_162\n      jump\t// in\n    tag_197:\n        /* \"#utility.yul\":4761:4835   */\n      swap2\n      pop\n        /* \"#utility.yul\":4844:4937   */\n      tag_198\n        /* \"#utility.yul\":4933:4936   */\n      dup3\n        /* \"#utility.yul\":4844:4937   */\n      tag_199\n      jump\t// in\n    tag_198:\n        /* \"#utility.yul\":4962:4964   */\n      0x20\n        /* \"#utility.yul\":4957:4960   */\n      dup3\n        /* \"#utility.yul\":4953:4965   */\n      add\n        /* \"#utility.yul\":4946:4965   */\n      swap1\n      pop\n        /* \"#utility.yul\":4605:4971   */\n      swap2\n      swap1\n      pop\n      jump\t// out\n        /* \"#utility.yul\":4977:5199   */\n    tag_23:\n        /* \"#utility.yul\":5070:5074   */\n      0x00\n        /* \"#utility.yul\":5108:5110   */\n      0x20\n        /* \"#utility.yul\":5097:5106   */\n      dup3\n        /* \"#utility.yul\":5093:5111   */\n      add\n        /* \"#utility.yul\":5085:5111   */\n      swap1\n      pop\n        /* \"#utility.yul\":5121:5192   */\n      tag_201\n        /* \"#utility.yul\":5189:5190   */\n      0x00\n        /* \"#utility.yul\":5178:5187   */\n      dup4\n        /* \"#utility.yul\":5174:5191   */\n      add\n        /* \"#utility.yul\":5165:5171   */\n      dup5\n        /* \"#utility.yul\":5121:5192   */\n      tag_131\n      jump\t// in\n    tag_201:\n        /* \"#utility.yul\":4977:5199   */\n      swap3\n      swap2\n      pop\n      pop\n      jump\t// out\n        /* \"#utility.yul\":5205:5528   */\n    tag_19:\n        /* \"#utility.yul\":5348:5352   */\n      0x00\n        /* \"#utility.yul\":5386:5389   */\n      0x0120\n        /* \"#utility.yul\":5375:5384   */\n      dup3\n        /* \"#utility.yul\":5371:5390   */\n      add\n        /* \"#utility.yul\":5363:5390   */\n      swap1\n      pop\n        /* \"#utility.yul\":5400:5521   */\n      tag_203\n        /* \"#utility.yul\":5518:5519   */\n      0x00\n        /* \"#utility.yul\":5507:5516   */\n      dup4\n        /* \"#utility.yul\":5503:5520   */\n      add\n        /* \"#utility.yul\":5494:5500   */\n      dup5\n        /* \"#utility.yul\":5400:5521   */\n      tag_135\n      jump\t// in\n    tag_203:\n        /* \"#utility.yul\":5205:5528   */\n      swap3\n      swap2\n      pop\n      pop\n      jump\t// out\n        /* \"#utility.yul\":5534:5778   */\n    tag_15:\n        /* \"#utility.yul\":5638:5642   */\n      0x00\n        /* \"#utility.yul\":5676:5678   */\n      0x20\n        /* \"#utility.yul\":5665:5674   */\n      dup3\n        /* \"#utility.yul\":5661:5679   */\n      add\n        /* \"#utility.yul\":5653:5679   */\n      swap1\n      pop\n        /* \"#utility.yul\":5689:5771   */\n      tag_205\n        /* \"#utility.yul\":5768:5769   */\n      0x00\n        /* \"#utility.yul\":5757:5766   */\n      dup4\n        /* \"#utility.yul\":5753:5770   */\n      add\n        /* \"#utility.yul\":5744:5750   */\n      dup5\n        /* \"#utility.yul\":5689:5771   */\n      tag_149\n      jump\t// in\n    tag_205:\n        /* \"#utility.yul\":5534:5778   */\n      swap3\n      swap2\n      pop\n      pop\n      jump\t// out\n        /* \"#utility.yul\":5784:6014   */\n    tag_31:\n        /* \"#utility.yul\":5881:5885   */\n      0x00\n        /* \"#utility.yul\":5919:5921   */\n      0x20\n        /* \"#utility.yul\":5908:5917   */\n      dup3\n        /* \"#utility.yul\":5904:5922   */\n      add\n        /* \"#utility.yul\":5896:5922   */\n      swap1\n      pop\n        /* \"#utility.yul\":5932:6007   */\n      tag_207\n        /* \"#utility.yul\":6004:6005   */\n      0x00\n        /* \"#utility.yul\":5993:6002   */\n      dup4\n        /* \"#utility.yul\":5989:6006   */\n      add\n        /* \"#utility.yul\":5980:5986   */\n      dup5\n        /* \"#utility.yul\":5932:6007   */\n      tag_156\n      jump\t// in\n    tag_207:\n        /* \"#utility.yul\":5784:6014   */\n      swap3\n      swap2\n      pop\n      pop\n      jump\t// out\n        /* \"#utility.yul\":6020:6439   */\n    tag_63:\n        /* \"#utility.yul\":6186:6190   */\n      0x00\n        /* \"#utility.yul\":6224:6226   */\n      0x20\n        /* \"#utility.yul\":6213:6222   */\n      dup3\n        /* \"#utility.yul\":6209:6227   */\n      add\n        /* \"#utility.yul\":6201:6227   */\n      swap1\n      pop\n        /* \"#utility.yul\":6273:6282   */\n      dup2\n        /* \"#utility.yul\":6267:6271   */\n      dup2\n        /* \"#utility.yul\":6263:6283   */\n      sub\n        /* \"#utility.yul\":6259:6260   */\n      0x00\n        /* \"#utility.yul\":6248:6257   */\n      dup4\n        /* \"#utility.yul\":6244:6261   */\n      add\n        /* \"#utility.yul\":6237:6284   */\n      mstore\n        /* \"#utility.yul\":6301:6432   */\n      tag_209\n        /* \"#utility.yul\":6427:6431   */\n      dup2\n        /* \"#utility.yul\":6301:6432   */\n      tag_159\n      jump\t// in\n    tag_209:\n        /* \"#utility.yul\":6293:6432   */\n      swap1\n      pop\n        /* \"#utility.yul\":6020:6439   */\n      swap2\n      swap1\n      pop\n      jump\t// out\n        /* \"#utility.yul\":6445:6864   */\n    tag_92:\n        /* \"#utility.yul\":6611:6615   */\n      0x00\n        /* \"#utility.yul\":6649:6651   */\n      0x20\n        /* \"#utility.yul\":6638:6647   */\n      dup3\n        /* \"#utility.yul\":6634:6652   */\n      add\n        /* \"#utility.yul\":6626:6652   */\n      swap1\n      pop\n        /* \"#utility.yul\":6698:6707   */\n      dup2\n        /* \"#utility.yul\":6692:6696   */\n      dup2\n        /* \"#utility.yul\":6688:6708   */\n      sub\n        /* \"#utility.yul\":6684:6685   */\n      0x00\n        /* \"#utility.yul\":6673:6682   */\n      dup4\n        /* \"#utility.yul\":6669:6686   */\n      add\n        /* \"#utility.yul\":6662:6709   */\n      mstore\n        /* \"#utility.yul\":6726:6857   */\n      tag_211\n        /* \"#utility.yul\":6852:6856   */\n      dup2\n        /* \"#utility.yul\":6726:6857   */\n      tag_165\n      jump\t// in\n    tag_211:\n        /* \"#utility.yul\":6718:6857   */\n      swap1\n      pop\n        /* \"#utility.yul\":6445:6864   */\n      swap2\n      swap1\n      pop\n      jump\t// out\n        /* \"#utility.yul\":6870:7289   */\n    tag_103:\n        /* \"#utility.yul\":7036:7040   */\n      0x00\n        /* \"#utility.yul\":7074:7076   */\n      0x20\n        /* \"#utility.yul\":7063:7072   */\n      dup3\n        /* \"#utility.yul\":7059:7077   */\n      add\n        /* \"#utility.yul\":7051:7077   */\n      swap1\n      pop\n        /* \"#utility.yul\":7123:7132   */\n      dup2\n        /* \"#utility.yul\":7117:7121   */\n      dup2\n        /* \"#utility.yul\":7113:7133   */\n      sub\n        /* \"#utility.yul\":7109:7110   */\n      0x00\n        /* \"#utility.yul\":7098:7107   */\n      dup4\n        /* \"#utility.yul\":7094:7111   */\n      add\n        /* \"#utility.yul\":7087:7134   */\n      mstore\n        /* \"#utility.yul\":7151:7282   */\n      tag_213\n        /* \"#utility.yul\":7277:7281   */\n      dup2\n        /* \"#utility.yul\":7151:7282   */\n      tag_170\n      jump\t// in\n    tag_213:\n        /* \"#utility.yul\":7143:7282   */\n      swap1\n      pop\n        /* \"#utility.yul\":6870:7289   */\n      swap2\n      swap1\n      pop\n      jump\t// out\n        /* \"#utility.yul\":7295:7714   */\n    tag_68:\n        /* \"#utility.yul\":7461:7465   */\n      0x00\n        /* \"#utility.yul\":7499:7501   */\n      0x20\n        /* \"#utility.yul\":7488:7497   */\n      dup3\n        /* \"#utility.yul\":7484:7502   */\n      add\n        /* \"#utility.yul\":7476:7502   */\n      swap1\n      pop\n        /* \"#utility.yul\":7548:7557   */\n      dup2\n        /* \"#utility.yul\":7542:7546   */\n      dup2\n        /* \"#utility.yul\":7538:7558   */\n      sub\n        /* \"#utility.yul\":7534:7535   */\n      0x00\n        /* \"#utility.yul\":7523:7532   */\n      dup4\n        /* \"#utility.yul\":7519:7536   */\n      add\n        /* \"#utility.yul\":7512:7559   */\n      mstore\n        /* \"#utility.yul\":7576:7707   */\n      tag_215\n        /* \"#utility.yul\":7702:7706   */\n      dup2\n        /* \"#utility.yul\":7576:7707   */\n      tag_175\n      jump\t// in\n    tag_215:\n        /* \"#utility.yul\":7568:7707   */\n      swap1\n      pop\n        /* \"#utility.yul\":7295:7714   */\n      swap2\n      swap1\n      pop\n      jump\t// out\n        /* \"#utility.yul\":7720:8139   */\n    tag_60:\n        /* \"#utility.yul\":7886:7890   */\n      0x00\n        /* \"#utility.yul\":7924:7926   */\n      0x20\n        /* \"#utility.yul\":7913:7922   */\n      dup3\n        /* \"#utility.yul\":7909:7927   */\n      add\n        /* \"#utility.yul\":7901:7927   */\n      swap1\n      pop\n        /* \"#utility.yul\":7973:7982   */\n      dup2\n        /* \"#utility.yul\":7967:7971   */\n      dup2\n        /* \"#utility.yul\":7963:7983   */\n      sub\n        /* \"#utility.yul\":7959:7960   */\n      0x00\n        /* \"#utility.yul\":7948:7957   */\n      dup4\n        /* \"#utility.yul\":7944:7961   */\n      add\n        /* \"#utility.yul\":7937:7984   */\n      mstore\n        /* \"#utility.yul\":8001:8132   */\n      tag_217\n        /* \"#utility.yul\":8127:8131   */\n      dup2\n        /* \"#utility.yul\":8001:8132   */\n      tag_180\n      jump\t// in\n    tag_217:\n        /* \"#utility.yul\":7993:8132   */\n      swap1\n      pop\n        /* \"#utility.yul\":7720:8139   */\n      swap2\n      swap1\n      pop\n      jump\t// out\n        /* \"#utility.yul\":8145:8564   */\n    tag_50:\n        /* \"#utility.yul\":8311:8315   */\n      0x00\n        /* \"#utility.yul\":8349:8351   */\n      0x20\n        /* \"#utility.yul\":8338:8347   */\n      dup3\n        /* \"#utility.yul\":8334:8352   */\n      add\n        /* \"#utility.yul\":8326:8352   */\n      swap1\n      pop\n        /* \"#utility.yul\":8398:8407   */\n      dup2\n        /* \"#utility.yul\":8392:8396   */\n      dup2\n        /* \"#utility.yul\":8388:8408   */\n      sub\n        /* \"#utility.yul\":8384:8385   */\n      0x00\n        /* \"#utility.yul\":8373:8382   */\n      dup4\n        /* \"#utility.yul\":8369:8386   */\n      add\n        /* \"#utility.yul\":8362:8409   */\n      mstore\n        /* \"#utility.yul\":8426:8557   */\n      tag_219\n        /* \"#utility.yul\":8552:8556   */\n      dup2\n        /* \"#utility.yul\":8426:8557   */\n      tag_185\n      jump\t// in\n    tag_219:\n        /* \"#utility.yul\":8418:8557   */\n      swap1\n      pop\n        /* \"#utility.yul\":8145:8564   */\n      swap2\n      swap1\n      pop\n      jump\t// out\n        /* \"#utility.yul\":8570:8989   */\n    tag_53:\n        /* \"#utility.yul\":8736:8740   */\n      0x00\n        /* \"#utility.yul\":8774:8776   */\n      0x20\n        /* \"#utility.yul\":8763:8772   */\n      dup3\n        /* \"#utility.yul\":8759:8777   */\n      add\n        /* \"#utility.yul\":8751:8777   */\n      swap1\n      pop\n        /* \"#utility.yul\":8823:8832   */\n      dup2\n        /* \"#utility.yul\":8817:8821   */\n      dup2\n        /* \"#utility.yul\":8813:8833   */\n      sub\n        /* \"#utility.yul\":8809:8810   */\n      0x00\n        /* \"#utility.yul\":8798:8807   */\n      dup4\n        /* \"#utility.yul\":8794:8811   */\n      add\n        /* \"#utility.yul\":8787:8834   */\n      mstore\n        /* \"#utility.yul\":8851:8982   */\n      tag_221\n        /* \"#utility.yul\":8977:8981   */\n      dup2\n        /* \"#utility.yul\":8851:8982   */\n      tag_190\n      jump\t// in\n    tag_221:\n        /* \"#utility.yul\":8843:8982   */\n      swap1\n      pop\n        /* \"#utility.yul\":8570:8989   */\n      swap2\n      swap1\n      pop\n      jump\t// out\n        /* \"#utility.yul\":8995:9414   */\n    tag_79:\n        /* \"#utility.yul\":9161:9165   */\n      0x00\n        /* \"#utility.yul\":9199:9201   */\n      0x20\n        /* \"#utility.yul\":9188:9197   */\n      dup3\n        /* \"#utility.yul\":9184:9202   */\n      add\n        /* \"#utility.yul\":9176:9202   */\n      swap1\n      pop\n        /* \"#utility.yul\":9248:9257   */\n      dup2\n        /* \"#utility.yul\":9242:9246   */\n      dup2\n        /* \"#utility.yul\":9238:9258   */\n      sub\n        /* \"#utility.yul\":9234:9235   */\n      0x00\n        /* \"#utility.yul\":9223:9232   */\n      dup4\n        /* \"#utility.yul\":9219:9236   */\n      add\n        /* \"#utility.yul\":9212:9259   */\n      mstore\n        /* \"#utility.yul\":9276:9407   */\n      tag_223\n        /* \"#utility.yul\":9402:9406   */\n      dup2\n        /* \"#utility.yul\":9276:9407   */\n      tag_195\n      jump\t// in\n    tag_223:\n        /* \"#utility.yul\":9268:9407   */\n      swap1\n      pop\n        /* \"#utility.yul\":8995:9414   */\n      swap2\n      swap1\n      pop\n      jump\t// out\n        /* \"#utility.yul\":9501:9605   */\n    tag_142:\n        /* \"#utility.yul\":9572:9576   */\n      0x00\n        /* \"#utility.yul\":9595:9598   */\n      dup2\n        /* \"#utility.yul\":9587:9598   */\n      swap1\n      pop\n        /* \"#utility.yul\":9501:9605   */\n      swap2\n      swap1\n      pop\n      jump\t// out\n        /* \"#utility.yul\":9611:9721   */\n    tag_138:\n        /* \"#utility.yul\":9682:9688   */\n      0x00\n        /* \"#utility.yul\":9710:9714   */\n      0x09\n        /* \"#utility.yul\":9700:9714   */\n      swap1\n      pop\n        /* \"#utility.yul\":9611:9721   */\n      swap2\n      swap1\n      pop\n      jump\t// out\n        /* \"#utility.yul\":9727:9844   */\n    tag_148:\n        /* \"#utility.yul\":9801:9805   */\n      0x00\n        /* \"#utility.yul\":9833:9837   */\n      0x20\n        /* \"#utility.yul\":9828:9831   */\n      dup3\n        /* \"#utility.yul\":9824:9838   */\n      add\n        /* \"#utility.yul\":9816:9838   */\n      swap1\n      pop\n        /* \"#utility.yul\":9727:9844   */\n      swap2\n      swap1\n      pop\n      jump\t// out\n        /* \"#utility.yul\":9850:9991   */\n    tag_140:\n        /* \"#utility.yul\":9945:9956   */\n      0x00\n        /* \"#utility.yul\":9982:9985   */\n      dup2\n        /* \"#utility.yul\":9967:9985   */\n      swap1\n      pop\n        /* \"#utility.yul\":9850:9991   */\n      swap3\n      swap2\n      pop\n      pop\n      jump\t// out\n        /* \"#utility.yul\":9997:10166   */\n    tag_162:\n        /* \"#utility.yul\":10081:10092   */\n      0x00\n        /* \"#utility.yul\":10115:10121   */\n      dup3\n        /* \"#utility.yul\":10110:10113   */\n      dup3\n        /* \"#utility.yul\":10103:10122   */\n      mstore\n        /* \"#utility.yul\":10155:10159   */\n      0x20\n        /* \"#utility.yul\":10150:10153   */\n      dup3\n        /* \"#utility.yul\":10146:10160   */\n      add\n        /* \"#utility.yul\":10131:10160   */\n      swap1\n      pop\n        /* \"#utility.yul\":9997:10166   */\n      swap3\n      swap2\n      pop\n      pop\n      jump\t// out\n        /* \"#utility.yul\":10172:10268   */\n    tag_134:\n        /* \"#utility.yul\":10209:10216   */\n      0x00\n        /* \"#utility.yul\":10238:10262   */\n      tag_232\n        /* \"#utility.yul\":10256:10261   */\n      dup3\n        /* \"#utility.yul\":10238:10262   */\n      tag_233\n      jump\t// in\n    tag_232:\n        /* \"#utility.yul\":10227:10262   */\n      swap1\n      pop\n        /* \"#utility.yul\":10172:10268   */\n      swap2\n      swap1\n      pop\n      jump\t// out\n        /* \"#utility.yul\":10274:10411   */\n    tag_234:\n        /* \"#utility.yul\":10324:10331   */\n      0x00\n        /* \"#utility.yul\":10353:10358   */\n      dup2\n        /* \"#utility.yul\":10342:10358   */\n      swap1\n      pop\n        /* \"#utility.yul\":10359:10405   */\n      tag_236\n        /* \"#utility.yul\":10399:10404   */\n      dup3\n        /* \"#utility.yul\":10359:10405   */\n      tag_237\n      jump\t// in\n    tag_236:\n        /* \"#utility.yul\":10274:10411   */\n      swap2\n      swap1\n      pop\n      jump\t// out\n        /* \"#utility.yul\":10417:10540   */\n    tag_238:\n        /* \"#utility.yul\":10460:10467   */\n      0x00\n        /* \"#utility.yul\":10489:10494   */\n      dup2\n        /* \"#utility.yul\":10478:10494   */\n      swap1\n      pop\n        /* \"#utility.yul\":10495:10534   */\n      tag_240\n        /* \"#utility.yul\":10528:10533   */\n      dup3\n        /* \"#utility.yul\":10495:10534   */\n      tag_241\n      jump\t// in\n    tag_240:\n        /* \"#utility.yul\":10417:10540   */\n      swap2\n      swap1\n      pop\n      jump\t// out\n        /* \"#utility.yul\":10546:10672   */\n    tag_233:\n        /* \"#utility.yul\":10583:10590   */\n      0x00\n        /* \"#utility.yul\":10623:10665   */\n      0xffffffffffffffffffffffffffffffffffffffff\n        /* \"#utility.yul\":10616:10621   */\n      dup3\n        /* \"#utility.yul\":10612:10666   */\n      and\n        /* \"#utility.yul\":10601:10666   */\n      swap1\n      pop\n        /* \"#utility.yul\":10546:10672   */\n      swap2\n      swap1\n      pop\n      jump\t// out\n        /* \"#utility.yul\":10678:10764   */\n    tag_243:\n        /* \"#utility.yul\":10713:10720   */\n      0x00\n        /* \"#utility.yul\":10753:10757   */\n      0xff\n        /* \"#utility.yul\":10746:10751   */\n      dup3\n        /* \"#utility.yul\":10742:10758   */\n      and\n        /* \"#utility.yul\":10731:10758   */\n      swap1\n      pop\n        /* \"#utility.yul\":10678:10764   */\n      swap2\n      swap1\n      pop\n      jump\t// out\n        /* \"#utility.yul\":10770:10907   */\n    tag_152:\n        /* \"#utility.yul\":10831:10840   */\n      0x00\n        /* \"#utility.yul\":10864:10901   */\n      tag_246\n        /* \"#utility.yul\":10895:10900   */\n      dup3\n        /* \"#utility.yul\":10864:10901   */\n      tag_234\n      jump\t// in\n    tag_246:\n        /* \"#utility.yul\":10851:10901   */\n      swap1\n      pop\n        /* \"#utility.yul\":10770:10907   */\n      swap2\n      swap1\n      pop\n      jump\t// out\n        /* \"#utility.yul\":10913:11036   */\n    tag_155:\n        /* \"#utility.yul\":10967:10976   */\n      0x00\n        /* \"#utility.yul\":11000:11030   */\n      tag_248\n        /* \"#utility.yul\":11024:11029   */\n      dup3\n        /* \"#utility.yul\":11000:11030   */\n      tag_238\n      jump\t// in\n    tag_248:\n        /* \"#utility.yul\":10987:11030   */\n      swap1\n      pop\n        /* \"#utility.yul\":10913:11036   */\n      swap2\n      swap1\n      pop\n      jump\t// out\n        /* \"#utility.yul\":11042:11222   */\n    tag_46:\n        /* \"#utility.yul\":11090:11167   */\n      0x4e487b7100000000000000000000000000000000000000000000000000000000\n        /* \"#utility.yul\":11087:11088   */\n      0x00\n        /* \"#utility.yul\":11080:11168   */\n      mstore\n        /* \"#utility.yul\":11187:11191   */\n      0x21\n        /* \"#utility.yul\":11184:11185   */\n      0x04\n        /* \"#utility.yul\":11177:11192   */\n      mstore\n        /* \"#utility.yul\":11211:11215   */\n      0x24\n        /* \"#utility.yul\":11208:11209   */\n      0x00\n        /* \"#utility.yul\":11201:11216   */\n      revert\n        /* \"#utility.yul\":11228:11408   */\n    tag_73:\n        /* \"#utility.yul\":11276:11353   */\n      0x4e487b7100000000000000000000000000000000000000000000000000000000\n        /* \"#utility.yul\":11273:11274   */\n      0x00\n        /* \"#utility.yul\":11266:11354   */\n      mstore\n        /* \"#utility.yul\":11373:11377   */\n      0x32\n        /* \"#utility.yul\":11370:11371   */\n      0x04\n        /* \"#utility.yul\":11363:11378   */\n      mstore\n        /* \"#utility.yul\":11397:11401   */\n      0x24\n        /* \"#utility.yul\":11394:11395   */\n      0x00\n        /* \"#utility.yul\":11387:11402   */\n      revert\n        /* \"#utility.yul\":11537:11654   */\n    tag_125:\n        /* \"#utility.yul\":11646:11647   */\n      0x00\n        /* \"#utility.yul\":11643:11644   */\n      dup1\n        /* \"#utility.yul\":11636:11648   */\n      revert\n        /* \"#utility.yul\":11660:11831   */\n    tag_164:\n        /* \"#utility.yul\":11800:11823   */\n      0x4769766520612076616c6964206c6f636174696f6e0000000000000000000000\n        /* \"#utility.yul\":11796:11797   */\n      0x00\n        /* \"#utility.yul\":11788:11794   */\n      dup3\n        /* \"#utility.yul\":11784:11798   */\n      add\n        /* \"#utility.yul\":11777:11824   */\n      mstore\n        /* \"#utility.yul\":11660:11831   */\n      pop\n      jump\t// out\n        /* \"#utility.yul\":11837:12008   */\n    tag_169:\n        /* \"#utility.yul\":11977:12000   */\n      0x47616d65206973207374696c6c2072756e6e696e670000000000000000000000\n        /* \"#utility.yul\":11973:11974   */\n      0x00\n        /* \"#utility.yul\":11965:11971   */\n      dup3\n        /* \"#utility.yul\":11961:11975   */\n      add\n        /* \"#utility.yul\":11954:12001   */\n      mstore\n        /* \"#utility.yul\":11837:12008   */\n      pop\n      jump\t// out\n        /* \"#utility.yul\":12014:12192   */\n    tag_174:\n        /* \"#utility.yul\":12154:12184   */\n      0x47616d652069732066756c6c2c207761697420796f7572207475726e00000000\n        /* \"#utility.yul\":12150:12151   */\n      0x00\n        /* \"#utility.yul\":12142:12148   */\n      dup3\n        /* \"#utility.yul\":12138:12152   */\n      add\n        /* \"#utility.yul\":12131:12185   */\n      mstore\n        /* \"#utility.yul\":12014:12192   */\n      pop\n      jump\t// out\n        /* \"#utility.yul\":12198:12366   */\n    tag_179:\n        /* \"#utility.yul\":12338:12358   */\n      0x49742773206e6f7420796f7572207475726e0000000000000000000000000000\n        /* \"#utility.yul\":12334:12335   */\n      0x00\n        /* \"#utility.yul\":12326:12332   */\n      dup3\n        /* \"#utility.yul\":12322:12336   */\n      add\n        /* \"#utility.yul\":12315:12359   */\n      mstore\n        /* \"#utility.yul\":12198:12366   */\n      pop\n      jump\t// out\n        /* \"#utility.yul\":12372:12534   */\n    tag_184:\n        /* \"#utility.yul\":12512:12526   */\n      0x47616d65206973206f7665720000000000000000000000000000000000000000\n        /* \"#utility.yul\":12508:12509   */\n      0x00\n        /* \"#utility.yul\":12500:12506   */\n      dup3\n        /* \"#utility.yul\":12496:12510   */\n      add\n        /* \"#utility.yul\":12489:12527   */\n      mstore\n        /* \"#utility.yul\":12372:12534   */\n      pop\n      jump\t// out\n        /* \"#utility.yul\":12540:12716   */\n    tag_189:\n        /* \"#utility.yul\":12680:12708   */\n      0x466972737420706c61796572206861736e2774206a6f696e6564000000000000\n        /* \"#utility.yul\":12676:12677   */\n      0x00\n        /* \"#utility.yul\":12668:12674   */\n      dup3\n        /* \"#utility.yul\":12664:12678   */\n      add\n        /* \"#utility.yul\":12657:12709   */\n      mstore\n        /* \"#utility.yul\":12540:12716   */\n      pop\n      jump\t// out\n        /* \"#utility.yul\":12722:12899   */\n    tag_194:\n        /* \"#utility.yul\":12862:12891   */\n      0x5365636f6e6420706c61796572206861736e2774206a6f696e65640000000000\n        /* \"#utility.yul\":12858:12859   */\n      0x00\n        /* \"#utility.yul\":12850:12856   */\n      dup3\n        /* \"#utility.yul\":12846:12860   */\n      add\n        /* \"#utility.yul\":12839:12892   */\n      mstore\n        /* \"#utility.yul\":12722:12899   */\n      pop\n      jump\t// out\n        /* \"#utility.yul\":12905:13085   */\n    tag_199:\n        /* \"#utility.yul\":13045:13077   */\n      0x536f6d656f6e6520616c7265616479206d6164652074686973206d6f76650000\n        /* \"#utility.yul\":13041:13042   */\n      0x00\n        /* \"#utility.yul\":13033:13039   */\n      dup3\n        /* \"#utility.yul\":13029:13043   */\n      add\n        /* \"#utility.yul\":13022:13078   */\n      mstore\n        /* \"#utility.yul\":12905:13085   */\n      pop\n      jump\t// out\n        /* \"#utility.yul\":13091:13209   */\n    tag_237:\n        /* \"#utility.yul\":13177:13178   */\n      0x04\n        /* \"#utility.yul\":13170:13175   */\n      dup2\n        /* \"#utility.yul\":13167:13179   */\n      lt\n        /* \"#utility.yul\":13157:13203   */\n      tag_263\n      jumpi\n        /* \"#utility.yul\":13183:13201   */\n      tag_264\n      tag_46\n      jump\t// in\n    tag_264:\n        /* \"#utility.yul\":13157:13203   */\n    tag_263:\n        /* \"#utility.yul\":13091:13209   */\n      pop\n      jump\t// out\n        /* \"#utility.yul\":13215:13326   */\n    tag_241:\n        /* \"#utility.yul\":13294:13295   */\n      0x03\n        /* \"#utility.yul\":13287:13292   */\n      dup2\n        /* \"#utility.yul\":13284:13296   */\n      lt\n        /* \"#utility.yul\":13274:13320   */\n      tag_266\n      jumpi\n        /* \"#utility.yul\":13300:13318   */\n      tag_267\n      tag_46\n      jump\t// in\n    tag_267:\n        /* \"#utility.yul\":13274:13320   */\n    tag_266:\n        /* \"#utility.yul\":13215:13326   */\n      pop\n      jump\t// out\n        /* \"#utility.yul\":13332:13450   */\n    tag_121:\n        /* \"#utility.yul\":13403:13425   */\n      tag_269\n        /* \"#utility.yul\":13419:13424   */\n      dup2\n        /* \"#utility.yul\":13403:13425   */\n      tag_243\n      jump\t// in\n    tag_269:\n        /* \"#utility.yul\":13396:13401   */\n      dup2\n        /* \"#utility.yul\":13393:13426   */\n      eq\n        /* \"#utility.yul\":13383:13444   */\n      tag_270\n      jumpi\n        /* \"#utility.yul\":13440:13441   */\n      0x00\n        /* \"#utility.yul\":13437:13438   */\n      dup1\n        /* \"#utility.yul\":13430:13442   */\n      revert\n        /* \"#utility.yul\":13383:13444   */\n    tag_270:\n        /* \"#utility.yul\":13332:13450   */\n      pop\n      jump\t// out\n\n    auxdata: 0xa2646970667358221220ac30283c3b7a5486de3005d73d3f6e9662ee5203e2ab58b75f6b6b7777c7527364736f6c63430008070033\n}\n",
				"bytecode": {
					"linkReferences": {},
					"object": "608060405234801561001057600080fd5b506003600160146101000a81548160ff0219169083600381111561003757610036610041565b5b0217905550610070565b7f4e487b7100000000000000000000000000000000000000000000000000000000600052602160045260246000fd5b610ffb8061007f6000396000f3fe608060405234801561001057600080fd5b50600436106100885760003560e01c806382df52421161005b57806382df524214610103578063bb47221914610121578063d30895e41461012b578063d4f77b1c1461014957610088565b8063200d2ed21461008d5780633264a34b146100ab57806359a5f12d146100c957806370e87aaf146100e7575b600080fd5b610095610153565b6040516100a29190610bde565b60405180910390f35b6100b3610166565b6040516100c09190610bc2565b60405180910390f35b6100d16101e6565b6040516100de9190610ba7565b60405180910390f35b61010160048036038101906100fc91906109b7565b61020c565b005b61010b610549565b6040516101189190610bf9565b60405180910390f35b61012961055c565b005b6101336106bb565b6040516101409190610ba7565b60405180910390f35b6101516106df565b005b600160149054906101000a900460ff1681565b61016e610978565b60026009806020026040519081016040528092919082600980156101dc576020028201916000905b82829054906101000a900460ff1660028111156101b6576101b5610ddb565b5b815260200190600101906020826000010492830192600103820291508084116101965790505b5050505050905090565b600160009054906101000a900473ffffffffffffffffffffffffffffffffffffffff1681565b600073ffffffffffffffffffffffffffffffffffffffff1660008054906101000a900473ffffffffffffffffffffffffffffffffffffffff1673ffffffffffffffffffffffffffffffffffffffff16141561029c576040517f08c379a000000000000000000000000000000000000000000000000000000000815260040161029390610cb4565b60405180910390fd5b600073ffffffffffffffffffffffffffffffffffffffff16600160009054906101000a900473ffffffffffffffffffffffffffffffffffffffff1673ffffffffffffffffffffffffffffffffffffffff16141561032e576040517f08c379a000000000000000000000000000000000000000000000000000000000815260040161032590610cd4565b60405180910390fd5b60038081111561034157610340610ddb565b5b600160149054906101000a900460ff16600381111561036357610362610ddb565b5b146103a3576040517f08c379a000000000000000000000000000000000000000000000000000000000815260040161039a90610c94565b60405180910390fd5b60098160ff16106103e9576040517f08c379a00000000000000000000000000000000000000000000000000000000081526004016103e090610c14565b60405180910390fd5b6103f16108a5565b73ffffffffffffffffffffffffffffffffffffffff163373ffffffffffffffffffffffffffffffffffffffff161461045e576040517f08c379a000000000000000000000000000000000000000000000000000000000815260040161045590610c74565b60405180910390fd5b60028081111561047157610470610ddb565b5b60028260ff166009811061048857610487610e0a565b5b602091828204019190069054906101000a900460ff1660028111156104b0576104af610ddb565b5b146104f0576040517f08c379a00000000000000000000000000000000000000000000000000000000081526004016104e790610cf4565b60405180910390fd5b600160159054906101000a900460ff1660028260ff166009811061051757610516610e0a565b5b602091828204019190066101000a81548160ff0219169083600281111561054157610540610ddb565b5b021790555050565b600160159054906101000a900460ff1681565b60038081111561056f5761056e610ddb565b5b600160149054906101000a900460ff16600381111561059157610590610ddb565b5b14156105d2576040517f08c379a00000000000000000000000000000000000000000000000000000000081526004016105c990610c34565b60405180910390fd5b6003600160146101000a81548160ff021916908360038111156105f8576105f7610ddb565b5b02179055506000600160156101000a81548160ff0219169083600281111561062357610622610ddb565b5b021790555060008060006101000a81548173ffffffffffffffffffffffffffffffffffffffff021916908373ffffffffffffffffffffffffffffffffffffffff1602179055506000600160006101000a81548173ffffffffffffffffffffffffffffffffffffffff021916908373ffffffffffffffffffffffffffffffffffffffff160217905550600260006106b9919061099b565b565b60008054906101000a900473ffffffffffffffffffffffffffffffffffffffff1681565b600073ffffffffffffffffffffffffffffffffffffffff1660008054906101000a900473ffffffffffffffffffffffffffffffffffffffff1673ffffffffffffffffffffffffffffffffffffffff1614806107885750600073ffffffffffffffffffffffffffffffffffffffff16600160009054906101000a900473ffffffffffffffffffffffffffffffffffffffff1673ffffffffffffffffffffffffffffffffffffffff16145b6107c7576040517f08c379a00000000000000000000000000000000000000000000000000000000081526004016107be90610c54565b60405180910390fd5b600073ffffffffffffffffffffffffffffffffffffffff1660008054906101000a900473ffffffffffffffffffffffffffffffffffffffff1673ffffffffffffffffffffffffffffffffffffffff16141561086157336000806101000a81548173ffffffffffffffffffffffffffffffffffffffff021916908373ffffffffffffffffffffffffffffffffffffffff1602179055506108a3565b33600160006101000a81548173ffffffffffffffffffffffffffffffffffffffff021916908373ffffffffffffffffffffffffffffffffffffffff1602179055505b565b60008060028111156108ba576108b9610ddb565b5b600160159054906101000a900460ff1660028111156108dc576108db610ddb565b5b141561090a5760008054906101000a900473ffffffffffffffffffffffffffffffffffffffff169050610975565b6001600281111561091e5761091d610ddb565b5b600160159054906101000a900460ff1660028111156109405761093f610ddb565b5b141561097057600160009054906101000a900473ffffffffffffffffffffffffffffffffffffffff169050610975565b600090505b90565b604051806101200160405280600990602082028036833780820191505090505090565b5060009055565b6000813590506109b181610fae565b92915050565b6000602082840312156109cd576109cc610e39565b5b60006109db848285016109a2565b91505092915050565b60006109f08383610a71565b60208301905092915050565b610a0581610d52565b82525050565b610a1481610d1e565b610a1e8184610d36565b9250610a2982610d14565b8060005b83811015610a5a578151610a4187826109e4565b9650610a4c83610d29565b925050600181019050610a2d565b505050505050565b610a6b81610db7565b82525050565b610a7a81610dc9565b82525050565b610a8981610dc9565b82525050565b6000610a9c601583610d41565b9150610aa782610e3e565b602082019050919050565b6000610abf601583610d41565b9150610aca82610e67565b602082019050919050565b6000610ae2601c83610d41565b9150610aed82610e90565b602082019050919050565b6000610b05601283610d41565b9150610b1082610eb9565b602082019050919050565b6000610b28600c83610d41565b9150610b3382610ee2565b602082019050919050565b6000610b4b601a83610d41565b9150610b5682610f0b565b602082019050919050565b6000610b6e601b83610d41565b9150610b7982610f34565b602082019050919050565b6000610b91601e83610d41565b9150610b9c82610f5d565b602082019050919050565b6000602082019050610bbc60008301846109fc565b92915050565b600061012082019050610bd86000830184610a0b565b92915050565b6000602082019050610bf36000830184610a62565b92915050565b6000602082019050610c0e6000830184610a80565b92915050565b60006020820190508181036000830152610c2d81610a8f565b9050919050565b60006020820190508181036000830152610c4d81610ab2565b9050919050565b60006020820190508181036000830152610c6d81610ad5565b9050919050565b60006020820190508181036000830152610c8d81610af8565b9050919050565b60006020820190508181036000830152610cad81610b1b565b9050919050565b60006020820190508181036000830152610ccd81610b3e565b9050919050565b60006020820190508181036000830152610ced81610b61565b9050919050565b60006020820190508181036000830152610d0d81610b84565b9050919050565b6000819050919050565b600060099050919050565b6000602082019050919050565b600081905092915050565b600082825260208201905092915050565b6000610d5d82610d8a565b9050919050565b6000819050610d7282610f86565b919050565b6000819050610d8582610f9a565b919050565b600073ffffffffffffffffffffffffffffffffffffffff82169050919050565b600060ff82169050919050565b6000610dc282610d64565b9050919050565b6000610dd482610d77565b9050919050565b7f4e487b7100000000000000000000000000000000000000000000000000000000600052602160045260246000fd5b7f4e487b7100000000000000000000000000000000000000000000000000000000600052603260045260246000fd5b600080fd5b7f4769766520612076616c6964206c6f636174696f6e0000000000000000000000600082015250565b7f47616d65206973207374696c6c2072756e6e696e670000000000000000000000600082015250565b7f47616d652069732066756c6c2c207761697420796f7572207475726e00000000600082015250565b7f49742773206e6f7420796f7572207475726e0000000000000000000000000000600082015250565b7f47616d65206973206f7665720000000000000000000000000000000000000000600082015250565b7f466972737420706c61796572206861736e2774206a6f696e6564000000000000600082015250565b7f5365636f6e6420706c61796572206861736e2774206a6f696e65640000000000600082015250565b7f536f6d656f6e6520616c7265616479206d6164652074686973206d6f76650000600082015250565b60048110610f9757610f96610ddb565b5b50565b60038110610fab57610faa610ddb565b5b50565b610fb781610daa565b8114610fc257600080fd5b5056fea2646970667358221220ac30283c3b7a5486de3005d73d3f6e9662ee5203e2ab58b75f6b6b7777c7527364736f6c63430008070033",
					"opcodes": "PUSH1 0x80 PUSH1 0x40 MSTORE CALLVALUE DUP1 ISZERO PUSH2 0x10 JUMPI PUSH1 0x0 DUP1 REVERT JUMPDEST POP PUSH1 0x3 PUSH1 0x1 PUSH1 0x14 PUSH2 0x100 EXP DUP2 SLOAD DUP2 PUSH1 0xFF MUL NOT AND SWAP1 DUP4 PUSH1 0x3 DUP2 GT ISZERO PUSH2 0x37 JUMPI PUSH2 0x36 PUSH2 0x41 JUMP JUMPDEST JUMPDEST MUL OR SWAP1 SSTORE POP PUSH2 0x70 JUMP JUMPDEST PUSH32 0x4E487B7100000000000000000000000000000000000000000000000000000000 PUSH1 0x0 MSTORE PUSH1 0x21 PUSH1 0x4 MSTORE PUSH1 0x24 PUSH1 0x0 REVERT JUMPDEST PUSH2 0xFFB DUP1 PUSH2 0x7F PUSH1 0x0 CODECOPY PUSH1 0x0 RETURN INVALID PUSH1 0x80 PUSH1 0x40 MSTORE CALLVALUE DUP1 ISZERO PUSH2 0x10 JUMPI PUSH1 0x0 DUP1 REVERT JUMPDEST POP PUSH1 0x4 CALLDATASIZE LT PUSH2 0x88 JUMPI PUSH1 0x0 CALLDATALOAD PUSH1 0xE0 SHR DUP1 PUSH4 0x82DF5242 GT PUSH2 0x5B JUMPI DUP1 PUSH4 0x82DF5242 EQ PUSH2 0x103 JUMPI DUP1 PUSH4 0xBB472219 EQ PUSH2 0x121 JUMPI DUP1 PUSH4 0xD30895E4 EQ PUSH2 0x12B JUMPI DUP1 PUSH4 0xD4F77B1C EQ PUSH2 0x149 JUMPI PUSH2 0x88 JUMP JUMPDEST DUP1 PUSH4 0x200D2ED2 EQ PUSH2 0x8D JUMPI DUP1 PUSH4 0x3264A34B EQ PUSH2 0xAB JUMPI DUP1 PUSH4 0x59A5F12D EQ PUSH2 0xC9 JUMPI DUP1 PUSH4 0x70E87AAF EQ PUSH2 0xE7 JUMPI JUMPDEST PUSH1 0x0 DUP1 REVERT JUMPDEST PUSH2 0x95 PUSH2 0x153 JUMP JUMPDEST PUSH1 0x40 MLOAD PUSH2 0xA2 SWAP2 SWAP1 PUSH2 0xBDE JUMP JUMPDEST PUSH1 0x40 MLOAD DUP1 SWAP2 SUB SWAP1 RETURN JUMPDEST PUSH2 0xB3 PUSH2 0x166 JUMP JUMPDEST PUSH1 0x40 MLOAD PUSH2 0xC0 SWAP2 SWAP1 PUSH2 0xBC2 JUMP JUMPDEST PUSH1 0x40 MLOAD DUP1 SWAP2 SUB SWAP1 RETURN JUMPDEST PUSH2 0xD1 PUSH2 0x1E6 JUMP JUMPDEST PUSH1 0x40 MLOAD PUSH2 0xDE SWAP2 SWAP1 PUSH2 0xBA7 JUMP JUMPDEST PUSH1 0x40 MLOAD DUP1 SWAP2 SUB SWAP1 RETURN JUMPDEST PUSH2 0x101 PUSH1 0x4 DUP1 CALLDATASIZE SUB DUP2 ADD SWAP1 PUSH2 0xFC SWAP2 SWAP1 PUSH2 0x9B7 JUMP JUMPDEST PUSH2 0x20C JUMP JUMPDEST STOP JUMPDEST PUSH2 0x10B PUSH2 0x549 JUMP JUMPDEST PUSH1 0x40 MLOAD PUSH2 0x118 SWAP2 SWAP1 PUSH2 0xBF9 JUMP JUMPDEST PUSH1 0x40 MLOAD DUP1 SWAP2 SUB SWAP1 RETURN JUMPDEST PUSH2 0x129 PUSH2 0x55C JUMP JUMPDEST STOP JUMPDEST PUSH2 0x133 PUSH2 0x6BB JUMP JUMPDEST PUSH1 0x40 MLOAD PUSH2 0x140 SWAP2 SWAP1 PUSH2 0xBA7 JUMP JUMPDEST PUSH1 0x40 MLOAD DUP1 SWAP2 SUB SWAP1 RETURN JUMPDEST PUSH2 0x151 PUSH2 0x6DF JUMP JUMPDEST STOP JUMPDEST PUSH1 0x1 PUSH1 0x14 SWAP1 SLOAD SWAP1 PUSH2 0x100 EXP SWAP1 DIV PUSH1 0xFF AND DUP2 JUMP JUMPDEST PUSH2 0x16E PUSH2 0x978 JUMP JUMPDEST PUSH1 0x2 PUSH1 0x9 DUP1 PUSH1 0x20 MUL PUSH1 0x40 MLOAD SWAP1 DUP2 ADD PUSH1 0x40 MSTORE DUP1 SWAP3 SWAP2 SWAP1 DUP3 PUSH1 0x9 DUP1 ISZERO PUSH2 0x1DC JUMPI PUSH1 0x20 MUL DUP3 ADD SWAP2 PUSH1 0x0 SWAP1 JUMPDEST DUP3 DUP3 SWAP1 SLOAD SWAP1 PUSH2 0x100 EXP SWAP1 DIV PUSH1 0xFF AND PUSH1 0x2 DUP2 GT ISZERO PUSH2 0x1B6 JUMPI PUSH2 0x1B5 PUSH2 0xDDB JUMP JUMPDEST JUMPDEST DUP2 MSTORE PUSH1 0x20 ADD SWAP1 PUSH1 0x1 ADD SWAP1 PUSH1 0x20 DUP3 PUSH1 0x0 ADD DIV SWAP3 DUP4 ADD SWAP3 PUSH1 0x1 SUB DUP3 MUL SWAP2 POP DUP1 DUP5 GT PUSH2 0x196 JUMPI SWAP1 POP JUMPDEST POP POP POP POP POP SWAP1 POP SWAP1 JUMP JUMPDEST PUSH1 0x1 PUSH1 0x0 SWAP1 SLOAD SWAP1 PUSH2 0x100 EXP SWAP1 DIV PUSH20 0xFFFFFFFFFFFFFFFFFFFFFFFFFFFFFFFFFFFFFFFF AND DUP2 JUMP JUMPDEST PUSH1 0x0 PUSH20 0xFFFFFFFFFFFFFFFFFFFFFFFFFFFFFFFFFFFFFFFF AND PUSH1 0x0 DUP1 SLOAD SWAP1 PUSH2 0x100 EXP SWAP1 DIV PUSH20 0xFFFFFFFFFFFFFFFFFFFFFFFFFFFFFFFFFFFFFFFF AND PUSH20 0xFFFFFFFFFFFFFFFFFFFFFFFFFFFFFFFFFFFFFFFF AND EQ ISZERO PUSH2 0x29C JUMPI PUSH1 0x40 MLOAD PUSH32 0x8C379A000000000000000000000000000000000000000000000000000000000 DUP2 MSTORE PUSH1 0x4 ADD PUSH2 0x293 SWAP1 PUSH2 0xCB4 JUMP JUMPDEST PUSH1 0x40 MLOAD DUP1 SWAP2 SUB SWAP1 REVERT JUMPDEST PUSH1 0x0 PUSH20 0xFFFFFFFFFFFFFFFFFFFFFFFFFFFFFFFFFFFFFFFF AND PUSH1 0x1 PUSH1 0x0 SWAP1 SLOAD SWAP1 PUSH2 0x100 EXP SWAP1 DIV PUSH20 0xFFFFFFFFFFFFFFFFFFFFFFFFFFFFFFFFFFFFFFFF AND PUSH20 0xFFFFFFFFFFFFFFFFFFFFFFFFFFFFFFFFFFFFFFFF AND EQ ISZERO PUSH2 0x32E JUMPI PUSH1 0x40 MLOAD PUSH32 0x8C379A000000000000000000000000000000000000000000000000000000000 DUP2 MSTORE PUSH1 0x4 ADD PUSH2 0x325 SWAP1 PUSH2 0xCD4 JUMP JUMPDEST PUSH1 0x40 MLOAD DUP1 SWAP2 SUB SWAP1 REVERT JUMPDEST PUSH1 0x3 DUP1 DUP2 GT ISZERO PUSH2 0x341 JUMPI PUSH2 0x340 PUSH2 0xDDB JUMP JUMPDEST JUMPDEST PUSH1 0x1 PUSH1 0x14 SWAP1 SLOAD SWAP1 PUSH2 0x100 EXP SWAP1 DIV PUSH1 0xFF AND PUSH1 0x3 DUP2 GT ISZERO PUSH2 0x363 JUMPI PUSH2 0x362 PUSH2 0xDDB JUMP JUMPDEST JUMPDEST EQ PUSH2 0x3A3 JUMPI PUSH1 0x40 MLOAD PUSH32 0x8C379A000000000000000000000000000000000000000000000000000000000 DUP2 MSTORE PUSH1 0x4 ADD PUSH2 0x39A SWAP1 PUSH2 0xC94 JUMP JUMPDEST PUSH1 0x40 MLOAD DUP1 SWAP2 SUB SWAP1 REVERT JUMPDEST PUSH1 0x9 DUP2 PUSH1 0xFF AND LT PUSH2 0x3E9 JUMPI PUSH1 0x40 MLOAD PUSH32 0x8C379A000000000000000000000000000000000000000000000000000000000 DUP2 MSTORE PUSH1 0x4 ADD PUSH2 0x3E0 SWAP1 PUSH2 0xC14 JUMP JUMPDEST PUSH1 0x40 MLOAD DUP1 SWAP2 SUB SWAP1 REVERT JUMPDEST PUSH2 0x3F1 PUSH2 0x8A5 JUMP JUMPDEST PUSH20 0xFFFFFFFFFFFFFFFFFFFFFFFFFFFFFFFFFFFFFFFF AND CALLER PUSH20 0xFFFFFFFFFFFFFFFFFFFFFFFFFFFFFFFFFFFFFFFF AND EQ PUSH2 0x45E JUMPI PUSH1 0x40 MLOAD PUSH32 0x8C379A000000000000000000000000000000000000000000000000000000000 DUP2 MSTORE PUSH1 0x4 ADD PUSH2 0x455 SWAP1 PUSH2 0xC74 JUMP JUMPDEST PUSH1 0x40 MLOAD DUP1 SWAP2 SUB SWAP1 REVERT JUMPDEST PUSH1 0x2 DUP1 DUP2 GT ISZERO PUSH2 0x471 JUMPI PUSH2 0x470 PUSH2 0xDDB JUMP JUMPDEST JUMPDEST PUSH1 0x2 DUP3 PUSH1 0xFF AND PUSH1 0x9 DUP2 LT PUSH2 0x488 JUMPI PUSH2 0x487 PUSH2 0xE0A JUMP JUMPDEST JUMPDEST PUSH1 0x20 SWAP2 DUP3 DUP3 DIV ADD SWAP2 SWAP1 MOD SWAP1 SLOAD SWAP1 PUSH2 0x100 EXP SWAP1 DIV PUSH1 0xFF AND PUSH1 0x2 DUP2 GT ISZERO PUSH2 0x4B0 JUMPI PUSH2 0x4AF PUSH2 0xDDB JUMP JUMPDEST JUMPDEST EQ PUSH2 0x4F0 JUMPI PUSH1 0x40 MLOAD PUSH32 0x8C379A000000000000000000000000000000000000000000000000000000000 DUP2 MSTORE PUSH1 0x4 ADD PUSH2 0x4E7 SWAP1 PUSH2 0xCF4 JUMP JUMPDEST PUSH1 0x40 MLOAD DUP1 SWAP2 SUB SWAP1 REVERT JUMPDEST PUSH1 0x1 PUSH1 0x15 SWAP1 SLOAD SWAP1 PUSH2 0x100 EXP SWAP1 DIV PUSH1 0xFF AND PUSH1 0x2 DUP3 PUSH1 0xFF AND PUSH1 0x9 DUP2 LT PUSH2 0x517 JUMPI PUSH2 0x516 PUSH2 0xE0A JUMP JUMPDEST JUMPDEST PUSH1 0x20 SWAP2 DUP3 DUP3 DIV ADD SWAP2 SWAP1 MOD PUSH2 0x100 EXP DUP2 SLOAD DUP2 PUSH1 0xFF MUL NOT AND SWAP1 DUP4 PUSH1 0x2 DUP2 GT ISZERO PUSH2 0x541 JUMPI PUSH2 0x540 PUSH2 0xDDB JUMP JUMPDEST JUMPDEST MUL OR SWAP1 SSTORE POP POP JUMP JUMPDEST PUSH1 0x1 PUSH1 0x15 SWAP1 SLOAD SWAP1 PUSH2 0x100 EXP SWAP1 DIV PUSH1 0xFF AND DUP2 JUMP JUMPDEST PUSH1 0x3 DUP1 DUP2 GT ISZERO PUSH2 0x56F JUMPI PUSH2 0x56E PUSH2 0xDDB JUMP JUMPDEST JUMPDEST PUSH1 0x1 PUSH1 0x14 SWAP1 SLOAD SWAP1 PUSH2 0x100 EXP SWAP1 DIV PUSH1 0xFF AND PUSH1 0x3 DUP2 GT ISZERO PUSH2 0x591 JUMPI PUSH2 0x590 PUSH2 0xDDB JUMP JUMPDEST JUMPDEST EQ ISZERO PUSH2 0x5D2 JUMPI PUSH1 0x40 MLOAD PUSH32 0x8C379A000000000000000000000000000000000000000000000000000000000 DUP2 MSTORE PUSH1 0x4 ADD PUSH2 0x5C9 SWAP1 PUSH2 0xC34 JUMP JUMPDEST PUSH1 0x40 MLOAD DUP1 SWAP2 SUB SWAP1 REVERT JUMPDEST PUSH1 0x3 PUSH1 0x1 PUSH1 0x14 PUSH2 0x100 EXP DUP2 SLOAD DUP2 PUSH1 0xFF MUL NOT AND SWAP1 DUP4 PUSH1 0x3 DUP2 GT ISZERO PUSH2 0x5F8 JUMPI PUSH2 0x5F7 PUSH2 0xDDB JUMP JUMPDEST JUMPDEST MUL OR SWAP1 SSTORE POP PUSH1 0x0 PUSH1 0x1 PUSH1 0x15 PUSH2 0x100 EXP DUP2 SLOAD DUP2 PUSH1 0xFF MUL NOT AND SWAP1 DUP4 PUSH1 0x2 DUP2 GT ISZERO PUSH2 0x623 JUMPI PUSH2 0x622 PUSH2 0xDDB JUMP JUMPDEST JUMPDEST MUL OR SWAP1 SSTORE POP PUSH1 0x0 DUP1 PUSH1 0x0 PUSH2 0x100 EXP DUP2 SLOAD DUP2 PUSH20 0xFFFFFFFFFFFFFFFFFFFFFFFFFFFFFFFFFFFFFFFF MUL NOT AND SWAP1 DUP4 PUSH20 0xFFFFFFFFFFFFFFFFFFFFFFFFFFFFFFFFFFFFFFFF AND MUL OR SWAP1 SSTORE POP PUSH1 0x0 PUSH1 0x1 PUSH1 0x0 PUSH2 0x100 EXP DUP2 SLOAD DUP2 PUSH20 0xFFFFFFFFFFFFFFFFFFFFFFFFFFFFFFFFFFFFFFFF MUL NOT AND SWAP1 DUP4 PUSH20 0xFFFFFFFFFFFFFFFFFFFFFFFFFFFFFFFFFFFFFFFF AND MUL OR SWAP1 SSTORE POP PUSH1 0x2 PUSH1 0x0 PUSH2 0x6B9 SWAP2 SWAP1 PUSH2 0x99B JUMP JUMPDEST JUMP JUMPDEST PUSH1 0x0 DUP1 SLOAD SWAP1 PUSH2 0x100 EXP SWAP1 DIV PUSH20 0xFFFFFFFFFFFFFFFFFFFFFFFFFFFFFFFFFFFFFFFF AND DUP2 JUMP JUMPDEST PUSH1 0x0 PUSH20 0xFFFFFFFFFFFFFFFFFFFFFFFFFFFFFFFFFFFFFFFF AND PUSH1 0x0 DUP1 SLOAD SWAP1 PUSH2 0x100 EXP SWAP1 DIV PUSH20 0xFFFFFFFFFFFFFFFFFFFFFFFFFFFFFFFFFFFFFFFF AND PUSH20 0xFFFFFFFFFFFFFFFFFFFFFFFFFFFFFFFFFFFFFFFF AND EQ DUP1 PUSH2 0x788 JUMPI POP PUSH1 0x0 PUSH20 0xFFFFFFFFFFFFFFFFFFFFFFFFFFFFFFFFFFFFFFFF AND PUSH1 0x1 PUSH1 0x0 SWAP1 SLOAD SWAP1 PUSH2 0x100 EXP SWAP1 DIV PUSH20 0xFFFFFFFFFFFFFFFFFFFFFFFFFFFFFFFFFFFFFFFF AND PUSH20 0xFFFFFFFFFFFFFFFFFFFFFFFFFFFFFFFFFFFFFFFF AND EQ JUMPDEST PUSH2 0x7C7 JUMPI PUSH1 0x40 MLOAD PUSH32 0x8C379A000000000000000000000000000000000000000000000000000000000 DUP2 MSTORE PUSH1 0x4 ADD PUSH2 0x7BE SWAP1 PUSH2 0xC54 JUMP JUMPDEST PUSH1 0x40 MLOAD DUP1 SWAP2 SUB SWAP1 REVERT JUMPDEST PUSH1 0x0 PUSH20 0xFFFFFFFFFFFFFFFFFFFFFFFFFFFFFFFFFFFFFFFF AND PUSH1 0x0 DUP1 SLOAD SWAP1 PUSH2 0x100 EXP SWAP1 DIV PUSH20 0xFFFFFFFFFFFFFFFFFFFFFFFFFFFFFFFFFFFFFFFF AND PUSH20 0xFFFFFFFFFFFFFFFFFFFFFFFFFFFFFFFFFFFFFFFF AND EQ ISZERO PUSH2 0x861 JUMPI CALLER PUSH1 0x0 DUP1 PUSH2 0x100 EXP DUP2 SLOAD DUP2 PUSH20 0xFFFFFFFFFFFFFFFFFFFFFFFFFFFFFFFFFFFFFFFF MUL NOT AND SWAP1 DUP4 PUSH20 0xFFFFFFFFFFFFFFFFFFFFFFFFFFFFFFFFFFFFFFFF AND MUL OR SWAP1 SSTORE POP PUSH2 0x8A3 JUMP JUMPDEST CALLER PUSH1 0x1 PUSH1 0x0 PUSH2 0x100 EXP DUP2 SLOAD DUP2 PUSH20 0xFFFFFFFFFFFFFFFFFFFFFFFFFFFFFFFFFFFFFFFF MUL NOT AND SWAP1 DUP4 PUSH20 0xFFFFFFFFFFFFFFFFFFFFFFFFFFFFFFFFFFFFFFFF AND MUL OR SWAP1 SSTORE POP JUMPDEST JUMP JUMPDEST PUSH1 0x0 DUP1 PUSH1 0x2 DUP2 GT ISZERO PUSH2 0x8BA JUMPI PUSH2 0x8B9 PUSH2 0xDDB JUMP JUMPDEST JUMPDEST PUSH1 0x1 PUSH1 0x15 SWAP1 SLOAD SWAP1 PUSH2 0x100 EXP SWAP1 DIV PUSH1 0xFF AND PUSH1 0x2 DUP2 GT ISZERO PUSH2 0x8DC JUMPI PUSH2 0x8DB PUSH2 0xDDB JUMP JUMPDEST JUMPDEST EQ ISZERO PUSH2 0x90A JUMPI PUSH1 0x0 DUP1 SLOAD SWAP1 PUSH2 0x100 EXP SWAP1 DIV PUSH20 0xFFFFFFFFFFFFFFFFFFFFFFFFFFFFFFFFFFFFFFFF AND SWAP1 POP PUSH2 0x975 JUMP JUMPDEST PUSH1 0x1 PUSH1 0x2 DUP2 GT ISZERO PUSH2 0x91E JUMPI PUSH2 0x91D PUSH2 0xDDB JUMP JUMPDEST JUMPDEST PUSH1 0x1 PUSH1 0x15 SWAP1 SLOAD SWAP1 PUSH2 0x100 EXP SWAP1 DIV PUSH1 0xFF AND PUSH1 0x2 DUP2 GT ISZERO PUSH2 0x940 JUMPI PUSH2 0x93F PUSH2 0xDDB JUMP JUMPDEST JUMPDEST EQ ISZERO PUSH2 0x970 JUMPI PUSH1 0x1 PUSH1 0x0 SWAP1 SLOAD SWAP1 PUSH2 0x100 EXP SWAP1 DIV PUSH20 0xFFFFFFFFFFFFFFFFFFFFFFFFFFFFFFFFFFFFFFFF AND SWAP1 POP PUSH2 0x975 JUMP JUMPDEST PUSH1 0x0 SWAP1 POP JUMPDEST SWAP1 JUMP JUMPDEST PUSH1 0x40 MLOAD DUP1 PUSH2 0x120 ADD PUSH1 0x40 MSTORE DUP1 PUSH1 0x9 SWAP1 PUSH1 0x20 DUP3 MUL DUP1 CALLDATASIZE DUP4 CALLDATACOPY DUP1 DUP3 ADD SWAP2 POP POP SWAP1 POP POP SWAP1 JUMP JUMPDEST POP PUSH1 0x0 SWAP1 SSTORE JUMP JUMPDEST PUSH1 0x0 DUP2 CALLDATALOAD SWAP1 POP PUSH2 0x9B1 DUP2 PUSH2 0xFAE JUMP JUMPDEST SWAP3 SWAP2 POP POP JUMP JUMPDEST PUSH1 0x0 PUSH1 0x20 DUP3 DUP5 SUB SLT ISZERO PUSH2 0x9CD JUMPI PUSH2 0x9CC PUSH2 0xE39 JUMP JUMPDEST JUMPDEST PUSH1 0x0 PUSH2 0x9DB DUP5 DUP3 DUP6 ADD PUSH2 0x9A2 JUMP JUMPDEST SWAP2 POP POP SWAP3 SWAP2 POP POP JUMP JUMPDEST PUSH1 0x0 PUSH2 0x9F0 DUP4 DUP4 PUSH2 0xA71 JUMP JUMPDEST PUSH1 0x20 DUP4 ADD SWAP1 POP SWAP3 SWAP2 POP POP JUMP JUMPDEST PUSH2 0xA05 DUP2 PUSH2 0xD52 JUMP JUMPDEST DUP3 MSTORE POP POP JUMP JUMPDEST PUSH2 0xA14 DUP2 PUSH2 0xD1E JUMP JUMPDEST PUSH2 0xA1E DUP2 DUP5 PUSH2 0xD36 JUMP JUMPDEST SWAP3 POP PUSH2 0xA29 DUP3 PUSH2 0xD14 JUMP JUMPDEST DUP1 PUSH1 0x0 JUMPDEST DUP4 DUP2 LT ISZERO PUSH2 0xA5A JUMPI DUP2 MLOAD PUSH2 0xA41 DUP8 DUP3 PUSH2 0x9E4 JUMP JUMPDEST SWAP7 POP PUSH2 0xA4C DUP4 PUSH2 0xD29 JUMP JUMPDEST SWAP3 POP POP PUSH1 0x1 DUP2 ADD SWAP1 POP PUSH2 0xA2D JUMP JUMPDEST POP POP POP POP POP POP JUMP JUMPDEST PUSH2 0xA6B DUP2 PUSH2 0xDB7 JUMP JUMPDEST DUP3 MSTORE POP POP JUMP JUMPDEST PUSH2 0xA7A DUP2 PUSH2 0xDC9 JUMP JUMPDEST DUP3 MSTORE POP POP JUMP JUMPDEST PUSH2 0xA89 DUP2 PUSH2 0xDC9 JUMP JUMPDEST DUP3 MSTORE POP POP JUMP JUMPDEST PUSH1 0x0 PUSH2 0xA9C PUSH1 0x15 DUP4 PUSH2 0xD41 JUMP JUMPDEST SWAP2 POP PUSH2 0xAA7 DUP3 PUSH2 0xE3E JUMP JUMPDEST PUSH1 0x20 DUP3 ADD SWAP1 POP SWAP2 SWAP1 POP JUMP JUMPDEST PUSH1 0x0 PUSH2 0xABF PUSH1 0x15 DUP4 PUSH2 0xD41 JUMP JUMPDEST SWAP2 POP PUSH2 0xACA DUP3 PUSH2 0xE67 JUMP JUMPDEST PUSH1 0x20 DUP3 ADD SWAP1 POP SWAP2 SWAP1 POP JUMP JUMPDEST PUSH1 0x0 PUSH2 0xAE2 PUSH1 0x1C DUP4 PUSH2 0xD41 JUMP JUMPDEST SWAP2 POP PUSH2 0xAED DUP3 PUSH2 0xE90 JUMP JUMPDEST PUSH1 0x20 DUP3 ADD SWAP1 POP SWAP2 SWAP1 POP JUMP JUMPDEST PUSH1 0x0 PUSH2 0xB05 PUSH1 0x12 DUP4 PUSH2 0xD41 JUMP JUMPDEST SWAP2 POP PUSH2 0xB10 DUP3 PUSH2 0xEB9 JUMP JUMPDEST PUSH1 0x20 DUP3 ADD SWAP1 POP SWAP2 SWAP1 POP JUMP JUMPDEST PUSH1 0x0 PUSH2 0xB28 PUSH1 0xC DUP4 PUSH2 0xD41 JUMP JUMPDEST SWAP2 POP PUSH2 0xB33 DUP3 PUSH2 0xEE2 JUMP JUMPDEST PUSH1 0x20 DUP3 ADD SWAP1 POP SWAP2 SWAP1 POP JUMP JUMPDEST PUSH1 0x0 PUSH2 0xB4B PUSH1 0x1A DUP4 PUSH2 0xD41 JUMP JUMPDEST SWAP2 POP PUSH2 0xB56 DUP3 PUSH2 0xF0B JUMP JUMPDEST PUSH1 0x20 DUP3 ADD SWAP1 POP SWAP2 SWAP1 POP JUMP JUMPDEST PUSH1 0x0 PUSH2 0xB6E PUSH1 0x1B DUP4 PUSH2 0xD41 JUMP JUMPDEST SWAP2 POP PUSH2 0xB79 DUP3 PUSH2 0xF34 JUMP JUMPDEST PUSH1 0x20 DUP3 ADD SWAP1 POP SWAP2 SWAP1 POP JUMP JUMPDEST PUSH1 0x0 PUSH2 0xB91 PUSH1 0x1E DUP4 PUSH2 0xD41 JUMP JUMPDEST SWAP2 POP PUSH2 0xB9C DUP3 PUSH2 0xF5D JUMP JUMPDEST PUSH1 0x20 DUP3 ADD SWAP1 POP SWAP2 SWAP1 POP JUMP JUMPDEST PUSH1 0x0 PUSH1 0x20 DUP3 ADD SWAP1 POP PUSH2 0xBBC PUSH1 0x0 DUP4 ADD DUP5 PUSH2 0x9FC JUMP JUMPDEST SWAP3 SWAP2 POP POP JUMP JUMPDEST PUSH1 0x0 PUSH2 0x120 DUP3 ADD SWAP1 POP PUSH2 0xBD8 PUSH1 0x0 DUP4 ADD DUP5 PUSH2 0xA0B JUMP JUMPDEST SWAP3 SWAP2 POP POP JUMP JUMPDEST PUSH1 0x0 PUSH1 0x20 DUP3 ADD SWAP1 POP PUSH2 0xBF3 PUSH1 0x0 DUP4 ADD DUP5 PUSH2 0xA62 JUMP JUMPDEST SWAP3 SWAP2 POP POP JUMP JUMPDEST PUSH1 0x0 PUSH1 0x20 DUP3 ADD SWAP1 POP PUSH2 0xC0E PUSH1 0x0 DUP4 ADD DUP5 PUSH2 0xA80 JUMP JUMPDEST SWAP3 SWAP2 POP POP JUMP JUMPDEST PUSH1 0x0 PUSH1 0x20 DUP3 ADD SWAP1 POP DUP2 DUP2 SUB PUSH1 0x0 DUP4 ADD MSTORE PUSH2 0xC2D DUP2 PUSH2 0xA8F JUMP JUMPDEST SWAP1 POP SWAP2 SWAP1 POP JUMP JUMPDEST PUSH1 0x0 PUSH1 0x20 DUP3 ADD SWAP1 POP DUP2 DUP2 SUB PUSH1 0x0 DUP4 ADD MSTORE PUSH2 0xC4D DUP2 PUSH2 0xAB2 JUMP JUMPDEST SWAP1 POP SWAP2 SWAP1 POP JUMP JUMPDEST PUSH1 0x0 PUSH1 0x20 DUP3 ADD SWAP1 POP DUP2 DUP2 SUB PUSH1 0x0 DUP4 ADD MSTORE PUSH2 0xC6D DUP2 PUSH2 0xAD5 JUMP JUMPDEST SWAP1 POP SWAP2 SWAP1 POP JUMP JUMPDEST PUSH1 0x0 PUSH1 0x20 DUP3 ADD SWAP1 POP DUP2 DUP2 SUB PUSH1 0x0 DUP4 ADD MSTORE PUSH2 0xC8D DUP2 PUSH2 0xAF8 JUMP JUMPDEST SWAP1 POP SWAP2 SWAP1 POP JUMP JUMPDEST PUSH1 0x0 PUSH1 0x20 DUP3 ADD SWAP1 POP DUP2 DUP2 SUB PUSH1 0x0 DUP4 ADD MSTORE PUSH2 0xCAD DUP2 PUSH2 0xB1B JUMP JUMPDEST SWAP1 POP SWAP2 SWAP1 POP JUMP JUMPDEST PUSH1 0x0 PUSH1 0x20 DUP3 ADD SWAP1 POP DUP2 DUP2 SUB PUSH1 0x0 DUP4 ADD MSTORE PUSH2 0xCCD DUP2 PUSH2 0xB3E JUMP JUMPDEST SWAP1 POP SWAP2 SWAP1 POP JUMP JUMPDEST PUSH1 0x0 PUSH1 0x20 DUP3 ADD SWAP1 POP DUP2 DUP2 SUB PUSH1 0x0 DUP4 ADD MSTORE PUSH2 0xCED DUP2 PUSH2 0xB61 JUMP JUMPDEST SWAP1 POP SWAP2 SWAP1 POP JUMP JUMPDEST PUSH1 0x0 PUSH1 0x20 DUP3 ADD SWAP1 POP DUP2 DUP2 SUB PUSH1 0x0 DUP4 ADD MSTORE PUSH2 0xD0D DUP2 PUSH2 0xB84 JUMP JUMPDEST SWAP1 POP SWAP2 SWAP1 POP JUMP JUMPDEST PUSH1 0x0 DUP2 SWAP1 POP SWAP2 SWAP1 POP JUMP JUMPDEST PUSH1 0x0 PUSH1 0x9 SWAP1 POP SWAP2 SWAP1 POP JUMP JUMPDEST PUSH1 0x0 PUSH1 0x20 DUP3 ADD SWAP1 POP SWAP2 SWAP1 POP JUMP JUMPDEST PUSH1 0x0 DUP2 SWAP1 POP SWAP3 SWAP2 POP POP JUMP JUMPDEST PUSH1 0x0 DUP3 DUP3 MSTORE PUSH1 0x20 DUP3 ADD SWAP1 POP SWAP3 SWAP2 POP POP JUMP JUMPDEST PUSH1 0x0 PUSH2 0xD5D DUP3 PUSH2 0xD8A JUMP JUMPDEST SWAP1 POP SWAP2 SWAP1 POP JUMP JUMPDEST PUSH1 0x0 DUP2 SWAP1 POP PUSH2 0xD72 DUP3 PUSH2 0xF86 JUMP JUMPDEST SWAP2 SWAP1 POP JUMP JUMPDEST PUSH1 0x0 DUP2 SWAP1 POP PUSH2 0xD85 DUP3 PUSH2 0xF9A JUMP JUMPDEST SWAP2 SWAP1 POP JUMP JUMPDEST PUSH1 0x0 PUSH20 0xFFFFFFFFFFFFFFFFFFFFFFFFFFFFFFFFFFFFFFFF DUP3 AND SWAP1 POP SWAP2 SWAP1 POP JUMP JUMPDEST PUSH1 0x0 PUSH1 0xFF DUP3 AND SWAP1 POP SWAP2 SWAP1 POP JUMP JUMPDEST PUSH1 0x0 PUSH2 0xDC2 DUP3 PUSH2 0xD64 JUMP JUMPDEST SWAP1 POP SWAP2 SWAP1 POP JUMP JUMPDEST PUSH1 0x0 PUSH2 0xDD4 DUP3 PUSH2 0xD77 JUMP JUMPDEST SWAP1 POP SWAP2 SWAP1 POP JUMP JUMPDEST PUSH32 0x4E487B7100000000000000000000000000000000000000000000000000000000 PUSH1 0x0 MSTORE PUSH1 0x21 PUSH1 0x4 MSTORE PUSH1 0x24 PUSH1 0x0 REVERT JUMPDEST PUSH32 0x4E487B7100000000000000000000000000000000000000000000000000000000 PUSH1 0x0 MSTORE PUSH1 0x32 PUSH1 0x4 MSTORE PUSH1 0x24 PUSH1 0x0 REVERT JUMPDEST PUSH1 0x0 DUP1 REVERT JUMPDEST PUSH32 0x4769766520612076616C6964206C6F636174696F6E0000000000000000000000 PUSH1 0x0 DUP3 ADD MSTORE POP JUMP JUMPDEST PUSH32 0x47616D65206973207374696C6C2072756E6E696E670000000000000000000000 PUSH1 0x0 DUP3 ADD MSTORE POP JUMP JUMPDEST PUSH32 0x47616D652069732066756C6C2C207761697420796F7572207475726E00000000 PUSH1 0x0 DUP3 ADD MSTORE POP JUMP JUMPDEST PUSH32 0x49742773206E6F7420796F7572207475726E0000000000000000000000000000 PUSH1 0x0 DUP3 ADD MSTORE POP JUMP JUMPDEST PUSH32 0x47616D65206973206F7665720000000000000000000000000000000000000000 PUSH1 0x0 DUP3 ADD MSTORE POP JUMP JUMPDEST PUSH32 0x466972737420706C61796572206861736E2774206A6F696E6564000000000000 PUSH1 0x0 DUP3 ADD MSTORE POP JUMP JUMPDEST PUSH32 0x5365636F6E6420706C61796572206861736E2774206A6F696E65640000000000 PUSH1 0x0 DUP3 ADD MSTORE POP JUMP JUMPDEST PUSH32 0x536F6D656F6E6520616C7265616479206D6164652074686973206D6F76650000 PUSH1 0x0 DUP3 ADD MSTORE POP JUMP JUMPDEST PUSH1 0x4 DUP2 LT PUSH2 0xF97 JUMPI PUSH2 0xF96 PUSH2 0xDDB JUMP JUMPDEST JUMPDEST POP JUMP JUMPDEST PUSH1 0x3 DUP2 LT PUSH2 0xFAB JUMPI PUSH2 0xFAA PUSH2 0xDDB JUMP JUMPDEST JUMPDEST POP JUMP JUMPDEST PUSH2 0xFB7 DUP2 PUSH2 0xDAA JUMP JUMPDEST DUP2 EQ PUSH2 0xFC2 JUMPI PUSH1 0x0 DUP1 REVERT JUMPDEST POP JUMP INVALID LOG2 PUSH5 0x6970667358 0x22 SLT KECCAK256 0xAC ADDRESS 0x28 EXTCODECOPY EXTCODESIZE PUSH27 0x5486DE3005D73D3F6E9662EE5203E2AB58B75F6B6B7777C7527364 PUSH20 0x6F6C634300080700330000000000000000000000 "
				},
				"gasEstimates": {
					"creation": {
						"codeDepositCost": "818200",
						"executionCost": "25200",
						"totalCost": "843400"
					},
					"external": {
						"getBoard()": "infinite",
						"joinGame()": "31002",
						"move(uint8)": "45862",
						"nextMove()": "2610",
						"player1()": "2555",
						"player2()": "2559",
						"resetGame()": "104682",
						"status()": "2611"
					},
					"internal": {
						"getCurrentPlayer()": "6698"
					}
				},
				"methodIdentifiers": {
					"getBoard()": "3264a34b",
					"joinGame()": "d4f77b1c",
					"move(uint8)": "70e87aaf",
					"nextMove()": "82df5242",
					"player1()": "d30895e4",
					"player2()": "59a5f12d",
					"resetGame()": "bb472219",
					"status()": "200d2ed2"
				}
			},
			"storageLayout": {
				"storage": [
					{
						"astId": 13,
						"contract": "contracts/1_Tictactoe.sol:TicTacToe",
						"label": "player1",
						"offset": 0,
						"slot": "0",
						"type": "t_address"
					},
					{
						"astId": 15,
						"contract": "contracts/1_Tictactoe.sol:TicTacToe",
						"label": "player2",
						"offset": 0,
						"slot": "1",
						"type": "t_address"
					},
					{
						"astId": 18,
						"contract": "contracts/1_Tictactoe.sol:TicTacToe",
						"label": "status",
						"offset": 20,
						"slot": "1",
						"type": "t_enum(GameStatus)11"
					},
					{
						"astId": 21,
						"contract": "contracts/1_Tictactoe.sol:TicTacToe",
						"label": "nextMove",
						"offset": 21,
						"slot": "1",
						"type": "t_enum(Move)6"
					},
					{
						"astId": 27,
						"contract": "contracts/1_Tictactoe.sol:TicTacToe",
						"label": "board",
						"offset": 0,
						"slot": "2",
						"type": "t_array(t_enum(Move)6)9_storage"
					}
				],
				"types": {
					"t_address": {
						"encoding": "inplace",
						"label": "address",
						"numberOfBytes": "20"
					},
					"t_array(t_enum(Move)6)9_storage": {
						"base": "t_enum(Move)6",
						"encoding": "inplace",
						"label": "enum TicTacToe.Move[9]",
						"numberOfBytes": "32"
					},
					"t_enum(GameStatus)11": {
						"encoding": "inplace",
						"label": "enum TicTacToe.GameStatus",
						"numberOfBytes": "1"
					},
					"t_enum(Move)6": {
						"encoding": "inplace",
						"label": "enum TicTacToe.Move",
						"numberOfBytes": "1"
					}
				}
			},
			"userdoc": {
				"kind": "user",
				"methods": {},
				"version": 1
			}
		}
	}
}