{
	"contracts/1_Tictactoe.sol": {
		"TicTacToe": {
			"abi": [
				{
					"inputs": [],
					"stateMutability": "nonpayable",
					"type": "constructor"
				},
				{
					"anonymous": false,
					"inputs": [],
					"name": "BoardChange",
					"type": "event"
				},
				{
					"anonymous": false,
					"inputs": [],
					"name": "GameReset",
					"type": "event"
				},
				{
					"anonymous": false,
					"inputs": [],
					"name": "PlayersChange",
					"type": "event"
				},
				{
					"inputs": [
						{
							"internalType": "uint8",
							"name": "location",
							"type": "uint8"
						}
					],
					"name": "doMove",
					"outputs": [],
					"stateMutability": "nonpayable",
					"type": "function"
				},
				{
					"inputs": [],
					"name": "getBoard",
					"outputs": [
						{
							"internalType": "enum TicTacToe.Move[9]",
							"name": "",
							"type": "uint8[9]"
						}
					],
					"stateMutability": "view",
					"type": "function"
				},
				{
					"inputs": [],
					"name": "joinGame",
					"outputs": [],
					"stateMutability": "nonpayable",
					"type": "function"
				},
				{
					"inputs": [],
					"name": "nextMove",
					"outputs": [
						{
							"internalType": "enum TicTacToe.Move",
							"name": "",
							"type": "uint8"
						}
					],
					"stateMutability": "view",
					"type": "function"
				},
				{
					"inputs": [],
					"name": "player1",
					"outputs": [
						{
							"internalType": "address",
							"name": "",
							"type": "address"
						}
					],
					"stateMutability": "view",
					"type": "function"
				},
				{
					"inputs": [],
					"name": "player2",
					"outputs": [
						{
							"internalType": "address",
							"name": "",
							"type": "address"
						}
					],
					"stateMutability": "view",
					"type": "function"
				},
				{
					"inputs": [],
					"name": "resetGame",
					"outputs": [],
					"stateMutability": "nonpayable",
					"type": "function"
				},
				{
					"inputs": [],
					"name": "status",
					"outputs": [
						{
							"internalType": "enum TicTacToe.GameStatus",
							"name": "",
							"type": "uint8"
						}
					],
					"stateMutability": "view",
					"type": "function"
				}
			],
			"devdoc": {
				"details": "Implements a tic-tac-toe game with betting",
				"kind": "dev",
				"methods": {},
				"title": "TicTacToe",
				"version": 1
			},
			"evm": {
				"assembly": "    /* \"contracts/1_Tictactoe.sol\":150:3904  contract TicTacToe {... */\n  mstore(0x40, 0x80)\n    /* \"contracts/1_Tictactoe.sol\":640:729  constructor() {... */\n  callvalue\n  dup1\n  iszero\n  tag_1\n  jumpi\n  0x00\n  dup1\n  revert\ntag_1:\n  pop\n    /* \"contracts/1_Tictactoe.sol\":673:689  GameStatus.Lobby */\n  0x00\n    /* \"contracts/1_Tictactoe.sol\":664:670  status */\n  0x01\n  0x14\n    /* \"contracts/1_Tictactoe.sol\":664:689  status = GameStatus.Lobby */\n  0x0100\n  exp\n  dup2\n  sload\n  dup2\n  0xff\n  mul\n  not\n  and\n  swap1\n  dup4\n  0x04\n  dup2\n  gt\n  iszero\n  tag_4\n  jumpi\n  tag_5\n  tag_6\n  jump\t// in\ntag_5:\ntag_4:\n  mul\n  or\n  swap1\n  sstore\n  pop\n    /* \"contracts/1_Tictactoe.sol\":710:722  Move.Player1 */\n  0x01\n    /* \"contracts/1_Tictactoe.sol\":699:707  nextMove */\n  dup1\n  0x15\n    /* \"contracts/1_Tictactoe.sol\":699:722  nextMove = Move.Player1 */\n  0x0100\n  exp\n  dup2\n  sload\n  dup2\n  0xff\n  mul\n  not\n  and\n  swap1\n  dup4\n  0x02\n  dup2\n  gt\n  iszero\n  tag_7\n  jumpi\n  tag_8\n  tag_6\n  jump\t// in\ntag_8:\ntag_7:\n  mul\n  or\n  swap1\n  sstore\n  pop\n    /* \"contracts/1_Tictactoe.sol\":150:3904  contract TicTacToe {... */\n  jump(tag_9)\n    /* \"#utility.yul\":7:187   */\ntag_6:\n    /* \"#utility.yul\":55:132   */\n  0x4e487b7100000000000000000000000000000000000000000000000000000000\n    /* \"#utility.yul\":52:53   */\n  0x00\n    /* \"#utility.yul\":45:133   */\n  mstore\n    /* \"#utility.yul\":152:156   */\n  0x21\n    /* \"#utility.yul\":149:150   */\n  0x04\n    /* \"#utility.yul\":142:157   */\n  mstore\n    /* \"#utility.yul\":176:180   */\n  0x24\n    /* \"#utility.yul\":173:174   */\n  0x00\n    /* \"#utility.yul\":166:181   */\n  revert\n    /* \"contracts/1_Tictactoe.sol\":150:3904  contract TicTacToe {... */\ntag_9:\n  dataSize(sub_0)\n  dup1\n  dataOffset(sub_0)\n  0x00\n  codecopy\n  0x00\n  return\nstop\n\nsub_0: assembly {\n        /* \"contracts/1_Tictactoe.sol\":150:3904  contract TicTacToe {... */\n      mstore(0x40, 0x80)\n      callvalue\n      dup1\n      iszero\n      tag_1\n      jumpi\n      0x00\n      dup1\n      revert\n    tag_1:\n      pop\n      jumpi(tag_2, lt(calldatasize, 0x04))\n      shr(0xe0, calldataload(0x00))\n      dup1\n      0x82df5242\n      gt\n      tag_11\n      jumpi\n      dup1\n      0x82df5242\n      eq\n      tag_7\n      jumpi\n      dup1\n      0xbb472219\n      eq\n      tag_8\n      jumpi\n      dup1\n      0xd30895e4\n      eq\n      tag_9\n      jumpi\n      dup1\n      0xd4f77b1c\n      eq\n      tag_10\n      jumpi\n      jump(tag_2)\n    tag_11:\n      dup1\n      0x200d2ed2\n      eq\n      tag_3\n      jumpi\n      dup1\n      0x3264a34b\n      eq\n      tag_4\n      jumpi\n      dup1\n      0x3cd56f48\n      eq\n      tag_5\n      jumpi\n      dup1\n      0x59a5f12d\n      eq\n      tag_6\n      jumpi\n    tag_2:\n      0x00\n      dup1\n      revert\n        /* \"contracts/1_Tictactoe.sol\":494:518  GameStatus public status */\n    tag_3:\n      tag_12\n      tag_13\n      jump\t// in\n    tag_12:\n      mload(0x40)\n      tag_14\n      swap2\n      swap1\n      tag_15\n      jump\t// in\n    tag_14:\n      mload(0x40)\n      dup1\n      swap2\n      sub\n      swap1\n      return\n        /* \"contracts/1_Tictactoe.sol\":2188:2275  function getBoard() external view returns(Move[9] memory) {... */\n    tag_4:\n      tag_16\n      tag_17\n      jump\t// in\n    tag_16:\n      mload(0x40)\n      tag_18\n      swap2\n      swap1\n      tag_19\n      jump\t// in\n    tag_18:\n      mload(0x40)\n      dup1\n      swap2\n      sub\n      swap1\n      return\n        /* \"contracts/1_Tictactoe.sol\":1331:2182  function doMove(uint8 location) external {... */\n    tag_5:\n      tag_20\n      0x04\n      dup1\n      calldatasize\n      sub\n      dup2\n      add\n      swap1\n      tag_21\n      swap2\n      swap1\n      tag_22\n      jump\t// in\n    tag_21:\n      tag_23\n      jump\t// in\n    tag_20:\n      stop\n        /* \"contracts/1_Tictactoe.sol\":385:407  address public player2 */\n    tag_6:\n      tag_24\n      tag_25\n      jump\t// in\n    tag_24:\n      mload(0x40)\n      tag_26\n      swap2\n      swap1\n      tag_27\n      jump\t// in\n    tag_26:\n      mload(0x40)\n      dup1\n      swap2\n      sub\n      swap1\n      return\n        /* \"contracts/1_Tictactoe.sol\":524:544  Move public nextMove */\n    tag_7:\n      tag_28\n      tag_29\n      jump\t// in\n    tag_28:\n      mload(0x40)\n      tag_30\n      swap2\n      swap1\n      tag_31\n      jump\t// in\n    tag_30:\n      mload(0x40)\n      dup1\n      swap2\n      sub\n      swap1\n      return\n        /* \"contracts/1_Tictactoe.sol\":1040:1325  function resetGame() external {... */\n    tag_8:\n      tag_32\n      tag_33\n      jump\t// in\n    tag_32:\n      stop\n        /* \"contracts/1_Tictactoe.sol\":357:379  address public player1 */\n    tag_9:\n      tag_34\n      tag_35\n      jump\t// in\n    tag_34:\n      mload(0x40)\n      tag_36\n      swap2\n      swap1\n      tag_27\n      jump\t// in\n    tag_36:\n      mload(0x40)\n      dup1\n      swap2\n      sub\n      swap1\n      return\n        /* \"contracts/1_Tictactoe.sol\":735:1034  function joinGame() external {... */\n    tag_10:\n      tag_37\n      tag_38\n      jump\t// in\n    tag_37:\n      stop\n        /* \"contracts/1_Tictactoe.sol\":494:518  GameStatus public status */\n    tag_13:\n      0x01\n      0x14\n      swap1\n      sload\n      swap1\n      0x0100\n      exp\n      swap1\n      div\n      0xff\n      and\n      dup2\n      jump\t// out\n        /* \"contracts/1_Tictactoe.sol\":2188:2275  function getBoard() external view returns(Move[9] memory) {... */\n    tag_17:\n        /* \"contracts/1_Tictactoe.sol\":2230:2244  Move[9] memory */\n      tag_39\n      tag_40\n      jump\t// in\n    tag_39:\n        /* \"contracts/1_Tictactoe.sol\":2263:2268  board */\n      0x02\n        /* \"contracts/1_Tictactoe.sol\":2256:2268  return board */\n      0x09\n      dup1\n      0x20\n      mul\n      mload(0x40)\n      swap1\n      dup2\n      add\n      0x40\n      mstore\n      dup1\n      swap3\n      swap2\n      swap1\n      dup3\n      0x09\n      dup1\n      iszero\n      tag_42\n      jumpi\n      0x20\n      mul\n      dup3\n      add\n      swap2\n      0x00\n      swap1\n    tag_43:\n      dup3\n      dup3\n      swap1\n      sload\n      swap1\n      0x0100\n      exp\n      swap1\n      div\n      0xff\n      and\n      0x02\n      dup2\n      gt\n      iszero\n      tag_44\n      jumpi\n      tag_45\n      tag_46\n      jump\t// in\n    tag_45:\n    tag_44:\n      dup2\n      mstore\n      0x20\n      add\n      swap1\n      0x01\n      add\n      swap1\n      0x20\n      dup3\n      0x00\n      add\n      div\n      swap3\n      dup4\n      add\n      swap3\n      0x01\n      sub\n      dup3\n      mul\n      swap2\n      pop\n      dup1\n      dup5\n      gt\n      tag_43\n      jumpi\n      swap1\n      pop\n    tag_42:\n      pop\n      pop\n      pop\n      pop\n      pop\n      swap1\n      pop\n        /* \"contracts/1_Tictactoe.sol\":2188:2275  function getBoard() external view returns(Move[9] memory) {... */\n      swap1\n      jump\t// out\n        /* \"contracts/1_Tictactoe.sol\":1331:2182  function doMove(uint8 location) external {... */\n    tag_23:\n        /* \"contracts/1_Tictactoe.sol\":1410:1411  0 */\n      0x00\n        /* \"contracts/1_Tictactoe.sol\":1391:1412  player1 != address(0) */\n      0xffffffffffffffffffffffffffffffffffffffff\n      and\n        /* \"contracts/1_Tictactoe.sol\":1391:1398  player1 */\n      0x00\n      dup1\n      sload\n      swap1\n      0x0100\n      exp\n      swap1\n      div\n      0xffffffffffffffffffffffffffffffffffffffff\n      and\n        /* \"contracts/1_Tictactoe.sol\":1391:1412  player1 != address(0) */\n      0xffffffffffffffffffffffffffffffffffffffff\n      and\n      eq\n      iszero\n        /* \"contracts/1_Tictactoe.sol\":1383:1443  require(player1 != address(0), \"First player hasn't joined\") */\n      tag_48\n      jumpi\n      mload(0x40)\n      0x08c379a000000000000000000000000000000000000000000000000000000000\n      dup2\n      mstore\n      0x04\n      add\n      tag_49\n      swap1\n      tag_50\n      jump\t// in\n    tag_49:\n      mload(0x40)\n      dup1\n      swap2\n      sub\n      swap1\n      revert\n    tag_48:\n        /* \"contracts/1_Tictactoe.sol\":1480:1481  0 */\n      0x00\n        /* \"contracts/1_Tictactoe.sol\":1461:1482  player2 != address(0) */\n      0xffffffffffffffffffffffffffffffffffffffff\n      and\n        /* \"contracts/1_Tictactoe.sol\":1461:1468  player2 */\n      0x01\n      0x00\n      swap1\n      sload\n      swap1\n      0x0100\n      exp\n      swap1\n      div\n      0xffffffffffffffffffffffffffffffffffffffff\n      and\n        /* \"contracts/1_Tictactoe.sol\":1461:1482  player2 != address(0) */\n      0xffffffffffffffffffffffffffffffffffffffff\n      and\n      eq\n      iszero\n        /* \"contracts/1_Tictactoe.sol\":1453:1514  require(player2 != address(0), \"Second player hasn't joined\") */\n      tag_51\n      jumpi\n      mload(0x40)\n      0x08c379a000000000000000000000000000000000000000000000000000000000\n      dup2\n      mstore\n      0x04\n      add\n      tag_52\n      swap1\n      tag_53\n      jump\t// in\n    tag_52:\n      mload(0x40)\n      dup1\n      swap2\n      sub\n      swap1\n      revert\n    tag_51:\n        /* \"contracts/1_Tictactoe.sol\":1542:1560  GameStatus.Playing */\n      0x01\n        /* \"contracts/1_Tictactoe.sol\":1532:1560  status == GameStatus.Playing */\n      0x04\n      dup2\n      gt\n      iszero\n      tag_54\n      jumpi\n      tag_55\n      tag_46\n      jump\t// in\n    tag_55:\n    tag_54:\n        /* \"contracts/1_Tictactoe.sol\":1532:1538  status */\n      0x01\n      0x14\n      swap1\n      sload\n      swap1\n      0x0100\n      exp\n      swap1\n      div\n      0xff\n      and\n        /* \"contracts/1_Tictactoe.sol\":1532:1560  status == GameStatus.Playing */\n      0x04\n      dup2\n      gt\n      iszero\n      tag_56\n      jumpi\n      tag_57\n      tag_46\n      jump\t// in\n    tag_57:\n    tag_56:\n      eq\n        /* \"contracts/1_Tictactoe.sol\":1524:1577  require(status == GameStatus.Playing, \"Game is over\") */\n      tag_58\n      jumpi\n      mload(0x40)\n      0x08c379a000000000000000000000000000000000000000000000000000000000\n      dup2\n      mstore\n      0x04\n      add\n      tag_59\n      swap1\n      tag_60\n      jump\t// in\n    tag_59:\n      mload(0x40)\n      dup1\n      swap2\n      sub\n      swap1\n      revert\n    tag_58:\n        /* \"contracts/1_Tictactoe.sol\":1606:1607  9 */\n      0x09\n        /* \"contracts/1_Tictactoe.sol\":1595:1603  location */\n      dup2\n        /* \"contracts/1_Tictactoe.sol\":1595:1607  location < 9 */\n      0xff\n      and\n      lt\n        /* \"contracts/1_Tictactoe.sol\":1587:1633  require(location < 9, \"Give a valid location\") */\n      tag_61\n      jumpi\n      mload(0x40)\n      0x08c379a000000000000000000000000000000000000000000000000000000000\n      dup2\n      mstore\n      0x04\n      add\n      tag_62\n      swap1\n      tag_63\n      jump\t// in\n    tag_62:\n      mload(0x40)\n      dup1\n      swap2\n      sub\n      swap1\n      revert\n    tag_61:\n        /* \"contracts/1_Tictactoe.sol\":1665:1683  getCurrentPlayer() */\n      tag_64\n        /* \"contracts/1_Tictactoe.sol\":1665:1681  getCurrentPlayer */\n      tag_65\n        /* \"contracts/1_Tictactoe.sol\":1665:1683  getCurrentPlayer() */\n      jump\t// in\n    tag_64:\n        /* \"contracts/1_Tictactoe.sol\":1651:1683  msg.sender == getCurrentPlayer() */\n      0xffffffffffffffffffffffffffffffffffffffff\n      and\n        /* \"contracts/1_Tictactoe.sol\":1651:1661  msg.sender */\n      caller\n        /* \"contracts/1_Tictactoe.sol\":1651:1683  msg.sender == getCurrentPlayer() */\n      0xffffffffffffffffffffffffffffffffffffffff\n      and\n      eq\n        /* \"contracts/1_Tictactoe.sol\":1643:1706  require(msg.sender == getCurrentPlayer(), \"It's not your turn\") */\n      tag_66\n      jumpi\n      mload(0x40)\n      0x08c379a000000000000000000000000000000000000000000000000000000000\n      dup2\n      mstore\n      0x04\n      add\n      tag_67\n      swap1\n      tag_68\n      jump\t// in\n    tag_67:\n      mload(0x40)\n      dup1\n      swap2\n      sub\n      swap1\n      revert\n    tag_66:\n        /* \"contracts/1_Tictactoe.sol\":1743:1752  Move.None */\n      0x00\n        /* \"contracts/1_Tictactoe.sol\":1724:1752  board[location] == Move.None */\n      0x02\n      dup2\n      gt\n      iszero\n      tag_69\n      jumpi\n      tag_70\n      tag_46\n      jump\t// in\n    tag_70:\n    tag_69:\n        /* \"contracts/1_Tictactoe.sol\":1724:1729  board */\n      0x02\n        /* \"contracts/1_Tictactoe.sol\":1730:1738  location */\n      dup3\n        /* \"contracts/1_Tictactoe.sol\":1724:1739  board[location] */\n      0xff\n      and\n      0x09\n      dup2\n      lt\n      tag_71\n      jumpi\n      tag_72\n      tag_73\n      jump\t// in\n    tag_72:\n    tag_71:\n      0x20\n      swap2\n      dup3\n      dup3\n      div\n      add\n      swap2\n      swap1\n      mod\n      swap1\n      sload\n      swap1\n      0x0100\n      exp\n      swap1\n      div\n      0xff\n      and\n        /* \"contracts/1_Tictactoe.sol\":1724:1752  board[location] == Move.None */\n      0x02\n      dup2\n      gt\n      iszero\n      tag_75\n      jumpi\n      tag_76\n      tag_46\n      jump\t// in\n    tag_76:\n    tag_75:\n      eq\n        /* \"contracts/1_Tictactoe.sol\":1716:1787  require(board[location] == Move.None, \"Someone already made this move\") */\n      tag_77\n      jumpi\n      mload(0x40)\n      0x08c379a000000000000000000000000000000000000000000000000000000000\n      dup2\n      mstore\n      0x04\n      add\n      tag_78\n      swap1\n      tag_79\n      jump\t// in\n    tag_78:\n      mload(0x40)\n      dup1\n      swap2\n      sub\n      swap1\n      revert\n    tag_77:\n        /* \"contracts/1_Tictactoe.sol\":1815:1823  nextMove */\n      0x01\n      0x15\n      swap1\n      sload\n      swap1\n      0x0100\n      exp\n      swap1\n      div\n      0xff\n      and\n        /* \"contracts/1_Tictactoe.sol\":1797:1802  board */\n      0x02\n        /* \"contracts/1_Tictactoe.sol\":1803:1811  location */\n      dup3\n        /* \"contracts/1_Tictactoe.sol\":1797:1812  board[location] */\n      0xff\n      and\n      0x09\n      dup2\n      lt\n      tag_80\n      jumpi\n      tag_81\n      tag_73\n      jump\t// in\n    tag_81:\n    tag_80:\n      0x20\n      swap2\n      dup3\n      dup3\n      div\n      add\n      swap2\n      swap1\n      mod\n        /* \"contracts/1_Tictactoe.sol\":1797:1823  board[location] = nextMove */\n      0x0100\n      exp\n      dup2\n      sload\n      dup2\n      0xff\n      mul\n      not\n      and\n      swap1\n      dup4\n      0x02\n      dup2\n      gt\n      iszero\n      tag_83\n      jumpi\n      tag_84\n      tag_46\n      jump\t// in\n    tag_84:\n    tag_83:\n      mul\n      or\n      swap1\n      sstore\n      pop\n        /* \"contracts/1_Tictactoe.sol\":1842:1855  checkStatus() */\n      tag_85\n        /* \"contracts/1_Tictactoe.sol\":1842:1853  checkStatus */\n      tag_86\n        /* \"contracts/1_Tictactoe.sol\":1842:1855  checkStatus() */\n      jump\t// in\n    tag_85:\n        /* \"contracts/1_Tictactoe.sol\":1833:1839  status */\n      0x01\n      0x14\n        /* \"contracts/1_Tictactoe.sol\":1833:1855  status = checkStatus() */\n      0x0100\n      exp\n      dup2\n      sload\n      dup2\n      0xff\n      mul\n      not\n      and\n      swap1\n      dup4\n      0x04\n      dup2\n      gt\n      iszero\n      tag_87\n      jumpi\n      tag_88\n      tag_46\n      jump\t// in\n    tag_88:\n    tag_87:\n      mul\n      or\n      swap1\n      sstore\n      pop\n        /* \"contracts/1_Tictactoe.sol\":1914:1932  GameStatus.Playing */\n      0x01\n        /* \"contracts/1_Tictactoe.sol\":1904:1932  status != GameStatus.Playing */\n      0x04\n      dup2\n      gt\n      iszero\n      tag_89\n      jumpi\n      tag_90\n      tag_46\n      jump\t// in\n    tag_90:\n    tag_89:\n        /* \"contracts/1_Tictactoe.sol\":1904:1910  status */\n      0x01\n      0x14\n      swap1\n      sload\n      swap1\n      0x0100\n      exp\n      swap1\n      div\n      0xff\n      and\n        /* \"contracts/1_Tictactoe.sol\":1904:1932  status != GameStatus.Playing */\n      0x04\n      dup2\n      gt\n      iszero\n      tag_91\n      jumpi\n      tag_92\n      tag_46\n      jump\t// in\n    tag_92:\n    tag_91:\n      eq\n        /* \"contracts/1_Tictactoe.sol\":1900:2147  if (status != GameStatus.Playing) {... */\n      tag_93\n      jumpi\n        /* \"contracts/1_Tictactoe.sol\":1959:1968  Move.None */\n      0x00\n        /* \"contracts/1_Tictactoe.sol\":1948:1956  nextMove */\n      0x01\n      0x15\n        /* \"contracts/1_Tictactoe.sol\":1948:1968  nextMove = Move.None */\n      0x0100\n      exp\n      dup2\n      sload\n      dup2\n      0xff\n      mul\n      not\n      and\n      swap1\n      dup4\n      0x02\n      dup2\n      gt\n      iszero\n      tag_94\n      jumpi\n      tag_95\n      tag_46\n      jump\t// in\n    tag_95:\n    tag_94:\n      mul\n      or\n      swap1\n      sstore\n      pop\n        /* \"contracts/1_Tictactoe.sol\":1900:2147  if (status != GameStatus.Playing) {... */\n      jump(tag_96)\n    tag_93:\n        /* \"contracts/1_Tictactoe.sol\":2001:2013  Move.Player1 */\n      0x01\n        /* \"contracts/1_Tictactoe.sol\":1989:2013  nextMove == Move.Player1 */\n      0x02\n      dup2\n      gt\n      iszero\n      tag_97\n      jumpi\n      tag_98\n      tag_46\n      jump\t// in\n    tag_98:\n    tag_97:\n        /* \"contracts/1_Tictactoe.sol\":1989:1997  nextMove */\n      0x01\n      0x15\n      swap1\n      sload\n      swap1\n      0x0100\n      exp\n      swap1\n      div\n      0xff\n      and\n        /* \"contracts/1_Tictactoe.sol\":1989:2013  nextMove == Move.Player1 */\n      0x02\n      dup2\n      gt\n      iszero\n      tag_99\n      jumpi\n      tag_100\n      tag_46\n      jump\t// in\n    tag_100:\n    tag_99:\n      eq\n        /* \"contracts/1_Tictactoe.sol\":1985:2147  if (nextMove == Move.Player1) {... */\n      iszero\n      tag_101\n      jumpi\n        /* \"contracts/1_Tictactoe.sol\":2040:2052  Move.Player2 */\n      0x02\n        /* \"contracts/1_Tictactoe.sol\":2029:2037  nextMove */\n      0x01\n      0x15\n        /* \"contracts/1_Tictactoe.sol\":2029:2052  nextMove = Move.Player2 */\n      0x0100\n      exp\n      dup2\n      sload\n      dup2\n      0xff\n      mul\n      not\n      and\n      swap1\n      dup4\n      0x02\n      dup2\n      gt\n      iszero\n      tag_102\n      jumpi\n      tag_103\n      tag_46\n      jump\t// in\n    tag_103:\n    tag_102:\n      mul\n      or\n      swap1\n      sstore\n      pop\n        /* \"contracts/1_Tictactoe.sol\":1985:2147  if (nextMove == Move.Player1) {... */\n      jump(tag_104)\n    tag_101:\n        /* \"contracts/1_Tictactoe.sol\":2085:2097  Move.Player2 */\n      0x02\n        /* \"contracts/1_Tictactoe.sol\":2073:2097  nextMove == Move.Player2 */\n      dup1\n      dup2\n      gt\n      iszero\n      tag_105\n      jumpi\n      tag_106\n      tag_46\n      jump\t// in\n    tag_106:\n    tag_105:\n        /* \"contracts/1_Tictactoe.sol\":2073:2081  nextMove */\n      0x01\n      0x15\n      swap1\n      sload\n      swap1\n      0x0100\n      exp\n      swap1\n      div\n      0xff\n      and\n        /* \"contracts/1_Tictactoe.sol\":2073:2097  nextMove == Move.Player2 */\n      0x02\n      dup2\n      gt\n      iszero\n      tag_107\n      jumpi\n      tag_108\n      tag_46\n      jump\t// in\n    tag_108:\n    tag_107:\n      eq\n        /* \"contracts/1_Tictactoe.sol\":2069:2147  if (nextMove == Move.Player2) {... */\n      iszero\n      tag_109\n      jumpi\n        /* \"contracts/1_Tictactoe.sol\":2124:2136  Move.Player1 */\n      0x01\n        /* \"contracts/1_Tictactoe.sol\":2113:2121  nextMove */\n      dup1\n      0x15\n        /* \"contracts/1_Tictactoe.sol\":2113:2136  nextMove = Move.Player1 */\n      0x0100\n      exp\n      dup2\n      sload\n      dup2\n      0xff\n      mul\n      not\n      and\n      swap1\n      dup4\n      0x02\n      dup2\n      gt\n      iszero\n      tag_110\n      jumpi\n      tag_111\n      tag_46\n      jump\t// in\n    tag_111:\n    tag_110:\n      mul\n      or\n      swap1\n      sstore\n      pop\n        /* \"contracts/1_Tictactoe.sol\":2069:2147  if (nextMove == Move.Player2) {... */\n    tag_109:\n        /* \"contracts/1_Tictactoe.sol\":1985:2147  if (nextMove == Move.Player1) {... */\n    tag_104:\n        /* \"contracts/1_Tictactoe.sol\":1900:2147  if (status != GameStatus.Playing) {... */\n    tag_96:\n        /* \"contracts/1_Tictactoe.sol\":2161:2174  BoardChange() */\n      0x3f1a24e0caa950d20bd4d30dd73c8add047f2458b656894e3e3d3b6eefbe765d\n      mload(0x40)\n      mload(0x40)\n      dup1\n      swap2\n      sub\n      swap1\n      log1\n        /* \"contracts/1_Tictactoe.sol\":1331:2182  function doMove(uint8 location) external {... */\n      pop\n      jump\t// out\n        /* \"contracts/1_Tictactoe.sol\":385:407  address public player2 */\n    tag_25:\n      0x01\n      0x00\n      swap1\n      sload\n      swap1\n      0x0100\n      exp\n      swap1\n      div\n      0xffffffffffffffffffffffffffffffffffffffff\n      and\n      dup2\n      jump\t// out\n        /* \"contracts/1_Tictactoe.sol\":524:544  Move public nextMove */\n    tag_29:\n      0x01\n      0x15\n      swap1\n      sload\n      swap1\n      0x0100\n      exp\n      swap1\n      div\n      0xff\n      and\n      dup2\n      jump\t// out\n        /* \"contracts/1_Tictactoe.sol\":1040:1325  function resetGame() external {... */\n    tag_33:\n        /* \"contracts/1_Tictactoe.sol\":1098:1116  GameStatus.Playing */\n      0x01\n        /* \"contracts/1_Tictactoe.sol\":1088:1116  status != GameStatus.Playing */\n      0x04\n      dup2\n      gt\n      iszero\n      tag_113\n      jumpi\n      tag_114\n      tag_46\n      jump\t// in\n    tag_114:\n    tag_113:\n        /* \"contracts/1_Tictactoe.sol\":1088:1094  status */\n      0x01\n      0x14\n      swap1\n      sload\n      swap1\n      0x0100\n      exp\n      swap1\n      div\n      0xff\n      and\n        /* \"contracts/1_Tictactoe.sol\":1088:1116  status != GameStatus.Playing */\n      0x04\n      dup2\n      gt\n      iszero\n      tag_115\n      jumpi\n      tag_116\n      tag_46\n      jump\t// in\n    tag_116:\n    tag_115:\n      eq\n      iszero\n        /* \"contracts/1_Tictactoe.sol\":1080:1142  require(status != GameStatus.Playing, \"Game is still running\") */\n      tag_117\n      jumpi\n      mload(0x40)\n      0x08c379a000000000000000000000000000000000000000000000000000000000\n      dup2\n      mstore\n      0x04\n      add\n      tag_118\n      swap1\n      tag_119\n      jump\t// in\n    tag_118:\n      mload(0x40)\n      dup1\n      swap2\n      sub\n      swap1\n      revert\n    tag_117:\n        /* \"contracts/1_Tictactoe.sol\":1161:1177  GameStatus.Lobby */\n      0x00\n        /* \"contracts/1_Tictactoe.sol\":1152:1158  status */\n      0x01\n      0x14\n        /* \"contracts/1_Tictactoe.sol\":1152:1177  status = GameStatus.Lobby */\n      0x0100\n      exp\n      dup2\n      sload\n      dup2\n      0xff\n      mul\n      not\n      and\n      swap1\n      dup4\n      0x04\n      dup2\n      gt\n      iszero\n      tag_120\n      jumpi\n      tag_121\n      tag_46\n      jump\t// in\n    tag_121:\n    tag_120:\n      mul\n      or\n      swap1\n      sstore\n      pop\n        /* \"contracts/1_Tictactoe.sol\":1198:1210  Move.Player1 */\n      0x01\n        /* \"contracts/1_Tictactoe.sol\":1187:1195  nextMove */\n      dup1\n      0x15\n        /* \"contracts/1_Tictactoe.sol\":1187:1210  nextMove = Move.Player1 */\n      0x0100\n      exp\n      dup2\n      sload\n      dup2\n      0xff\n      mul\n      not\n      and\n      swap1\n      dup4\n      0x02\n      dup2\n      gt\n      iszero\n      tag_122\n      jumpi\n      tag_123\n      tag_46\n      jump\t// in\n    tag_123:\n    tag_122:\n      mul\n      or\n      swap1\n      sstore\n      pop\n        /* \"contracts/1_Tictactoe.sol\":1238:1239  0 */\n      0x00\n        /* \"contracts/1_Tictactoe.sol\":1220:1227  player1 */\n      dup1\n      0x00\n        /* \"contracts/1_Tictactoe.sol\":1220:1240  player1 = address(0) */\n      0x0100\n      exp\n      dup2\n      sload\n      dup2\n      0xffffffffffffffffffffffffffffffffffffffff\n      mul\n      not\n      and\n      swap1\n      dup4\n      0xffffffffffffffffffffffffffffffffffffffff\n      and\n      mul\n      or\n      swap1\n      sstore\n      pop\n        /* \"contracts/1_Tictactoe.sol\":1268:1269  0 */\n      0x00\n        /* \"contracts/1_Tictactoe.sol\":1250:1257  player2 */\n      0x01\n      0x00\n        /* \"contracts/1_Tictactoe.sol\":1250:1270  player2 = address(0) */\n      0x0100\n      exp\n      dup2\n      sload\n      dup2\n      0xffffffffffffffffffffffffffffffffffffffff\n      mul\n      not\n      and\n      swap1\n      dup4\n      0xffffffffffffffffffffffffffffffffffffffff\n      and\n      mul\n      or\n      swap1\n      sstore\n      pop\n        /* \"contracts/1_Tictactoe.sol\":1287:1292  board */\n      0x02\n      0x00\n        /* \"contracts/1_Tictactoe.sol\":1280:1292  delete board */\n      tag_124\n      swap2\n      swap1\n      tag_125\n      jump\t// in\n    tag_124:\n        /* \"contracts/1_Tictactoe.sol\":1307:1318  GameReset() */\n      0xc6976b6410888b44c765590c8368eb4a60e0431d4ad683c8a53ea85a8479f22e\n      mload(0x40)\n      mload(0x40)\n      dup1\n      swap2\n      sub\n      swap1\n      log1\n        /* \"contracts/1_Tictactoe.sol\":1040:1325  function resetGame() external {... */\n      jump\t// out\n        /* \"contracts/1_Tictactoe.sol\":357:379  address public player1 */\n    tag_35:\n      0x00\n      dup1\n      sload\n      swap1\n      0x0100\n      exp\n      swap1\n      div\n      0xffffffffffffffffffffffffffffffffffffffff\n      and\n      dup2\n      jump\t// out\n        /* \"contracts/1_Tictactoe.sol\":735:1034  function joinGame() external {... */\n    tag_38:\n        /* \"contracts/1_Tictactoe.sol\":801:802  0 */\n      0x00\n        /* \"contracts/1_Tictactoe.sol\":782:803  player1 == address(0) */\n      0xffffffffffffffffffffffffffffffffffffffff\n      and\n        /* \"contracts/1_Tictactoe.sol\":782:789  player1 */\n      0x00\n      dup1\n      sload\n      swap1\n      0x0100\n      exp\n      swap1\n      div\n      0xffffffffffffffffffffffffffffffffffffffff\n      and\n        /* \"contracts/1_Tictactoe.sol\":782:803  player1 == address(0) */\n      0xffffffffffffffffffffffffffffffffffffffff\n      and\n      eq\n        /* \"contracts/1_Tictactoe.sol\":782:828  player1 == address(0) || player2 == address(0) */\n      dup1\n      tag_127\n      jumpi\n      pop\n        /* \"contracts/1_Tictactoe.sol\":826:827  0 */\n      0x00\n        /* \"contracts/1_Tictactoe.sol\":807:828  player2 == address(0) */\n      0xffffffffffffffffffffffffffffffffffffffff\n      and\n        /* \"contracts/1_Tictactoe.sol\":807:814  player2 */\n      0x01\n      0x00\n      swap1\n      sload\n      swap1\n      0x0100\n      exp\n      swap1\n      div\n      0xffffffffffffffffffffffffffffffffffffffff\n      and\n        /* \"contracts/1_Tictactoe.sol\":807:828  player2 == address(0) */\n      0xffffffffffffffffffffffffffffffffffffffff\n      and\n      eq\n        /* \"contracts/1_Tictactoe.sol\":782:828  player1 == address(0) || player2 == address(0) */\n    tag_127:\n        /* \"contracts/1_Tictactoe.sol\":774:861  require(player1 == address(0) || player2 == address(0), \"Game is full, wait your turn\") */\n      tag_128\n      jumpi\n      mload(0x40)\n      0x08c379a000000000000000000000000000000000000000000000000000000000\n      dup2\n      mstore\n      0x04\n      add\n      tag_129\n      swap1\n      tag_130\n      jump\t// in\n    tag_129:\n      mload(0x40)\n      dup1\n      swap2\n      sub\n      swap1\n      revert\n    tag_128:\n        /* \"contracts/1_Tictactoe.sol\":894:895  0 */\n      0x00\n        /* \"contracts/1_Tictactoe.sol\":875:896  player1 == address(0) */\n      0xffffffffffffffffffffffffffffffffffffffff\n      and\n        /* \"contracts/1_Tictactoe.sol\":875:882  player1 */\n      0x00\n      dup1\n      sload\n      swap1\n      0x0100\n      exp\n      swap1\n      div\n      0xffffffffffffffffffffffffffffffffffffffff\n      and\n        /* \"contracts/1_Tictactoe.sol\":875:896  player1 == address(0) */\n      0xffffffffffffffffffffffffffffffffffffffff\n      and\n      eq\n        /* \"contracts/1_Tictactoe.sol\":871:998  if (player1 == address(0)) {... */\n      iszero\n      tag_131\n      jumpi\n        /* \"contracts/1_Tictactoe.sol\":922:932  msg.sender */\n      caller\n        /* \"contracts/1_Tictactoe.sol\":912:919  player1 */\n      0x00\n      dup1\n        /* \"contracts/1_Tictactoe.sol\":912:932  player1 = msg.sender */\n      0x0100\n      exp\n      dup2\n      sload\n      dup2\n      0xffffffffffffffffffffffffffffffffffffffff\n      mul\n      not\n      and\n      swap1\n      dup4\n      0xffffffffffffffffffffffffffffffffffffffff\n      and\n      mul\n      or\n      swap1\n      sstore\n      pop\n        /* \"contracts/1_Tictactoe.sol\":871:998  if (player1 == address(0)) {... */\n      jump(tag_132)\n    tag_131:\n        /* \"contracts/1_Tictactoe.sol\":973:983  msg.sender */\n      caller\n        /* \"contracts/1_Tictactoe.sol\":963:970  player2 */\n      0x01\n      0x00\n        /* \"contracts/1_Tictactoe.sol\":963:983  player2 = msg.sender */\n      0x0100\n      exp\n      dup2\n      sload\n      dup2\n      0xffffffffffffffffffffffffffffffffffffffff\n      mul\n      not\n      and\n      swap1\n      dup4\n      0xffffffffffffffffffffffffffffffffffffffff\n      and\n      mul\n      or\n      swap1\n      sstore\n      pop\n        /* \"contracts/1_Tictactoe.sol\":871:998  if (player1 == address(0)) {... */\n    tag_132:\n        /* \"contracts/1_Tictactoe.sol\":1012:1027  PlayersChange() */\n      0x1e417d75ca5de02e75869830adacd190151380d15d51a1a47bf622dcab4ca446\n      mload(0x40)\n      mload(0x40)\n      dup1\n      swap2\n      sub\n      swap1\n      log1\n        /* \"contracts/1_Tictactoe.sol\":735:1034  function joinGame() external {... */\n      jump\t// out\n        /* \"contracts/1_Tictactoe.sol\":3646:3902  function getCurrentPlayer() private view returns (address player) {... */\n    tag_65:\n        /* \"contracts/1_Tictactoe.sol\":3696:3710  address player */\n      0x00\n        /* \"contracts/1_Tictactoe.sol\":3738:3750  Move.Player1 */\n      0x01\n        /* \"contracts/1_Tictactoe.sol\":3726:3750  nextMove == Move.Player1 */\n      0x02\n      dup2\n      gt\n      iszero\n      tag_134\n      jumpi\n      tag_135\n      tag_46\n      jump\t// in\n    tag_135:\n    tag_134:\n        /* \"contracts/1_Tictactoe.sol\":3726:3734  nextMove */\n      0x01\n      0x15\n      swap1\n      sload\n      swap1\n      0x0100\n      exp\n      swap1\n      div\n      0xff\n      and\n        /* \"contracts/1_Tictactoe.sol\":3726:3750  nextMove == Move.Player1 */\n      0x02\n      dup2\n      gt\n      iszero\n      tag_136\n      jumpi\n      tag_137\n      tag_46\n      jump\t// in\n    tag_137:\n    tag_136:\n      eq\n        /* \"contracts/1_Tictactoe.sol\":3722:3791  if (nextMove == Move.Player1) {... */\n      iszero\n      tag_138\n      jumpi\n        /* \"contracts/1_Tictactoe.sol\":3773:3780  player1 */\n      0x00\n      dup1\n      sload\n      swap1\n      0x0100\n      exp\n      swap1\n      div\n      0xffffffffffffffffffffffffffffffffffffffff\n      and\n        /* \"contracts/1_Tictactoe.sol\":3766:3780  return player1 */\n      swap1\n      pop\n      jump(tag_133)\n        /* \"contracts/1_Tictactoe.sol\":3722:3791  if (nextMove == Move.Player1) {... */\n    tag_138:\n        /* \"contracts/1_Tictactoe.sol\":3816:3828  Move.Player2 */\n      0x02\n        /* \"contracts/1_Tictactoe.sol\":3804:3828  nextMove == Move.Player2 */\n      dup1\n      dup2\n      gt\n      iszero\n      tag_139\n      jumpi\n      tag_140\n      tag_46\n      jump\t// in\n    tag_140:\n    tag_139:\n        /* \"contracts/1_Tictactoe.sol\":3804:3812  nextMove */\n      0x01\n      0x15\n      swap1\n      sload\n      swap1\n      0x0100\n      exp\n      swap1\n      div\n      0xff\n      and\n        /* \"contracts/1_Tictactoe.sol\":3804:3828  nextMove == Move.Player2 */\n      0x02\n      dup2\n      gt\n      iszero\n      tag_141\n      jumpi\n      tag_142\n      tag_46\n      jump\t// in\n    tag_142:\n    tag_141:\n      eq\n        /* \"contracts/1_Tictactoe.sol\":3800:3869  if (nextMove == Move.Player2) {... */\n      iszero\n      tag_143\n      jumpi\n        /* \"contracts/1_Tictactoe.sol\":3851:3858  player2 */\n      0x01\n      0x00\n      swap1\n      sload\n      swap1\n      0x0100\n      exp\n      swap1\n      div\n      0xffffffffffffffffffffffffffffffffffffffff\n      and\n        /* \"contracts/1_Tictactoe.sol\":3844:3858  return player2 */\n      swap1\n      pop\n      jump(tag_133)\n        /* \"contracts/1_Tictactoe.sol\":3800:3869  if (nextMove == Move.Player2) {... */\n    tag_143:\n        /* \"contracts/1_Tictactoe.sol\":3893:3894  0 */\n      0x00\n        /* \"contracts/1_Tictactoe.sol\":3878:3895  return address(0) */\n      swap1\n      pop\n        /* \"contracts/1_Tictactoe.sol\":3646:3902  function getCurrentPlayer() private view returns (address player) {... */\n    tag_133:\n      swap1\n      jump\t// out\n        /* \"contracts/1_Tictactoe.sol\":2569:3640  function checkStatus() private view returns (GameStatus) {... */\n    tag_86:\n        /* \"contracts/1_Tictactoe.sol\":2614:2624  GameStatus */\n      0x00\n        /* \"contracts/1_Tictactoe.sol\":2637:2668  uint8[3][8] memory winningMoves */\n      dup1\n        /* \"contracts/1_Tictactoe.sol\":2637:2828  uint8[3][8] memory winningMoves = [... */\n      mload(0x40)\n      dup1\n      0x0100\n      add\n      0x40\n      mstore\n      dup1\n      mload(0x40)\n      dup1\n      0x60\n      add\n      0x40\n      mstore\n      dup1\n        /* \"contracts/1_Tictactoe.sol\":2686:2687  0 */\n      0x00\n        /* \"contracts/1_Tictactoe.sol\":2637:2828  uint8[3][8] memory winningMoves = [... */\n      0xff\n      and\n      dup2\n      mstore\n      0x20\n      add\n        /* \"contracts/1_Tictactoe.sol\":2688:2689  1 */\n      0x01\n        /* \"contracts/1_Tictactoe.sol\":2637:2828  uint8[3][8] memory winningMoves = [... */\n      0xff\n      and\n      dup2\n      mstore\n      0x20\n      add\n        /* \"contracts/1_Tictactoe.sol\":2690:2691  2 */\n      0x02\n        /* \"contracts/1_Tictactoe.sol\":2637:2828  uint8[3][8] memory winningMoves = [... */\n      0xff\n      and\n      dup2\n      mstore\n      pop\n      dup2\n      mstore\n      0x20\n      add\n      mload(0x40)\n      dup1\n      0x60\n      add\n      0x40\n      mstore\n      dup1\n        /* \"contracts/1_Tictactoe.sol\":2694:2695  3 */\n      0x03\n        /* \"contracts/1_Tictactoe.sol\":2637:2828  uint8[3][8] memory winningMoves = [... */\n      0xff\n      and\n      dup2\n      mstore\n      0x20\n      add\n        /* \"contracts/1_Tictactoe.sol\":2696:2697  4 */\n      0x04\n        /* \"contracts/1_Tictactoe.sol\":2637:2828  uint8[3][8] memory winningMoves = [... */\n      0xff\n      and\n      dup2\n      mstore\n      0x20\n      add\n        /* \"contracts/1_Tictactoe.sol\":2698:2699  5 */\n      0x05\n        /* \"contracts/1_Tictactoe.sol\":2637:2828  uint8[3][8] memory winningMoves = [... */\n      0xff\n      and\n      dup2\n      mstore\n      pop\n      dup2\n      mstore\n      0x20\n      add\n      mload(0x40)\n      dup1\n      0x60\n      add\n      0x40\n      mstore\n      dup1\n        /* \"contracts/1_Tictactoe.sol\":2702:2703  6 */\n      0x06\n        /* \"contracts/1_Tictactoe.sol\":2637:2828  uint8[3][8] memory winningMoves = [... */\n      0xff\n      and\n      dup2\n      mstore\n      0x20\n      add\n        /* \"contracts/1_Tictactoe.sol\":2704:2705  7 */\n      0x07\n        /* \"contracts/1_Tictactoe.sol\":2637:2828  uint8[3][8] memory winningMoves = [... */\n      0xff\n      and\n      dup2\n      mstore\n      0x20\n      add\n        /* \"contracts/1_Tictactoe.sol\":2706:2707  8 */\n      0x08\n        /* \"contracts/1_Tictactoe.sol\":2637:2828  uint8[3][8] memory winningMoves = [... */\n      0xff\n      and\n      dup2\n      mstore\n      pop\n      dup2\n      mstore\n      0x20\n      add\n      mload(0x40)\n      dup1\n      0x60\n      add\n      0x40\n      mstore\n      dup1\n        /* \"contracts/1_Tictactoe.sol\":2732:2733  0 */\n      0x00\n        /* \"contracts/1_Tictactoe.sol\":2637:2828  uint8[3][8] memory winningMoves = [... */\n      0xff\n      and\n      dup2\n      mstore\n      0x20\n      add\n        /* \"contracts/1_Tictactoe.sol\":2734:2735  3 */\n      0x03\n        /* \"contracts/1_Tictactoe.sol\":2637:2828  uint8[3][8] memory winningMoves = [... */\n      0xff\n      and\n      dup2\n      mstore\n      0x20\n      add\n        /* \"contracts/1_Tictactoe.sol\":2736:2737  6 */\n      0x06\n        /* \"contracts/1_Tictactoe.sol\":2637:2828  uint8[3][8] memory winningMoves = [... */\n      0xff\n      and\n      dup2\n      mstore\n      pop\n      dup2\n      mstore\n      0x20\n      add\n      mload(0x40)\n      dup1\n      0x60\n      add\n      0x40\n      mstore\n      dup1\n        /* \"contracts/1_Tictactoe.sol\":2740:2741  1 */\n      0x01\n        /* \"contracts/1_Tictactoe.sol\":2637:2828  uint8[3][8] memory winningMoves = [... */\n      0xff\n      and\n      dup2\n      mstore\n      0x20\n      add\n        /* \"contracts/1_Tictactoe.sol\":2742:2743  4 */\n      0x04\n        /* \"contracts/1_Tictactoe.sol\":2637:2828  uint8[3][8] memory winningMoves = [... */\n      0xff\n      and\n      dup2\n      mstore\n      0x20\n      add\n        /* \"contracts/1_Tictactoe.sol\":2744:2745  7 */\n      0x07\n        /* \"contracts/1_Tictactoe.sol\":2637:2828  uint8[3][8] memory winningMoves = [... */\n      0xff\n      and\n      dup2\n      mstore\n      pop\n      dup2\n      mstore\n      0x20\n      add\n      mload(0x40)\n      dup1\n      0x60\n      add\n      0x40\n      mstore\n      dup1\n        /* \"contracts/1_Tictactoe.sol\":2748:2749  2 */\n      0x02\n        /* \"contracts/1_Tictactoe.sol\":2637:2828  uint8[3][8] memory winningMoves = [... */\n      0xff\n      and\n      dup2\n      mstore\n      0x20\n      add\n        /* \"contracts/1_Tictactoe.sol\":2750:2751  5 */\n      0x05\n        /* \"contracts/1_Tictactoe.sol\":2637:2828  uint8[3][8] memory winningMoves = [... */\n      0xff\n      and\n      dup2\n      mstore\n      0x20\n      add\n        /* \"contracts/1_Tictactoe.sol\":2752:2753  8 */\n      0x08\n        /* \"contracts/1_Tictactoe.sol\":2637:2828  uint8[3][8] memory winningMoves = [... */\n      0xff\n      and\n      dup2\n      mstore\n      pop\n      dup2\n      mstore\n      0x20\n      add\n      mload(0x40)\n      dup1\n      0x60\n      add\n      0x40\n      mstore\n      dup1\n        /* \"contracts/1_Tictactoe.sol\":2781:2782  0 */\n      0x00\n        /* \"contracts/1_Tictactoe.sol\":2637:2828  uint8[3][8] memory winningMoves = [... */\n      0xff\n      and\n      dup2\n      mstore\n      0x20\n      add\n        /* \"contracts/1_Tictactoe.sol\":2783:2784  4 */\n      0x04\n        /* \"contracts/1_Tictactoe.sol\":2637:2828  uint8[3][8] memory winningMoves = [... */\n      0xff\n      and\n      dup2\n      mstore\n      0x20\n      add\n        /* \"contracts/1_Tictactoe.sol\":2785:2786  8 */\n      0x08\n        /* \"contracts/1_Tictactoe.sol\":2637:2828  uint8[3][8] memory winningMoves = [... */\n      0xff\n      and\n      dup2\n      mstore\n      pop\n      dup2\n      mstore\n      0x20\n      add\n      mload(0x40)\n      dup1\n      0x60\n      add\n      0x40\n      mstore\n      dup1\n        /* \"contracts/1_Tictactoe.sol\":2789:2790  6 */\n      0x06\n        /* \"contracts/1_Tictactoe.sol\":2637:2828  uint8[3][8] memory winningMoves = [... */\n      0xff\n      and\n      dup2\n      mstore\n      0x20\n      add\n        /* \"contracts/1_Tictactoe.sol\":2791:2792  4 */\n      0x04\n        /* \"contracts/1_Tictactoe.sol\":2637:2828  uint8[3][8] memory winningMoves = [... */\n      0xff\n      and\n      dup2\n      mstore\n      0x20\n      add\n        /* \"contracts/1_Tictactoe.sol\":2793:2794  2 */\n      0x02\n        /* \"contracts/1_Tictactoe.sol\":2637:2828  uint8[3][8] memory winningMoves = [... */\n      0xff\n      and\n      dup2\n      mstore\n      pop\n      dup2\n      mstore\n      pop\n      swap1\n      pop\n        /* \"contracts/1_Tictactoe.sol\":2977:2984  uint8 i */\n      0x00\n        /* \"contracts/1_Tictactoe.sol\":2972:3522  for (uint8 i = 0; i < winningMoves.length; i++) {... */\n    tag_145:\n        /* \"contracts/1_Tictactoe.sol\":2994:3013  winningMoves.length */\n      0x08\n        /* \"contracts/1_Tictactoe.sol\":2990:2991  i */\n      dup2\n        /* \"contracts/1_Tictactoe.sol\":2990:3013  i < winningMoves.length */\n      0xff\n      and\n      lt\n        /* \"contracts/1_Tictactoe.sol\":2972:3522  for (uint8 i = 0; i < winningMoves.length; i++) {... */\n      iszero\n      tag_146\n      jumpi\n        /* \"contracts/1_Tictactoe.sol\":3034:3054  uint8[3] memory move */\n      0x00\n        /* \"contracts/1_Tictactoe.sol\":3057:3069  winningMoves */\n      dup3\n        /* \"contracts/1_Tictactoe.sol\":3070:3071  i */\n      dup3\n        /* \"contracts/1_Tictactoe.sol\":3057:3072  winningMoves[i] */\n      0xff\n      and\n      0x08\n      dup2\n      lt\n      tag_148\n      jumpi\n      tag_149\n      tag_73\n      jump\t// in\n    tag_149:\n    tag_148:\n      0x20\n      mul\n      add\n      mload\n        /* \"contracts/1_Tictactoe.sol\":3034:3072  uint8[3] memory move = winningMoves[i] */\n      swap1\n      pop\n        /* \"contracts/1_Tictactoe.sol\":3125:3130  board */\n      0x02\n        /* \"contracts/1_Tictactoe.sol\":3131:3135  move */\n      dup2\n        /* \"contracts/1_Tictactoe.sol\":3136:3137  1 */\n      0x01\n        /* \"contracts/1_Tictactoe.sol\":3131:3138  move[1] */\n      0x03\n      dup2\n      lt\n      tag_150\n      jumpi\n      tag_151\n      tag_73\n      jump\t// in\n    tag_151:\n    tag_150:\n      0x20\n      mul\n      add\n      mload\n        /* \"contracts/1_Tictactoe.sol\":3125:3139  board[move[1]] */\n      0xff\n      and\n      0x09\n      dup2\n      lt\n      tag_152\n      jumpi\n      tag_153\n      tag_73\n      jump\t// in\n    tag_153:\n    tag_152:\n      0x20\n      swap2\n      dup3\n      dup3\n      div\n      add\n      swap2\n      swap1\n      mod\n      swap1\n      sload\n      swap1\n      0x0100\n      exp\n      swap1\n      div\n      0xff\n      and\n        /* \"contracts/1_Tictactoe.sol\":3107:3139  board[move[0]] == board[move[1]] */\n      0x02\n      dup2\n      gt\n      iszero\n      tag_155\n      jumpi\n      tag_156\n      tag_46\n      jump\t// in\n    tag_156:\n    tag_155:\n        /* \"contracts/1_Tictactoe.sol\":3107:3112  board */\n      0x02\n        /* \"contracts/1_Tictactoe.sol\":3113:3117  move */\n      dup3\n        /* \"contracts/1_Tictactoe.sol\":3118:3119  0 */\n      0x00\n        /* \"contracts/1_Tictactoe.sol\":3113:3120  move[0] */\n      0x03\n      dup2\n      lt\n      tag_157\n      jumpi\n      tag_158\n      tag_73\n      jump\t// in\n    tag_158:\n    tag_157:\n      0x20\n      mul\n      add\n      mload\n        /* \"contracts/1_Tictactoe.sol\":3107:3121  board[move[0]] */\n      0xff\n      and\n      0x09\n      dup2\n      lt\n      tag_159\n      jumpi\n      tag_160\n      tag_73\n      jump\t// in\n    tag_160:\n    tag_159:\n      0x20\n      swap2\n      dup3\n      dup3\n      div\n      add\n      swap2\n      swap1\n      mod\n      swap1\n      sload\n      swap1\n      0x0100\n      exp\n      swap1\n      div\n      0xff\n      and\n        /* \"contracts/1_Tictactoe.sol\":3107:3139  board[move[0]] == board[move[1]] */\n      0x02\n      dup2\n      gt\n      iszero\n      tag_162\n      jumpi\n      tag_163\n      tag_46\n      jump\t// in\n    tag_163:\n    tag_162:\n      eq\n        /* \"contracts/1_Tictactoe.sol\":3107:3191  board[move[0]] == board[move[1]]... */\n      dup1\n      iszero\n      tag_164\n      jumpi\n      pop\n        /* \"contracts/1_Tictactoe.sol\":3177:3182  board */\n      0x02\n        /* \"contracts/1_Tictactoe.sol\":3183:3187  move */\n      dup2\n        /* \"contracts/1_Tictactoe.sol\":3188:3189  2 */\n      0x02\n        /* \"contracts/1_Tictactoe.sol\":3183:3190  move[2] */\n      0x03\n      dup2\n      lt\n      tag_165\n      jumpi\n      tag_166\n      tag_73\n      jump\t// in\n    tag_166:\n    tag_165:\n      0x20\n      mul\n      add\n      mload\n        /* \"contracts/1_Tictactoe.sol\":3177:3191  board[move[2]] */\n      0xff\n      and\n      0x09\n      dup2\n      lt\n      tag_167\n      jumpi\n      tag_168\n      tag_73\n      jump\t// in\n    tag_168:\n    tag_167:\n      0x20\n      swap2\n      dup3\n      dup3\n      div\n      add\n      swap2\n      swap1\n      mod\n      swap1\n      sload\n      swap1\n      0x0100\n      exp\n      swap1\n      div\n      0xff\n      and\n        /* \"contracts/1_Tictactoe.sol\":3159:3191  board[move[1]] == board[move[2]] */\n      0x02\n      dup2\n      gt\n      iszero\n      tag_170\n      jumpi\n      tag_171\n      tag_46\n      jump\t// in\n    tag_171:\n    tag_170:\n        /* \"contracts/1_Tictactoe.sol\":3159:3164  board */\n      0x02\n        /* \"contracts/1_Tictactoe.sol\":3165:3169  move */\n      dup3\n        /* \"contracts/1_Tictactoe.sol\":3170:3171  1 */\n      0x01\n        /* \"contracts/1_Tictactoe.sol\":3165:3172  move[1] */\n      0x03\n      dup2\n      lt\n      tag_172\n      jumpi\n      tag_173\n      tag_73\n      jump\t// in\n    tag_173:\n    tag_172:\n      0x20\n      mul\n      add\n      mload\n        /* \"contracts/1_Tictactoe.sol\":3159:3173  board[move[1]] */\n      0xff\n      and\n      0x09\n      dup2\n      lt\n      tag_174\n      jumpi\n      tag_175\n      tag_73\n      jump\t// in\n    tag_175:\n    tag_174:\n      0x20\n      swap2\n      dup3\n      dup3\n      div\n      add\n      swap2\n      swap1\n      mod\n      swap1\n      sload\n      swap1\n      0x0100\n      exp\n      swap1\n      div\n      0xff\n      and\n        /* \"contracts/1_Tictactoe.sol\":3159:3191  board[move[1]] == board[move[2]] */\n      0x02\n      dup2\n      gt\n      iszero\n      tag_177\n      jumpi\n      tag_178\n      tag_46\n      jump\t// in\n    tag_178:\n    tag_177:\n      eq\n        /* \"contracts/1_Tictactoe.sol\":3107:3191  board[move[0]] == board[move[1]]... */\n    tag_164:\n        /* \"contracts/1_Tictactoe.sol\":3107:3238  board[move[0]] == board[move[1]]... */\n      dup1\n      iszero\n      tag_179\n      jumpi\n      pop\n        /* \"contracts/1_Tictactoe.sol\":3229:3238  Move.None */\n      0x00\n        /* \"contracts/1_Tictactoe.sol\":3211:3238  board[move[2]] != Move.None */\n      0x02\n      dup2\n      gt\n      iszero\n      tag_180\n      jumpi\n      tag_181\n      tag_46\n      jump\t// in\n    tag_181:\n    tag_180:\n        /* \"contracts/1_Tictactoe.sol\":3211:3216  board */\n      0x02\n        /* \"contracts/1_Tictactoe.sol\":3217:3221  move */\n      dup3\n        /* \"contracts/1_Tictactoe.sol\":3222:3223  2 */\n      0x02\n        /* \"contracts/1_Tictactoe.sol\":3217:3224  move[2] */\n      0x03\n      dup2\n      lt\n      tag_182\n      jumpi\n      tag_183\n      tag_73\n      jump\t// in\n    tag_183:\n    tag_182:\n      0x20\n      mul\n      add\n      mload\n        /* \"contracts/1_Tictactoe.sol\":3211:3225  board[move[2]] */\n      0xff\n      and\n      0x09\n      dup2\n      lt\n      tag_184\n      jumpi\n      tag_185\n      tag_73\n      jump\t// in\n    tag_185:\n    tag_184:\n      0x20\n      swap2\n      dup3\n      dup3\n      div\n      add\n      swap2\n      swap1\n      mod\n      swap1\n      sload\n      swap1\n      0x0100\n      exp\n      swap1\n      div\n      0xff\n      and\n        /* \"contracts/1_Tictactoe.sol\":3211:3238  board[move[2]] != Move.None */\n      0x02\n      dup2\n      gt\n      iszero\n      tag_187\n      jumpi\n      tag_188\n      tag_46\n      jump\t// in\n    tag_188:\n    tag_187:\n      eq\n      iszero\n        /* \"contracts/1_Tictactoe.sol\":3107:3238  board[move[0]] == board[move[1]]... */\n    tag_179:\n        /* \"contracts/1_Tictactoe.sol\":3086:3512  if (... */\n      iszero\n      tag_189\n      jumpi\n        /* \"contracts/1_Tictactoe.sol\":3293:3305  Move.Player1 */\n      0x01\n        /* \"contracts/1_Tictactoe.sol\":3275:3305  board[move[0]] == Move.Player1 */\n      0x02\n      dup2\n      gt\n      iszero\n      tag_190\n      jumpi\n      tag_191\n      tag_46\n      jump\t// in\n    tag_191:\n    tag_190:\n        /* \"contracts/1_Tictactoe.sol\":3275:3280  board */\n      0x02\n        /* \"contracts/1_Tictactoe.sol\":3281:3285  move */\n      dup3\n        /* \"contracts/1_Tictactoe.sol\":3286:3287  0 */\n      0x00\n        /* \"contracts/1_Tictactoe.sol\":3281:3288  move[0] */\n      0x03\n      dup2\n      lt\n      tag_192\n      jumpi\n      tag_193\n      tag_73\n      jump\t// in\n    tag_193:\n    tag_192:\n      0x20\n      mul\n      add\n      mload\n        /* \"contracts/1_Tictactoe.sol\":3275:3289  board[move[0]] */\n      0xff\n      and\n      0x09\n      dup2\n      lt\n      tag_194\n      jumpi\n      tag_195\n      tag_73\n      jump\t// in\n    tag_195:\n    tag_194:\n      0x20\n      swap2\n      dup3\n      dup3\n      div\n      add\n      swap2\n      swap1\n      mod\n      swap1\n      sload\n      swap1\n      0x0100\n      exp\n      swap1\n      div\n      0xff\n      and\n        /* \"contracts/1_Tictactoe.sol\":3275:3305  board[move[0]] == Move.Player1 */\n      0x02\n      dup2\n      gt\n      iszero\n      tag_197\n      jumpi\n      tag_198\n      tag_46\n      jump\t// in\n    tag_198:\n    tag_197:\n      eq\n        /* \"contracts/1_Tictactoe.sol\":3271:3376  if (board[move[0]] == Move.Player1) {... */\n      iszero\n      tag_199\n      jumpi\n        /* \"contracts/1_Tictactoe.sol\":3336:3357  GameStatus.WinPlayer1 */\n      0x03\n        /* \"contracts/1_Tictactoe.sol\":3329:3357  return GameStatus.WinPlayer1 */\n      swap4\n      pop\n      pop\n      pop\n      pop\n      jump(tag_144)\n        /* \"contracts/1_Tictactoe.sol\":3271:3376  if (board[move[0]] == Move.Player1) {... */\n    tag_199:\n        /* \"contracts/1_Tictactoe.sol\":3415:3427  Move.Player2 */\n      0x02\n        /* \"contracts/1_Tictactoe.sol\":3397:3427  board[move[0]] == Move.Player2 */\n      dup1\n      dup2\n      gt\n      iszero\n      tag_200\n      jumpi\n      tag_201\n      tag_46\n      jump\t// in\n    tag_201:\n    tag_200:\n        /* \"contracts/1_Tictactoe.sol\":3397:3402  board */\n      0x02\n        /* \"contracts/1_Tictactoe.sol\":3403:3407  move */\n      dup3\n        /* \"contracts/1_Tictactoe.sol\":3408:3409  0 */\n      0x00\n        /* \"contracts/1_Tictactoe.sol\":3403:3410  move[0] */\n      0x03\n      dup2\n      lt\n      tag_202\n      jumpi\n      tag_203\n      tag_73\n      jump\t// in\n    tag_203:\n    tag_202:\n      0x20\n      mul\n      add\n      mload\n        /* \"contracts/1_Tictactoe.sol\":3397:3411  board[move[0]] */\n      0xff\n      and\n      0x09\n      dup2\n      lt\n      tag_204\n      jumpi\n      tag_205\n      tag_73\n      jump\t// in\n    tag_205:\n    tag_204:\n      0x20\n      swap2\n      dup3\n      dup3\n      div\n      add\n      swap2\n      swap1\n      mod\n      swap1\n      sload\n      swap1\n      0x0100\n      exp\n      swap1\n      div\n      0xff\n      and\n        /* \"contracts/1_Tictactoe.sol\":3397:3427  board[move[0]] == Move.Player2 */\n      0x02\n      dup2\n      gt\n      iszero\n      tag_207\n      jumpi\n      tag_208\n      tag_46\n      jump\t// in\n    tag_208:\n    tag_207:\n      eq\n        /* \"contracts/1_Tictactoe.sol\":3393:3498  if (board[move[0]] == Move.Player2) {... */\n      iszero\n      tag_209\n      jumpi\n        /* \"contracts/1_Tictactoe.sol\":3458:3479  GameStatus.WinPlayer2 */\n      0x04\n        /* \"contracts/1_Tictactoe.sol\":3451:3479  return GameStatus.WinPlayer2 */\n      swap4\n      pop\n      pop\n      pop\n      pop\n      jump(tag_144)\n        /* \"contracts/1_Tictactoe.sol\":3393:3498  if (board[move[0]] == Move.Player2) {... */\n    tag_209:\n        /* \"contracts/1_Tictactoe.sol\":3086:3512  if (... */\n    tag_189:\n        /* \"contracts/1_Tictactoe.sol\":3020:3522  {... */\n      pop\n        /* \"contracts/1_Tictactoe.sol\":3015:3018  i++ */\n      dup1\n      dup1\n      tag_210\n      swap1\n      tag_211\n      jump\t// in\n    tag_210:\n      swap2\n      pop\n      pop\n        /* \"contracts/1_Tictactoe.sol\":2972:3522  for (uint8 i = 0; i < winningMoves.length; i++) {... */\n      jump(tag_145)\n    tag_146:\n      pop\n        /* \"contracts/1_Tictactoe.sol\":3536:3549  isBoardFull() */\n      tag_212\n        /* \"contracts/1_Tictactoe.sol\":3536:3547  isBoardFull */\n      tag_213\n        /* \"contracts/1_Tictactoe.sol\":3536:3549  isBoardFull() */\n      jump\t// in\n    tag_212:\n        /* \"contracts/1_Tictactoe.sol\":3532:3598  if (isBoardFull()) {... */\n      iszero\n      tag_214\n      jumpi\n        /* \"contracts/1_Tictactoe.sol\":3572:3587  GameStatus.Draw */\n      0x02\n        /* \"contracts/1_Tictactoe.sol\":3565:3587  return GameStatus.Draw */\n      swap2\n      pop\n      pop\n      jump(tag_144)\n        /* \"contracts/1_Tictactoe.sol\":3532:3598  if (isBoardFull()) {... */\n    tag_214:\n        /* \"contracts/1_Tictactoe.sol\":3615:3633  GameStatus.Playing */\n      0x01\n        /* \"contracts/1_Tictactoe.sol\":3608:3633  return GameStatus.Playing */\n      swap2\n      pop\n      pop\n        /* \"contracts/1_Tictactoe.sol\":2569:3640  function checkStatus() private view returns (GameStatus) {... */\n    tag_144:\n      swap1\n      jump\t// out\n        /* \"contracts/1_Tictactoe.sol\":2296:2509  function isBoardFull() private view returns (bool) {... */\n    tag_213:\n        /* \"contracts/1_Tictactoe.sol\":2341:2345  bool */\n      0x00\n        /* \"contracts/1_Tictactoe.sol\":2362:2368  uint i */\n      dup1\n        /* \"contracts/1_Tictactoe.sol\":2371:2372  0 */\n      0x00\n        /* \"contracts/1_Tictactoe.sol\":2362:2372  uint i = 0 */\n      swap1\n      pop\n        /* \"contracts/1_Tictactoe.sol\":2357:2482  for (uint i = 0; i < 9; i++) {... */\n    tag_216:\n        /* \"contracts/1_Tictactoe.sol\":2378:2379  9 */\n      0x09\n        /* \"contracts/1_Tictactoe.sol\":2374:2375  i */\n      dup2\n        /* \"contracts/1_Tictactoe.sol\":2374:2379  i < 9 */\n      lt\n        /* \"contracts/1_Tictactoe.sol\":2357:2482  for (uint i = 0; i < 9; i++) {... */\n      iszero\n      tag_217\n      jumpi\n        /* \"contracts/1_Tictactoe.sol\":2416:2425  Move.None */\n      0x00\n        /* \"contracts/1_Tictactoe.sol\":2404:2425  board[i] == Move.None */\n      0x02\n      dup2\n      gt\n      iszero\n      tag_219\n      jumpi\n      tag_220\n      tag_46\n      jump\t// in\n    tag_220:\n    tag_219:\n        /* \"contracts/1_Tictactoe.sol\":2404:2409  board */\n      0x02\n        /* \"contracts/1_Tictactoe.sol\":2410:2411  i */\n      dup3\n        /* \"contracts/1_Tictactoe.sol\":2404:2412  board[i] */\n      0x09\n      dup2\n      lt\n      tag_221\n      jumpi\n      tag_222\n      tag_73\n      jump\t// in\n    tag_222:\n    tag_221:\n      0x20\n      swap2\n      dup3\n      dup3\n      div\n      add\n      swap2\n      swap1\n      mod\n      swap1\n      sload\n      swap1\n      0x0100\n      exp\n      swap1\n      div\n      0xff\n      and\n        /* \"contracts/1_Tictactoe.sol\":2404:2425  board[i] == Move.None */\n      0x02\n      dup2\n      gt\n      iszero\n      tag_224\n      jumpi\n      tag_225\n      tag_46\n      jump\t// in\n    tag_225:\n    tag_224:\n      eq\n        /* \"contracts/1_Tictactoe.sol\":2400:2472  if (board[i] == Move.None) {... */\n      iszero\n      tag_226\n      jumpi\n        /* \"contracts/1_Tictactoe.sol\":2452:2457  false */\n      0x00\n        /* \"contracts/1_Tictactoe.sol\":2445:2457  return false */\n      swap2\n      pop\n      pop\n      jump(tag_215)\n        /* \"contracts/1_Tictactoe.sol\":2400:2472  if (board[i] == Move.None) {... */\n    tag_226:\n        /* \"contracts/1_Tictactoe.sol\":2381:2384  i++ */\n      dup1\n      dup1\n      tag_227\n      swap1\n      tag_228\n      jump\t// in\n    tag_227:\n      swap2\n      pop\n      pop\n        /* \"contracts/1_Tictactoe.sol\":2357:2482  for (uint i = 0; i < 9; i++) {... */\n      jump(tag_216)\n    tag_217:\n      pop\n        /* \"contracts/1_Tictactoe.sol\":2498:2502  true */\n      0x01\n        /* \"contracts/1_Tictactoe.sol\":2491:2502  return true */\n      swap1\n      pop\n        /* \"contracts/1_Tictactoe.sol\":2296:2509  function isBoardFull() private view returns (bool) {... */\n    tag_215:\n      swap1\n      jump\t// out\n    tag_40:\n      mload(0x40)\n      dup1\n      0x0120\n      add\n      0x40\n      mstore\n      dup1\n      0x09\n      swap1\n      0x20\n      dup3\n      mul\n      dup1\n      calldatasize\n      dup4\n      calldatacopy\n      dup1\n      dup3\n      add\n      swap2\n      pop\n      pop\n      swap1\n      pop\n      pop\n      swap1\n      jump\t// out\n    tag_125:\n      pop\n      0x00\n      swap1\n      sstore\n      jump\t// out\n        /* \"#utility.yul\":7:142   */\n    tag_230:\n        /* \"#utility.yul\":51:56   */\n      0x00\n        /* \"#utility.yul\":89:95   */\n      dup2\n        /* \"#utility.yul\":76:96   */\n      calldataload\n        /* \"#utility.yul\":67:96   */\n      swap1\n      pop\n        /* \"#utility.yul\":105:136   */\n      tag_232\n        /* \"#utility.yul\":130:135   */\n      dup2\n        /* \"#utility.yul\":105:136   */\n      tag_233\n      jump\t// in\n    tag_232:\n        /* \"#utility.yul\":7:142   */\n      swap3\n      swap2\n      pop\n      pop\n      jump\t// out\n        /* \"#utility.yul\":148:473   */\n    tag_22:\n        /* \"#utility.yul\":205:211   */\n      0x00\n        /* \"#utility.yul\":254:256   */\n      0x20\n        /* \"#utility.yul\":242:251   */\n      dup3\n        /* \"#utility.yul\":233:240   */\n      dup5\n        /* \"#utility.yul\":229:252   */\n      sub\n        /* \"#utility.yul\":225:257   */\n      slt\n        /* \"#utility.yul\":222:341   */\n      iszero\n      tag_235\n      jumpi\n        /* \"#utility.yul\":260:339   */\n      tag_236\n      tag_237\n      jump\t// in\n    tag_236:\n        /* \"#utility.yul\":222:341   */\n    tag_235:\n        /* \"#utility.yul\":380:381   */\n      0x00\n        /* \"#utility.yul\":405:456   */\n      tag_238\n        /* \"#utility.yul\":448:455   */\n      dup5\n        /* \"#utility.yul\":439:445   */\n      dup3\n        /* \"#utility.yul\":428:437   */\n      dup6\n        /* \"#utility.yul\":424:446   */\n      add\n        /* \"#utility.yul\":405:456   */\n      tag_230\n      jump\t// in\n    tag_238:\n        /* \"#utility.yul\":395:456   */\n      swap2\n      pop\n        /* \"#utility.yul\":351:466   */\n      pop\n        /* \"#utility.yul\":148:473   */\n      swap3\n      swap2\n      pop\n      pop\n      jump\t// out\n        /* \"#utility.yul\":479:666   */\n    tag_239:\n        /* \"#utility.yul\":552:562   */\n      0x00\n        /* \"#utility.yul\":573:623   */\n      tag_241\n        /* \"#utility.yul\":619:622   */\n      dup4\n        /* \"#utility.yul\":611:617   */\n      dup4\n        /* \"#utility.yul\":573:623   */\n      tag_242\n      jump\t// in\n    tag_241:\n        /* \"#utility.yul\":655:659   */\n      0x20\n        /* \"#utility.yul\":650:653   */\n      dup4\n        /* \"#utility.yul\":646:660   */\n      add\n        /* \"#utility.yul\":632:660   */\n      swap1\n      pop\n        /* \"#utility.yul\":479:666   */\n      swap3\n      swap2\n      pop\n      pop\n      jump\t// out\n        /* \"#utility.yul\":672:790   */\n    tag_243:\n        /* \"#utility.yul\":759:783   */\n      tag_245\n        /* \"#utility.yul\":777:782   */\n      dup2\n        /* \"#utility.yul\":759:783   */\n      tag_246\n      jump\t// in\n    tag_245:\n        /* \"#utility.yul\":754:757   */\n      dup3\n        /* \"#utility.yul\":747:784   */\n      mstore\n        /* \"#utility.yul\":672:790   */\n      pop\n      pop\n      jump\t// out\n        /* \"#utility.yul\":838:1556   */\n    tag_247:\n        /* \"#utility.yul\":978:1036   */\n      tag_249\n        /* \"#utility.yul\":1030:1035   */\n      dup2\n        /* \"#utility.yul\":978:1036   */\n      tag_250\n      jump\t// in\n    tag_249:\n        /* \"#utility.yul\":1052:1134   */\n      tag_251\n        /* \"#utility.yul\":1127:1133   */\n      dup2\n        /* \"#utility.yul\":1122:1125   */\n      dup5\n        /* \"#utility.yul\":1052:1134   */\n      tag_252\n      jump\t// in\n    tag_251:\n        /* \"#utility.yul\":1045:1134   */\n      swap3\n      pop\n        /* \"#utility.yul\":1158:1218   */\n      tag_253\n        /* \"#utility.yul\":1212:1217   */\n      dup3\n        /* \"#utility.yul\":1158:1218   */\n      tag_254\n      jump\t// in\n    tag_253:\n        /* \"#utility.yul\":1241:1248   */\n      dup1\n        /* \"#utility.yul\":1272:1273   */\n      0x00\n        /* \"#utility.yul\":1257:1549   */\n    tag_255:\n        /* \"#utility.yul\":1282:1288   */\n      dup4\n        /* \"#utility.yul\":1279:1280   */\n      dup2\n        /* \"#utility.yul\":1276:1289   */\n      lt\n        /* \"#utility.yul\":1257:1549   */\n      iszero\n      tag_257\n      jumpi\n        /* \"#utility.yul\":1358:1364   */\n      dup2\n        /* \"#utility.yul\":1352:1365   */\n      mload\n        /* \"#utility.yul\":1385:1452   */\n      tag_258\n        /* \"#utility.yul\":1448:1451   */\n      dup8\n        /* \"#utility.yul\":1433:1446   */\n      dup3\n        /* \"#utility.yul\":1385:1452   */\n      tag_239\n      jump\t// in\n    tag_258:\n        /* \"#utility.yul\":1378:1452   */\n      swap7\n      pop\n        /* \"#utility.yul\":1475:1539   */\n      tag_259\n        /* \"#utility.yul\":1532:1538   */\n      dup4\n        /* \"#utility.yul\":1475:1539   */\n      tag_260\n      jump\t// in\n    tag_259:\n        /* \"#utility.yul\":1465:1539   */\n      swap3\n      pop\n        /* \"#utility.yul\":1317:1549   */\n      pop\n        /* \"#utility.yul\":1304:1305   */\n      0x01\n        /* \"#utility.yul\":1301:1302   */\n      dup2\n        /* \"#utility.yul\":1297:1306   */\n      add\n        /* \"#utility.yul\":1292:1306   */\n      swap1\n      pop\n        /* \"#utility.yul\":1257:1549   */\n      jump(tag_255)\n    tag_257:\n        /* \"#utility.yul\":1261:1275   */\n      pop\n        /* \"#utility.yul\":954:1556   */\n      pop\n      pop\n      pop\n        /* \"#utility.yul\":838:1556   */\n      pop\n      pop\n      jump\t// out\n        /* \"#utility.yul\":1562:1715   */\n    tag_261:\n        /* \"#utility.yul\":1660:1708   */\n      tag_263\n        /* \"#utility.yul\":1702:1707   */\n      dup2\n        /* \"#utility.yul\":1660:1708   */\n      tag_264\n      jump\t// in\n    tag_263:\n        /* \"#utility.yul\":1655:1658   */\n      dup3\n        /* \"#utility.yul\":1648:1709   */\n      mstore\n        /* \"#utility.yul\":1562:1715   */\n      pop\n      pop\n      jump\t// out\n        /* \"#utility.yul\":1721:1850   */\n    tag_242:\n        /* \"#utility.yul\":1802:1843   */\n      tag_266\n        /* \"#utility.yul\":1837:1842   */\n      dup2\n        /* \"#utility.yul\":1802:1843   */\n      tag_267\n      jump\t// in\n    tag_266:\n        /* \"#utility.yul\":1797:1800   */\n      dup3\n        /* \"#utility.yul\":1790:1844   */\n      mstore\n        /* \"#utility.yul\":1721:1850   */\n      pop\n      pop\n      jump\t// out\n        /* \"#utility.yul\":1856:1995   */\n    tag_268:\n        /* \"#utility.yul\":1947:1988   */\n      tag_270\n        /* \"#utility.yul\":1982:1987   */\n      dup2\n        /* \"#utility.yul\":1947:1988   */\n      tag_267\n      jump\t// in\n    tag_270:\n        /* \"#utility.yul\":1942:1945   */\n      dup3\n        /* \"#utility.yul\":1935:1989   */\n      mstore\n        /* \"#utility.yul\":1856:1995   */\n      pop\n      pop\n      jump\t// out\n        /* \"#utility.yul\":2001:2367   */\n    tag_271:\n        /* \"#utility.yul\":2143:2146   */\n      0x00\n        /* \"#utility.yul\":2164:2231   */\n      tag_273\n        /* \"#utility.yul\":2228:2230   */\n      0x15\n        /* \"#utility.yul\":2223:2226   */\n      dup4\n        /* \"#utility.yul\":2164:2231   */\n      tag_274\n      jump\t// in\n    tag_273:\n        /* \"#utility.yul\":2157:2231   */\n      swap2\n      pop\n        /* \"#utility.yul\":2240:2333   */\n      tag_275\n        /* \"#utility.yul\":2329:2332   */\n      dup3\n        /* \"#utility.yul\":2240:2333   */\n      tag_276\n      jump\t// in\n    tag_275:\n        /* \"#utility.yul\":2358:2360   */\n      0x20\n        /* \"#utility.yul\":2353:2356   */\n      dup3\n        /* \"#utility.yul\":2349:2361   */\n      add\n        /* \"#utility.yul\":2342:2361   */\n      swap1\n      pop\n        /* \"#utility.yul\":2001:2367   */\n      swap2\n      swap1\n      pop\n      jump\t// out\n        /* \"#utility.yul\":2373:2739   */\n    tag_277:\n        /* \"#utility.yul\":2515:2518   */\n      0x00\n        /* \"#utility.yul\":2536:2603   */\n      tag_279\n        /* \"#utility.yul\":2600:2602   */\n      0x15\n        /* \"#utility.yul\":2595:2598   */\n      dup4\n        /* \"#utility.yul\":2536:2603   */\n      tag_274\n      jump\t// in\n    tag_279:\n        /* \"#utility.yul\":2529:2603   */\n      swap2\n      pop\n        /* \"#utility.yul\":2612:2705   */\n      tag_280\n        /* \"#utility.yul\":2701:2704   */\n      dup3\n        /* \"#utility.yul\":2612:2705   */\n      tag_281\n      jump\t// in\n    tag_280:\n        /* \"#utility.yul\":2730:2732   */\n      0x20\n        /* \"#utility.yul\":2725:2728   */\n      dup3\n        /* \"#utility.yul\":2721:2733   */\n      add\n        /* \"#utility.yul\":2714:2733   */\n      swap1\n      pop\n        /* \"#utility.yul\":2373:2739   */\n      swap2\n      swap1\n      pop\n      jump\t// out\n        /* \"#utility.yul\":2745:3111   */\n    tag_282:\n        /* \"#utility.yul\":2887:2890   */\n      0x00\n        /* \"#utility.yul\":2908:2975   */\n      tag_284\n        /* \"#utility.yul\":2972:2974   */\n      0x1c\n        /* \"#utility.yul\":2967:2970   */\n      dup4\n        /* \"#utility.yul\":2908:2975   */\n      tag_274\n      jump\t// in\n    tag_284:\n        /* \"#utility.yul\":2901:2975   */\n      swap2\n      pop\n        /* \"#utility.yul\":2984:3077   */\n      tag_285\n        /* \"#utility.yul\":3073:3076   */\n      dup3\n        /* \"#utility.yul\":2984:3077   */\n      tag_286\n      jump\t// in\n    tag_285:\n        /* \"#utility.yul\":3102:3104   */\n      0x20\n        /* \"#utility.yul\":3097:3100   */\n      dup3\n        /* \"#utility.yul\":3093:3105   */\n      add\n        /* \"#utility.yul\":3086:3105   */\n      swap1\n      pop\n        /* \"#utility.yul\":2745:3111   */\n      swap2\n      swap1\n      pop\n      jump\t// out\n        /* \"#utility.yul\":3117:3483   */\n    tag_287:\n        /* \"#utility.yul\":3259:3262   */\n      0x00\n        /* \"#utility.yul\":3280:3347   */\n      tag_289\n        /* \"#utility.yul\":3344:3346   */\n      0x12\n        /* \"#utility.yul\":3339:3342   */\n      dup4\n        /* \"#utility.yul\":3280:3347   */\n      tag_274\n      jump\t// in\n    tag_289:\n        /* \"#utility.yul\":3273:3347   */\n      swap2\n      pop\n        /* \"#utility.yul\":3356:3449   */\n      tag_290\n        /* \"#utility.yul\":3445:3448   */\n      dup3\n        /* \"#utility.yul\":3356:3449   */\n      tag_291\n      jump\t// in\n    tag_290:\n        /* \"#utility.yul\":3474:3476   */\n      0x20\n        /* \"#utility.yul\":3469:3472   */\n      dup3\n        /* \"#utility.yul\":3465:3477   */\n      add\n        /* \"#utility.yul\":3458:3477   */\n      swap1\n      pop\n        /* \"#utility.yul\":3117:3483   */\n      swap2\n      swap1\n      pop\n      jump\t// out\n        /* \"#utility.yul\":3489:3855   */\n    tag_292:\n        /* \"#utility.yul\":3631:3634   */\n      0x00\n        /* \"#utility.yul\":3652:3719   */\n      tag_294\n        /* \"#utility.yul\":3716:3718   */\n      0x0c\n        /* \"#utility.yul\":3711:3714   */\n      dup4\n        /* \"#utility.yul\":3652:3719   */\n      tag_274\n      jump\t// in\n    tag_294:\n        /* \"#utility.yul\":3645:3719   */\n      swap2\n      pop\n        /* \"#utility.yul\":3728:3821   */\n      tag_295\n        /* \"#utility.yul\":3817:3820   */\n      dup3\n        /* \"#utility.yul\":3728:3821   */\n      tag_296\n      jump\t// in\n    tag_295:\n        /* \"#utility.yul\":3846:3848   */\n      0x20\n        /* \"#utility.yul\":3841:3844   */\n      dup3\n        /* \"#utility.yul\":3837:3849   */\n      add\n        /* \"#utility.yul\":3830:3849   */\n      swap1\n      pop\n        /* \"#utility.yul\":3489:3855   */\n      swap2\n      swap1\n      pop\n      jump\t// out\n        /* \"#utility.yul\":3861:4227   */\n    tag_297:\n        /* \"#utility.yul\":4003:4006   */\n      0x00\n        /* \"#utility.yul\":4024:4091   */\n      tag_299\n        /* \"#utility.yul\":4088:4090   */\n      0x1a\n        /* \"#utility.yul\":4083:4086   */\n      dup4\n        /* \"#utility.yul\":4024:4091   */\n      tag_274\n      jump\t// in\n    tag_299:\n        /* \"#utility.yul\":4017:4091   */\n      swap2\n      pop\n        /* \"#utility.yul\":4100:4193   */\n      tag_300\n        /* \"#utility.yul\":4189:4192   */\n      dup3\n        /* \"#utility.yul\":4100:4193   */\n      tag_301\n      jump\t// in\n    tag_300:\n        /* \"#utility.yul\":4218:4220   */\n      0x20\n        /* \"#utility.yul\":4213:4216   */\n      dup3\n        /* \"#utility.yul\":4209:4221   */\n      add\n        /* \"#utility.yul\":4202:4221   */\n      swap1\n      pop\n        /* \"#utility.yul\":3861:4227   */\n      swap2\n      swap1\n      pop\n      jump\t// out\n        /* \"#utility.yul\":4233:4599   */\n    tag_302:\n        /* \"#utility.yul\":4375:4378   */\n      0x00\n        /* \"#utility.yul\":4396:4463   */\n      tag_304\n        /* \"#utility.yul\":4460:4462   */\n      0x1b\n        /* \"#utility.yul\":4455:4458   */\n      dup4\n        /* \"#utility.yul\":4396:4463   */\n      tag_274\n      jump\t// in\n    tag_304:\n        /* \"#utility.yul\":4389:4463   */\n      swap2\n      pop\n        /* \"#utility.yul\":4472:4565   */\n      tag_305\n        /* \"#utility.yul\":4561:4564   */\n      dup3\n        /* \"#utility.yul\":4472:4565   */\n      tag_306\n      jump\t// in\n    tag_305:\n        /* \"#utility.yul\":4590:4592   */\n      0x20\n        /* \"#utility.yul\":4585:4588   */\n      dup3\n        /* \"#utility.yul\":4581:4593   */\n      add\n        /* \"#utility.yul\":4574:4593   */\n      swap1\n      pop\n        /* \"#utility.yul\":4233:4599   */\n      swap2\n      swap1\n      pop\n      jump\t// out\n        /* \"#utility.yul\":4605:4971   */\n    tag_307:\n        /* \"#utility.yul\":4747:4750   */\n      0x00\n        /* \"#utility.yul\":4768:4835   */\n      tag_309\n        /* \"#utility.yul\":4832:4834   */\n      0x1e\n        /* \"#utility.yul\":4827:4830   */\n      dup4\n        /* \"#utility.yul\":4768:4835   */\n      tag_274\n      jump\t// in\n    tag_309:\n        /* \"#utility.yul\":4761:4835   */\n      swap2\n      pop\n        /* \"#utility.yul\":4844:4937   */\n      tag_310\n        /* \"#utility.yul\":4933:4936   */\n      dup3\n        /* \"#utility.yul\":4844:4937   */\n      tag_311\n      jump\t// in\n    tag_310:\n        /* \"#utility.yul\":4962:4964   */\n      0x20\n        /* \"#utility.yul\":4957:4960   */\n      dup3\n        /* \"#utility.yul\":4953:4965   */\n      add\n        /* \"#utility.yul\":4946:4965   */\n      swap1\n      pop\n        /* \"#utility.yul\":4605:4971   */\n      swap2\n      swap1\n      pop\n      jump\t// out\n        /* \"#utility.yul\":4977:5199   */\n    tag_27:\n        /* \"#utility.yul\":5070:5074   */\n      0x00\n        /* \"#utility.yul\":5108:5110   */\n      0x20\n        /* \"#utility.yul\":5097:5106   */\n      dup3\n        /* \"#utility.yul\":5093:5111   */\n      add\n        /* \"#utility.yul\":5085:5111   */\n      swap1\n      pop\n        /* \"#utility.yul\":5121:5192   */\n      tag_313\n        /* \"#utility.yul\":5189:5190   */\n      0x00\n        /* \"#utility.yul\":5178:5187   */\n      dup4\n        /* \"#utility.yul\":5174:5191   */\n      add\n        /* \"#utility.yul\":5165:5171   */\n      dup5\n        /* \"#utility.yul\":5121:5192   */\n      tag_243\n      jump\t// in\n    tag_313:\n        /* \"#utility.yul\":4977:5199   */\n      swap3\n      swap2\n      pop\n      pop\n      jump\t// out\n        /* \"#utility.yul\":5205:5528   */\n    tag_19:\n        /* \"#utility.yul\":5348:5352   */\n      0x00\n        /* \"#utility.yul\":5386:5389   */\n      0x0120\n        /* \"#utility.yul\":5375:5384   */\n      dup3\n        /* \"#utility.yul\":5371:5390   */\n      add\n        /* \"#utility.yul\":5363:5390   */\n      swap1\n      pop\n        /* \"#utility.yul\":5400:5521   */\n      tag_315\n        /* \"#utility.yul\":5518:5519   */\n      0x00\n        /* \"#utility.yul\":5507:5516   */\n      dup4\n        /* \"#utility.yul\":5503:5520   */\n      add\n        /* \"#utility.yul\":5494:5500   */\n      dup5\n        /* \"#utility.yul\":5400:5521   */\n      tag_247\n      jump\t// in\n    tag_315:\n        /* \"#utility.yul\":5205:5528   */\n      swap3\n      swap2\n      pop\n      pop\n      jump\t// out\n        /* \"#utility.yul\":5534:5778   */\n    tag_15:\n        /* \"#utility.yul\":5638:5642   */\n      0x00\n        /* \"#utility.yul\":5676:5678   */\n      0x20\n        /* \"#utility.yul\":5665:5674   */\n      dup3\n        /* \"#utility.yul\":5661:5679   */\n      add\n        /* \"#utility.yul\":5653:5679   */\n      swap1\n      pop\n        /* \"#utility.yul\":5689:5771   */\n      tag_317\n        /* \"#utility.yul\":5768:5769   */\n      0x00\n        /* \"#utility.yul\":5757:5766   */\n      dup4\n        /* \"#utility.yul\":5753:5770   */\n      add\n        /* \"#utility.yul\":5744:5750   */\n      dup5\n        /* \"#utility.yul\":5689:5771   */\n      tag_261\n      jump\t// in\n    tag_317:\n        /* \"#utility.yul\":5534:5778   */\n      swap3\n      swap2\n      pop\n      pop\n      jump\t// out\n        /* \"#utility.yul\":5784:6014   */\n    tag_31:\n        /* \"#utility.yul\":5881:5885   */\n      0x00\n        /* \"#utility.yul\":5919:5921   */\n      0x20\n        /* \"#utility.yul\":5908:5917   */\n      dup3\n        /* \"#utility.yul\":5904:5922   */\n      add\n        /* \"#utility.yul\":5896:5922   */\n      swap1\n      pop\n        /* \"#utility.yul\":5932:6007   */\n      tag_319\n        /* \"#utility.yul\":6004:6005   */\n      0x00\n        /* \"#utility.yul\":5993:6002   */\n      dup4\n        /* \"#utility.yul\":5989:6006   */\n      add\n        /* \"#utility.yul\":5980:5986   */\n      dup5\n        /* \"#utility.yul\":5932:6007   */\n      tag_268\n      jump\t// in\n    tag_319:\n        /* \"#utility.yul\":5784:6014   */\n      swap3\n      swap2\n      pop\n      pop\n      jump\t// out\n        /* \"#utility.yul\":6020:6439   */\n    tag_63:\n        /* \"#utility.yul\":6186:6190   */\n      0x00\n        /* \"#utility.yul\":6224:6226   */\n      0x20\n        /* \"#utility.yul\":6213:6222   */\n      dup3\n        /* \"#utility.yul\":6209:6227   */\n      add\n        /* \"#utility.yul\":6201:6227   */\n      swap1\n      pop\n        /* \"#utility.yul\":6273:6282   */\n      dup2\n        /* \"#utility.yul\":6267:6271   */\n      dup2\n        /* \"#utility.yul\":6263:6283   */\n      sub\n        /* \"#utility.yul\":6259:6260   */\n      0x00\n        /* \"#utility.yul\":6248:6257   */\n      dup4\n        /* \"#utility.yul\":6244:6261   */\n      add\n        /* \"#utility.yul\":6237:6284   */\n      mstore\n        /* \"#utility.yul\":6301:6432   */\n      tag_321\n        /* \"#utility.yul\":6427:6431   */\n      dup2\n        /* \"#utility.yul\":6301:6432   */\n      tag_271\n      jump\t// in\n    tag_321:\n        /* \"#utility.yul\":6293:6432   */\n      swap1\n      pop\n        /* \"#utility.yul\":6020:6439   */\n      swap2\n      swap1\n      pop\n      jump\t// out\n        /* \"#utility.yul\":6445:6864   */\n    tag_119:\n        /* \"#utility.yul\":6611:6615   */\n      0x00\n        /* \"#utility.yul\":6649:6651   */\n      0x20\n        /* \"#utility.yul\":6638:6647   */\n      dup3\n        /* \"#utility.yul\":6634:6652   */\n      add\n        /* \"#utility.yul\":6626:6652   */\n      swap1\n      pop\n        /* \"#utility.yul\":6698:6707   */\n      dup2\n        /* \"#utility.yul\":6692:6696   */\n      dup2\n        /* \"#utility.yul\":6688:6708   */\n      sub\n        /* \"#utility.yul\":6684:6685   */\n      0x00\n        /* \"#utility.yul\":6673:6682   */\n      dup4\n        /* \"#utility.yul\":6669:6686   */\n      add\n        /* \"#utility.yul\":6662:6709   */\n      mstore\n        /* \"#utility.yul\":6726:6857   */\n      tag_323\n        /* \"#utility.yul\":6852:6856   */\n      dup2\n        /* \"#utility.yul\":6726:6857   */\n      tag_277\n      jump\t// in\n    tag_323:\n        /* \"#utility.yul\":6718:6857   */\n      swap1\n      pop\n        /* \"#utility.yul\":6445:6864   */\n      swap2\n      swap1\n      pop\n      jump\t// out\n        /* \"#utility.yul\":6870:7289   */\n    tag_130:\n        /* \"#utility.yul\":7036:7040   */\n      0x00\n        /* \"#utility.yul\":7074:7076   */\n      0x20\n        /* \"#utility.yul\":7063:7072   */\n      dup3\n        /* \"#utility.yul\":7059:7077   */\n      add\n        /* \"#utility.yul\":7051:7077   */\n      swap1\n      pop\n        /* \"#utility.yul\":7123:7132   */\n      dup2\n        /* \"#utility.yul\":7117:7121   */\n      dup2\n        /* \"#utility.yul\":7113:7133   */\n      sub\n        /* \"#utility.yul\":7109:7110   */\n      0x00\n        /* \"#utility.yul\":7098:7107   */\n      dup4\n        /* \"#utility.yul\":7094:7111   */\n      add\n        /* \"#utility.yul\":7087:7134   */\n      mstore\n        /* \"#utility.yul\":7151:7282   */\n      tag_325\n        /* \"#utility.yul\":7277:7281   */\n      dup2\n        /* \"#utility.yul\":7151:7282   */\n      tag_282\n      jump\t// in\n    tag_325:\n        /* \"#utility.yul\":7143:7282   */\n      swap1\n      pop\n        /* \"#utility.yul\":6870:7289   */\n      swap2\n      swap1\n      pop\n      jump\t// out\n        /* \"#utility.yul\":7295:7714   */\n    tag_68:\n        /* \"#utility.yul\":7461:7465   */\n      0x00\n        /* \"#utility.yul\":7499:7501   */\n      0x20\n        /* \"#utility.yul\":7488:7497   */\n      dup3\n        /* \"#utility.yul\":7484:7502   */\n      add\n        /* \"#utility.yul\":7476:7502   */\n      swap1\n      pop\n        /* \"#utility.yul\":7548:7557   */\n      dup2\n        /* \"#utility.yul\":7542:7546   */\n      dup2\n        /* \"#utility.yul\":7538:7558   */\n      sub\n        /* \"#utility.yul\":7534:7535   */\n      0x00\n        /* \"#utility.yul\":7523:7532   */\n      dup4\n        /* \"#utility.yul\":7519:7536   */\n      add\n        /* \"#utility.yul\":7512:7559   */\n      mstore\n        /* \"#utility.yul\":7576:7707   */\n      tag_327\n        /* \"#utility.yul\":7702:7706   */\n      dup2\n        /* \"#utility.yul\":7576:7707   */\n      tag_287\n      jump\t// in\n    tag_327:\n        /* \"#utility.yul\":7568:7707   */\n      swap1\n      pop\n        /* \"#utility.yul\":7295:7714   */\n      swap2\n      swap1\n      pop\n      jump\t// out\n        /* \"#utility.yul\":7720:8139   */\n    tag_60:\n        /* \"#utility.yul\":7886:7890   */\n      0x00\n        /* \"#utility.yul\":7924:7926   */\n      0x20\n        /* \"#utility.yul\":7913:7922   */\n      dup3\n        /* \"#utility.yul\":7909:7927   */\n      add\n        /* \"#utility.yul\":7901:7927   */\n      swap1\n      pop\n        /* \"#utility.yul\":7973:7982   */\n      dup2\n        /* \"#utility.yul\":7967:7971   */\n      dup2\n        /* \"#utility.yul\":7963:7983   */\n      sub\n        /* \"#utility.yul\":7959:7960   */\n      0x00\n        /* \"#utility.yul\":7948:7957   */\n      dup4\n        /* \"#utility.yul\":7944:7961   */\n      add\n        /* \"#utility.yul\":7937:7984   */\n      mstore\n        /* \"#utility.yul\":8001:8132   */\n      tag_329\n        /* \"#utility.yul\":8127:8131   */\n      dup2\n        /* \"#utility.yul\":8001:8132   */\n      tag_292\n      jump\t// in\n    tag_329:\n        /* \"#utility.yul\":7993:8132   */\n      swap1\n      pop\n        /* \"#utility.yul\":7720:8139   */\n      swap2\n      swap1\n      pop\n      jump\t// out\n        /* \"#utility.yul\":8145:8564   */\n    tag_50:\n        /* \"#utility.yul\":8311:8315   */\n      0x00\n        /* \"#utility.yul\":8349:8351   */\n      0x20\n        /* \"#utility.yul\":8338:8347   */\n      dup3\n        /* \"#utility.yul\":8334:8352   */\n      add\n        /* \"#utility.yul\":8326:8352   */\n      swap1\n      pop\n        /* \"#utility.yul\":8398:8407   */\n      dup2\n        /* \"#utility.yul\":8392:8396   */\n      dup2\n        /* \"#utility.yul\":8388:8408   */\n      sub\n        /* \"#utility.yul\":8384:8385   */\n      0x00\n        /* \"#utility.yul\":8373:8382   */\n      dup4\n        /* \"#utility.yul\":8369:8386   */\n      add\n        /* \"#utility.yul\":8362:8409   */\n      mstore\n        /* \"#utility.yul\":8426:8557   */\n      tag_331\n        /* \"#utility.yul\":8552:8556   */\n      dup2\n        /* \"#utility.yul\":8426:8557   */\n      tag_297\n      jump\t// in\n    tag_331:\n        /* \"#utility.yul\":8418:8557   */\n      swap1\n      pop\n        /* \"#utility.yul\":8145:8564   */\n      swap2\n      swap1\n      pop\n      jump\t// out\n        /* \"#utility.yul\":8570:8989   */\n    tag_53:\n        /* \"#utility.yul\":8736:8740   */\n      0x00\n        /* \"#utility.yul\":8774:8776   */\n      0x20\n        /* \"#utility.yul\":8763:8772   */\n      dup3\n        /* \"#utility.yul\":8759:8777   */\n      add\n        /* \"#utility.yul\":8751:8777   */\n      swap1\n      pop\n        /* \"#utility.yul\":8823:8832   */\n      dup2\n        /* \"#utility.yul\":8817:8821   */\n      dup2\n        /* \"#utility.yul\":8813:8833   */\n      sub\n        /* \"#utility.yul\":8809:8810   */\n      0x00\n        /* \"#utility.yul\":8798:8807   */\n      dup4\n        /* \"#utility.yul\":8794:8811   */\n      add\n        /* \"#utility.yul\":8787:8834   */\n      mstore\n        /* \"#utility.yul\":8851:8982   */\n      tag_333\n        /* \"#utility.yul\":8977:8981   */\n      dup2\n        /* \"#utility.yul\":8851:8982   */\n      tag_302\n      jump\t// in\n    tag_333:\n        /* \"#utility.yul\":8843:8982   */\n      swap1\n      pop\n        /* \"#utility.yul\":8570:8989   */\n      swap2\n      swap1\n      pop\n      jump\t// out\n        /* \"#utility.yul\":8995:9414   */\n    tag_79:\n        /* \"#utility.yul\":9161:9165   */\n      0x00\n        /* \"#utility.yul\":9199:9201   */\n      0x20\n        /* \"#utility.yul\":9188:9197   */\n      dup3\n        /* \"#utility.yul\":9184:9202   */\n      add\n        /* \"#utility.yul\":9176:9202   */\n      swap1\n      pop\n        /* \"#utility.yul\":9248:9257   */\n      dup2\n        /* \"#utility.yul\":9242:9246   */\n      dup2\n        /* \"#utility.yul\":9238:9258   */\n      sub\n        /* \"#utility.yul\":9234:9235   */\n      0x00\n        /* \"#utility.yul\":9223:9232   */\n      dup4\n        /* \"#utility.yul\":9219:9236   */\n      add\n        /* \"#utility.yul\":9212:9259   */\n      mstore\n        /* \"#utility.yul\":9276:9407   */\n      tag_335\n        /* \"#utility.yul\":9402:9406   */\n      dup2\n        /* \"#utility.yul\":9276:9407   */\n      tag_307\n      jump\t// in\n    tag_335:\n        /* \"#utility.yul\":9268:9407   */\n      swap1\n      pop\n        /* \"#utility.yul\":8995:9414   */\n      swap2\n      swap1\n      pop\n      jump\t// out\n        /* \"#utility.yul\":9501:9605   */\n    tag_254:\n        /* \"#utility.yul\":9572:9576   */\n      0x00\n        /* \"#utility.yul\":9595:9598   */\n      dup2\n        /* \"#utility.yul\":9587:9598   */\n      swap1\n      pop\n        /* \"#utility.yul\":9501:9605   */\n      swap2\n      swap1\n      pop\n      jump\t// out\n        /* \"#utility.yul\":9611:9721   */\n    tag_250:\n        /* \"#utility.yul\":9682:9688   */\n      0x00\n        /* \"#utility.yul\":9710:9714   */\n      0x09\n        /* \"#utility.yul\":9700:9714   */\n      swap1\n      pop\n        /* \"#utility.yul\":9611:9721   */\n      swap2\n      swap1\n      pop\n      jump\t// out\n        /* \"#utility.yul\":9727:9844   */\n    tag_260:\n        /* \"#utility.yul\":9801:9805   */\n      0x00\n        /* \"#utility.yul\":9833:9837   */\n      0x20\n        /* \"#utility.yul\":9828:9831   */\n      dup3\n        /* \"#utility.yul\":9824:9838   */\n      add\n        /* \"#utility.yul\":9816:9838   */\n      swap1\n      pop\n        /* \"#utility.yul\":9727:9844   */\n      swap2\n      swap1\n      pop\n      jump\t// out\n        /* \"#utility.yul\":9850:9991   */\n    tag_252:\n        /* \"#utility.yul\":9945:9956   */\n      0x00\n        /* \"#utility.yul\":9982:9985   */\n      dup2\n        /* \"#utility.yul\":9967:9985   */\n      swap1\n      pop\n        /* \"#utility.yul\":9850:9991   */\n      swap3\n      swap2\n      pop\n      pop\n      jump\t// out\n        /* \"#utility.yul\":9997:10166   */\n    tag_274:\n        /* \"#utility.yul\":10081:10092   */\n      0x00\n        /* \"#utility.yul\":10115:10121   */\n      dup3\n        /* \"#utility.yul\":10110:10113   */\n      dup3\n        /* \"#utility.yul\":10103:10122   */\n      mstore\n        /* \"#utility.yul\":10155:10159   */\n      0x20\n        /* \"#utility.yul\":10150:10153   */\n      dup3\n        /* \"#utility.yul\":10146:10160   */\n      add\n        /* \"#utility.yul\":10131:10160   */\n      swap1\n      pop\n        /* \"#utility.yul\":9997:10166   */\n      swap3\n      swap2\n      pop\n      pop\n      jump\t// out\n        /* \"#utility.yul\":10172:10268   */\n    tag_246:\n        /* \"#utility.yul\":10209:10216   */\n      0x00\n        /* \"#utility.yul\":10238:10262   */\n      tag_344\n        /* \"#utility.yul\":10256:10261   */\n      dup3\n        /* \"#utility.yul\":10238:10262   */\n      tag_345\n      jump\t// in\n    tag_344:\n        /* \"#utility.yul\":10227:10262   */\n      swap1\n      pop\n        /* \"#utility.yul\":10172:10268   */\n      swap2\n      swap1\n      pop\n      jump\t// out\n        /* \"#utility.yul\":10274:10411   */\n    tag_346:\n        /* \"#utility.yul\":10324:10331   */\n      0x00\n        /* \"#utility.yul\":10353:10358   */\n      dup2\n        /* \"#utility.yul\":10342:10358   */\n      swap1\n      pop\n        /* \"#utility.yul\":10359:10405   */\n      tag_348\n        /* \"#utility.yul\":10399:10404   */\n      dup3\n        /* \"#utility.yul\":10359:10405   */\n      tag_349\n      jump\t// in\n    tag_348:\n        /* \"#utility.yul\":10274:10411   */\n      swap2\n      swap1\n      pop\n      jump\t// out\n        /* \"#utility.yul\":10417:10540   */\n    tag_350:\n        /* \"#utility.yul\":10460:10467   */\n      0x00\n        /* \"#utility.yul\":10489:10494   */\n      dup2\n        /* \"#utility.yul\":10478:10494   */\n      swap1\n      pop\n        /* \"#utility.yul\":10495:10534   */\n      tag_352\n        /* \"#utility.yul\":10528:10533   */\n      dup3\n        /* \"#utility.yul\":10495:10534   */\n      tag_353\n      jump\t// in\n    tag_352:\n        /* \"#utility.yul\":10417:10540   */\n      swap2\n      swap1\n      pop\n      jump\t// out\n        /* \"#utility.yul\":10546:10672   */\n    tag_345:\n        /* \"#utility.yul\":10583:10590   */\n      0x00\n        /* \"#utility.yul\":10623:10665   */\n      0xffffffffffffffffffffffffffffffffffffffff\n        /* \"#utility.yul\":10616:10621   */\n      dup3\n        /* \"#utility.yul\":10612:10666   */\n      and\n        /* \"#utility.yul\":10601:10666   */\n      swap1\n      pop\n        /* \"#utility.yul\":10546:10672   */\n      swap2\n      swap1\n      pop\n      jump\t// out\n        /* \"#utility.yul\":10678:10755   */\n    tag_355:\n        /* \"#utility.yul\":10715:10722   */\n      0x00\n        /* \"#utility.yul\":10744:10749   */\n      dup2\n        /* \"#utility.yul\":10733:10749   */\n      swap1\n      pop\n        /* \"#utility.yul\":10678:10755   */\n      swap2\n      swap1\n      pop\n      jump\t// out\n        /* \"#utility.yul\":10761:10847   */\n    tag_357:\n        /* \"#utility.yul\":10796:10803   */\n      0x00\n        /* \"#utility.yul\":10836:10840   */\n      0xff\n        /* \"#utility.yul\":10829:10834   */\n      dup3\n        /* \"#utility.yul\":10825:10841   */\n      and\n        /* \"#utility.yul\":10814:10841   */\n      swap1\n      pop\n        /* \"#utility.yul\":10761:10847   */\n      swap2\n      swap1\n      pop\n      jump\t// out\n        /* \"#utility.yul\":10853:10990   */\n    tag_264:\n        /* \"#utility.yul\":10914:10923   */\n      0x00\n        /* \"#utility.yul\":10947:10984   */\n      tag_360\n        /* \"#utility.yul\":10978:10983   */\n      dup3\n        /* \"#utility.yul\":10947:10984   */\n      tag_346\n      jump\t// in\n    tag_360:\n        /* \"#utility.yul\":10934:10984   */\n      swap1\n      pop\n        /* \"#utility.yul\":10853:10990   */\n      swap2\n      swap1\n      pop\n      jump\t// out\n        /* \"#utility.yul\":10996:11119   */\n    tag_267:\n        /* \"#utility.yul\":11050:11059   */\n      0x00\n        /* \"#utility.yul\":11083:11113   */\n      tag_362\n        /* \"#utility.yul\":11107:11112   */\n      dup3\n        /* \"#utility.yul\":11083:11113   */\n      tag_350\n      jump\t// in\n    tag_362:\n        /* \"#utility.yul\":11070:11113   */\n      swap1\n      pop\n        /* \"#utility.yul\":10996:11119   */\n      swap2\n      swap1\n      pop\n      jump\t// out\n        /* \"#utility.yul\":11125:11358   */\n    tag_228:\n        /* \"#utility.yul\":11164:11167   */\n      0x00\n        /* \"#utility.yul\":11187:11211   */\n      tag_364\n        /* \"#utility.yul\":11205:11210   */\n      dup3\n        /* \"#utility.yul\":11187:11211   */\n      tag_355\n      jump\t// in\n    tag_364:\n        /* \"#utility.yul\":11178:11211   */\n      swap2\n      pop\n        /* \"#utility.yul\":11233:11299   */\n      0xffffffffffffffffffffffffffffffffffffffffffffffffffffffffffffffff\n        /* \"#utility.yul\":11226:11231   */\n      dup3\n        /* \"#utility.yul\":11223:11300   */\n      eq\n        /* \"#utility.yul\":11220:11323   */\n      iszero\n      tag_365\n      jumpi\n        /* \"#utility.yul\":11303:11321   */\n      tag_366\n      tag_367\n      jump\t// in\n    tag_366:\n        /* \"#utility.yul\":11220:11323   */\n    tag_365:\n        /* \"#utility.yul\":11350:11351   */\n      0x01\n        /* \"#utility.yul\":11343:11348   */\n      dup3\n        /* \"#utility.yul\":11339:11352   */\n      add\n        /* \"#utility.yul\":11332:11352   */\n      swap1\n      pop\n        /* \"#utility.yul\":11125:11358   */\n      swap2\n      swap1\n      pop\n      jump\t// out\n        /* \"#utility.yul\":11364:11531   */\n    tag_211:\n        /* \"#utility.yul\":11401:11404   */\n      0x00\n        /* \"#utility.yul\":11424:11446   */\n      tag_369\n        /* \"#utility.yul\":11440:11445   */\n      dup3\n        /* \"#utility.yul\":11424:11446   */\n      tag_357\n      jump\t// in\n    tag_369:\n        /* \"#utility.yul\":11415:11446   */\n      swap2\n      pop\n        /* \"#utility.yul\":11468:11472   */\n      0xff\n        /* \"#utility.yul\":11461:11466   */\n      dup3\n        /* \"#utility.yul\":11458:11473   */\n      eq\n        /* \"#utility.yul\":11455:11496   */\n      iszero\n      tag_370\n      jumpi\n        /* \"#utility.yul\":11476:11494   */\n      tag_371\n      tag_367\n      jump\t// in\n    tag_371:\n        /* \"#utility.yul\":11455:11496   */\n    tag_370:\n        /* \"#utility.yul\":11523:11524   */\n      0x01\n        /* \"#utility.yul\":11516:11521   */\n      dup3\n        /* \"#utility.yul\":11512:11525   */\n      add\n        /* \"#utility.yul\":11505:11525   */\n      swap1\n      pop\n        /* \"#utility.yul\":11364:11531   */\n      swap2\n      swap1\n      pop\n      jump\t// out\n        /* \"#utility.yul\":11537:11717   */\n    tag_367:\n        /* \"#utility.yul\":11585:11662   */\n      0x4e487b7100000000000000000000000000000000000000000000000000000000\n        /* \"#utility.yul\":11582:11583   */\n      0x00\n        /* \"#utility.yul\":11575:11663   */\n      mstore\n        /* \"#utility.yul\":11682:11686   */\n      0x11\n        /* \"#utility.yul\":11679:11680   */\n      0x04\n        /* \"#utility.yul\":11672:11687   */\n      mstore\n        /* \"#utility.yul\":11706:11710   */\n      0x24\n        /* \"#utility.yul\":11703:11704   */\n      0x00\n        /* \"#utility.yul\":11696:11711   */\n      revert\n        /* \"#utility.yul\":11723:11903   */\n    tag_46:\n        /* \"#utility.yul\":11771:11848   */\n      0x4e487b7100000000000000000000000000000000000000000000000000000000\n        /* \"#utility.yul\":11768:11769   */\n      0x00\n        /* \"#utility.yul\":11761:11849   */\n      mstore\n        /* \"#utility.yul\":11868:11872   */\n      0x21\n        /* \"#utility.yul\":11865:11866   */\n      0x04\n        /* \"#utility.yul\":11858:11873   */\n      mstore\n        /* \"#utility.yul\":11892:11896   */\n      0x24\n        /* \"#utility.yul\":11889:11890   */\n      0x00\n        /* \"#utility.yul\":11882:11897   */\n      revert\n        /* \"#utility.yul\":11909:12089   */\n    tag_73:\n        /* \"#utility.yul\":11957:12034   */\n      0x4e487b7100000000000000000000000000000000000000000000000000000000\n        /* \"#utility.yul\":11954:11955   */\n      0x00\n        /* \"#utility.yul\":11947:12035   */\n      mstore\n        /* \"#utility.yul\":12054:12058   */\n      0x32\n        /* \"#utility.yul\":12051:12052   */\n      0x04\n        /* \"#utility.yul\":12044:12059   */\n      mstore\n        /* \"#utility.yul\":12078:12082   */\n      0x24\n        /* \"#utility.yul\":12075:12076   */\n      0x00\n        /* \"#utility.yul\":12068:12083   */\n      revert\n        /* \"#utility.yul\":12218:12335   */\n    tag_237:\n        /* \"#utility.yul\":12327:12328   */\n      0x00\n        /* \"#utility.yul\":12324:12325   */\n      dup1\n        /* \"#utility.yul\":12317:12329   */\n      revert\n        /* \"#utility.yul\":12341:12512   */\n    tag_276:\n        /* \"#utility.yul\":12481:12504   */\n      0x4769766520612076616c6964206c6f636174696f6e0000000000000000000000\n        /* \"#utility.yul\":12477:12478   */\n      0x00\n        /* \"#utility.yul\":12469:12475   */\n      dup3\n        /* \"#utility.yul\":12465:12479   */\n      add\n        /* \"#utility.yul\":12458:12505   */\n      mstore\n        /* \"#utility.yul\":12341:12512   */\n      pop\n      jump\t// out\n        /* \"#utility.yul\":12518:12689   */\n    tag_281:\n        /* \"#utility.yul\":12658:12681   */\n      0x47616d65206973207374696c6c2072756e6e696e670000000000000000000000\n        /* \"#utility.yul\":12654:12655   */\n      0x00\n        /* \"#utility.yul\":12646:12652   */\n      dup3\n        /* \"#utility.yul\":12642:12656   */\n      add\n        /* \"#utility.yul\":12635:12682   */\n      mstore\n        /* \"#utility.yul\":12518:12689   */\n      pop\n      jump\t// out\n        /* \"#utility.yul\":12695:12873   */\n    tag_286:\n        /* \"#utility.yul\":12835:12865   */\n      0x47616d652069732066756c6c2c207761697420796f7572207475726e00000000\n        /* \"#utility.yul\":12831:12832   */\n      0x00\n        /* \"#utility.yul\":12823:12829   */\n      dup3\n        /* \"#utility.yul\":12819:12833   */\n      add\n        /* \"#utility.yul\":12812:12866   */\n      mstore\n        /* \"#utility.yul\":12695:12873   */\n      pop\n      jump\t// out\n        /* \"#utility.yul\":12879:13047   */\n    tag_291:\n        /* \"#utility.yul\":13019:13039   */\n      0x49742773206e6f7420796f7572207475726e0000000000000000000000000000\n        /* \"#utility.yul\":13015:13016   */\n      0x00\n        /* \"#utility.yul\":13007:13013   */\n      dup3\n        /* \"#utility.yul\":13003:13017   */\n      add\n        /* \"#utility.yul\":12996:13040   */\n      mstore\n        /* \"#utility.yul\":12879:13047   */\n      pop\n      jump\t// out\n        /* \"#utility.yul\":13053:13215   */\n    tag_296:\n        /* \"#utility.yul\":13193:13207   */\n      0x47616d65206973206f7665720000000000000000000000000000000000000000\n        /* \"#utility.yul\":13189:13190   */\n      0x00\n        /* \"#utility.yul\":13181:13187   */\n      dup3\n        /* \"#utility.yul\":13177:13191   */\n      add\n        /* \"#utility.yul\":13170:13208   */\n      mstore\n        /* \"#utility.yul\":13053:13215   */\n      pop\n      jump\t// out\n        /* \"#utility.yul\":13221:13397   */\n    tag_301:\n        /* \"#utility.yul\":13361:13389   */\n      0x466972737420706c61796572206861736e2774206a6f696e6564000000000000\n        /* \"#utility.yul\":13357:13358   */\n      0x00\n        /* \"#utility.yul\":13349:13355   */\n      dup3\n        /* \"#utility.yul\":13345:13359   */\n      add\n        /* \"#utility.yul\":13338:13390   */\n      mstore\n        /* \"#utility.yul\":13221:13397   */\n      pop\n      jump\t// out\n        /* \"#utility.yul\":13403:13580   */\n    tag_306:\n        /* \"#utility.yul\":13543:13572   */\n      0x5365636f6e6420706c61796572206861736e2774206a6f696e65640000000000\n        /* \"#utility.yul\":13539:13540   */\n      0x00\n        /* \"#utility.yul\":13531:13537   */\n      dup3\n        /* \"#utility.yul\":13527:13541   */\n      add\n        /* \"#utility.yul\":13520:13573   */\n      mstore\n        /* \"#utility.yul\":13403:13580   */\n      pop\n      jump\t// out\n        /* \"#utility.yul\":13586:13766   */\n    tag_311:\n        /* \"#utility.yul\":13726:13758   */\n      0x536f6d656f6e6520616c7265616479206d6164652074686973206d6f76650000\n        /* \"#utility.yul\":13722:13723   */\n      0x00\n        /* \"#utility.yul\":13714:13720   */\n      dup3\n        /* \"#utility.yul\":13710:13724   */\n      add\n        /* \"#utility.yul\":13703:13759   */\n      mstore\n        /* \"#utility.yul\":13586:13766   */\n      pop\n      jump\t// out\n        /* \"#utility.yul\":13772:13890   */\n    tag_349:\n        /* \"#utility.yul\":13858:13859   */\n      0x05\n        /* \"#utility.yul\":13851:13856   */\n      dup2\n        /* \"#utility.yul\":13848:13860   */\n      lt\n        /* \"#utility.yul\":13838:13884   */\n      tag_387\n      jumpi\n        /* \"#utility.yul\":13864:13882   */\n      tag_388\n      tag_46\n      jump\t// in\n    tag_388:\n        /* \"#utility.yul\":13838:13884   */\n    tag_387:\n        /* \"#utility.yul\":13772:13890   */\n      pop\n      jump\t// out\n        /* \"#utility.yul\":13896:14007   */\n    tag_353:\n        /* \"#utility.yul\":13975:13976   */\n      0x03\n        /* \"#utility.yul\":13968:13973   */\n      dup2\n        /* \"#utility.yul\":13965:13977   */\n      lt\n        /* \"#utility.yul\":13955:14001   */\n      tag_390\n      jumpi\n        /* \"#utility.yul\":13981:13999   */\n      tag_391\n      tag_46\n      jump\t// in\n    tag_391:\n        /* \"#utility.yul\":13955:14001   */\n    tag_390:\n        /* \"#utility.yul\":13896:14007   */\n      pop\n      jump\t// out\n        /* \"#utility.yul\":14013:14131   */\n    tag_233:\n        /* \"#utility.yul\":14084:14106   */\n      tag_393\n        /* \"#utility.yul\":14100:14105   */\n      dup2\n        /* \"#utility.yul\":14084:14106   */\n      tag_357\n      jump\t// in\n    tag_393:\n        /* \"#utility.yul\":14077:14082   */\n      dup2\n        /* \"#utility.yul\":14074:14107   */\n      eq\n        /* \"#utility.yul\":14064:14125   */\n      tag_394\n      jumpi\n        /* \"#utility.yul\":14121:14122   */\n      0x00\n        /* \"#utility.yul\":14118:14119   */\n      dup1\n        /* \"#utility.yul\":14111:14123   */\n      revert\n        /* \"#utility.yul\":14064:14125   */\n    tag_394:\n        /* \"#utility.yul\":14013:14131   */\n      pop\n      jump\t// out\n\n    auxdata: 0xa2646970667358221220d49a6be98d3cb40b723612ec5f1c07757d220209e7411f7c1dc9cefcce7d446764736f6c63430008070033\n}\n",
				"bytecode": {
					"linkReferences": {},
					"object": "608060405234801561001057600080fd5b506000600160146101000a81548160ff021916908360048111156100375761003661006b565b5b021790555060018060156101000a81548160ff021916908360028111156100615761006061006b565b5b021790555061009a565b7f4e487b7100000000000000000000000000000000000000000000000000000000600052602160045260246000fd5b6117d6806100a96000396000f3fe608060405234801561001057600080fd5b50600436106100885760003560e01c806382df52421161005b57806382df524214610103578063bb47221914610121578063d30895e41461012b578063d4f77b1c1461014957610088565b8063200d2ed21461008d5780633264a34b146100ab5780633cd56f48146100c957806359a5f12d146100e5575b600080fd5b610095610153565b6040516100a2919061130d565b60405180910390f35b6100b3610166565b6040516100c091906112f1565b60405180910390f35b6100e360048036038101906100de91906110e6565b6101e6565b005b6100ed6106c1565b6040516100fa91906112d6565b60405180910390f35b61010b6106e7565b6040516101189190611328565b60405180910390f35b6101296106fa565b005b610133610885565b60405161014091906112d6565b60405180910390f35b6101516108a9565b005b600160149054906101000a900460ff1681565b61016e6110a7565b60026009806020026040519081016040528092919082600980156101dc576020028201916000905b82829054906101000a900460ff1660028111156101b6576101b56115b6565b5b815260200190600101906020826000010492830192600103820291508084116101965790505b5050505050905090565b600073ffffffffffffffffffffffffffffffffffffffff1660008054906101000a900473ffffffffffffffffffffffffffffffffffffffff1673ffffffffffffffffffffffffffffffffffffffff161415610276576040517f08c379a000000000000000000000000000000000000000000000000000000000815260040161026d906113e3565b60405180910390fd5b600073ffffffffffffffffffffffffffffffffffffffff16600160009054906101000a900473ffffffffffffffffffffffffffffffffffffffff1673ffffffffffffffffffffffffffffffffffffffff161415610308576040517f08c379a00000000000000000000000000000000000000000000000000000000081526004016102ff90611403565b60405180910390fd5b6001600481111561031c5761031b6115b6565b5b600160149054906101000a900460ff16600481111561033e5761033d6115b6565b5b1461037e576040517f08c379a0000000000000000000000000000000000000000000000000000000008152600401610375906113c3565b60405180910390fd5b60098160ff16106103c4576040517f08c379a00000000000000000000000000000000000000000000000000000000081526004016103bb90611343565b60405180910390fd5b6103cc610a9b565b73ffffffffffffffffffffffffffffffffffffffff163373ffffffffffffffffffffffffffffffffffffffff1614610439576040517f08c379a0000000000000000000000000000000000000000000000000000000008152600401610430906113a3565b60405180910390fd5b6000600281111561044d5761044c6115b6565b5b60028260ff1660098110610464576104636115e5565b5b602091828204019190069054906101000a900460ff16600281111561048c5761048b6115b6565b5b146104cc576040517f08c379a00000000000000000000000000000000000000000000000000000000081526004016104c390611423565b60405180910390fd5b600160159054906101000a900460ff1660028260ff16600981106104f3576104f26115e5565b5b602091828204019190066101000a81548160ff0219169083600281111561051d5761051c6115b6565b5b021790555061052a610b6e565b600160146101000a81548160ff0219169083600481111561054e5761054d6115b6565b5b021790555060016004811115610567576105666115b6565b5b600160149054906101000a900460ff166004811115610589576105886115b6565b5b146105be576000600160156101000a81548160ff021916908360028111156105b4576105b36115b6565b5b0217905550610692565b600160028111156105d2576105d16115b6565b5b600160159054906101000a900460ff1660028111156105f4576105f36115b6565b5b141561062a576002600160156101000a81548160ff021916908360028111156106205761061f6115b6565b5b0217905550610691565b60028081111561063d5761063c6115b6565b5b600160159054906101000a900460ff16600281111561065f5761065e6115b6565b5b14156106905760018060156101000a81548160ff0219169083600281111561068a576106896115b6565b5b02179055505b5b5b7f3f1a24e0caa950d20bd4d30dd73c8add047f2458b656894e3e3d3b6eefbe765d60405160405180910390a150565b600160009054906101000a900473ffffffffffffffffffffffffffffffffffffffff1681565b600160159054906101000a900460ff1681565b6001600481111561070e5761070d6115b6565b5b600160149054906101000a900460ff1660048111156107305761072f6115b6565b5b1415610771576040517f08c379a000000000000000000000000000000000000000000000000000000000815260040161076890611363565b60405180910390fd5b6000600160146101000a81548160ff02191690836004811115610797576107966115b6565b5b021790555060018060156101000a81548160ff021916908360028111156107c1576107c06115b6565b5b021790555060008060006101000a81548173ffffffffffffffffffffffffffffffffffffffff021916908373ffffffffffffffffffffffffffffffffffffffff1602179055506000600160006101000a81548173ffffffffffffffffffffffffffffffffffffffff021916908373ffffffffffffffffffffffffffffffffffffffff1602179055506002600061085791906110ca565b7fc6976b6410888b44c765590c8368eb4a60e0431d4ad683c8a53ea85a8479f22e60405160405180910390a1565b60008054906101000a900473ffffffffffffffffffffffffffffffffffffffff1681565b600073ffffffffffffffffffffffffffffffffffffffff1660008054906101000a900473ffffffffffffffffffffffffffffffffffffffff1673ffffffffffffffffffffffffffffffffffffffff1614806109525750600073ffffffffffffffffffffffffffffffffffffffff16600160009054906101000a900473ffffffffffffffffffffffffffffffffffffffff1673ffffffffffffffffffffffffffffffffffffffff16145b610991576040517f08c379a000000000000000000000000000000000000000000000000000000000815260040161098890611383565b60405180910390fd5b600073ffffffffffffffffffffffffffffffffffffffff1660008054906101000a900473ffffffffffffffffffffffffffffffffffffffff1673ffffffffffffffffffffffffffffffffffffffff161415610a2b57336000806101000a81548173ffffffffffffffffffffffffffffffffffffffff021916908373ffffffffffffffffffffffffffffffffffffffff160217905550610a6d565b33600160006101000a81548173ffffffffffffffffffffffffffffffffffffffff021916908373ffffffffffffffffffffffffffffffffffffffff1602179055505b7f1e417d75ca5de02e75869830adacd190151380d15d51a1a47bf622dcab4ca44660405160405180910390a1565b600060016002811115610ab157610ab06115b6565b5b600160159054906101000a900460ff166002811115610ad357610ad26115b6565b5b1415610b015760008054906101000a900473ffffffffffffffffffffffffffffffffffffffff169050610b6b565b600280811115610b1457610b136115b6565b5b600160159054906101000a900460ff166002811115610b3657610b356115b6565b5b1415610b6657600160009054906101000a900473ffffffffffffffffffffffffffffffffffffffff169050610b6b565b600090505b90565b6000806040518061010001604052806040518060600160405280600060ff168152602001600160ff168152602001600260ff1681525081526020016040518060600160405280600360ff168152602001600460ff168152602001600560ff1681525081526020016040518060600160405280600660ff168152602001600760ff168152602001600860ff1681525081526020016040518060600160405280600060ff168152602001600360ff168152602001600660ff1681525081526020016040518060600160405280600160ff168152602001600460ff168152602001600760ff1681525081526020016040518060600160405280600260ff168152602001600560ff168152602001600860ff1681525081526020016040518060600160405280600060ff168152602001600460ff168152602001600860ff1681525081526020016040518060600160405280600660ff168152602001600460ff168152602001600260ff16815250815250905060005b60088160ff161015610ff9576000828260ff1660088110610d0457610d036115e5565b5b60200201519050600281600160038110610d2157610d206115e5565b5b602002015160ff1660098110610d3a57610d396115e5565b5b602091828204019190069054906101000a900460ff166002811115610d6257610d616115b6565b5b600282600060038110610d7857610d776115e5565b5b602002015160ff1660098110610d9157610d906115e5565b5b602091828204019190069054906101000a900460ff166002811115610db957610db86115b6565b5b148015610e715750600281600260038110610dd757610dd66115e5565b5b602002015160ff1660098110610df057610def6115e5565b5b602091828204019190069054906101000a900460ff166002811115610e1857610e176115b6565b5b600282600160038110610e2e57610e2d6115e5565b5b602002015160ff1660098110610e4757610e466115e5565b5b602091828204019190069054906101000a900460ff166002811115610e6f57610e6e6115b6565b5b145b8015610ee6575060006002811115610e8c57610e8b6115b6565b5b600282600260038110610ea257610ea16115e5565b5b602002015160ff1660098110610ebb57610eba6115e5565b5b602091828204019190069054906101000a900460ff166002811115610ee357610ee26115b6565b5b14155b15610fe55760016002811115610eff57610efe6115b6565b5b600282600060038110610f1557610f146115e5565b5b602002015160ff1660098110610f2e57610f2d6115e5565b5b602091828204019190069054906101000a900460ff166002811115610f5657610f556115b6565b5b1415610f685760039350505050611017565b600280811115610f7b57610f7a6115b6565b5b600282600060038110610f9157610f906115e5565b5b602002015160ff1660098110610faa57610fa96115e5565b5b602091828204019190069054906101000a900460ff166002811115610fd257610fd16115b6565b5b1415610fe45760049350505050611017565b5b508080610ff19061155d565b915050610ce0565b5061100261101a565b15611011576002915050611017565b60019150505b90565b600080600090505b600981101561109e576000600281111561103f5761103e6115b6565b5b60028260098110611053576110526115e5565b5b602091828204019190069054906101000a900460ff16600281111561107b5761107a6115b6565b5b141561108b5760009150506110a4565b808061109690611514565b915050611022565b50600190505b90565b604051806101200160405280600990602082028036833780820191505090505090565b5060009055565b6000813590506110e081611789565b92915050565b6000602082840312156110fc576110fb611614565b5b600061110a848285016110d1565b91505092915050565b600061111f83836111a0565b60208301905092915050565b61113481611481565b82525050565b6111438161144d565b61114d8184611465565b925061115882611443565b8060005b838110156111895781516111708782611113565b965061117b83611458565b92505060018101905061115c565b505050505050565b61119a816114f0565b82525050565b6111a981611502565b82525050565b6111b881611502565b82525050565b60006111cb601583611470565b91506111d682611619565b602082019050919050565b60006111ee601583611470565b91506111f982611642565b602082019050919050565b6000611211601c83611470565b915061121c8261166b565b602082019050919050565b6000611234601283611470565b915061123f82611694565b602082019050919050565b6000611257600c83611470565b9150611262826116bd565b602082019050919050565b600061127a601a83611470565b9150611285826116e6565b602082019050919050565b600061129d601b83611470565b91506112a88261170f565b602082019050919050565b60006112c0601e83611470565b91506112cb82611738565b602082019050919050565b60006020820190506112eb600083018461112b565b92915050565b600061012082019050611307600083018461113a565b92915050565b60006020820190506113226000830184611191565b92915050565b600060208201905061133d60008301846111af565b92915050565b6000602082019050818103600083015261135c816111be565b9050919050565b6000602082019050818103600083015261137c816111e1565b9050919050565b6000602082019050818103600083015261139c81611204565b9050919050565b600060208201905081810360008301526113bc81611227565b9050919050565b600060208201905081810360008301526113dc8161124a565b9050919050565b600060208201905081810360008301526113fc8161126d565b9050919050565b6000602082019050818103600083015261141c81611290565b9050919050565b6000602082019050818103600083015261143c816112b3565b9050919050565b6000819050919050565b600060099050919050565b6000602082019050919050565b600081905092915050565b600082825260208201905092915050565b600061148c826114b9565b9050919050565b60008190506114a182611761565b919050565b60008190506114b482611775565b919050565b600073ffffffffffffffffffffffffffffffffffffffff82169050919050565b6000819050919050565b600060ff82169050919050565b60006114fb82611493565b9050919050565b600061150d826114a6565b9050919050565b600061151f826114d9565b91507fffffffffffffffffffffffffffffffffffffffffffffffffffffffffffffffff82141561155257611551611587565b5b600182019050919050565b6000611568826114e3565b915060ff82141561157c5761157b611587565b5b600182019050919050565b7f4e487b7100000000000000000000000000000000000000000000000000000000600052601160045260246000fd5b7f4e487b7100000000000000000000000000000000000000000000000000000000600052602160045260246000fd5b7f4e487b7100000000000000000000000000000000000000000000000000000000600052603260045260246000fd5b600080fd5b7f4769766520612076616c6964206c6f636174696f6e0000000000000000000000600082015250565b7f47616d65206973207374696c6c2072756e6e696e670000000000000000000000600082015250565b7f47616d652069732066756c6c2c207761697420796f7572207475726e00000000600082015250565b7f49742773206e6f7420796f7572207475726e0000000000000000000000000000600082015250565b7f47616d65206973206f7665720000000000000000000000000000000000000000600082015250565b7f466972737420706c61796572206861736e2774206a6f696e6564000000000000600082015250565b7f5365636f6e6420706c61796572206861736e2774206a6f696e65640000000000600082015250565b7f536f6d656f6e6520616c7265616479206d6164652074686973206d6f76650000600082015250565b60058110611772576117716115b6565b5b50565b60038110611786576117856115b6565b5b50565b611792816114e3565b811461179d57600080fd5b5056fea2646970667358221220d49a6be98d3cb40b723612ec5f1c07757d220209e7411f7c1dc9cefcce7d446764736f6c63430008070033",
					"opcodes": "PUSH1 0x80 PUSH1 0x40 MSTORE CALLVALUE DUP1 ISZERO PUSH2 0x10 JUMPI PUSH1 0x0 DUP1 REVERT JUMPDEST POP PUSH1 0x0 PUSH1 0x1 PUSH1 0x14 PUSH2 0x100 EXP DUP2 SLOAD DUP2 PUSH1 0xFF MUL NOT AND SWAP1 DUP4 PUSH1 0x4 DUP2 GT ISZERO PUSH2 0x37 JUMPI PUSH2 0x36 PUSH2 0x6B JUMP JUMPDEST JUMPDEST MUL OR SWAP1 SSTORE POP PUSH1 0x1 DUP1 PUSH1 0x15 PUSH2 0x100 EXP DUP2 SLOAD DUP2 PUSH1 0xFF MUL NOT AND SWAP1 DUP4 PUSH1 0x2 DUP2 GT ISZERO PUSH2 0x61 JUMPI PUSH2 0x60 PUSH2 0x6B JUMP JUMPDEST JUMPDEST MUL OR SWAP1 SSTORE POP PUSH2 0x9A JUMP JUMPDEST PUSH32 0x4E487B7100000000000000000000000000000000000000000000000000000000 PUSH1 0x0 MSTORE PUSH1 0x21 PUSH1 0x4 MSTORE PUSH1 0x24 PUSH1 0x0 REVERT JUMPDEST PUSH2 0x17D6 DUP1 PUSH2 0xA9 PUSH1 0x0 CODECOPY PUSH1 0x0 RETURN INVALID PUSH1 0x80 PUSH1 0x40 MSTORE CALLVALUE DUP1 ISZERO PUSH2 0x10 JUMPI PUSH1 0x0 DUP1 REVERT JUMPDEST POP PUSH1 0x4 CALLDATASIZE LT PUSH2 0x88 JUMPI PUSH1 0x0 CALLDATALOAD PUSH1 0xE0 SHR DUP1 PUSH4 0x82DF5242 GT PUSH2 0x5B JUMPI DUP1 PUSH4 0x82DF5242 EQ PUSH2 0x103 JUMPI DUP1 PUSH4 0xBB472219 EQ PUSH2 0x121 JUMPI DUP1 PUSH4 0xD30895E4 EQ PUSH2 0x12B JUMPI DUP1 PUSH4 0xD4F77B1C EQ PUSH2 0x149 JUMPI PUSH2 0x88 JUMP JUMPDEST DUP1 PUSH4 0x200D2ED2 EQ PUSH2 0x8D JUMPI DUP1 PUSH4 0x3264A34B EQ PUSH2 0xAB JUMPI DUP1 PUSH4 0x3CD56F48 EQ PUSH2 0xC9 JUMPI DUP1 PUSH4 0x59A5F12D EQ PUSH2 0xE5 JUMPI JUMPDEST PUSH1 0x0 DUP1 REVERT JUMPDEST PUSH2 0x95 PUSH2 0x153 JUMP JUMPDEST PUSH1 0x40 MLOAD PUSH2 0xA2 SWAP2 SWAP1 PUSH2 0x130D JUMP JUMPDEST PUSH1 0x40 MLOAD DUP1 SWAP2 SUB SWAP1 RETURN JUMPDEST PUSH2 0xB3 PUSH2 0x166 JUMP JUMPDEST PUSH1 0x40 MLOAD PUSH2 0xC0 SWAP2 SWAP1 PUSH2 0x12F1 JUMP JUMPDEST PUSH1 0x40 MLOAD DUP1 SWAP2 SUB SWAP1 RETURN JUMPDEST PUSH2 0xE3 PUSH1 0x4 DUP1 CALLDATASIZE SUB DUP2 ADD SWAP1 PUSH2 0xDE SWAP2 SWAP1 PUSH2 0x10E6 JUMP JUMPDEST PUSH2 0x1E6 JUMP JUMPDEST STOP JUMPDEST PUSH2 0xED PUSH2 0x6C1 JUMP JUMPDEST PUSH1 0x40 MLOAD PUSH2 0xFA SWAP2 SWAP1 PUSH2 0x12D6 JUMP JUMPDEST PUSH1 0x40 MLOAD DUP1 SWAP2 SUB SWAP1 RETURN JUMPDEST PUSH2 0x10B PUSH2 0x6E7 JUMP JUMPDEST PUSH1 0x40 MLOAD PUSH2 0x118 SWAP2 SWAP1 PUSH2 0x1328 JUMP JUMPDEST PUSH1 0x40 MLOAD DUP1 SWAP2 SUB SWAP1 RETURN JUMPDEST PUSH2 0x129 PUSH2 0x6FA JUMP JUMPDEST STOP JUMPDEST PUSH2 0x133 PUSH2 0x885 JUMP JUMPDEST PUSH1 0x40 MLOAD PUSH2 0x140 SWAP2 SWAP1 PUSH2 0x12D6 JUMP JUMPDEST PUSH1 0x40 MLOAD DUP1 SWAP2 SUB SWAP1 RETURN JUMPDEST PUSH2 0x151 PUSH2 0x8A9 JUMP JUMPDEST STOP JUMPDEST PUSH1 0x1 PUSH1 0x14 SWAP1 SLOAD SWAP1 PUSH2 0x100 EXP SWAP1 DIV PUSH1 0xFF AND DUP2 JUMP JUMPDEST PUSH2 0x16E PUSH2 0x10A7 JUMP JUMPDEST PUSH1 0x2 PUSH1 0x9 DUP1 PUSH1 0x20 MUL PUSH1 0x40 MLOAD SWAP1 DUP2 ADD PUSH1 0x40 MSTORE DUP1 SWAP3 SWAP2 SWAP1 DUP3 PUSH1 0x9 DUP1 ISZERO PUSH2 0x1DC JUMPI PUSH1 0x20 MUL DUP3 ADD SWAP2 PUSH1 0x0 SWAP1 JUMPDEST DUP3 DUP3 SWAP1 SLOAD SWAP1 PUSH2 0x100 EXP SWAP1 DIV PUSH1 0xFF AND PUSH1 0x2 DUP2 GT ISZERO PUSH2 0x1B6 JUMPI PUSH2 0x1B5 PUSH2 0x15B6 JUMP JUMPDEST JUMPDEST DUP2 MSTORE PUSH1 0x20 ADD SWAP1 PUSH1 0x1 ADD SWAP1 PUSH1 0x20 DUP3 PUSH1 0x0 ADD DIV SWAP3 DUP4 ADD SWAP3 PUSH1 0x1 SUB DUP3 MUL SWAP2 POP DUP1 DUP5 GT PUSH2 0x196 JUMPI SWAP1 POP JUMPDEST POP POP POP POP POP SWAP1 POP SWAP1 JUMP JUMPDEST PUSH1 0x0 PUSH20 0xFFFFFFFFFFFFFFFFFFFFFFFFFFFFFFFFFFFFFFFF AND PUSH1 0x0 DUP1 SLOAD SWAP1 PUSH2 0x100 EXP SWAP1 DIV PUSH20 0xFFFFFFFFFFFFFFFFFFFFFFFFFFFFFFFFFFFFFFFF AND PUSH20 0xFFFFFFFFFFFFFFFFFFFFFFFFFFFFFFFFFFFFFFFF AND EQ ISZERO PUSH2 0x276 JUMPI PUSH1 0x40 MLOAD PUSH32 0x8C379A000000000000000000000000000000000000000000000000000000000 DUP2 MSTORE PUSH1 0x4 ADD PUSH2 0x26D SWAP1 PUSH2 0x13E3 JUMP JUMPDEST PUSH1 0x40 MLOAD DUP1 SWAP2 SUB SWAP1 REVERT JUMPDEST PUSH1 0x0 PUSH20 0xFFFFFFFFFFFFFFFFFFFFFFFFFFFFFFFFFFFFFFFF AND PUSH1 0x1 PUSH1 0x0 SWAP1 SLOAD SWAP1 PUSH2 0x100 EXP SWAP1 DIV PUSH20 0xFFFFFFFFFFFFFFFFFFFFFFFFFFFFFFFFFFFFFFFF AND PUSH20 0xFFFFFFFFFFFFFFFFFFFFFFFFFFFFFFFFFFFFFFFF AND EQ ISZERO PUSH2 0x308 JUMPI PUSH1 0x40 MLOAD PUSH32 0x8C379A000000000000000000000000000000000000000000000000000000000 DUP2 MSTORE PUSH1 0x4 ADD PUSH2 0x2FF SWAP1 PUSH2 0x1403 JUMP JUMPDEST PUSH1 0x40 MLOAD DUP1 SWAP2 SUB SWAP1 REVERT JUMPDEST PUSH1 0x1 PUSH1 0x4 DUP2 GT ISZERO PUSH2 0x31C JUMPI PUSH2 0x31B PUSH2 0x15B6 JUMP JUMPDEST JUMPDEST PUSH1 0x1 PUSH1 0x14 SWAP1 SLOAD SWAP1 PUSH2 0x100 EXP SWAP1 DIV PUSH1 0xFF AND PUSH1 0x4 DUP2 GT ISZERO PUSH2 0x33E JUMPI PUSH2 0x33D PUSH2 0x15B6 JUMP JUMPDEST JUMPDEST EQ PUSH2 0x37E JUMPI PUSH1 0x40 MLOAD PUSH32 0x8C379A000000000000000000000000000000000000000000000000000000000 DUP2 MSTORE PUSH1 0x4 ADD PUSH2 0x375 SWAP1 PUSH2 0x13C3 JUMP JUMPDEST PUSH1 0x40 MLOAD DUP1 SWAP2 SUB SWAP1 REVERT JUMPDEST PUSH1 0x9 DUP2 PUSH1 0xFF AND LT PUSH2 0x3C4 JUMPI PUSH1 0x40 MLOAD PUSH32 0x8C379A000000000000000000000000000000000000000000000000000000000 DUP2 MSTORE PUSH1 0x4 ADD PUSH2 0x3BB SWAP1 PUSH2 0x1343 JUMP JUMPDEST PUSH1 0x40 MLOAD DUP1 SWAP2 SUB SWAP1 REVERT JUMPDEST PUSH2 0x3CC PUSH2 0xA9B JUMP JUMPDEST PUSH20 0xFFFFFFFFFFFFFFFFFFFFFFFFFFFFFFFFFFFFFFFF AND CALLER PUSH20 0xFFFFFFFFFFFFFFFFFFFFFFFFFFFFFFFFFFFFFFFF AND EQ PUSH2 0x439 JUMPI PUSH1 0x40 MLOAD PUSH32 0x8C379A000000000000000000000000000000000000000000000000000000000 DUP2 MSTORE PUSH1 0x4 ADD PUSH2 0x430 SWAP1 PUSH2 0x13A3 JUMP JUMPDEST PUSH1 0x40 MLOAD DUP1 SWAP2 SUB SWAP1 REVERT JUMPDEST PUSH1 0x0 PUSH1 0x2 DUP2 GT ISZERO PUSH2 0x44D JUMPI PUSH2 0x44C PUSH2 0x15B6 JUMP JUMPDEST JUMPDEST PUSH1 0x2 DUP3 PUSH1 0xFF AND PUSH1 0x9 DUP2 LT PUSH2 0x464 JUMPI PUSH2 0x463 PUSH2 0x15E5 JUMP JUMPDEST JUMPDEST PUSH1 0x20 SWAP2 DUP3 DUP3 DIV ADD SWAP2 SWAP1 MOD SWAP1 SLOAD SWAP1 PUSH2 0x100 EXP SWAP1 DIV PUSH1 0xFF AND PUSH1 0x2 DUP2 GT ISZERO PUSH2 0x48C JUMPI PUSH2 0x48B PUSH2 0x15B6 JUMP JUMPDEST JUMPDEST EQ PUSH2 0x4CC JUMPI PUSH1 0x40 MLOAD PUSH32 0x8C379A000000000000000000000000000000000000000000000000000000000 DUP2 MSTORE PUSH1 0x4 ADD PUSH2 0x4C3 SWAP1 PUSH2 0x1423 JUMP JUMPDEST PUSH1 0x40 MLOAD DUP1 SWAP2 SUB SWAP1 REVERT JUMPDEST PUSH1 0x1 PUSH1 0x15 SWAP1 SLOAD SWAP1 PUSH2 0x100 EXP SWAP1 DIV PUSH1 0xFF AND PUSH1 0x2 DUP3 PUSH1 0xFF AND PUSH1 0x9 DUP2 LT PUSH2 0x4F3 JUMPI PUSH2 0x4F2 PUSH2 0x15E5 JUMP JUMPDEST JUMPDEST PUSH1 0x20 SWAP2 DUP3 DUP3 DIV ADD SWAP2 SWAP1 MOD PUSH2 0x100 EXP DUP2 SLOAD DUP2 PUSH1 0xFF MUL NOT AND SWAP1 DUP4 PUSH1 0x2 DUP2 GT ISZERO PUSH2 0x51D JUMPI PUSH2 0x51C PUSH2 0x15B6 JUMP JUMPDEST JUMPDEST MUL OR SWAP1 SSTORE POP PUSH2 0x52A PUSH2 0xB6E JUMP JUMPDEST PUSH1 0x1 PUSH1 0x14 PUSH2 0x100 EXP DUP2 SLOAD DUP2 PUSH1 0xFF MUL NOT AND SWAP1 DUP4 PUSH1 0x4 DUP2 GT ISZERO PUSH2 0x54E JUMPI PUSH2 0x54D PUSH2 0x15B6 JUMP JUMPDEST JUMPDEST MUL OR SWAP1 SSTORE POP PUSH1 0x1 PUSH1 0x4 DUP2 GT ISZERO PUSH2 0x567 JUMPI PUSH2 0x566 PUSH2 0x15B6 JUMP JUMPDEST JUMPDEST PUSH1 0x1 PUSH1 0x14 SWAP1 SLOAD SWAP1 PUSH2 0x100 EXP SWAP1 DIV PUSH1 0xFF AND PUSH1 0x4 DUP2 GT ISZERO PUSH2 0x589 JUMPI PUSH2 0x588 PUSH2 0x15B6 JUMP JUMPDEST JUMPDEST EQ PUSH2 0x5BE JUMPI PUSH1 0x0 PUSH1 0x1 PUSH1 0x15 PUSH2 0x100 EXP DUP2 SLOAD DUP2 PUSH1 0xFF MUL NOT AND SWAP1 DUP4 PUSH1 0x2 DUP2 GT ISZERO PUSH2 0x5B4 JUMPI PUSH2 0x5B3 PUSH2 0x15B6 JUMP JUMPDEST JUMPDEST MUL OR SWAP1 SSTORE POP PUSH2 0x692 JUMP JUMPDEST PUSH1 0x1 PUSH1 0x2 DUP2 GT ISZERO PUSH2 0x5D2 JUMPI PUSH2 0x5D1 PUSH2 0x15B6 JUMP JUMPDEST JUMPDEST PUSH1 0x1 PUSH1 0x15 SWAP1 SLOAD SWAP1 PUSH2 0x100 EXP SWAP1 DIV PUSH1 0xFF AND PUSH1 0x2 DUP2 GT ISZERO PUSH2 0x5F4 JUMPI PUSH2 0x5F3 PUSH2 0x15B6 JUMP JUMPDEST JUMPDEST EQ ISZERO PUSH2 0x62A JUMPI PUSH1 0x2 PUSH1 0x1 PUSH1 0x15 PUSH2 0x100 EXP DUP2 SLOAD DUP2 PUSH1 0xFF MUL NOT AND SWAP1 DUP4 PUSH1 0x2 DUP2 GT ISZERO PUSH2 0x620 JUMPI PUSH2 0x61F PUSH2 0x15B6 JUMP JUMPDEST JUMPDEST MUL OR SWAP1 SSTORE POP PUSH2 0x691 JUMP JUMPDEST PUSH1 0x2 DUP1 DUP2 GT ISZERO PUSH2 0x63D JUMPI PUSH2 0x63C PUSH2 0x15B6 JUMP JUMPDEST JUMPDEST PUSH1 0x1 PUSH1 0x15 SWAP1 SLOAD SWAP1 PUSH2 0x100 EXP SWAP1 DIV PUSH1 0xFF AND PUSH1 0x2 DUP2 GT ISZERO PUSH2 0x65F JUMPI PUSH2 0x65E PUSH2 0x15B6 JUMP JUMPDEST JUMPDEST EQ ISZERO PUSH2 0x690 JUMPI PUSH1 0x1 DUP1 PUSH1 0x15 PUSH2 0x100 EXP DUP2 SLOAD DUP2 PUSH1 0xFF MUL NOT AND SWAP1 DUP4 PUSH1 0x2 DUP2 GT ISZERO PUSH2 0x68A JUMPI PUSH2 0x689 PUSH2 0x15B6 JUMP JUMPDEST JUMPDEST MUL OR SWAP1 SSTORE POP JUMPDEST JUMPDEST JUMPDEST PUSH32 0x3F1A24E0CAA950D20BD4D30DD73C8ADD047F2458B656894E3E3D3B6EEFBE765D PUSH1 0x40 MLOAD PUSH1 0x40 MLOAD DUP1 SWAP2 SUB SWAP1 LOG1 POP JUMP JUMPDEST PUSH1 0x1 PUSH1 0x0 SWAP1 SLOAD SWAP1 PUSH2 0x100 EXP SWAP1 DIV PUSH20 0xFFFFFFFFFFFFFFFFFFFFFFFFFFFFFFFFFFFFFFFF AND DUP2 JUMP JUMPDEST PUSH1 0x1 PUSH1 0x15 SWAP1 SLOAD SWAP1 PUSH2 0x100 EXP SWAP1 DIV PUSH1 0xFF AND DUP2 JUMP JUMPDEST PUSH1 0x1 PUSH1 0x4 DUP2 GT ISZERO PUSH2 0x70E JUMPI PUSH2 0x70D PUSH2 0x15B6 JUMP JUMPDEST JUMPDEST PUSH1 0x1 PUSH1 0x14 SWAP1 SLOAD SWAP1 PUSH2 0x100 EXP SWAP1 DIV PUSH1 0xFF AND PUSH1 0x4 DUP2 GT ISZERO PUSH2 0x730 JUMPI PUSH2 0x72F PUSH2 0x15B6 JUMP JUMPDEST JUMPDEST EQ ISZERO PUSH2 0x771 JUMPI PUSH1 0x40 MLOAD PUSH32 0x8C379A000000000000000000000000000000000000000000000000000000000 DUP2 MSTORE PUSH1 0x4 ADD PUSH2 0x768 SWAP1 PUSH2 0x1363 JUMP JUMPDEST PUSH1 0x40 MLOAD DUP1 SWAP2 SUB SWAP1 REVERT JUMPDEST PUSH1 0x0 PUSH1 0x1 PUSH1 0x14 PUSH2 0x100 EXP DUP2 SLOAD DUP2 PUSH1 0xFF MUL NOT AND SWAP1 DUP4 PUSH1 0x4 DUP2 GT ISZERO PUSH2 0x797 JUMPI PUSH2 0x796 PUSH2 0x15B6 JUMP JUMPDEST JUMPDEST MUL OR SWAP1 SSTORE POP PUSH1 0x1 DUP1 PUSH1 0x15 PUSH2 0x100 EXP DUP2 SLOAD DUP2 PUSH1 0xFF MUL NOT AND SWAP1 DUP4 PUSH1 0x2 DUP2 GT ISZERO PUSH2 0x7C1 JUMPI PUSH2 0x7C0 PUSH2 0x15B6 JUMP JUMPDEST JUMPDEST MUL OR SWAP1 SSTORE POP PUSH1 0x0 DUP1 PUSH1 0x0 PUSH2 0x100 EXP DUP2 SLOAD DUP2 PUSH20 0xFFFFFFFFFFFFFFFFFFFFFFFFFFFFFFFFFFFFFFFF MUL NOT AND SWAP1 DUP4 PUSH20 0xFFFFFFFFFFFFFFFFFFFFFFFFFFFFFFFFFFFFFFFF AND MUL OR SWAP1 SSTORE POP PUSH1 0x0 PUSH1 0x1 PUSH1 0x0 PUSH2 0x100 EXP DUP2 SLOAD DUP2 PUSH20 0xFFFFFFFFFFFFFFFFFFFFFFFFFFFFFFFFFFFFFFFF MUL NOT AND SWAP1 DUP4 PUSH20 0xFFFFFFFFFFFFFFFFFFFFFFFFFFFFFFFFFFFFFFFF AND MUL OR SWAP1 SSTORE POP PUSH1 0x2 PUSH1 0x0 PUSH2 0x857 SWAP2 SWAP1 PUSH2 0x10CA JUMP JUMPDEST PUSH32 0xC6976B6410888B44C765590C8368EB4A60E0431D4AD683C8A53EA85A8479F22E PUSH1 0x40 MLOAD PUSH1 0x40 MLOAD DUP1 SWAP2 SUB SWAP1 LOG1 JUMP JUMPDEST PUSH1 0x0 DUP1 SLOAD SWAP1 PUSH2 0x100 EXP SWAP1 DIV PUSH20 0xFFFFFFFFFFFFFFFFFFFFFFFFFFFFFFFFFFFFFFFF AND DUP2 JUMP JUMPDEST PUSH1 0x0 PUSH20 0xFFFFFFFFFFFFFFFFFFFFFFFFFFFFFFFFFFFFFFFF AND PUSH1 0x0 DUP1 SLOAD SWAP1 PUSH2 0x100 EXP SWAP1 DIV PUSH20 0xFFFFFFFFFFFFFFFFFFFFFFFFFFFFFFFFFFFFFFFF AND PUSH20 0xFFFFFFFFFFFFFFFFFFFFFFFFFFFFFFFFFFFFFFFF AND EQ DUP1 PUSH2 0x952 JUMPI POP PUSH1 0x0 PUSH20 0xFFFFFFFFFFFFFFFFFFFFFFFFFFFFFFFFFFFFFFFF AND PUSH1 0x1 PUSH1 0x0 SWAP1 SLOAD SWAP1 PUSH2 0x100 EXP SWAP1 DIV PUSH20 0xFFFFFFFFFFFFFFFFFFFFFFFFFFFFFFFFFFFFFFFF AND PUSH20 0xFFFFFFFFFFFFFFFFFFFFFFFFFFFFFFFFFFFFFFFF AND EQ JUMPDEST PUSH2 0x991 JUMPI PUSH1 0x40 MLOAD PUSH32 0x8C379A000000000000000000000000000000000000000000000000000000000 DUP2 MSTORE PUSH1 0x4 ADD PUSH2 0x988 SWAP1 PUSH2 0x1383 JUMP JUMPDEST PUSH1 0x40 MLOAD DUP1 SWAP2 SUB SWAP1 REVERT JUMPDEST PUSH1 0x0 PUSH20 0xFFFFFFFFFFFFFFFFFFFFFFFFFFFFFFFFFFFFFFFF AND PUSH1 0x0 DUP1 SLOAD SWAP1 PUSH2 0x100 EXP SWAP1 DIV PUSH20 0xFFFFFFFFFFFFFFFFFFFFFFFFFFFFFFFFFFFFFFFF AND PUSH20 0xFFFFFFFFFFFFFFFFFFFFFFFFFFFFFFFFFFFFFFFF AND EQ ISZERO PUSH2 0xA2B JUMPI CALLER PUSH1 0x0 DUP1 PUSH2 0x100 EXP DUP2 SLOAD DUP2 PUSH20 0xFFFFFFFFFFFFFFFFFFFFFFFFFFFFFFFFFFFFFFFF MUL NOT AND SWAP1 DUP4 PUSH20 0xFFFFFFFFFFFFFFFFFFFFFFFFFFFFFFFFFFFFFFFF AND MUL OR SWAP1 SSTORE POP PUSH2 0xA6D JUMP JUMPDEST CALLER PUSH1 0x1 PUSH1 0x0 PUSH2 0x100 EXP DUP2 SLOAD DUP2 PUSH20 0xFFFFFFFFFFFFFFFFFFFFFFFFFFFFFFFFFFFFFFFF MUL NOT AND SWAP1 DUP4 PUSH20 0xFFFFFFFFFFFFFFFFFFFFFFFFFFFFFFFFFFFFFFFF AND MUL OR SWAP1 SSTORE POP JUMPDEST PUSH32 0x1E417D75CA5DE02E75869830ADACD190151380D15D51A1A47BF622DCAB4CA446 PUSH1 0x40 MLOAD PUSH1 0x40 MLOAD DUP1 SWAP2 SUB SWAP1 LOG1 JUMP JUMPDEST PUSH1 0x0 PUSH1 0x1 PUSH1 0x2 DUP2 GT ISZERO PUSH2 0xAB1 JUMPI PUSH2 0xAB0 PUSH2 0x15B6 JUMP JUMPDEST JUMPDEST PUSH1 0x1 PUSH1 0x15 SWAP1 SLOAD SWAP1 PUSH2 0x100 EXP SWAP1 DIV PUSH1 0xFF AND PUSH1 0x2 DUP2 GT ISZERO PUSH2 0xAD3 JUMPI PUSH2 0xAD2 PUSH2 0x15B6 JUMP JUMPDEST JUMPDEST EQ ISZERO PUSH2 0xB01 JUMPI PUSH1 0x0 DUP1 SLOAD SWAP1 PUSH2 0x100 EXP SWAP1 DIV PUSH20 0xFFFFFFFFFFFFFFFFFFFFFFFFFFFFFFFFFFFFFFFF AND SWAP1 POP PUSH2 0xB6B JUMP JUMPDEST PUSH1 0x2 DUP1 DUP2 GT ISZERO PUSH2 0xB14 JUMPI PUSH2 0xB13 PUSH2 0x15B6 JUMP JUMPDEST JUMPDEST PUSH1 0x1 PUSH1 0x15 SWAP1 SLOAD SWAP1 PUSH2 0x100 EXP SWAP1 DIV PUSH1 0xFF AND PUSH1 0x2 DUP2 GT ISZERO PUSH2 0xB36 JUMPI PUSH2 0xB35 PUSH2 0x15B6 JUMP JUMPDEST JUMPDEST EQ ISZERO PUSH2 0xB66 JUMPI PUSH1 0x1 PUSH1 0x0 SWAP1 SLOAD SWAP1 PUSH2 0x100 EXP SWAP1 DIV PUSH20 0xFFFFFFFFFFFFFFFFFFFFFFFFFFFFFFFFFFFFFFFF AND SWAP1 POP PUSH2 0xB6B JUMP JUMPDEST PUSH1 0x0 SWAP1 POP JUMPDEST SWAP1 JUMP JUMPDEST PUSH1 0x0 DUP1 PUSH1 0x40 MLOAD DUP1 PUSH2 0x100 ADD PUSH1 0x40 MSTORE DUP1 PUSH1 0x40 MLOAD DUP1 PUSH1 0x60 ADD PUSH1 0x40 MSTORE DUP1 PUSH1 0x0 PUSH1 0xFF AND DUP2 MSTORE PUSH1 0x20 ADD PUSH1 0x1 PUSH1 0xFF AND DUP2 MSTORE PUSH1 0x20 ADD PUSH1 0x2 PUSH1 0xFF AND DUP2 MSTORE POP DUP2 MSTORE PUSH1 0x20 ADD PUSH1 0x40 MLOAD DUP1 PUSH1 0x60 ADD PUSH1 0x40 MSTORE DUP1 PUSH1 0x3 PUSH1 0xFF AND DUP2 MSTORE PUSH1 0x20 ADD PUSH1 0x4 PUSH1 0xFF AND DUP2 MSTORE PUSH1 0x20 ADD PUSH1 0x5 PUSH1 0xFF AND DUP2 MSTORE POP DUP2 MSTORE PUSH1 0x20 ADD PUSH1 0x40 MLOAD DUP1 PUSH1 0x60 ADD PUSH1 0x40 MSTORE DUP1 PUSH1 0x6 PUSH1 0xFF AND DUP2 MSTORE PUSH1 0x20 ADD PUSH1 0x7 PUSH1 0xFF AND DUP2 MSTORE PUSH1 0x20 ADD PUSH1 0x8 PUSH1 0xFF AND DUP2 MSTORE POP DUP2 MSTORE PUSH1 0x20 ADD PUSH1 0x40 MLOAD DUP1 PUSH1 0x60 ADD PUSH1 0x40 MSTORE DUP1 PUSH1 0x0 PUSH1 0xFF AND DUP2 MSTORE PUSH1 0x20 ADD PUSH1 0x3 PUSH1 0xFF AND DUP2 MSTORE PUSH1 0x20 ADD PUSH1 0x6 PUSH1 0xFF AND DUP2 MSTORE POP DUP2 MSTORE PUSH1 0x20 ADD PUSH1 0x40 MLOAD DUP1 PUSH1 0x60 ADD PUSH1 0x40 MSTORE DUP1 PUSH1 0x1 PUSH1 0xFF AND DUP2 MSTORE PUSH1 0x20 ADD PUSH1 0x4 PUSH1 0xFF AND DUP2 MSTORE PUSH1 0x20 ADD PUSH1 0x7 PUSH1 0xFF AND DUP2 MSTORE POP DUP2 MSTORE PUSH1 0x20 ADD PUSH1 0x40 MLOAD DUP1 PUSH1 0x60 ADD PUSH1 0x40 MSTORE DUP1 PUSH1 0x2 PUSH1 0xFF AND DUP2 MSTORE PUSH1 0x20 ADD PUSH1 0x5 PUSH1 0xFF AND DUP2 MSTORE PUSH1 0x20 ADD PUSH1 0x8 PUSH1 0xFF AND DUP2 MSTORE POP DUP2 MSTORE PUSH1 0x20 ADD PUSH1 0x40 MLOAD DUP1 PUSH1 0x60 ADD PUSH1 0x40 MSTORE DUP1 PUSH1 0x0 PUSH1 0xFF AND DUP2 MSTORE PUSH1 0x20 ADD PUSH1 0x4 PUSH1 0xFF AND DUP2 MSTORE PUSH1 0x20 ADD PUSH1 0x8 PUSH1 0xFF AND DUP2 MSTORE POP DUP2 MSTORE PUSH1 0x20 ADD PUSH1 0x40 MLOAD DUP1 PUSH1 0x60 ADD PUSH1 0x40 MSTORE DUP1 PUSH1 0x6 PUSH1 0xFF AND DUP2 MSTORE PUSH1 0x20 ADD PUSH1 0x4 PUSH1 0xFF AND DUP2 MSTORE PUSH1 0x20 ADD PUSH1 0x2 PUSH1 0xFF AND DUP2 MSTORE POP DUP2 MSTORE POP SWAP1 POP PUSH1 0x0 JUMPDEST PUSH1 0x8 DUP2 PUSH1 0xFF AND LT ISZERO PUSH2 0xFF9 JUMPI PUSH1 0x0 DUP3 DUP3 PUSH1 0xFF AND PUSH1 0x8 DUP2 LT PUSH2 0xD04 JUMPI PUSH2 0xD03 PUSH2 0x15E5 JUMP JUMPDEST JUMPDEST PUSH1 0x20 MUL ADD MLOAD SWAP1 POP PUSH1 0x2 DUP2 PUSH1 0x1 PUSH1 0x3 DUP2 LT PUSH2 0xD21 JUMPI PUSH2 0xD20 PUSH2 0x15E5 JUMP JUMPDEST JUMPDEST PUSH1 0x20 MUL ADD MLOAD PUSH1 0xFF AND PUSH1 0x9 DUP2 LT PUSH2 0xD3A JUMPI PUSH2 0xD39 PUSH2 0x15E5 JUMP JUMPDEST JUMPDEST PUSH1 0x20 SWAP2 DUP3 DUP3 DIV ADD SWAP2 SWAP1 MOD SWAP1 SLOAD SWAP1 PUSH2 0x100 EXP SWAP1 DIV PUSH1 0xFF AND PUSH1 0x2 DUP2 GT ISZERO PUSH2 0xD62 JUMPI PUSH2 0xD61 PUSH2 0x15B6 JUMP JUMPDEST JUMPDEST PUSH1 0x2 DUP3 PUSH1 0x0 PUSH1 0x3 DUP2 LT PUSH2 0xD78 JUMPI PUSH2 0xD77 PUSH2 0x15E5 JUMP JUMPDEST JUMPDEST PUSH1 0x20 MUL ADD MLOAD PUSH1 0xFF AND PUSH1 0x9 DUP2 LT PUSH2 0xD91 JUMPI PUSH2 0xD90 PUSH2 0x15E5 JUMP JUMPDEST JUMPDEST PUSH1 0x20 SWAP2 DUP3 DUP3 DIV ADD SWAP2 SWAP1 MOD SWAP1 SLOAD SWAP1 PUSH2 0x100 EXP SWAP1 DIV PUSH1 0xFF AND PUSH1 0x2 DUP2 GT ISZERO PUSH2 0xDB9 JUMPI PUSH2 0xDB8 PUSH2 0x15B6 JUMP JUMPDEST JUMPDEST EQ DUP1 ISZERO PUSH2 0xE71 JUMPI POP PUSH1 0x2 DUP2 PUSH1 0x2 PUSH1 0x3 DUP2 LT PUSH2 0xDD7 JUMPI PUSH2 0xDD6 PUSH2 0x15E5 JUMP JUMPDEST JUMPDEST PUSH1 0x20 MUL ADD MLOAD PUSH1 0xFF AND PUSH1 0x9 DUP2 LT PUSH2 0xDF0 JUMPI PUSH2 0xDEF PUSH2 0x15E5 JUMP JUMPDEST JUMPDEST PUSH1 0x20 SWAP2 DUP3 DUP3 DIV ADD SWAP2 SWAP1 MOD SWAP1 SLOAD SWAP1 PUSH2 0x100 EXP SWAP1 DIV PUSH1 0xFF AND PUSH1 0x2 DUP2 GT ISZERO PUSH2 0xE18 JUMPI PUSH2 0xE17 PUSH2 0x15B6 JUMP JUMPDEST JUMPDEST PUSH1 0x2 DUP3 PUSH1 0x1 PUSH1 0x3 DUP2 LT PUSH2 0xE2E JUMPI PUSH2 0xE2D PUSH2 0x15E5 JUMP JUMPDEST JUMPDEST PUSH1 0x20 MUL ADD MLOAD PUSH1 0xFF AND PUSH1 0x9 DUP2 LT PUSH2 0xE47 JUMPI PUSH2 0xE46 PUSH2 0x15E5 JUMP JUMPDEST JUMPDEST PUSH1 0x20 SWAP2 DUP3 DUP3 DIV ADD SWAP2 SWAP1 MOD SWAP1 SLOAD SWAP1 PUSH2 0x100 EXP SWAP1 DIV PUSH1 0xFF AND PUSH1 0x2 DUP2 GT ISZERO PUSH2 0xE6F JUMPI PUSH2 0xE6E PUSH2 0x15B6 JUMP JUMPDEST JUMPDEST EQ JUMPDEST DUP1 ISZERO PUSH2 0xEE6 JUMPI POP PUSH1 0x0 PUSH1 0x2 DUP2 GT ISZERO PUSH2 0xE8C JUMPI PUSH2 0xE8B PUSH2 0x15B6 JUMP JUMPDEST JUMPDEST PUSH1 0x2 DUP3 PUSH1 0x2 PUSH1 0x3 DUP2 LT PUSH2 0xEA2 JUMPI PUSH2 0xEA1 PUSH2 0x15E5 JUMP JUMPDEST JUMPDEST PUSH1 0x20 MUL ADD MLOAD PUSH1 0xFF AND PUSH1 0x9 DUP2 LT PUSH2 0xEBB JUMPI PUSH2 0xEBA PUSH2 0x15E5 JUMP JUMPDEST JUMPDEST PUSH1 0x20 SWAP2 DUP3 DUP3 DIV ADD SWAP2 SWAP1 MOD SWAP1 SLOAD SWAP1 PUSH2 0x100 EXP SWAP1 DIV PUSH1 0xFF AND PUSH1 0x2 DUP2 GT ISZERO PUSH2 0xEE3 JUMPI PUSH2 0xEE2 PUSH2 0x15B6 JUMP JUMPDEST JUMPDEST EQ ISZERO JUMPDEST ISZERO PUSH2 0xFE5 JUMPI PUSH1 0x1 PUSH1 0x2 DUP2 GT ISZERO PUSH2 0xEFF JUMPI PUSH2 0xEFE PUSH2 0x15B6 JUMP JUMPDEST JUMPDEST PUSH1 0x2 DUP3 PUSH1 0x0 PUSH1 0x3 DUP2 LT PUSH2 0xF15 JUMPI PUSH2 0xF14 PUSH2 0x15E5 JUMP JUMPDEST JUMPDEST PUSH1 0x20 MUL ADD MLOAD PUSH1 0xFF AND PUSH1 0x9 DUP2 LT PUSH2 0xF2E JUMPI PUSH2 0xF2D PUSH2 0x15E5 JUMP JUMPDEST JUMPDEST PUSH1 0x20 SWAP2 DUP3 DUP3 DIV ADD SWAP2 SWAP1 MOD SWAP1 SLOAD SWAP1 PUSH2 0x100 EXP SWAP1 DIV PUSH1 0xFF AND PUSH1 0x2 DUP2 GT ISZERO PUSH2 0xF56 JUMPI PUSH2 0xF55 PUSH2 0x15B6 JUMP JUMPDEST JUMPDEST EQ ISZERO PUSH2 0xF68 JUMPI PUSH1 0x3 SWAP4 POP POP POP POP PUSH2 0x1017 JUMP JUMPDEST PUSH1 0x2 DUP1 DUP2 GT ISZERO PUSH2 0xF7B JUMPI PUSH2 0xF7A PUSH2 0x15B6 JUMP JUMPDEST JUMPDEST PUSH1 0x2 DUP3 PUSH1 0x0 PUSH1 0x3 DUP2 LT PUSH2 0xF91 JUMPI PUSH2 0xF90 PUSH2 0x15E5 JUMP JUMPDEST JUMPDEST PUSH1 0x20 MUL ADD MLOAD PUSH1 0xFF AND PUSH1 0x9 DUP2 LT PUSH2 0xFAA JUMPI PUSH2 0xFA9 PUSH2 0x15E5 JUMP JUMPDEST JUMPDEST PUSH1 0x20 SWAP2 DUP3 DUP3 DIV ADD SWAP2 SWAP1 MOD SWAP1 SLOAD SWAP1 PUSH2 0x100 EXP SWAP1 DIV PUSH1 0xFF AND PUSH1 0x2 DUP2 GT ISZERO PUSH2 0xFD2 JUMPI PUSH2 0xFD1 PUSH2 0x15B6 JUMP JUMPDEST JUMPDEST EQ ISZERO PUSH2 0xFE4 JUMPI PUSH1 0x4 SWAP4 POP POP POP POP PUSH2 0x1017 JUMP JUMPDEST JUMPDEST POP DUP1 DUP1 PUSH2 0xFF1 SWAP1 PUSH2 0x155D JUMP JUMPDEST SWAP2 POP POP PUSH2 0xCE0 JUMP JUMPDEST POP PUSH2 0x1002 PUSH2 0x101A JUMP JUMPDEST ISZERO PUSH2 0x1011 JUMPI PUSH1 0x2 SWAP2 POP POP PUSH2 0x1017 JUMP JUMPDEST PUSH1 0x1 SWAP2 POP POP JUMPDEST SWAP1 JUMP JUMPDEST PUSH1 0x0 DUP1 PUSH1 0x0 SWAP1 POP JUMPDEST PUSH1 0x9 DUP2 LT ISZERO PUSH2 0x109E JUMPI PUSH1 0x0 PUSH1 0x2 DUP2 GT ISZERO PUSH2 0x103F JUMPI PUSH2 0x103E PUSH2 0x15B6 JUMP JUMPDEST JUMPDEST PUSH1 0x2 DUP3 PUSH1 0x9 DUP2 LT PUSH2 0x1053 JUMPI PUSH2 0x1052 PUSH2 0x15E5 JUMP JUMPDEST JUMPDEST PUSH1 0x20 SWAP2 DUP3 DUP3 DIV ADD SWAP2 SWAP1 MOD SWAP1 SLOAD SWAP1 PUSH2 0x100 EXP SWAP1 DIV PUSH1 0xFF AND PUSH1 0x2 DUP2 GT ISZERO PUSH2 0x107B JUMPI PUSH2 0x107A PUSH2 0x15B6 JUMP JUMPDEST JUMPDEST EQ ISZERO PUSH2 0x108B JUMPI PUSH1 0x0 SWAP2 POP POP PUSH2 0x10A4 JUMP JUMPDEST DUP1 DUP1 PUSH2 0x1096 SWAP1 PUSH2 0x1514 JUMP JUMPDEST SWAP2 POP POP PUSH2 0x1022 JUMP JUMPDEST POP PUSH1 0x1 SWAP1 POP JUMPDEST SWAP1 JUMP JUMPDEST PUSH1 0x40 MLOAD DUP1 PUSH2 0x120 ADD PUSH1 0x40 MSTORE DUP1 PUSH1 0x9 SWAP1 PUSH1 0x20 DUP3 MUL DUP1 CALLDATASIZE DUP4 CALLDATACOPY DUP1 DUP3 ADD SWAP2 POP POP SWAP1 POP POP SWAP1 JUMP JUMPDEST POP PUSH1 0x0 SWAP1 SSTORE JUMP JUMPDEST PUSH1 0x0 DUP2 CALLDATALOAD SWAP1 POP PUSH2 0x10E0 DUP2 PUSH2 0x1789 JUMP JUMPDEST SWAP3 SWAP2 POP POP JUMP JUMPDEST PUSH1 0x0 PUSH1 0x20 DUP3 DUP5 SUB SLT ISZERO PUSH2 0x10FC JUMPI PUSH2 0x10FB PUSH2 0x1614 JUMP JUMPDEST JUMPDEST PUSH1 0x0 PUSH2 0x110A DUP5 DUP3 DUP6 ADD PUSH2 0x10D1 JUMP JUMPDEST SWAP2 POP POP SWAP3 SWAP2 POP POP JUMP JUMPDEST PUSH1 0x0 PUSH2 0x111F DUP4 DUP4 PUSH2 0x11A0 JUMP JUMPDEST PUSH1 0x20 DUP4 ADD SWAP1 POP SWAP3 SWAP2 POP POP JUMP JUMPDEST PUSH2 0x1134 DUP2 PUSH2 0x1481 JUMP JUMPDEST DUP3 MSTORE POP POP JUMP JUMPDEST PUSH2 0x1143 DUP2 PUSH2 0x144D JUMP JUMPDEST PUSH2 0x114D DUP2 DUP5 PUSH2 0x1465 JUMP JUMPDEST SWAP3 POP PUSH2 0x1158 DUP3 PUSH2 0x1443 JUMP JUMPDEST DUP1 PUSH1 0x0 JUMPDEST DUP4 DUP2 LT ISZERO PUSH2 0x1189 JUMPI DUP2 MLOAD PUSH2 0x1170 DUP8 DUP3 PUSH2 0x1113 JUMP JUMPDEST SWAP7 POP PUSH2 0x117B DUP4 PUSH2 0x1458 JUMP JUMPDEST SWAP3 POP POP PUSH1 0x1 DUP2 ADD SWAP1 POP PUSH2 0x115C JUMP JUMPDEST POP POP POP POP POP POP JUMP JUMPDEST PUSH2 0x119A DUP2 PUSH2 0x14F0 JUMP JUMPDEST DUP3 MSTORE POP POP JUMP JUMPDEST PUSH2 0x11A9 DUP2 PUSH2 0x1502 JUMP JUMPDEST DUP3 MSTORE POP POP JUMP JUMPDEST PUSH2 0x11B8 DUP2 PUSH2 0x1502 JUMP JUMPDEST DUP3 MSTORE POP POP JUMP JUMPDEST PUSH1 0x0 PUSH2 0x11CB PUSH1 0x15 DUP4 PUSH2 0x1470 JUMP JUMPDEST SWAP2 POP PUSH2 0x11D6 DUP3 PUSH2 0x1619 JUMP JUMPDEST PUSH1 0x20 DUP3 ADD SWAP1 POP SWAP2 SWAP1 POP JUMP JUMPDEST PUSH1 0x0 PUSH2 0x11EE PUSH1 0x15 DUP4 PUSH2 0x1470 JUMP JUMPDEST SWAP2 POP PUSH2 0x11F9 DUP3 PUSH2 0x1642 JUMP JUMPDEST PUSH1 0x20 DUP3 ADD SWAP1 POP SWAP2 SWAP1 POP JUMP JUMPDEST PUSH1 0x0 PUSH2 0x1211 PUSH1 0x1C DUP4 PUSH2 0x1470 JUMP JUMPDEST SWAP2 POP PUSH2 0x121C DUP3 PUSH2 0x166B JUMP JUMPDEST PUSH1 0x20 DUP3 ADD SWAP1 POP SWAP2 SWAP1 POP JUMP JUMPDEST PUSH1 0x0 PUSH2 0x1234 PUSH1 0x12 DUP4 PUSH2 0x1470 JUMP JUMPDEST SWAP2 POP PUSH2 0x123F DUP3 PUSH2 0x1694 JUMP JUMPDEST PUSH1 0x20 DUP3 ADD SWAP1 POP SWAP2 SWAP1 POP JUMP JUMPDEST PUSH1 0x0 PUSH2 0x1257 PUSH1 0xC DUP4 PUSH2 0x1470 JUMP JUMPDEST SWAP2 POP PUSH2 0x1262 DUP3 PUSH2 0x16BD JUMP JUMPDEST PUSH1 0x20 DUP3 ADD SWAP1 POP SWAP2 SWAP1 POP JUMP JUMPDEST PUSH1 0x0 PUSH2 0x127A PUSH1 0x1A DUP4 PUSH2 0x1470 JUMP JUMPDEST SWAP2 POP PUSH2 0x1285 DUP3 PUSH2 0x16E6 JUMP JUMPDEST PUSH1 0x20 DUP3 ADD SWAP1 POP SWAP2 SWAP1 POP JUMP JUMPDEST PUSH1 0x0 PUSH2 0x129D PUSH1 0x1B DUP4 PUSH2 0x1470 JUMP JUMPDEST SWAP2 POP PUSH2 0x12A8 DUP3 PUSH2 0x170F JUMP JUMPDEST PUSH1 0x20 DUP3 ADD SWAP1 POP SWAP2 SWAP1 POP JUMP JUMPDEST PUSH1 0x0 PUSH2 0x12C0 PUSH1 0x1E DUP4 PUSH2 0x1470 JUMP JUMPDEST SWAP2 POP PUSH2 0x12CB DUP3 PUSH2 0x1738 JUMP JUMPDEST PUSH1 0x20 DUP3 ADD SWAP1 POP SWAP2 SWAP1 POP JUMP JUMPDEST PUSH1 0x0 PUSH1 0x20 DUP3 ADD SWAP1 POP PUSH2 0x12EB PUSH1 0x0 DUP4 ADD DUP5 PUSH2 0x112B JUMP JUMPDEST SWAP3 SWAP2 POP POP JUMP JUMPDEST PUSH1 0x0 PUSH2 0x120 DUP3 ADD SWAP1 POP PUSH2 0x1307 PUSH1 0x0 DUP4 ADD DUP5 PUSH2 0x113A JUMP JUMPDEST SWAP3 SWAP2 POP POP JUMP JUMPDEST PUSH1 0x0 PUSH1 0x20 DUP3 ADD SWAP1 POP PUSH2 0x1322 PUSH1 0x0 DUP4 ADD DUP5 PUSH2 0x1191 JUMP JUMPDEST SWAP3 SWAP2 POP POP JUMP JUMPDEST PUSH1 0x0 PUSH1 0x20 DUP3 ADD SWAP1 POP PUSH2 0x133D PUSH1 0x0 DUP4 ADD DUP5 PUSH2 0x11AF JUMP JUMPDEST SWAP3 SWAP2 POP POP JUMP JUMPDEST PUSH1 0x0 PUSH1 0x20 DUP3 ADD SWAP1 POP DUP2 DUP2 SUB PUSH1 0x0 DUP4 ADD MSTORE PUSH2 0x135C DUP2 PUSH2 0x11BE JUMP JUMPDEST SWAP1 POP SWAP2 SWAP1 POP JUMP JUMPDEST PUSH1 0x0 PUSH1 0x20 DUP3 ADD SWAP1 POP DUP2 DUP2 SUB PUSH1 0x0 DUP4 ADD MSTORE PUSH2 0x137C DUP2 PUSH2 0x11E1 JUMP JUMPDEST SWAP1 POP SWAP2 SWAP1 POP JUMP JUMPDEST PUSH1 0x0 PUSH1 0x20 DUP3 ADD SWAP1 POP DUP2 DUP2 SUB PUSH1 0x0 DUP4 ADD MSTORE PUSH2 0x139C DUP2 PUSH2 0x1204 JUMP JUMPDEST SWAP1 POP SWAP2 SWAP1 POP JUMP JUMPDEST PUSH1 0x0 PUSH1 0x20 DUP3 ADD SWAP1 POP DUP2 DUP2 SUB PUSH1 0x0 DUP4 ADD MSTORE PUSH2 0x13BC DUP2 PUSH2 0x1227 JUMP JUMPDEST SWAP1 POP SWAP2 SWAP1 POP JUMP JUMPDEST PUSH1 0x0 PUSH1 0x20 DUP3 ADD SWAP1 POP DUP2 DUP2 SUB PUSH1 0x0 DUP4 ADD MSTORE PUSH2 0x13DC DUP2 PUSH2 0x124A JUMP JUMPDEST SWAP1 POP SWAP2 SWAP1 POP JUMP JUMPDEST PUSH1 0x0 PUSH1 0x20 DUP3 ADD SWAP1 POP DUP2 DUP2 SUB PUSH1 0x0 DUP4 ADD MSTORE PUSH2 0x13FC DUP2 PUSH2 0x126D JUMP JUMPDEST SWAP1 POP SWAP2 SWAP1 POP JUMP JUMPDEST PUSH1 0x0 PUSH1 0x20 DUP3 ADD SWAP1 POP DUP2 DUP2 SUB PUSH1 0x0 DUP4 ADD MSTORE PUSH2 0x141C DUP2 PUSH2 0x1290 JUMP JUMPDEST SWAP1 POP SWAP2 SWAP1 POP JUMP JUMPDEST PUSH1 0x0 PUSH1 0x20 DUP3 ADD SWAP1 POP DUP2 DUP2 SUB PUSH1 0x0 DUP4 ADD MSTORE PUSH2 0x143C DUP2 PUSH2 0x12B3 JUMP JUMPDEST SWAP1 POP SWAP2 SWAP1 POP JUMP JUMPDEST PUSH1 0x0 DUP2 SWAP1 POP SWAP2 SWAP1 POP JUMP JUMPDEST PUSH1 0x0 PUSH1 0x9 SWAP1 POP SWAP2 SWAP1 POP JUMP JUMPDEST PUSH1 0x0 PUSH1 0x20 DUP3 ADD SWAP1 POP SWAP2 SWAP1 POP JUMP JUMPDEST PUSH1 0x0 DUP2 SWAP1 POP SWAP3 SWAP2 POP POP JUMP JUMPDEST PUSH1 0x0 DUP3 DUP3 MSTORE PUSH1 0x20 DUP3 ADD SWAP1 POP SWAP3 SWAP2 POP POP JUMP JUMPDEST PUSH1 0x0 PUSH2 0x148C DUP3 PUSH2 0x14B9 JUMP JUMPDEST SWAP1 POP SWAP2 SWAP1 POP JUMP JUMPDEST PUSH1 0x0 DUP2 SWAP1 POP PUSH2 0x14A1 DUP3 PUSH2 0x1761 JUMP JUMPDEST SWAP2 SWAP1 POP JUMP JUMPDEST PUSH1 0x0 DUP2 SWAP1 POP PUSH2 0x14B4 DUP3 PUSH2 0x1775 JUMP JUMPDEST SWAP2 SWAP1 POP JUMP JUMPDEST PUSH1 0x0 PUSH20 0xFFFFFFFFFFFFFFFFFFFFFFFFFFFFFFFFFFFFFFFF DUP3 AND SWAP1 POP SWAP2 SWAP1 POP JUMP JUMPDEST PUSH1 0x0 DUP2 SWAP1 POP SWAP2 SWAP1 POP JUMP JUMPDEST PUSH1 0x0 PUSH1 0xFF DUP3 AND SWAP1 POP SWAP2 SWAP1 POP JUMP JUMPDEST PUSH1 0x0 PUSH2 0x14FB DUP3 PUSH2 0x1493 JUMP JUMPDEST SWAP1 POP SWAP2 SWAP1 POP JUMP JUMPDEST PUSH1 0x0 PUSH2 0x150D DUP3 PUSH2 0x14A6 JUMP JUMPDEST SWAP1 POP SWAP2 SWAP1 POP JUMP JUMPDEST PUSH1 0x0 PUSH2 0x151F DUP3 PUSH2 0x14D9 JUMP JUMPDEST SWAP2 POP PUSH32 0xFFFFFFFFFFFFFFFFFFFFFFFFFFFFFFFFFFFFFFFFFFFFFFFFFFFFFFFFFFFFFFFF DUP3 EQ ISZERO PUSH2 0x1552 JUMPI PUSH2 0x1551 PUSH2 0x1587 JUMP JUMPDEST JUMPDEST PUSH1 0x1 DUP3 ADD SWAP1 POP SWAP2 SWAP1 POP JUMP JUMPDEST PUSH1 0x0 PUSH2 0x1568 DUP3 PUSH2 0x14E3 JUMP JUMPDEST SWAP2 POP PUSH1 0xFF DUP3 EQ ISZERO PUSH2 0x157C JUMPI PUSH2 0x157B PUSH2 0x1587 JUMP JUMPDEST JUMPDEST PUSH1 0x1 DUP3 ADD SWAP1 POP SWAP2 SWAP1 POP JUMP JUMPDEST PUSH32 0x4E487B7100000000000000000000000000000000000000000000000000000000 PUSH1 0x0 MSTORE PUSH1 0x11 PUSH1 0x4 MSTORE PUSH1 0x24 PUSH1 0x0 REVERT JUMPDEST PUSH32 0x4E487B7100000000000000000000000000000000000000000000000000000000 PUSH1 0x0 MSTORE PUSH1 0x21 PUSH1 0x4 MSTORE PUSH1 0x24 PUSH1 0x0 REVERT JUMPDEST PUSH32 0x4E487B7100000000000000000000000000000000000000000000000000000000 PUSH1 0x0 MSTORE PUSH1 0x32 PUSH1 0x4 MSTORE PUSH1 0x24 PUSH1 0x0 REVERT JUMPDEST PUSH1 0x0 DUP1 REVERT JUMPDEST PUSH32 0x4769766520612076616C6964206C6F636174696F6E0000000000000000000000 PUSH1 0x0 DUP3 ADD MSTORE POP JUMP JUMPDEST PUSH32 0x47616D65206973207374696C6C2072756E6E696E670000000000000000000000 PUSH1 0x0 DUP3 ADD MSTORE POP JUMP JUMPDEST PUSH32 0x47616D652069732066756C6C2C207761697420796F7572207475726E00000000 PUSH1 0x0 DUP3 ADD MSTORE POP JUMP JUMPDEST PUSH32 0x49742773206E6F7420796F7572207475726E0000000000000000000000000000 PUSH1 0x0 DUP3 ADD MSTORE POP JUMP JUMPDEST PUSH32 0x47616D65206973206F7665720000000000000000000000000000000000000000 PUSH1 0x0 DUP3 ADD MSTORE POP JUMP JUMPDEST PUSH32 0x466972737420706C61796572206861736E2774206A6F696E6564000000000000 PUSH1 0x0 DUP3 ADD MSTORE POP JUMP JUMPDEST PUSH32 0x5365636F6E6420706C61796572206861736E2774206A6F696E65640000000000 PUSH1 0x0 DUP3 ADD MSTORE POP JUMP JUMPDEST PUSH32 0x536F6D656F6E6520616C7265616479206D6164652074686973206D6F76650000 PUSH1 0x0 DUP3 ADD MSTORE POP JUMP JUMPDEST PUSH1 0x5 DUP2 LT PUSH2 0x1772 JUMPI PUSH2 0x1771 PUSH2 0x15B6 JUMP JUMPDEST JUMPDEST POP JUMP JUMPDEST PUSH1 0x3 DUP2 LT PUSH2 0x1786 JUMPI PUSH2 0x1785 PUSH2 0x15B6 JUMP JUMPDEST JUMPDEST POP JUMP JUMPDEST PUSH2 0x1792 DUP2 PUSH2 0x14E3 JUMP JUMPDEST DUP2 EQ PUSH2 0x179D JUMPI PUSH1 0x0 DUP1 REVERT JUMPDEST POP JUMP INVALID LOG2 PUSH5 0x6970667358 0x22 SLT KECCAK256 0xD4 SWAP11 PUSH12 0xE98D3CB40B723612EC5F1C07 PUSH22 0x7D220209E7411F7C1DC9CEFCCE7D446764736F6C6343 STOP ADDMOD SMOD STOP CALLER "
				},
				"gasEstimates": {
					"creation": {
						"codeDepositCost": "1220400",
						"executionCost": "49954",
						"totalCost": "1270354"
					},
					"external": {
						"doMove(uint8)": "infinite",
						"getBoard()": "infinite",
						"joinGame()": "31779",
						"nextMove()": "2610",
						"player1()": "2555",
						"player2()": "2581",
						"resetGame()": "105459",
						"status()": "2611"
					},
					"internal": {
						"checkStatus()": "infinite",
						"getCurrentPlayer()": "6698",
						"isBoardFull()": "infinite"
					}
				},
				"methodIdentifiers": {
					"doMove(uint8)": "3cd56f48",
					"getBoard()": "3264a34b",
					"joinGame()": "d4f77b1c",
					"nextMove()": "82df5242",
					"player1()": "d30895e4",
					"player2()": "59a5f12d",
					"resetGame()": "bb472219",
					"status()": "200d2ed2"
				}
			},
			"storageLayout": {
				"storage": [
					{
						"astId": 14,
						"contract": "contracts/1_Tictactoe.sol:TicTacToe",
						"label": "player1",
						"offset": 0,
						"slot": "0",
						"type": "t_address"
					},
					{
						"astId": 16,
						"contract": "contracts/1_Tictactoe.sol:TicTacToe",
						"label": "player2",
						"offset": 0,
						"slot": "1",
						"type": "t_address"
					},
					{
						"astId": 25,
						"contract": "contracts/1_Tictactoe.sol:TicTacToe",
						"label": "status",
						"offset": 20,
						"slot": "1",
						"type": "t_enum(GameStatus)12"
					},
					{
						"astId": 28,
						"contract": "contracts/1_Tictactoe.sol:TicTacToe",
						"label": "nextMove",
						"offset": 21,
						"slot": "1",
						"type": "t_enum(Move)6"
					},
					{
						"astId": 34,
						"contract": "contracts/1_Tictactoe.sol:TicTacToe",
						"label": "board",
						"offset": 0,
						"slot": "2",
						"type": "t_array(t_enum(Move)6)9_storage"
					}
				],
				"types": {
					"t_address": {
						"encoding": "inplace",
						"label": "address",
						"numberOfBytes": "20"
					},
					"t_array(t_enum(Move)6)9_storage": {
						"base": "t_enum(Move)6",
						"encoding": "inplace",
						"label": "enum TicTacToe.Move[9]",
						"numberOfBytes": "32"
					},
					"t_enum(GameStatus)12": {
						"encoding": "inplace",
						"label": "enum TicTacToe.GameStatus",
						"numberOfBytes": "1"
					},
					"t_enum(Move)6": {
						"encoding": "inplace",
						"label": "enum TicTacToe.Move",
						"numberOfBytes": "1"
					}
				}
			},
			"userdoc": {
				"kind": "user",
				"methods": {},
				"version": 1
			}
		}
	}
}