{
	"contracts/1_Tictactoe.sol": {
		"TicTacToe": {
			"abi": [
				{
					"inputs": [],
					"stateMutability": "nonpayable",
					"type": "constructor"
				},
				{
					"anonymous": false,
					"inputs": [
						{
							"indexed": false,
							"internalType": "enum TicTacToe.Move[9]",
							"name": "board",
							"type": "uint8[9]"
						},
						{
							"indexed": false,
							"internalType": "enum TicTacToe.GameStatus",
							"name": "status",
							"type": "uint8"
						}
					],
					"name": "BoardChange",
					"type": "event"
				},
				{
					"inputs": [
						{
							"internalType": "uint8",
							"name": "location",
							"type": "uint8"
						}
					],
					"name": "doMove",
					"outputs": [],
					"stateMutability": "nonpayable",
					"type": "function"
				},
				{
					"inputs": [],
					"name": "getBoard",
					"outputs": [
						{
							"internalType": "enum TicTacToe.Move[9]",
							"name": "",
							"type": "uint8[9]"
						}
					],
					"stateMutability": "view",
					"type": "function"
				},
				{
					"inputs": [],
					"name": "joinGame",
					"outputs": [],
					"stateMutability": "nonpayable",
					"type": "function"
				},
				{
					"inputs": [],
					"name": "nextMove",
					"outputs": [
						{
							"internalType": "enum TicTacToe.Move",
							"name": "",
							"type": "uint8"
						}
					],
					"stateMutability": "view",
					"type": "function"
				},
				{
					"inputs": [],
					"name": "player1",
					"outputs": [
						{
							"internalType": "address",
							"name": "",
							"type": "address"
						}
					],
					"stateMutability": "view",
					"type": "function"
				},
				{
					"inputs": [],
					"name": "player2",
					"outputs": [
						{
							"internalType": "address",
							"name": "",
							"type": "address"
						}
					],
					"stateMutability": "view",
					"type": "function"
				},
				{
					"inputs": [],
					"name": "resetGame",
					"outputs": [],
					"stateMutability": "nonpayable",
					"type": "function"
				},
				{
					"inputs": [],
					"name": "status",
					"outputs": [
						{
							"internalType": "enum TicTacToe.GameStatus",
							"name": "",
							"type": "uint8"
						}
					],
					"stateMutability": "view",
					"type": "function"
				}
			],
			"devdoc": {
				"details": "Implements a tic-tac-toe game with betting",
				"kind": "dev",
				"methods": {},
				"title": "TicTacToe",
				"version": 1
			},
			"evm": {
				"assembly": "    /* \"contracts/1_Tictactoe.sol\":150:3497  contract TicTacToe {... */\n  mstore(0x40, 0x80)\n    /* \"contracts/1_Tictactoe.sol\":604:659  constructor() {... */\n  callvalue\n  dup1\n  iszero\n  tag_1\n  jumpi\n  0x00\n  dup1\n  revert\ntag_1:\n  pop\n    /* \"contracts/1_Tictactoe.sol\":637:652  GameStatus.None */\n  0x03\n    /* \"contracts/1_Tictactoe.sol\":628:634  status */\n  0x01\n  0x14\n    /* \"contracts/1_Tictactoe.sol\":628:652  status = GameStatus.None */\n  0x0100\n  exp\n  dup2\n  sload\n  dup2\n  0xff\n  mul\n  not\n  and\n  swap1\n  dup4\n  0x03\n  dup2\n  gt\n  iszero\n  tag_4\n  jumpi\n  tag_5\n  tag_6\n  jump\t// in\ntag_5:\ntag_4:\n  mul\n  or\n  swap1\n  sstore\n  pop\n    /* \"contracts/1_Tictactoe.sol\":150:3497  contract TicTacToe {... */\n  jump(tag_7)\n    /* \"#utility.yul\":7:187   */\ntag_6:\n    /* \"#utility.yul\":55:132   */\n  0x4e487b7100000000000000000000000000000000000000000000000000000000\n    /* \"#utility.yul\":52:53   */\n  0x00\n    /* \"#utility.yul\":45:133   */\n  mstore\n    /* \"#utility.yul\":152:156   */\n  0x21\n    /* \"#utility.yul\":149:150   */\n  0x04\n    /* \"#utility.yul\":142:157   */\n  mstore\n    /* \"#utility.yul\":176:180   */\n  0x24\n    /* \"#utility.yul\":173:174   */\n  0x00\n    /* \"#utility.yul\":166:181   */\n  revert\n    /* \"contracts/1_Tictactoe.sol\":150:3497  contract TicTacToe {... */\ntag_7:\n  dataSize(sub_0)\n  dup1\n  dataOffset(sub_0)\n  0x00\n  codecopy\n  0x00\n  return\nstop\n\nsub_0: assembly {\n        /* \"contracts/1_Tictactoe.sol\":150:3497  contract TicTacToe {... */\n      mstore(0x40, 0x80)\n      callvalue\n      dup1\n      iszero\n      tag_1\n      jumpi\n      0x00\n      dup1\n      revert\n    tag_1:\n      pop\n      jumpi(tag_2, lt(calldatasize, 0x04))\n      shr(0xe0, calldataload(0x00))\n      dup1\n      0x82df5242\n      gt\n      tag_11\n      jumpi\n      dup1\n      0x82df5242\n      eq\n      tag_7\n      jumpi\n      dup1\n      0xbb472219\n      eq\n      tag_8\n      jumpi\n      dup1\n      0xd30895e4\n      eq\n      tag_9\n      jumpi\n      dup1\n      0xd4f77b1c\n      eq\n      tag_10\n      jumpi\n      jump(tag_2)\n    tag_11:\n      dup1\n      0x200d2ed2\n      eq\n      tag_3\n      jumpi\n      dup1\n      0x3264a34b\n      eq\n      tag_4\n      jumpi\n      dup1\n      0x3cd56f48\n      eq\n      tag_5\n      jumpi\n      dup1\n      0x59a5f12d\n      eq\n      tag_6\n      jumpi\n    tag_2:\n      0x00\n      dup1\n      revert\n        /* \"contracts/1_Tictactoe.sol\":458:482  GameStatus public status */\n    tag_3:\n      tag_12\n      tag_13\n      jump\t// in\n    tag_12:\n      mload(0x40)\n      tag_14\n      swap2\n      swap1\n      tag_15\n      jump\t// in\n    tag_14:\n      mload(0x40)\n      dup1\n      swap2\n      sub\n      swap1\n      return\n        /* \"contracts/1_Tictactoe.sol\":1784:1871  function getBoard() external view returns(Move[9] memory) {... */\n    tag_4:\n      tag_16\n      tag_17\n      jump\t// in\n    tag_16:\n      mload(0x40)\n      tag_18\n      swap2\n      swap1\n      tag_19\n      jump\t// in\n    tag_18:\n      mload(0x40)\n      dup1\n      swap2\n      sub\n      swap1\n      return\n        /* \"contracts/1_Tictactoe.sol\":1201:1778  function doMove(uint8 location) external {... */\n    tag_5:\n      tag_20\n      0x04\n      dup1\n      calldatasize\n      sub\n      dup2\n      add\n      swap1\n      tag_21\n      swap2\n      swap1\n      tag_22\n      jump\t// in\n    tag_21:\n      tag_23\n      jump\t// in\n    tag_20:\n      stop\n        /* \"contracts/1_Tictactoe.sol\":367:389  address public player2 */\n    tag_6:\n      tag_24\n      tag_25\n      jump\t// in\n    tag_24:\n      mload(0x40)\n      tag_26\n      swap2\n      swap1\n      tag_27\n      jump\t// in\n    tag_26:\n      mload(0x40)\n      dup1\n      swap2\n      sub\n      swap1\n      return\n        /* \"contracts/1_Tictactoe.sol\":488:508  Move public nextMove */\n    tag_7:\n      tag_28\n      tag_29\n      jump\t// in\n    tag_28:\n      mload(0x40)\n      tag_30\n      swap2\n      swap1\n      tag_31\n      jump\t// in\n    tag_30:\n      mload(0x40)\n      dup1\n      swap2\n      sub\n      swap1\n      return\n        /* \"contracts/1_Tictactoe.sol\":940:1195  function resetGame() external {... */\n    tag_8:\n      tag_32\n      tag_33\n      jump\t// in\n    tag_32:\n      stop\n        /* \"contracts/1_Tictactoe.sol\":339:361  address public player1 */\n    tag_9:\n      tag_34\n      tag_35\n      jump\t// in\n    tag_34:\n      mload(0x40)\n      tag_36\n      swap2\n      swap1\n      tag_27\n      jump\t// in\n    tag_36:\n      mload(0x40)\n      dup1\n      swap2\n      sub\n      swap1\n      return\n        /* \"contracts/1_Tictactoe.sol\":665:934  function joinGame() external {... */\n    tag_10:\n      tag_37\n      tag_38\n      jump\t// in\n    tag_37:\n      stop\n        /* \"contracts/1_Tictactoe.sol\":458:482  GameStatus public status */\n    tag_13:\n      0x01\n      0x14\n      swap1\n      sload\n      swap1\n      0x0100\n      exp\n      swap1\n      div\n      0xff\n      and\n      dup2\n      jump\t// out\n        /* \"contracts/1_Tictactoe.sol\":1784:1871  function getBoard() external view returns(Move[9] memory) {... */\n    tag_17:\n        /* \"contracts/1_Tictactoe.sol\":1826:1840  Move[9] memory */\n      tag_39\n      tag_40\n      jump\t// in\n    tag_39:\n        /* \"contracts/1_Tictactoe.sol\":1859:1864  board */\n      0x02\n        /* \"contracts/1_Tictactoe.sol\":1852:1864  return board */\n      0x09\n      dup1\n      0x20\n      mul\n      mload(0x40)\n      swap1\n      dup2\n      add\n      0x40\n      mstore\n      dup1\n      swap3\n      swap2\n      swap1\n      dup3\n      0x09\n      dup1\n      iszero\n      tag_42\n      jumpi\n      0x20\n      mul\n      dup3\n      add\n      swap2\n      0x00\n      swap1\n    tag_43:\n      dup3\n      dup3\n      swap1\n      sload\n      swap1\n      0x0100\n      exp\n      swap1\n      div\n      0xff\n      and\n      0x02\n      dup2\n      gt\n      iszero\n      tag_44\n      jumpi\n      tag_45\n      tag_46\n      jump\t// in\n    tag_45:\n    tag_44:\n      dup2\n      mstore\n      0x20\n      add\n      swap1\n      0x01\n      add\n      swap1\n      0x20\n      dup3\n      0x00\n      add\n      div\n      swap3\n      dup4\n      add\n      swap3\n      0x01\n      sub\n      dup3\n      mul\n      swap2\n      pop\n      dup1\n      dup5\n      gt\n      tag_43\n      jumpi\n      swap1\n      pop\n    tag_42:\n      pop\n      pop\n      pop\n      pop\n      pop\n      swap1\n      pop\n        /* \"contracts/1_Tictactoe.sol\":1784:1871  function getBoard() external view returns(Move[9] memory) {... */\n      swap1\n      jump\t// out\n        /* \"contracts/1_Tictactoe.sol\":1201:1778  function doMove(uint8 location) external {... */\n    tag_23:\n        /* \"contracts/1_Tictactoe.sol\":1279:1280  0 */\n      0x00\n        /* \"contracts/1_Tictactoe.sol\":1260:1281  player1 != address(0) */\n      0xffffffffffffffffffffffffffffffffffffffff\n      and\n        /* \"contracts/1_Tictactoe.sol\":1260:1267  player1 */\n      0x00\n      dup1\n      sload\n      swap1\n      0x0100\n      exp\n      swap1\n      div\n      0xffffffffffffffffffffffffffffffffffffffff\n      and\n        /* \"contracts/1_Tictactoe.sol\":1260:1281  player1 != address(0) */\n      0xffffffffffffffffffffffffffffffffffffffff\n      and\n      eq\n      iszero\n        /* \"contracts/1_Tictactoe.sol\":1252:1312  require(player1 != address(0), \"First player hasn't joined\") */\n      tag_48\n      jumpi\n      mload(0x40)\n      0x08c379a000000000000000000000000000000000000000000000000000000000\n      dup2\n      mstore\n      0x04\n      add\n      tag_49\n      swap1\n      tag_50\n      jump\t// in\n    tag_49:\n      mload(0x40)\n      dup1\n      swap2\n      sub\n      swap1\n      revert\n    tag_48:\n        /* \"contracts/1_Tictactoe.sol\":1349:1350  0 */\n      0x00\n        /* \"contracts/1_Tictactoe.sol\":1330:1351  player2 != address(0) */\n      0xffffffffffffffffffffffffffffffffffffffff\n      and\n        /* \"contracts/1_Tictactoe.sol\":1330:1337  player2 */\n      0x01\n      0x00\n      swap1\n      sload\n      swap1\n      0x0100\n      exp\n      swap1\n      div\n      0xffffffffffffffffffffffffffffffffffffffff\n      and\n        /* \"contracts/1_Tictactoe.sol\":1330:1351  player2 != address(0) */\n      0xffffffffffffffffffffffffffffffffffffffff\n      and\n      eq\n      iszero\n        /* \"contracts/1_Tictactoe.sol\":1322:1383  require(player2 != address(0), \"Second player hasn't joined\") */\n      tag_51\n      jumpi\n      mload(0x40)\n      0x08c379a000000000000000000000000000000000000000000000000000000000\n      dup2\n      mstore\n      0x04\n      add\n      tag_52\n      swap1\n      tag_53\n      jump\t// in\n    tag_52:\n      mload(0x40)\n      dup1\n      swap2\n      sub\n      swap1\n      revert\n    tag_51:\n        /* \"contracts/1_Tictactoe.sol\":1411:1426  GameStatus.None */\n      0x03\n        /* \"contracts/1_Tictactoe.sol\":1401:1426  status == GameStatus.None */\n      dup1\n      dup2\n      gt\n      iszero\n      tag_54\n      jumpi\n      tag_55\n      tag_46\n      jump\t// in\n    tag_55:\n    tag_54:\n        /* \"contracts/1_Tictactoe.sol\":1401:1407  status */\n      0x01\n      0x14\n      swap1\n      sload\n      swap1\n      0x0100\n      exp\n      swap1\n      div\n      0xff\n      and\n        /* \"contracts/1_Tictactoe.sol\":1401:1426  status == GameStatus.None */\n      0x03\n      dup2\n      gt\n      iszero\n      tag_56\n      jumpi\n      tag_57\n      tag_46\n      jump\t// in\n    tag_57:\n    tag_56:\n      eq\n        /* \"contracts/1_Tictactoe.sol\":1393:1443  require(status == GameStatus.None, \"Game is over\") */\n      tag_58\n      jumpi\n      mload(0x40)\n      0x08c379a000000000000000000000000000000000000000000000000000000000\n      dup2\n      mstore\n      0x04\n      add\n      tag_59\n      swap1\n      tag_60\n      jump\t// in\n    tag_59:\n      mload(0x40)\n      dup1\n      swap2\n      sub\n      swap1\n      revert\n    tag_58:\n        /* \"contracts/1_Tictactoe.sol\":1472:1473  9 */\n      0x09\n        /* \"contracts/1_Tictactoe.sol\":1461:1469  location */\n      dup2\n        /* \"contracts/1_Tictactoe.sol\":1461:1473  location < 9 */\n      0xff\n      and\n      lt\n        /* \"contracts/1_Tictactoe.sol\":1453:1499  require(location < 9, \"Give a valid location\") */\n      tag_61\n      jumpi\n      mload(0x40)\n      0x08c379a000000000000000000000000000000000000000000000000000000000\n      dup2\n      mstore\n      0x04\n      add\n      tag_62\n      swap1\n      tag_63\n      jump\t// in\n    tag_62:\n      mload(0x40)\n      dup1\n      swap2\n      sub\n      swap1\n      revert\n    tag_61:\n        /* \"contracts/1_Tictactoe.sol\":1531:1549  getCurrentPlayer() */\n      tag_64\n        /* \"contracts/1_Tictactoe.sol\":1531:1547  getCurrentPlayer */\n      tag_65\n        /* \"contracts/1_Tictactoe.sol\":1531:1549  getCurrentPlayer() */\n      jump\t// in\n    tag_64:\n        /* \"contracts/1_Tictactoe.sol\":1517:1549  msg.sender == getCurrentPlayer() */\n      0xffffffffffffffffffffffffffffffffffffffff\n      and\n        /* \"contracts/1_Tictactoe.sol\":1517:1527  msg.sender */\n      caller\n        /* \"contracts/1_Tictactoe.sol\":1517:1549  msg.sender == getCurrentPlayer() */\n      0xffffffffffffffffffffffffffffffffffffffff\n      and\n      eq\n        /* \"contracts/1_Tictactoe.sol\":1509:1572  require(msg.sender == getCurrentPlayer(), \"It's not your turn\") */\n      tag_66\n      jumpi\n      mload(0x40)\n      0x08c379a000000000000000000000000000000000000000000000000000000000\n      dup2\n      mstore\n      0x04\n      add\n      tag_67\n      swap1\n      tag_68\n      jump\t// in\n    tag_67:\n      mload(0x40)\n      dup1\n      swap2\n      sub\n      swap1\n      revert\n    tag_66:\n        /* \"contracts/1_Tictactoe.sol\":1609:1618  Move.None */\n      0x02\n        /* \"contracts/1_Tictactoe.sol\":1590:1618  board[location] == Move.None */\n      dup1\n      dup2\n      gt\n      iszero\n      tag_69\n      jumpi\n      tag_70\n      tag_46\n      jump\t// in\n    tag_70:\n    tag_69:\n        /* \"contracts/1_Tictactoe.sol\":1590:1595  board */\n      0x02\n        /* \"contracts/1_Tictactoe.sol\":1596:1604  location */\n      dup3\n        /* \"contracts/1_Tictactoe.sol\":1590:1605  board[location] */\n      0xff\n      and\n      0x09\n      dup2\n      lt\n      tag_71\n      jumpi\n      tag_72\n      tag_73\n      jump\t// in\n    tag_72:\n    tag_71:\n      0x20\n      swap2\n      dup3\n      dup3\n      div\n      add\n      swap2\n      swap1\n      mod\n      swap1\n      sload\n      swap1\n      0x0100\n      exp\n      swap1\n      div\n      0xff\n      and\n        /* \"contracts/1_Tictactoe.sol\":1590:1618  board[location] == Move.None */\n      0x02\n      dup2\n      gt\n      iszero\n      tag_75\n      jumpi\n      tag_76\n      tag_46\n      jump\t// in\n    tag_76:\n    tag_75:\n      eq\n        /* \"contracts/1_Tictactoe.sol\":1582:1653  require(board[location] == Move.None, \"Someone already made this move\") */\n      tag_77\n      jumpi\n      mload(0x40)\n      0x08c379a000000000000000000000000000000000000000000000000000000000\n      dup2\n      mstore\n      0x04\n      add\n      tag_78\n      swap1\n      tag_79\n      jump\t// in\n    tag_78:\n      mload(0x40)\n      dup1\n      swap2\n      sub\n      swap1\n      revert\n    tag_77:\n        /* \"contracts/1_Tictactoe.sol\":1681:1689  nextMove */\n      0x01\n      0x15\n      swap1\n      sload\n      swap1\n      0x0100\n      exp\n      swap1\n      div\n      0xff\n      and\n        /* \"contracts/1_Tictactoe.sol\":1663:1668  board */\n      0x02\n        /* \"contracts/1_Tictactoe.sol\":1669:1677  location */\n      dup3\n        /* \"contracts/1_Tictactoe.sol\":1663:1678  board[location] */\n      0xff\n      and\n      0x09\n      dup2\n      lt\n      tag_80\n      jumpi\n      tag_81\n      tag_73\n      jump\t// in\n    tag_81:\n    tag_80:\n      0x20\n      swap2\n      dup3\n      dup3\n      div\n      add\n      swap2\n      swap1\n      mod\n        /* \"contracts/1_Tictactoe.sol\":1663:1689  board[location] = nextMove */\n      0x0100\n      exp\n      dup2\n      sload\n      dup2\n      0xff\n      mul\n      not\n      and\n      swap1\n      dup4\n      0x02\n      dup2\n      gt\n      iszero\n      tag_83\n      jumpi\n      tag_84\n      tag_46\n      jump\t// in\n    tag_84:\n    tag_83:\n      mul\n      or\n      swap1\n      sstore\n      pop\n        /* \"contracts/1_Tictactoe.sol\":1708:1721  checkStatus() */\n      tag_85\n        /* \"contracts/1_Tictactoe.sol\":1708:1719  checkStatus */\n      tag_86\n        /* \"contracts/1_Tictactoe.sol\":1708:1721  checkStatus() */\n      jump\t// in\n    tag_85:\n        /* \"contracts/1_Tictactoe.sol\":1699:1705  status */\n      0x01\n      0x14\n        /* \"contracts/1_Tictactoe.sol\":1699:1721  status = checkStatus() */\n      0x0100\n      exp\n      dup2\n      sload\n      dup2\n      0xff\n      mul\n      not\n      and\n      swap1\n      dup4\n      0x03\n      dup2\n      gt\n      iszero\n      tag_87\n      jumpi\n      tag_88\n      tag_46\n      jump\t// in\n    tag_88:\n    tag_87:\n      mul\n      or\n      swap1\n      sstore\n      pop\n        /* \"contracts/1_Tictactoe.sol\":1745:1771  BoardChange(board, status) */\n      0xfad320f1f1c95d3dd74b7e642c38488713b52a0eb8e3b29e04658e17bb303dc4\n        /* \"contracts/1_Tictactoe.sol\":1757:1762  board */\n      0x02\n        /* \"contracts/1_Tictactoe.sol\":1764:1770  status */\n      0x01\n      0x14\n      swap1\n      sload\n      swap1\n      0x0100\n      exp\n      swap1\n      div\n      0xff\n      and\n        /* \"contracts/1_Tictactoe.sol\":1745:1771  BoardChange(board, status) */\n      mload(0x40)\n      tag_89\n      swap3\n      swap2\n      swap1\n      tag_90\n      jump\t// in\n    tag_89:\n      mload(0x40)\n      dup1\n      swap2\n      sub\n      swap1\n      log1\n        /* \"contracts/1_Tictactoe.sol\":1201:1778  function doMove(uint8 location) external {... */\n      pop\n      jump\t// out\n        /* \"contracts/1_Tictactoe.sol\":367:389  address public player2 */\n    tag_25:\n      0x01\n      0x00\n      swap1\n      sload\n      swap1\n      0x0100\n      exp\n      swap1\n      div\n      0xffffffffffffffffffffffffffffffffffffffff\n      and\n      dup2\n      jump\t// out\n        /* \"contracts/1_Tictactoe.sol\":488:508  Move public nextMove */\n    tag_29:\n      0x01\n      0x15\n      swap1\n      sload\n      swap1\n      0x0100\n      exp\n      swap1\n      div\n      0xff\n      and\n      dup2\n      jump\t// out\n        /* \"contracts/1_Tictactoe.sol\":940:1195  function resetGame() external {... */\n    tag_33:\n        /* \"contracts/1_Tictactoe.sol\":998:1013  GameStatus.None */\n      0x03\n        /* \"contracts/1_Tictactoe.sol\":988:1013  status != GameStatus.None */\n      dup1\n      dup2\n      gt\n      iszero\n      tag_92\n      jumpi\n      tag_93\n      tag_46\n      jump\t// in\n    tag_93:\n    tag_92:\n        /* \"contracts/1_Tictactoe.sol\":988:994  status */\n      0x01\n      0x14\n      swap1\n      sload\n      swap1\n      0x0100\n      exp\n      swap1\n      div\n      0xff\n      and\n        /* \"contracts/1_Tictactoe.sol\":988:1013  status != GameStatus.None */\n      0x03\n      dup2\n      gt\n      iszero\n      tag_94\n      jumpi\n      tag_95\n      tag_46\n      jump\t// in\n    tag_95:\n    tag_94:\n      eq\n      iszero\n        /* \"contracts/1_Tictactoe.sol\":980:1039  require(status != GameStatus.None, \"Game is still running\") */\n      tag_96\n      jumpi\n      mload(0x40)\n      0x08c379a000000000000000000000000000000000000000000000000000000000\n      dup2\n      mstore\n      0x04\n      add\n      tag_97\n      swap1\n      tag_98\n      jump\t// in\n    tag_97:\n      mload(0x40)\n      dup1\n      swap2\n      sub\n      swap1\n      revert\n    tag_96:\n        /* \"contracts/1_Tictactoe.sol\":1058:1073  GameStatus.None */\n      0x03\n        /* \"contracts/1_Tictactoe.sol\":1049:1055  status */\n      0x01\n      0x14\n        /* \"contracts/1_Tictactoe.sol\":1049:1073  status = GameStatus.None */\n      0x0100\n      exp\n      dup2\n      sload\n      dup2\n      0xff\n      mul\n      not\n      and\n      swap1\n      dup4\n      0x03\n      dup2\n      gt\n      iszero\n      tag_99\n      jumpi\n      tag_100\n      tag_46\n      jump\t// in\n    tag_100:\n    tag_99:\n      mul\n      or\n      swap1\n      sstore\n      pop\n        /* \"contracts/1_Tictactoe.sol\":1094:1106  Move.Player1 */\n      0x00\n        /* \"contracts/1_Tictactoe.sol\":1083:1091  nextMove */\n      0x01\n      0x15\n        /* \"contracts/1_Tictactoe.sol\":1083:1106  nextMove = Move.Player1 */\n      0x0100\n      exp\n      dup2\n      sload\n      dup2\n      0xff\n      mul\n      not\n      and\n      swap1\n      dup4\n      0x02\n      dup2\n      gt\n      iszero\n      tag_101\n      jumpi\n      tag_102\n      tag_46\n      jump\t// in\n    tag_102:\n    tag_101:\n      mul\n      or\n      swap1\n      sstore\n      pop\n        /* \"contracts/1_Tictactoe.sol\":1134:1135  0 */\n      0x00\n        /* \"contracts/1_Tictactoe.sol\":1116:1123  player1 */\n      dup1\n      0x00\n        /* \"contracts/1_Tictactoe.sol\":1116:1136  player1 = address(0) */\n      0x0100\n      exp\n      dup2\n      sload\n      dup2\n      0xffffffffffffffffffffffffffffffffffffffff\n      mul\n      not\n      and\n      swap1\n      dup4\n      0xffffffffffffffffffffffffffffffffffffffff\n      and\n      mul\n      or\n      swap1\n      sstore\n      pop\n        /* \"contracts/1_Tictactoe.sol\":1164:1165  0 */\n      0x00\n        /* \"contracts/1_Tictactoe.sol\":1146:1153  player2 */\n      0x01\n      0x00\n        /* \"contracts/1_Tictactoe.sol\":1146:1166  player2 = address(0) */\n      0x0100\n      exp\n      dup2\n      sload\n      dup2\n      0xffffffffffffffffffffffffffffffffffffffff\n      mul\n      not\n      and\n      swap1\n      dup4\n      0xffffffffffffffffffffffffffffffffffffffff\n      and\n      mul\n      or\n      swap1\n      sstore\n      pop\n        /* \"contracts/1_Tictactoe.sol\":1183:1188  board */\n      0x02\n      0x00\n        /* \"contracts/1_Tictactoe.sol\":1176:1188  delete board */\n      tag_103\n      swap2\n      swap1\n      tag_104\n      jump\t// in\n    tag_103:\n        /* \"contracts/1_Tictactoe.sol\":940:1195  function resetGame() external {... */\n      jump\t// out\n        /* \"contracts/1_Tictactoe.sol\":339:361  address public player1 */\n    tag_35:\n      0x00\n      dup1\n      sload\n      swap1\n      0x0100\n      exp\n      swap1\n      div\n      0xffffffffffffffffffffffffffffffffffffffff\n      and\n      dup2\n      jump\t// out\n        /* \"contracts/1_Tictactoe.sol\":665:934  function joinGame() external {... */\n    tag_38:\n        /* \"contracts/1_Tictactoe.sol\":731:732  0 */\n      0x00\n        /* \"contracts/1_Tictactoe.sol\":712:733  player1 == address(0) */\n      0xffffffffffffffffffffffffffffffffffffffff\n      and\n        /* \"contracts/1_Tictactoe.sol\":712:719  player1 */\n      0x00\n      dup1\n      sload\n      swap1\n      0x0100\n      exp\n      swap1\n      div\n      0xffffffffffffffffffffffffffffffffffffffff\n      and\n        /* \"contracts/1_Tictactoe.sol\":712:733  player1 == address(0) */\n      0xffffffffffffffffffffffffffffffffffffffff\n      and\n      eq\n        /* \"contracts/1_Tictactoe.sol\":712:758  player1 == address(0) || player2 == address(0) */\n      dup1\n      tag_106\n      jumpi\n      pop\n        /* \"contracts/1_Tictactoe.sol\":756:757  0 */\n      0x00\n        /* \"contracts/1_Tictactoe.sol\":737:758  player2 == address(0) */\n      0xffffffffffffffffffffffffffffffffffffffff\n      and\n        /* \"contracts/1_Tictactoe.sol\":737:744  player2 */\n      0x01\n      0x00\n      swap1\n      sload\n      swap1\n      0x0100\n      exp\n      swap1\n      div\n      0xffffffffffffffffffffffffffffffffffffffff\n      and\n        /* \"contracts/1_Tictactoe.sol\":737:758  player2 == address(0) */\n      0xffffffffffffffffffffffffffffffffffffffff\n      and\n      eq\n        /* \"contracts/1_Tictactoe.sol\":712:758  player1 == address(0) || player2 == address(0) */\n    tag_106:\n        /* \"contracts/1_Tictactoe.sol\":704:791  require(player1 == address(0) || player2 == address(0), \"Game is full, wait your turn\") */\n      tag_107\n      jumpi\n      mload(0x40)\n      0x08c379a000000000000000000000000000000000000000000000000000000000\n      dup2\n      mstore\n      0x04\n      add\n      tag_108\n      swap1\n      tag_109\n      jump\t// in\n    tag_108:\n      mload(0x40)\n      dup1\n      swap2\n      sub\n      swap1\n      revert\n    tag_107:\n        /* \"contracts/1_Tictactoe.sol\":824:825  0 */\n      0x00\n        /* \"contracts/1_Tictactoe.sol\":805:826  player1 == address(0) */\n      0xffffffffffffffffffffffffffffffffffffffff\n      and\n        /* \"contracts/1_Tictactoe.sol\":805:812  player1 */\n      0x00\n      dup1\n      sload\n      swap1\n      0x0100\n      exp\n      swap1\n      div\n      0xffffffffffffffffffffffffffffffffffffffff\n      and\n        /* \"contracts/1_Tictactoe.sol\":805:826  player1 == address(0) */\n      0xffffffffffffffffffffffffffffffffffffffff\n      and\n      eq\n        /* \"contracts/1_Tictactoe.sol\":801:928  if (player1 == address(0)) {... */\n      iszero\n      tag_110\n      jumpi\n        /* \"contracts/1_Tictactoe.sol\":852:862  msg.sender */\n      caller\n        /* \"contracts/1_Tictactoe.sol\":842:849  player1 */\n      0x00\n      dup1\n        /* \"contracts/1_Tictactoe.sol\":842:862  player1 = msg.sender */\n      0x0100\n      exp\n      dup2\n      sload\n      dup2\n      0xffffffffffffffffffffffffffffffffffffffff\n      mul\n      not\n      and\n      swap1\n      dup4\n      0xffffffffffffffffffffffffffffffffffffffff\n      and\n      mul\n      or\n      swap1\n      sstore\n      pop\n        /* \"contracts/1_Tictactoe.sol\":801:928  if (player1 == address(0)) {... */\n      jump(tag_111)\n    tag_110:\n        /* \"contracts/1_Tictactoe.sol\":903:913  msg.sender */\n      caller\n        /* \"contracts/1_Tictactoe.sol\":893:900  player2 */\n      0x01\n      0x00\n        /* \"contracts/1_Tictactoe.sol\":893:913  player2 = msg.sender */\n      0x0100\n      exp\n      dup2\n      sload\n      dup2\n      0xffffffffffffffffffffffffffffffffffffffff\n      mul\n      not\n      and\n      swap1\n      dup4\n      0xffffffffffffffffffffffffffffffffffffffff\n      and\n      mul\n      or\n      swap1\n      sstore\n      pop\n        /* \"contracts/1_Tictactoe.sol\":801:928  if (player1 == address(0)) {... */\n    tag_111:\n        /* \"contracts/1_Tictactoe.sol\":665:934  function joinGame() external {... */\n      jump\t// out\n        /* \"contracts/1_Tictactoe.sol\":3239:3495  function getCurrentPlayer() private view returns (address player) {... */\n    tag_65:\n        /* \"contracts/1_Tictactoe.sol\":3289:3303  address player */\n      0x00\n        /* \"contracts/1_Tictactoe.sol\":3331:3343  Move.Player1 */\n      dup1\n        /* \"contracts/1_Tictactoe.sol\":3319:3343  nextMove == Move.Player1 */\n      0x02\n      dup2\n      gt\n      iszero\n      tag_113\n      jumpi\n      tag_114\n      tag_46\n      jump\t// in\n    tag_114:\n    tag_113:\n        /* \"contracts/1_Tictactoe.sol\":3319:3327  nextMove */\n      0x01\n      0x15\n      swap1\n      sload\n      swap1\n      0x0100\n      exp\n      swap1\n      div\n      0xff\n      and\n        /* \"contracts/1_Tictactoe.sol\":3319:3343  nextMove == Move.Player1 */\n      0x02\n      dup2\n      gt\n      iszero\n      tag_115\n      jumpi\n      tag_116\n      tag_46\n      jump\t// in\n    tag_116:\n    tag_115:\n      eq\n        /* \"contracts/1_Tictactoe.sol\":3315:3384  if (nextMove == Move.Player1) {... */\n      iszero\n      tag_117\n      jumpi\n        /* \"contracts/1_Tictactoe.sol\":3366:3373  player1 */\n      0x00\n      dup1\n      sload\n      swap1\n      0x0100\n      exp\n      swap1\n      div\n      0xffffffffffffffffffffffffffffffffffffffff\n      and\n        /* \"contracts/1_Tictactoe.sol\":3359:3373  return player1 */\n      swap1\n      pop\n      jump(tag_112)\n        /* \"contracts/1_Tictactoe.sol\":3315:3384  if (nextMove == Move.Player1) {... */\n    tag_117:\n        /* \"contracts/1_Tictactoe.sol\":3409:3421  Move.Player2 */\n      0x01\n        /* \"contracts/1_Tictactoe.sol\":3397:3421  nextMove == Move.Player2 */\n      0x02\n      dup2\n      gt\n      iszero\n      tag_118\n      jumpi\n      tag_119\n      tag_46\n      jump\t// in\n    tag_119:\n    tag_118:\n        /* \"contracts/1_Tictactoe.sol\":3397:3405  nextMove */\n      0x01\n      0x15\n      swap1\n      sload\n      swap1\n      0x0100\n      exp\n      swap1\n      div\n      0xff\n      and\n        /* \"contracts/1_Tictactoe.sol\":3397:3421  nextMove == Move.Player2 */\n      0x02\n      dup2\n      gt\n      iszero\n      tag_120\n      jumpi\n      tag_121\n      tag_46\n      jump\t// in\n    tag_121:\n    tag_120:\n      eq\n        /* \"contracts/1_Tictactoe.sol\":3393:3462  if (nextMove == Move.Player2) {... */\n      iszero\n      tag_122\n      jumpi\n        /* \"contracts/1_Tictactoe.sol\":3444:3451  player2 */\n      0x01\n      0x00\n      swap1\n      sload\n      swap1\n      0x0100\n      exp\n      swap1\n      div\n      0xffffffffffffffffffffffffffffffffffffffff\n      and\n        /* \"contracts/1_Tictactoe.sol\":3437:3451  return player2 */\n      swap1\n      pop\n      jump(tag_112)\n        /* \"contracts/1_Tictactoe.sol\":3393:3462  if (nextMove == Move.Player2) {... */\n    tag_122:\n        /* \"contracts/1_Tictactoe.sol\":3486:3487  0 */\n      0x00\n        /* \"contracts/1_Tictactoe.sol\":3471:3488  return address(0) */\n      swap1\n      pop\n        /* \"contracts/1_Tictactoe.sol\":3239:3495  function getCurrentPlayer() private view returns (address player) {... */\n    tag_112:\n      swap1\n      jump\t// out\n        /* \"contracts/1_Tictactoe.sol\":2165:3233  function checkStatus() private view returns (GameStatus) {... */\n    tag_86:\n        /* \"contracts/1_Tictactoe.sol\":2210:2220  GameStatus */\n      0x00\n        /* \"contracts/1_Tictactoe.sol\":2233:2264  uint8[3][8] memory winningMoves */\n      dup1\n        /* \"contracts/1_Tictactoe.sol\":2233:2424  uint8[3][8] memory winningMoves = [... */\n      mload(0x40)\n      dup1\n      0x0100\n      add\n      0x40\n      mstore\n      dup1\n      mload(0x40)\n      dup1\n      0x60\n      add\n      0x40\n      mstore\n      dup1\n        /* \"contracts/1_Tictactoe.sol\":2282:2283  0 */\n      0x00\n        /* \"contracts/1_Tictactoe.sol\":2233:2424  uint8[3][8] memory winningMoves = [... */\n      0xff\n      and\n      dup2\n      mstore\n      0x20\n      add\n        /* \"contracts/1_Tictactoe.sol\":2284:2285  1 */\n      0x01\n        /* \"contracts/1_Tictactoe.sol\":2233:2424  uint8[3][8] memory winningMoves = [... */\n      0xff\n      and\n      dup2\n      mstore\n      0x20\n      add\n        /* \"contracts/1_Tictactoe.sol\":2286:2287  2 */\n      0x02\n        /* \"contracts/1_Tictactoe.sol\":2233:2424  uint8[3][8] memory winningMoves = [... */\n      0xff\n      and\n      dup2\n      mstore\n      pop\n      dup2\n      mstore\n      0x20\n      add\n      mload(0x40)\n      dup1\n      0x60\n      add\n      0x40\n      mstore\n      dup1\n        /* \"contracts/1_Tictactoe.sol\":2290:2291  3 */\n      0x03\n        /* \"contracts/1_Tictactoe.sol\":2233:2424  uint8[3][8] memory winningMoves = [... */\n      0xff\n      and\n      dup2\n      mstore\n      0x20\n      add\n        /* \"contracts/1_Tictactoe.sol\":2292:2293  4 */\n      0x04\n        /* \"contracts/1_Tictactoe.sol\":2233:2424  uint8[3][8] memory winningMoves = [... */\n      0xff\n      and\n      dup2\n      mstore\n      0x20\n      add\n        /* \"contracts/1_Tictactoe.sol\":2294:2295  5 */\n      0x05\n        /* \"contracts/1_Tictactoe.sol\":2233:2424  uint8[3][8] memory winningMoves = [... */\n      0xff\n      and\n      dup2\n      mstore\n      pop\n      dup2\n      mstore\n      0x20\n      add\n      mload(0x40)\n      dup1\n      0x60\n      add\n      0x40\n      mstore\n      dup1\n        /* \"contracts/1_Tictactoe.sol\":2298:2299  6 */\n      0x06\n        /* \"contracts/1_Tictactoe.sol\":2233:2424  uint8[3][8] memory winningMoves = [... */\n      0xff\n      and\n      dup2\n      mstore\n      0x20\n      add\n        /* \"contracts/1_Tictactoe.sol\":2300:2301  7 */\n      0x07\n        /* \"contracts/1_Tictactoe.sol\":2233:2424  uint8[3][8] memory winningMoves = [... */\n      0xff\n      and\n      dup2\n      mstore\n      0x20\n      add\n        /* \"contracts/1_Tictactoe.sol\":2302:2303  8 */\n      0x08\n        /* \"contracts/1_Tictactoe.sol\":2233:2424  uint8[3][8] memory winningMoves = [... */\n      0xff\n      and\n      dup2\n      mstore\n      pop\n      dup2\n      mstore\n      0x20\n      add\n      mload(0x40)\n      dup1\n      0x60\n      add\n      0x40\n      mstore\n      dup1\n        /* \"contracts/1_Tictactoe.sol\":2328:2329  0 */\n      0x00\n        /* \"contracts/1_Tictactoe.sol\":2233:2424  uint8[3][8] memory winningMoves = [... */\n      0xff\n      and\n      dup2\n      mstore\n      0x20\n      add\n        /* \"contracts/1_Tictactoe.sol\":2330:2331  3 */\n      0x03\n        /* \"contracts/1_Tictactoe.sol\":2233:2424  uint8[3][8] memory winningMoves = [... */\n      0xff\n      and\n      dup2\n      mstore\n      0x20\n      add\n        /* \"contracts/1_Tictactoe.sol\":2332:2333  6 */\n      0x06\n        /* \"contracts/1_Tictactoe.sol\":2233:2424  uint8[3][8] memory winningMoves = [... */\n      0xff\n      and\n      dup2\n      mstore\n      pop\n      dup2\n      mstore\n      0x20\n      add\n      mload(0x40)\n      dup1\n      0x60\n      add\n      0x40\n      mstore\n      dup1\n        /* \"contracts/1_Tictactoe.sol\":2336:2337  1 */\n      0x01\n        /* \"contracts/1_Tictactoe.sol\":2233:2424  uint8[3][8] memory winningMoves = [... */\n      0xff\n      and\n      dup2\n      mstore\n      0x20\n      add\n        /* \"contracts/1_Tictactoe.sol\":2338:2339  4 */\n      0x04\n        /* \"contracts/1_Tictactoe.sol\":2233:2424  uint8[3][8] memory winningMoves = [... */\n      0xff\n      and\n      dup2\n      mstore\n      0x20\n      add\n        /* \"contracts/1_Tictactoe.sol\":2340:2341  7 */\n      0x07\n        /* \"contracts/1_Tictactoe.sol\":2233:2424  uint8[3][8] memory winningMoves = [... */\n      0xff\n      and\n      dup2\n      mstore\n      pop\n      dup2\n      mstore\n      0x20\n      add\n      mload(0x40)\n      dup1\n      0x60\n      add\n      0x40\n      mstore\n      dup1\n        /* \"contracts/1_Tictactoe.sol\":2344:2345  2 */\n      0x02\n        /* \"contracts/1_Tictactoe.sol\":2233:2424  uint8[3][8] memory winningMoves = [... */\n      0xff\n      and\n      dup2\n      mstore\n      0x20\n      add\n        /* \"contracts/1_Tictactoe.sol\":2346:2347  5 */\n      0x05\n        /* \"contracts/1_Tictactoe.sol\":2233:2424  uint8[3][8] memory winningMoves = [... */\n      0xff\n      and\n      dup2\n      mstore\n      0x20\n      add\n        /* \"contracts/1_Tictactoe.sol\":2348:2349  8 */\n      0x08\n        /* \"contracts/1_Tictactoe.sol\":2233:2424  uint8[3][8] memory winningMoves = [... */\n      0xff\n      and\n      dup2\n      mstore\n      pop\n      dup2\n      mstore\n      0x20\n      add\n      mload(0x40)\n      dup1\n      0x60\n      add\n      0x40\n      mstore\n      dup1\n        /* \"contracts/1_Tictactoe.sol\":2377:2378  0 */\n      0x00\n        /* \"contracts/1_Tictactoe.sol\":2233:2424  uint8[3][8] memory winningMoves = [... */\n      0xff\n      and\n      dup2\n      mstore\n      0x20\n      add\n        /* \"contracts/1_Tictactoe.sol\":2379:2380  4 */\n      0x04\n        /* \"contracts/1_Tictactoe.sol\":2233:2424  uint8[3][8] memory winningMoves = [... */\n      0xff\n      and\n      dup2\n      mstore\n      0x20\n      add\n        /* \"contracts/1_Tictactoe.sol\":2381:2382  8 */\n      0x08\n        /* \"contracts/1_Tictactoe.sol\":2233:2424  uint8[3][8] memory winningMoves = [... */\n      0xff\n      and\n      dup2\n      mstore\n      pop\n      dup2\n      mstore\n      0x20\n      add\n      mload(0x40)\n      dup1\n      0x60\n      add\n      0x40\n      mstore\n      dup1\n        /* \"contracts/1_Tictactoe.sol\":2385:2386  6 */\n      0x06\n        /* \"contracts/1_Tictactoe.sol\":2233:2424  uint8[3][8] memory winningMoves = [... */\n      0xff\n      and\n      dup2\n      mstore\n      0x20\n      add\n        /* \"contracts/1_Tictactoe.sol\":2387:2388  4 */\n      0x04\n        /* \"contracts/1_Tictactoe.sol\":2233:2424  uint8[3][8] memory winningMoves = [... */\n      0xff\n      and\n      dup2\n      mstore\n      0x20\n      add\n        /* \"contracts/1_Tictactoe.sol\":2389:2390  2 */\n      0x02\n        /* \"contracts/1_Tictactoe.sol\":2233:2424  uint8[3][8] memory winningMoves = [... */\n      0xff\n      and\n      dup2\n      mstore\n      pop\n      dup2\n      mstore\n      pop\n      swap1\n      pop\n        /* \"contracts/1_Tictactoe.sol\":2573:2580  uint8 i */\n      0x00\n        /* \"contracts/1_Tictactoe.sol\":2568:3118  for (uint8 i = 0; i < winningMoves.length; i++) {... */\n    tag_124:\n        /* \"contracts/1_Tictactoe.sol\":2590:2609  winningMoves.length */\n      0x08\n        /* \"contracts/1_Tictactoe.sol\":2586:2587  i */\n      dup2\n        /* \"contracts/1_Tictactoe.sol\":2586:2609  i < winningMoves.length */\n      0xff\n      and\n      lt\n        /* \"contracts/1_Tictactoe.sol\":2568:3118  for (uint8 i = 0; i < winningMoves.length; i++) {... */\n      iszero\n      tag_125\n      jumpi\n        /* \"contracts/1_Tictactoe.sol\":2630:2650  uint8[3] memory move */\n      0x00\n        /* \"contracts/1_Tictactoe.sol\":2653:2665  winningMoves */\n      dup3\n        /* \"contracts/1_Tictactoe.sol\":2666:2667  i */\n      dup3\n        /* \"contracts/1_Tictactoe.sol\":2653:2668  winningMoves[i] */\n      0xff\n      and\n      0x08\n      dup2\n      lt\n      tag_127\n      jumpi\n      tag_128\n      tag_73\n      jump\t// in\n    tag_128:\n    tag_127:\n      0x20\n      mul\n      add\n      mload\n        /* \"contracts/1_Tictactoe.sol\":2630:2668  uint8[3] memory move = winningMoves[i] */\n      swap1\n      pop\n        /* \"contracts/1_Tictactoe.sol\":2721:2726  board */\n      0x02\n        /* \"contracts/1_Tictactoe.sol\":2727:2731  move */\n      dup2\n        /* \"contracts/1_Tictactoe.sol\":2732:2733  1 */\n      0x01\n        /* \"contracts/1_Tictactoe.sol\":2727:2734  move[1] */\n      0x03\n      dup2\n      lt\n      tag_129\n      jumpi\n      tag_130\n      tag_73\n      jump\t// in\n    tag_130:\n    tag_129:\n      0x20\n      mul\n      add\n      mload\n        /* \"contracts/1_Tictactoe.sol\":2721:2735  board[move[1]] */\n      0xff\n      and\n      0x09\n      dup2\n      lt\n      tag_131\n      jumpi\n      tag_132\n      tag_73\n      jump\t// in\n    tag_132:\n    tag_131:\n      0x20\n      swap2\n      dup3\n      dup3\n      div\n      add\n      swap2\n      swap1\n      mod\n      swap1\n      sload\n      swap1\n      0x0100\n      exp\n      swap1\n      div\n      0xff\n      and\n        /* \"contracts/1_Tictactoe.sol\":2703:2735  board[move[0]] == board[move[1]] */\n      0x02\n      dup2\n      gt\n      iszero\n      tag_134\n      jumpi\n      tag_135\n      tag_46\n      jump\t// in\n    tag_135:\n    tag_134:\n        /* \"contracts/1_Tictactoe.sol\":2703:2708  board */\n      0x02\n        /* \"contracts/1_Tictactoe.sol\":2709:2713  move */\n      dup3\n        /* \"contracts/1_Tictactoe.sol\":2714:2715  0 */\n      0x00\n        /* \"contracts/1_Tictactoe.sol\":2709:2716  move[0] */\n      0x03\n      dup2\n      lt\n      tag_136\n      jumpi\n      tag_137\n      tag_73\n      jump\t// in\n    tag_137:\n    tag_136:\n      0x20\n      mul\n      add\n      mload\n        /* \"contracts/1_Tictactoe.sol\":2703:2717  board[move[0]] */\n      0xff\n      and\n      0x09\n      dup2\n      lt\n      tag_138\n      jumpi\n      tag_139\n      tag_73\n      jump\t// in\n    tag_139:\n    tag_138:\n      0x20\n      swap2\n      dup3\n      dup3\n      div\n      add\n      swap2\n      swap1\n      mod\n      swap1\n      sload\n      swap1\n      0x0100\n      exp\n      swap1\n      div\n      0xff\n      and\n        /* \"contracts/1_Tictactoe.sol\":2703:2735  board[move[0]] == board[move[1]] */\n      0x02\n      dup2\n      gt\n      iszero\n      tag_141\n      jumpi\n      tag_142\n      tag_46\n      jump\t// in\n    tag_142:\n    tag_141:\n      eq\n        /* \"contracts/1_Tictactoe.sol\":2703:2787  board[move[0]] == board[move[1]]... */\n      dup1\n      iszero\n      tag_143\n      jumpi\n      pop\n        /* \"contracts/1_Tictactoe.sol\":2773:2778  board */\n      0x02\n        /* \"contracts/1_Tictactoe.sol\":2779:2783  move */\n      dup2\n        /* \"contracts/1_Tictactoe.sol\":2784:2785  2 */\n      0x02\n        /* \"contracts/1_Tictactoe.sol\":2779:2786  move[2] */\n      0x03\n      dup2\n      lt\n      tag_144\n      jumpi\n      tag_145\n      tag_73\n      jump\t// in\n    tag_145:\n    tag_144:\n      0x20\n      mul\n      add\n      mload\n        /* \"contracts/1_Tictactoe.sol\":2773:2787  board[move[2]] */\n      0xff\n      and\n      0x09\n      dup2\n      lt\n      tag_146\n      jumpi\n      tag_147\n      tag_73\n      jump\t// in\n    tag_147:\n    tag_146:\n      0x20\n      swap2\n      dup3\n      dup3\n      div\n      add\n      swap2\n      swap1\n      mod\n      swap1\n      sload\n      swap1\n      0x0100\n      exp\n      swap1\n      div\n      0xff\n      and\n        /* \"contracts/1_Tictactoe.sol\":2755:2787  board[move[1]] == board[move[2]] */\n      0x02\n      dup2\n      gt\n      iszero\n      tag_149\n      jumpi\n      tag_150\n      tag_46\n      jump\t// in\n    tag_150:\n    tag_149:\n        /* \"contracts/1_Tictactoe.sol\":2755:2760  board */\n      0x02\n        /* \"contracts/1_Tictactoe.sol\":2761:2765  move */\n      dup3\n        /* \"contracts/1_Tictactoe.sol\":2766:2767  1 */\n      0x01\n        /* \"contracts/1_Tictactoe.sol\":2761:2768  move[1] */\n      0x03\n      dup2\n      lt\n      tag_151\n      jumpi\n      tag_152\n      tag_73\n      jump\t// in\n    tag_152:\n    tag_151:\n      0x20\n      mul\n      add\n      mload\n        /* \"contracts/1_Tictactoe.sol\":2755:2769  board[move[1]] */\n      0xff\n      and\n      0x09\n      dup2\n      lt\n      tag_153\n      jumpi\n      tag_154\n      tag_73\n      jump\t// in\n    tag_154:\n    tag_153:\n      0x20\n      swap2\n      dup3\n      dup3\n      div\n      add\n      swap2\n      swap1\n      mod\n      swap1\n      sload\n      swap1\n      0x0100\n      exp\n      swap1\n      div\n      0xff\n      and\n        /* \"contracts/1_Tictactoe.sol\":2755:2787  board[move[1]] == board[move[2]] */\n      0x02\n      dup2\n      gt\n      iszero\n      tag_156\n      jumpi\n      tag_157\n      tag_46\n      jump\t// in\n    tag_157:\n    tag_156:\n      eq\n        /* \"contracts/1_Tictactoe.sol\":2703:2787  board[move[0]] == board[move[1]]... */\n    tag_143:\n        /* \"contracts/1_Tictactoe.sol\":2703:2834  board[move[0]] == board[move[1]]... */\n      dup1\n      iszero\n      tag_158\n      jumpi\n      pop\n        /* \"contracts/1_Tictactoe.sol\":2825:2834  Move.None */\n      0x02\n        /* \"contracts/1_Tictactoe.sol\":2807:2834  board[move[2]] != Move.None */\n      dup1\n      dup2\n      gt\n      iszero\n      tag_159\n      jumpi\n      tag_160\n      tag_46\n      jump\t// in\n    tag_160:\n    tag_159:\n        /* \"contracts/1_Tictactoe.sol\":2807:2812  board */\n      0x02\n        /* \"contracts/1_Tictactoe.sol\":2813:2817  move */\n      dup3\n        /* \"contracts/1_Tictactoe.sol\":2818:2819  2 */\n      0x02\n        /* \"contracts/1_Tictactoe.sol\":2813:2820  move[2] */\n      0x03\n      dup2\n      lt\n      tag_161\n      jumpi\n      tag_162\n      tag_73\n      jump\t// in\n    tag_162:\n    tag_161:\n      0x20\n      mul\n      add\n      mload\n        /* \"contracts/1_Tictactoe.sol\":2807:2821  board[move[2]] */\n      0xff\n      and\n      0x09\n      dup2\n      lt\n      tag_163\n      jumpi\n      tag_164\n      tag_73\n      jump\t// in\n    tag_164:\n    tag_163:\n      0x20\n      swap2\n      dup3\n      dup3\n      div\n      add\n      swap2\n      swap1\n      mod\n      swap1\n      sload\n      swap1\n      0x0100\n      exp\n      swap1\n      div\n      0xff\n      and\n        /* \"contracts/1_Tictactoe.sol\":2807:2834  board[move[2]] != Move.None */\n      0x02\n      dup2\n      gt\n      iszero\n      tag_166\n      jumpi\n      tag_167\n      tag_46\n      jump\t// in\n    tag_167:\n    tag_166:\n      eq\n      iszero\n        /* \"contracts/1_Tictactoe.sol\":2703:2834  board[move[0]] == board[move[1]]... */\n    tag_158:\n        /* \"contracts/1_Tictactoe.sol\":2682:3108  if (... */\n      iszero\n      tag_168\n      jumpi\n        /* \"contracts/1_Tictactoe.sol\":2889:2901  Move.Player1 */\n      0x00\n        /* \"contracts/1_Tictactoe.sol\":2871:2901  board[move[0]] == Move.Player1 */\n      0x02\n      dup2\n      gt\n      iszero\n      tag_169\n      jumpi\n      tag_170\n      tag_46\n      jump\t// in\n    tag_170:\n    tag_169:\n        /* \"contracts/1_Tictactoe.sol\":2871:2876  board */\n      0x02\n        /* \"contracts/1_Tictactoe.sol\":2877:2881  move */\n      dup3\n        /* \"contracts/1_Tictactoe.sol\":2882:2883  0 */\n      0x00\n        /* \"contracts/1_Tictactoe.sol\":2877:2884  move[0] */\n      0x03\n      dup2\n      lt\n      tag_171\n      jumpi\n      tag_172\n      tag_73\n      jump\t// in\n    tag_172:\n    tag_171:\n      0x20\n      mul\n      add\n      mload\n        /* \"contracts/1_Tictactoe.sol\":2871:2885  board[move[0]] */\n      0xff\n      and\n      0x09\n      dup2\n      lt\n      tag_173\n      jumpi\n      tag_174\n      tag_73\n      jump\t// in\n    tag_174:\n    tag_173:\n      0x20\n      swap2\n      dup3\n      dup3\n      div\n      add\n      swap2\n      swap1\n      mod\n      swap1\n      sload\n      swap1\n      0x0100\n      exp\n      swap1\n      div\n      0xff\n      and\n        /* \"contracts/1_Tictactoe.sol\":2871:2901  board[move[0]] == Move.Player1 */\n      0x02\n      dup2\n      gt\n      iszero\n      tag_176\n      jumpi\n      tag_177\n      tag_46\n      jump\t// in\n    tag_177:\n    tag_176:\n      eq\n        /* \"contracts/1_Tictactoe.sol\":2867:2972  if (board[move[0]] == Move.Player1) {... */\n      iszero\n      tag_178\n      jumpi\n        /* \"contracts/1_Tictactoe.sol\":2932:2953  GameStatus.WinPlayer1 */\n      0x01\n        /* \"contracts/1_Tictactoe.sol\":2925:2953  return GameStatus.WinPlayer1 */\n      swap4\n      pop\n      pop\n      pop\n      pop\n      jump(tag_123)\n        /* \"contracts/1_Tictactoe.sol\":2867:2972  if (board[move[0]] == Move.Player1) {... */\n    tag_178:\n        /* \"contracts/1_Tictactoe.sol\":3011:3023  Move.Player2 */\n      0x01\n        /* \"contracts/1_Tictactoe.sol\":2993:3023  board[move[0]] == Move.Player2 */\n      0x02\n      dup2\n      gt\n      iszero\n      tag_179\n      jumpi\n      tag_180\n      tag_46\n      jump\t// in\n    tag_180:\n    tag_179:\n        /* \"contracts/1_Tictactoe.sol\":2993:2998  board */\n      0x02\n        /* \"contracts/1_Tictactoe.sol\":2999:3003  move */\n      dup3\n        /* \"contracts/1_Tictactoe.sol\":3004:3005  0 */\n      0x00\n        /* \"contracts/1_Tictactoe.sol\":2999:3006  move[0] */\n      0x03\n      dup2\n      lt\n      tag_181\n      jumpi\n      tag_182\n      tag_73\n      jump\t// in\n    tag_182:\n    tag_181:\n      0x20\n      mul\n      add\n      mload\n        /* \"contracts/1_Tictactoe.sol\":2993:3007  board[move[0]] */\n      0xff\n      and\n      0x09\n      dup2\n      lt\n      tag_183\n      jumpi\n      tag_184\n      tag_73\n      jump\t// in\n    tag_184:\n    tag_183:\n      0x20\n      swap2\n      dup3\n      dup3\n      div\n      add\n      swap2\n      swap1\n      mod\n      swap1\n      sload\n      swap1\n      0x0100\n      exp\n      swap1\n      div\n      0xff\n      and\n        /* \"contracts/1_Tictactoe.sol\":2993:3023  board[move[0]] == Move.Player2 */\n      0x02\n      dup2\n      gt\n      iszero\n      tag_186\n      jumpi\n      tag_187\n      tag_46\n      jump\t// in\n    tag_187:\n    tag_186:\n      eq\n        /* \"contracts/1_Tictactoe.sol\":2989:3094  if (board[move[0]] == Move.Player2) {... */\n      iszero\n      tag_188\n      jumpi\n        /* \"contracts/1_Tictactoe.sol\":3054:3075  GameStatus.WinPlayer2 */\n      0x02\n        /* \"contracts/1_Tictactoe.sol\":3047:3075  return GameStatus.WinPlayer2 */\n      swap4\n      pop\n      pop\n      pop\n      pop\n      jump(tag_123)\n        /* \"contracts/1_Tictactoe.sol\":2989:3094  if (board[move[0]] == Move.Player2) {... */\n    tag_188:\n        /* \"contracts/1_Tictactoe.sol\":2682:3108  if (... */\n    tag_168:\n        /* \"contracts/1_Tictactoe.sol\":2616:3118  {... */\n      pop\n        /* \"contracts/1_Tictactoe.sol\":2611:2614  i++ */\n      dup1\n      dup1\n      tag_189\n      swap1\n      tag_190\n      jump\t// in\n    tag_189:\n      swap2\n      pop\n      pop\n        /* \"contracts/1_Tictactoe.sol\":2568:3118  for (uint8 i = 0; i < winningMoves.length; i++) {... */\n      jump(tag_124)\n    tag_125:\n      pop\n        /* \"contracts/1_Tictactoe.sol\":3132:3145  isBoardFull() */\n      tag_191\n        /* \"contracts/1_Tictactoe.sol\":3132:3143  isBoardFull */\n      tag_192\n        /* \"contracts/1_Tictactoe.sol\":3132:3145  isBoardFull() */\n      jump\t// in\n    tag_191:\n        /* \"contracts/1_Tictactoe.sol\":3128:3194  if (isBoardFull()) {... */\n      iszero\n      tag_193\n      jumpi\n        /* \"contracts/1_Tictactoe.sol\":3168:3183  GameStatus.Draw */\n      0x00\n        /* \"contracts/1_Tictactoe.sol\":3161:3183  return GameStatus.Draw */\n      swap2\n      pop\n      pop\n      jump(tag_123)\n        /* \"contracts/1_Tictactoe.sol\":3128:3194  if (isBoardFull()) {... */\n    tag_193:\n        /* \"contracts/1_Tictactoe.sol\":3211:3226  GameStatus.None */\n      0x03\n        /* \"contracts/1_Tictactoe.sol\":3204:3226  return GameStatus.None */\n      swap2\n      pop\n      pop\n        /* \"contracts/1_Tictactoe.sol\":2165:3233  function checkStatus() private view returns (GameStatus) {... */\n    tag_123:\n      swap1\n      jump\t// out\n        /* \"contracts/1_Tictactoe.sol\":1892:2105  function isBoardFull() private view returns (bool) {... */\n    tag_192:\n        /* \"contracts/1_Tictactoe.sol\":1937:1941  bool */\n      0x00\n        /* \"contracts/1_Tictactoe.sol\":1958:1964  uint i */\n      dup1\n        /* \"contracts/1_Tictactoe.sol\":1967:1968  0 */\n      0x00\n        /* \"contracts/1_Tictactoe.sol\":1958:1968  uint i = 0 */\n      swap1\n      pop\n        /* \"contracts/1_Tictactoe.sol\":1953:2078  for (uint i = 0; i < 9; i++) {... */\n    tag_195:\n        /* \"contracts/1_Tictactoe.sol\":1974:1975  9 */\n      0x09\n        /* \"contracts/1_Tictactoe.sol\":1970:1971  i */\n      dup2\n        /* \"contracts/1_Tictactoe.sol\":1970:1975  i < 9 */\n      lt\n        /* \"contracts/1_Tictactoe.sol\":1953:2078  for (uint i = 0; i < 9; i++) {... */\n      iszero\n      tag_196\n      jumpi\n        /* \"contracts/1_Tictactoe.sol\":2012:2021  Move.None */\n      0x02\n        /* \"contracts/1_Tictactoe.sol\":2000:2021  board[i] == Move.None */\n      dup1\n      dup2\n      gt\n      iszero\n      tag_198\n      jumpi\n      tag_199\n      tag_46\n      jump\t// in\n    tag_199:\n    tag_198:\n        /* \"contracts/1_Tictactoe.sol\":2000:2005  board */\n      0x02\n        /* \"contracts/1_Tictactoe.sol\":2006:2007  i */\n      dup3\n        /* \"contracts/1_Tictactoe.sol\":2000:2008  board[i] */\n      0x09\n      dup2\n      lt\n      tag_200\n      jumpi\n      tag_201\n      tag_73\n      jump\t// in\n    tag_201:\n    tag_200:\n      0x20\n      swap2\n      dup3\n      dup3\n      div\n      add\n      swap2\n      swap1\n      mod\n      swap1\n      sload\n      swap1\n      0x0100\n      exp\n      swap1\n      div\n      0xff\n      and\n        /* \"contracts/1_Tictactoe.sol\":2000:2021  board[i] == Move.None */\n      0x02\n      dup2\n      gt\n      iszero\n      tag_203\n      jumpi\n      tag_204\n      tag_46\n      jump\t// in\n    tag_204:\n    tag_203:\n      eq\n        /* \"contracts/1_Tictactoe.sol\":1996:2068  if (board[i] == Move.None) {... */\n      iszero\n      tag_205\n      jumpi\n        /* \"contracts/1_Tictactoe.sol\":2048:2053  false */\n      0x00\n        /* \"contracts/1_Tictactoe.sol\":2041:2053  return false */\n      swap2\n      pop\n      pop\n      jump(tag_194)\n        /* \"contracts/1_Tictactoe.sol\":1996:2068  if (board[i] == Move.None) {... */\n    tag_205:\n        /* \"contracts/1_Tictactoe.sol\":1977:1980  i++ */\n      dup1\n      dup1\n      tag_206\n      swap1\n      tag_207\n      jump\t// in\n    tag_206:\n      swap2\n      pop\n      pop\n        /* \"contracts/1_Tictactoe.sol\":1953:2078  for (uint i = 0; i < 9; i++) {... */\n      jump(tag_195)\n    tag_196:\n      pop\n        /* \"contracts/1_Tictactoe.sol\":2094:2098  true */\n      0x01\n        /* \"contracts/1_Tictactoe.sol\":2087:2098  return true */\n      swap1\n      pop\n        /* \"contracts/1_Tictactoe.sol\":1892:2105  function isBoardFull() private view returns (bool) {... */\n    tag_194:\n      swap1\n      jump\t// out\n    tag_40:\n      mload(0x40)\n      dup1\n      0x0120\n      add\n      0x40\n      mstore\n      dup1\n      0x09\n      swap1\n      0x20\n      dup3\n      mul\n      dup1\n      calldatasize\n      dup4\n      calldatacopy\n      dup1\n      dup3\n      add\n      swap2\n      pop\n      pop\n      swap1\n      pop\n      pop\n      swap1\n      jump\t// out\n    tag_104:\n      pop\n      0x00\n      swap1\n      sstore\n      jump\t// out\n        /* \"#utility.yul\":7:142   */\n    tag_209:\n        /* \"#utility.yul\":51:56   */\n      0x00\n        /* \"#utility.yul\":89:95   */\n      dup2\n        /* \"#utility.yul\":76:96   */\n      calldataload\n        /* \"#utility.yul\":67:96   */\n      swap1\n      pop\n        /* \"#utility.yul\":105:136   */\n      tag_211\n        /* \"#utility.yul\":130:135   */\n      dup2\n        /* \"#utility.yul\":105:136   */\n      tag_212\n      jump\t// in\n    tag_211:\n        /* \"#utility.yul\":7:142   */\n      swap3\n      swap2\n      pop\n      pop\n      jump\t// out\n        /* \"#utility.yul\":148:473   */\n    tag_22:\n        /* \"#utility.yul\":205:211   */\n      0x00\n        /* \"#utility.yul\":254:256   */\n      0x20\n        /* \"#utility.yul\":242:251   */\n      dup3\n        /* \"#utility.yul\":233:240   */\n      dup5\n        /* \"#utility.yul\":229:252   */\n      sub\n        /* \"#utility.yul\":225:257   */\n      slt\n        /* \"#utility.yul\":222:341   */\n      iszero\n      tag_214\n      jumpi\n        /* \"#utility.yul\":260:339   */\n      tag_215\n      tag_216\n      jump\t// in\n    tag_215:\n        /* \"#utility.yul\":222:341   */\n    tag_214:\n        /* \"#utility.yul\":380:381   */\n      0x00\n        /* \"#utility.yul\":405:456   */\n      tag_217\n        /* \"#utility.yul\":448:455   */\n      dup5\n        /* \"#utility.yul\":439:445   */\n      dup3\n        /* \"#utility.yul\":428:437   */\n      dup6\n        /* \"#utility.yul\":424:446   */\n      add\n        /* \"#utility.yul\":405:456   */\n      tag_209\n      jump\t// in\n    tag_217:\n        /* \"#utility.yul\":395:456   */\n      swap2\n      pop\n        /* \"#utility.yul\":351:466   */\n      pop\n        /* \"#utility.yul\":148:473   */\n      swap3\n      swap2\n      pop\n      pop\n      jump\t// out\n        /* \"#utility.yul\":479:666   */\n    tag_218:\n        /* \"#utility.yul\":552:562   */\n      0x00\n        /* \"#utility.yul\":573:623   */\n      tag_220\n        /* \"#utility.yul\":619:622   */\n      dup4\n        /* \"#utility.yul\":611:617   */\n      dup4\n        /* \"#utility.yul\":573:623   */\n      tag_221\n      jump\t// in\n    tag_220:\n        /* \"#utility.yul\":655:659   */\n      0x20\n        /* \"#utility.yul\":650:653   */\n      dup4\n        /* \"#utility.yul\":646:660   */\n      add\n        /* \"#utility.yul\":632:660   */\n      swap1\n      pop\n        /* \"#utility.yul\":479:666   */\n      swap3\n      swap2\n      pop\n      pop\n      jump\t// out\n        /* \"#utility.yul\":672:790   */\n    tag_222:\n        /* \"#utility.yul\":759:783   */\n      tag_224\n        /* \"#utility.yul\":777:782   */\n      dup2\n        /* \"#utility.yul\":759:783   */\n      tag_225\n      jump\t// in\n    tag_224:\n        /* \"#utility.yul\":754:757   */\n      dup3\n        /* \"#utility.yul\":747:784   */\n      mstore\n        /* \"#utility.yul\":672:790   */\n      pop\n      pop\n      jump\t// out\n        /* \"#utility.yul\":838:1556   */\n    tag_226:\n        /* \"#utility.yul\":978:1036   */\n      tag_228\n        /* \"#utility.yul\":1030:1035   */\n      dup2\n        /* \"#utility.yul\":978:1036   */\n      tag_229\n      jump\t// in\n    tag_228:\n        /* \"#utility.yul\":1052:1134   */\n      tag_230\n        /* \"#utility.yul\":1127:1133   */\n      dup2\n        /* \"#utility.yul\":1122:1125   */\n      dup5\n        /* \"#utility.yul\":1052:1134   */\n      tag_231\n      jump\t// in\n    tag_230:\n        /* \"#utility.yul\":1045:1134   */\n      swap3\n      pop\n        /* \"#utility.yul\":1158:1218   */\n      tag_232\n        /* \"#utility.yul\":1212:1217   */\n      dup3\n        /* \"#utility.yul\":1158:1218   */\n      tag_233\n      jump\t// in\n    tag_232:\n        /* \"#utility.yul\":1241:1248   */\n      dup1\n        /* \"#utility.yul\":1272:1273   */\n      0x00\n        /* \"#utility.yul\":1257:1549   */\n    tag_234:\n        /* \"#utility.yul\":1282:1288   */\n      dup4\n        /* \"#utility.yul\":1279:1280   */\n      dup2\n        /* \"#utility.yul\":1276:1289   */\n      lt\n        /* \"#utility.yul\":1257:1549   */\n      iszero\n      tag_236\n      jumpi\n        /* \"#utility.yul\":1358:1364   */\n      dup2\n        /* \"#utility.yul\":1352:1365   */\n      mload\n        /* \"#utility.yul\":1385:1452   */\n      tag_237\n        /* \"#utility.yul\":1448:1451   */\n      dup8\n        /* \"#utility.yul\":1433:1446   */\n      dup3\n        /* \"#utility.yul\":1385:1452   */\n      tag_218\n      jump\t// in\n    tag_237:\n        /* \"#utility.yul\":1378:1452   */\n      swap7\n      pop\n        /* \"#utility.yul\":1475:1539   */\n      tag_238\n        /* \"#utility.yul\":1532:1538   */\n      dup4\n        /* \"#utility.yul\":1475:1539   */\n      tag_239\n      jump\t// in\n    tag_238:\n        /* \"#utility.yul\":1465:1539   */\n      swap3\n      pop\n        /* \"#utility.yul\":1317:1549   */\n      pop\n        /* \"#utility.yul\":1304:1305   */\n      0x01\n        /* \"#utility.yul\":1301:1302   */\n      dup2\n        /* \"#utility.yul\":1297:1306   */\n      add\n        /* \"#utility.yul\":1292:1306   */\n      swap1\n      pop\n        /* \"#utility.yul\":1257:1549   */\n      jump(tag_234)\n    tag_236:\n        /* \"#utility.yul\":1261:1275   */\n      pop\n        /* \"#utility.yul\":954:1556   */\n      pop\n      pop\n      pop\n        /* \"#utility.yul\":838:1556   */\n      pop\n      pop\n      jump\t// out\n        /* \"#utility.yul\":1604:15184   */\n    tag_240:\n        /* \"#utility.yul\":1741:1796   */\n      tag_242\n        /* \"#utility.yul\":1790:1795   */\n      dup2\n        /* \"#utility.yul\":1741:1796   */\n      tag_243\n      jump\t// in\n    tag_242:\n        /* \"#utility.yul\":1812:1894   */\n      tag_244\n        /* \"#utility.yul\":1887:1893   */\n      dup2\n        /* \"#utility.yul\":1882:1885   */\n      dup5\n        /* \"#utility.yul\":1812:1894   */\n      tag_231\n      jump\t// in\n    tag_244:\n        /* \"#utility.yul\":1805:1894   */\n      swap3\n      pop\n        /* \"#utility.yul\":1922:1925   */\n      dup3\n        /* \"#utility.yul\":1948:2005   */\n      tag_245\n        /* \"#utility.yul\":1999:2004   */\n      dup4\n        /* \"#utility.yul\":1948:2005   */\n      tag_246\n      jump\t// in\n    tag_245:\n        /* \"#utility.yul\":2033:2034   */\n      0x00\n        /* \"#utility.yul\":2046:2047   */\n      dup1\n        /* \"#utility.yul\":2043:7346   */\n      iszero\n      tag_247\n      jumpi\n        /* \"#utility.yul\":2110:7336   */\n    tag_248:\n        /* \"#utility.yul\":2151:2157   */\n      dup4\n        /* \"#utility.yul\":2146:2147   */\n      0x01\n        /* \"#utility.yul\":2142:2144   */\n      0x20\n        /* \"#utility.yul\":2138:2148   */\n      sub\n        /* \"#utility.yul\":2125:2136   */\n      dup3\n        /* \"#utility.yul\":2121:2149   */\n      add\n        /* \"#utility.yul\":2118:2158   */\n      lt\n        /* \"#utility.yul\":2110:7336   */\n      iszero\n      tag_250\n      jumpi\n        /* \"#utility.yul\":2259:2265   */\n      dup2\n        /* \"#utility.yul\":2253:2266   */\n      sload\n        /* \"#utility.yul\":2284:2384   */\n      tag_251\n        /* \"#utility.yul\":2380:2383   */\n      dup8\n        /* \"#utility.yul\":2322:2378   */\n      tag_252\n        /* \"#utility.yul\":2373:2377   */\n      dup4\n        /* \"#utility.yul\":2322:2378   */\n      tag_253\n      jump\t// in\n    tag_252:\n        /* \"#utility.yul\":2284:2384   */\n      tag_221\n      jump\t// in\n    tag_251:\n        /* \"#utility.yul\":2417:2421   */\n      0x20\n        /* \"#utility.yul\":2412:2415   */\n      dup8\n        /* \"#utility.yul\":2408:2422   */\n      add\n        /* \"#utility.yul\":2401:2422   */\n      swap7\n      pop\n        /* \"#utility.yul\":2440:2540   */\n      tag_254\n        /* \"#utility.yul\":2536:2539   */\n      dup8\n        /* \"#utility.yul\":2478:2534   */\n      tag_255\n        /* \"#utility.yul\":2529:2533   */\n      dup4\n        /* \"#utility.yul\":2478:2534   */\n      tag_256\n      jump\t// in\n    tag_255:\n        /* \"#utility.yul\":2440:2540   */\n      tag_221\n      jump\t// in\n    tag_254:\n        /* \"#utility.yul\":2573:2577   */\n      0x20\n        /* \"#utility.yul\":2568:2571   */\n      dup8\n        /* \"#utility.yul\":2564:2578   */\n      add\n        /* \"#utility.yul\":2557:2578   */\n      swap7\n      pop\n        /* \"#utility.yul\":2596:2696   */\n      tag_257\n        /* \"#utility.yul\":2692:2695   */\n      dup8\n        /* \"#utility.yul\":2634:2690   */\n      tag_258\n        /* \"#utility.yul\":2685:2689   */\n      dup4\n        /* \"#utility.yul\":2634:2690   */\n      tag_259\n      jump\t// in\n    tag_258:\n        /* \"#utility.yul\":2596:2696   */\n      tag_221\n      jump\t// in\n    tag_257:\n        /* \"#utility.yul\":2729:2733   */\n      0x20\n        /* \"#utility.yul\":2724:2727   */\n      dup8\n        /* \"#utility.yul\":2720:2734   */\n      add\n        /* \"#utility.yul\":2713:2734   */\n      swap7\n      pop\n        /* \"#utility.yul\":2752:2852   */\n      tag_260\n        /* \"#utility.yul\":2848:2851   */\n      dup8\n        /* \"#utility.yul\":2790:2846   */\n      tag_261\n        /* \"#utility.yul\":2841:2845   */\n      dup4\n        /* \"#utility.yul\":2790:2846   */\n      tag_262\n      jump\t// in\n    tag_261:\n        /* \"#utility.yul\":2752:2852   */\n      tag_221\n      jump\t// in\n    tag_260:\n        /* \"#utility.yul\":2885:2889   */\n      0x20\n        /* \"#utility.yul\":2880:2883   */\n      dup8\n        /* \"#utility.yul\":2876:2890   */\n      add\n        /* \"#utility.yul\":2869:2890   */\n      swap7\n      pop\n        /* \"#utility.yul\":2908:3008   */\n      tag_263\n        /* \"#utility.yul\":3004:3007   */\n      dup8\n        /* \"#utility.yul\":2946:3002   */\n      tag_264\n        /* \"#utility.yul\":2997:3001   */\n      dup4\n        /* \"#utility.yul\":2946:3002   */\n      tag_265\n      jump\t// in\n    tag_264:\n        /* \"#utility.yul\":2908:3008   */\n      tag_221\n      jump\t// in\n    tag_263:\n        /* \"#utility.yul\":3041:3045   */\n      0x20\n        /* \"#utility.yul\":3036:3039   */\n      dup8\n        /* \"#utility.yul\":3032:3046   */\n      add\n        /* \"#utility.yul\":3025:3046   */\n      swap7\n      pop\n        /* \"#utility.yul\":3064:3164   */\n      tag_266\n        /* \"#utility.yul\":3160:3163   */\n      dup8\n        /* \"#utility.yul\":3102:3158   */\n      tag_267\n        /* \"#utility.yul\":3153:3157   */\n      dup4\n        /* \"#utility.yul\":3102:3158   */\n      tag_268\n      jump\t// in\n    tag_267:\n        /* \"#utility.yul\":3064:3164   */\n      tag_221\n      jump\t// in\n    tag_266:\n        /* \"#utility.yul\":3197:3201   */\n      0x20\n        /* \"#utility.yul\":3192:3195   */\n      dup8\n        /* \"#utility.yul\":3188:3202   */\n      add\n        /* \"#utility.yul\":3181:3202   */\n      swap7\n      pop\n        /* \"#utility.yul\":3220:3320   */\n      tag_269\n        /* \"#utility.yul\":3316:3319   */\n      dup8\n        /* \"#utility.yul\":3258:3314   */\n      tag_270\n        /* \"#utility.yul\":3309:3313   */\n      dup4\n        /* \"#utility.yul\":3258:3314   */\n      tag_271\n      jump\t// in\n    tag_270:\n        /* \"#utility.yul\":3220:3320   */\n      tag_221\n      jump\t// in\n    tag_269:\n        /* \"#utility.yul\":3353:3357   */\n      0x20\n        /* \"#utility.yul\":3348:3351   */\n      dup8\n        /* \"#utility.yul\":3344:3358   */\n      add\n        /* \"#utility.yul\":3337:3358   */\n      swap7\n      pop\n        /* \"#utility.yul\":3376:3476   */\n      tag_272\n        /* \"#utility.yul\":3472:3475   */\n      dup8\n        /* \"#utility.yul\":3414:3470   */\n      tag_273\n        /* \"#utility.yul\":3465:3469   */\n      dup4\n        /* \"#utility.yul\":3414:3470   */\n      tag_274\n      jump\t// in\n    tag_273:\n        /* \"#utility.yul\":3376:3476   */\n      tag_221\n      jump\t// in\n    tag_272:\n        /* \"#utility.yul\":3509:3513   */\n      0x20\n        /* \"#utility.yul\":3504:3507   */\n      dup8\n        /* \"#utility.yul\":3500:3514   */\n      add\n        /* \"#utility.yul\":3493:3514   */\n      swap7\n      pop\n        /* \"#utility.yul\":3532:3632   */\n      tag_275\n        /* \"#utility.yul\":3628:3631   */\n      dup8\n        /* \"#utility.yul\":3570:3626   */\n      tag_276\n        /* \"#utility.yul\":3621:3625   */\n      dup4\n        /* \"#utility.yul\":3570:3626   */\n      tag_277\n      jump\t// in\n    tag_276:\n        /* \"#utility.yul\":3532:3632   */\n      tag_221\n      jump\t// in\n    tag_275:\n        /* \"#utility.yul\":3665:3669   */\n      0x20\n        /* \"#utility.yul\":3660:3663   */\n      dup8\n        /* \"#utility.yul\":3656:3670   */\n      add\n        /* \"#utility.yul\":3649:3670   */\n      swap7\n      pop\n        /* \"#utility.yul\":3688:3788   */\n      tag_278\n        /* \"#utility.yul\":3784:3787   */\n      dup8\n        /* \"#utility.yul\":3726:3782   */\n      tag_279\n        /* \"#utility.yul\":3777:3781   */\n      dup4\n        /* \"#utility.yul\":3726:3782   */\n      tag_280\n      jump\t// in\n    tag_279:\n        /* \"#utility.yul\":3688:3788   */\n      tag_221\n      jump\t// in\n    tag_278:\n        /* \"#utility.yul\":3821:3825   */\n      0x20\n        /* \"#utility.yul\":3816:3819   */\n      dup8\n        /* \"#utility.yul\":3812:3826   */\n      add\n        /* \"#utility.yul\":3805:3826   */\n      swap7\n      pop\n        /* \"#utility.yul\":3844:3945   */\n      tag_281\n        /* \"#utility.yul\":3941:3944   */\n      dup8\n        /* \"#utility.yul\":3882:3939   */\n      tag_282\n        /* \"#utility.yul\":3934:3938   */\n      dup4\n        /* \"#utility.yul\":3882:3939   */\n      tag_283\n      jump\t// in\n    tag_282:\n        /* \"#utility.yul\":3844:3945   */\n      tag_221\n      jump\t// in\n    tag_281:\n        /* \"#utility.yul\":3978:3982   */\n      0x20\n        /* \"#utility.yul\":3973:3976   */\n      dup8\n        /* \"#utility.yul\":3969:3983   */\n      add\n        /* \"#utility.yul\":3962:3983   */\n      swap7\n      pop\n        /* \"#utility.yul\":4001:4102   */\n      tag_284\n        /* \"#utility.yul\":4098:4101   */\n      dup8\n        /* \"#utility.yul\":4039:4096   */\n      tag_285\n        /* \"#utility.yul\":4091:4095   */\n      dup4\n        /* \"#utility.yul\":4039:4096   */\n      tag_286\n      jump\t// in\n    tag_285:\n        /* \"#utility.yul\":4001:4102   */\n      tag_221\n      jump\t// in\n    tag_284:\n        /* \"#utility.yul\":4135:4139   */\n      0x20\n        /* \"#utility.yul\":4130:4133   */\n      dup8\n        /* \"#utility.yul\":4126:4140   */\n      add\n        /* \"#utility.yul\":4119:4140   */\n      swap7\n      pop\n        /* \"#utility.yul\":4158:4259   */\n      tag_287\n        /* \"#utility.yul\":4255:4258   */\n      dup8\n        /* \"#utility.yul\":4196:4253   */\n      tag_288\n        /* \"#utility.yul\":4248:4252   */\n      dup4\n        /* \"#utility.yul\":4196:4253   */\n      tag_289\n      jump\t// in\n    tag_288:\n        /* \"#utility.yul\":4158:4259   */\n      tag_221\n      jump\t// in\n    tag_287:\n        /* \"#utility.yul\":4292:4296   */\n      0x20\n        /* \"#utility.yul\":4287:4290   */\n      dup8\n        /* \"#utility.yul\":4283:4297   */\n      add\n        /* \"#utility.yul\":4276:4297   */\n      swap7\n      pop\n        /* \"#utility.yul\":4315:4416   */\n      tag_290\n        /* \"#utility.yul\":4412:4415   */\n      dup8\n        /* \"#utility.yul\":4353:4410   */\n      tag_291\n        /* \"#utility.yul\":4405:4409   */\n      dup4\n        /* \"#utility.yul\":4353:4410   */\n      tag_292\n      jump\t// in\n    tag_291:\n        /* \"#utility.yul\":4315:4416   */\n      tag_221\n      jump\t// in\n    tag_290:\n        /* \"#utility.yul\":4449:4453   */\n      0x20\n        /* \"#utility.yul\":4444:4447   */\n      dup8\n        /* \"#utility.yul\":4440:4454   */\n      add\n        /* \"#utility.yul\":4433:4454   */\n      swap7\n      pop\n        /* \"#utility.yul\":4472:4573   */\n      tag_293\n        /* \"#utility.yul\":4569:4572   */\n      dup8\n        /* \"#utility.yul\":4510:4567   */\n      tag_294\n        /* \"#utility.yul\":4562:4566   */\n      dup4\n        /* \"#utility.yul\":4510:4567   */\n      tag_295\n      jump\t// in\n    tag_294:\n        /* \"#utility.yul\":4472:4573   */\n      tag_221\n      jump\t// in\n    tag_293:\n        /* \"#utility.yul\":4606:4610   */\n      0x20\n        /* \"#utility.yul\":4601:4604   */\n      dup8\n        /* \"#utility.yul\":4597:4611   */\n      add\n        /* \"#utility.yul\":4590:4611   */\n      swap7\n      pop\n        /* \"#utility.yul\":4629:4730   */\n      tag_296\n        /* \"#utility.yul\":4726:4729   */\n      dup8\n        /* \"#utility.yul\":4667:4724   */\n      tag_297\n        /* \"#utility.yul\":4719:4723   */\n      dup4\n        /* \"#utility.yul\":4667:4724   */\n      tag_298\n      jump\t// in\n    tag_297:\n        /* \"#utility.yul\":4629:4730   */\n      tag_221\n      jump\t// in\n    tag_296:\n        /* \"#utility.yul\":4763:4767   */\n      0x20\n        /* \"#utility.yul\":4758:4761   */\n      dup8\n        /* \"#utility.yul\":4754:4768   */\n      add\n        /* \"#utility.yul\":4747:4768   */\n      swap7\n      pop\n        /* \"#utility.yul\":4786:4887   */\n      tag_299\n        /* \"#utility.yul\":4883:4886   */\n      dup8\n        /* \"#utility.yul\":4824:4881   */\n      tag_300\n        /* \"#utility.yul\":4876:4880   */\n      dup4\n        /* \"#utility.yul\":4824:4881   */\n      tag_301\n      jump\t// in\n    tag_300:\n        /* \"#utility.yul\":4786:4887   */\n      tag_221\n      jump\t// in\n    tag_299:\n        /* \"#utility.yul\":4920:4924   */\n      0x20\n        /* \"#utility.yul\":4915:4918   */\n      dup8\n        /* \"#utility.yul\":4911:4925   */\n      add\n        /* \"#utility.yul\":4904:4925   */\n      swap7\n      pop\n        /* \"#utility.yul\":4943:5044   */\n      tag_302\n        /* \"#utility.yul\":5040:5043   */\n      dup8\n        /* \"#utility.yul\":4981:5038   */\n      tag_303\n        /* \"#utility.yul\":5033:5037   */\n      dup4\n        /* \"#utility.yul\":4981:5038   */\n      tag_304\n      jump\t// in\n    tag_303:\n        /* \"#utility.yul\":4943:5044   */\n      tag_221\n      jump\t// in\n    tag_302:\n        /* \"#utility.yul\":5077:5081   */\n      0x20\n        /* \"#utility.yul\":5072:5075   */\n      dup8\n        /* \"#utility.yul\":5068:5082   */\n      add\n        /* \"#utility.yul\":5061:5082   */\n      swap7\n      pop\n        /* \"#utility.yul\":5100:5201   */\n      tag_305\n        /* \"#utility.yul\":5197:5200   */\n      dup8\n        /* \"#utility.yul\":5138:5195   */\n      tag_306\n        /* \"#utility.yul\":5190:5194   */\n      dup4\n        /* \"#utility.yul\":5138:5195   */\n      tag_307\n      jump\t// in\n    tag_306:\n        /* \"#utility.yul\":5100:5201   */\n      tag_221\n      jump\t// in\n    tag_305:\n        /* \"#utility.yul\":5234:5238   */\n      0x20\n        /* \"#utility.yul\":5229:5232   */\n      dup8\n        /* \"#utility.yul\":5225:5239   */\n      add\n        /* \"#utility.yul\":5218:5239   */\n      swap7\n      pop\n        /* \"#utility.yul\":5257:5358   */\n      tag_308\n        /* \"#utility.yul\":5354:5357   */\n      dup8\n        /* \"#utility.yul\":5295:5352   */\n      tag_309\n        /* \"#utility.yul\":5347:5351   */\n      dup4\n        /* \"#utility.yul\":5295:5352   */\n      tag_310\n      jump\t// in\n    tag_309:\n        /* \"#utility.yul\":5257:5358   */\n      tag_221\n      jump\t// in\n    tag_308:\n        /* \"#utility.yul\":5391:5395   */\n      0x20\n        /* \"#utility.yul\":5386:5389   */\n      dup8\n        /* \"#utility.yul\":5382:5396   */\n      add\n        /* \"#utility.yul\":5375:5396   */\n      swap7\n      pop\n        /* \"#utility.yul\":5414:5515   */\n      tag_311\n        /* \"#utility.yul\":5511:5514   */\n      dup8\n        /* \"#utility.yul\":5452:5509   */\n      tag_312\n        /* \"#utility.yul\":5504:5508   */\n      dup4\n        /* \"#utility.yul\":5452:5509   */\n      tag_313\n      jump\t// in\n    tag_312:\n        /* \"#utility.yul\":5414:5515   */\n      tag_221\n      jump\t// in\n    tag_311:\n        /* \"#utility.yul\":5548:5552   */\n      0x20\n        /* \"#utility.yul\":5543:5546   */\n      dup8\n        /* \"#utility.yul\":5539:5553   */\n      add\n        /* \"#utility.yul\":5532:5553   */\n      swap7\n      pop\n        /* \"#utility.yul\":5571:5672   */\n      tag_314\n        /* \"#utility.yul\":5668:5671   */\n      dup8\n        /* \"#utility.yul\":5609:5666   */\n      tag_315\n        /* \"#utility.yul\":5661:5665   */\n      dup4\n        /* \"#utility.yul\":5609:5666   */\n      tag_316\n      jump\t// in\n    tag_315:\n        /* \"#utility.yul\":5571:5672   */\n      tag_221\n      jump\t// in\n    tag_314:\n        /* \"#utility.yul\":5705:5709   */\n      0x20\n        /* \"#utility.yul\":5700:5703   */\n      dup8\n        /* \"#utility.yul\":5696:5710   */\n      add\n        /* \"#utility.yul\":5689:5710   */\n      swap7\n      pop\n        /* \"#utility.yul\":5728:5829   */\n      tag_317\n        /* \"#utility.yul\":5825:5828   */\n      dup8\n        /* \"#utility.yul\":5766:5823   */\n      tag_318\n        /* \"#utility.yul\":5818:5822   */\n      dup4\n        /* \"#utility.yul\":5766:5823   */\n      tag_319\n      jump\t// in\n    tag_318:\n        /* \"#utility.yul\":5728:5829   */\n      tag_221\n      jump\t// in\n    tag_317:\n        /* \"#utility.yul\":5862:5866   */\n      0x20\n        /* \"#utility.yul\":5857:5860   */\n      dup8\n        /* \"#utility.yul\":5853:5867   */\n      add\n        /* \"#utility.yul\":5846:5867   */\n      swap7\n      pop\n        /* \"#utility.yul\":5885:5986   */\n      tag_320\n        /* \"#utility.yul\":5982:5985   */\n      dup8\n        /* \"#utility.yul\":5923:5980   */\n      tag_321\n        /* \"#utility.yul\":5975:5979   */\n      dup4\n        /* \"#utility.yul\":5923:5980   */\n      tag_322\n      jump\t// in\n    tag_321:\n        /* \"#utility.yul\":5885:5986   */\n      tag_221\n      jump\t// in\n    tag_320:\n        /* \"#utility.yul\":6019:6023   */\n      0x20\n        /* \"#utility.yul\":6014:6017   */\n      dup8\n        /* \"#utility.yul\":6010:6024   */\n      add\n        /* \"#utility.yul\":6003:6024   */\n      swap7\n      pop\n        /* \"#utility.yul\":6042:6143   */\n      tag_323\n        /* \"#utility.yul\":6139:6142   */\n      dup8\n        /* \"#utility.yul\":6080:6137   */\n      tag_324\n        /* \"#utility.yul\":6132:6136   */\n      dup4\n        /* \"#utility.yul\":6080:6137   */\n      tag_325\n      jump\t// in\n    tag_324:\n        /* \"#utility.yul\":6042:6143   */\n      tag_221\n      jump\t// in\n    tag_323:\n        /* \"#utility.yul\":6176:6180   */\n      0x20\n        /* \"#utility.yul\":6171:6174   */\n      dup8\n        /* \"#utility.yul\":6167:6181   */\n      add\n        /* \"#utility.yul\":6160:6181   */\n      swap7\n      pop\n        /* \"#utility.yul\":6199:6300   */\n      tag_326\n        /* \"#utility.yul\":6296:6299   */\n      dup8\n        /* \"#utility.yul\":6237:6294   */\n      tag_327\n        /* \"#utility.yul\":6289:6293   */\n      dup4\n        /* \"#utility.yul\":6237:6294   */\n      tag_328\n      jump\t// in\n    tag_327:\n        /* \"#utility.yul\":6199:6300   */\n      tag_221\n      jump\t// in\n    tag_326:\n        /* \"#utility.yul\":6333:6337   */\n      0x20\n        /* \"#utility.yul\":6328:6331   */\n      dup8\n        /* \"#utility.yul\":6324:6338   */\n      add\n        /* \"#utility.yul\":6317:6338   */\n      swap7\n      pop\n        /* \"#utility.yul\":6356:6457   */\n      tag_329\n        /* \"#utility.yul\":6453:6456   */\n      dup8\n        /* \"#utility.yul\":6394:6451   */\n      tag_330\n        /* \"#utility.yul\":6446:6450   */\n      dup4\n        /* \"#utility.yul\":6394:6451   */\n      tag_331\n      jump\t// in\n    tag_330:\n        /* \"#utility.yul\":6356:6457   */\n      tag_221\n      jump\t// in\n    tag_329:\n        /* \"#utility.yul\":6490:6494   */\n      0x20\n        /* \"#utility.yul\":6485:6488   */\n      dup8\n        /* \"#utility.yul\":6481:6495   */\n      add\n        /* \"#utility.yul\":6474:6495   */\n      swap7\n      pop\n        /* \"#utility.yul\":6513:6614   */\n      tag_332\n        /* \"#utility.yul\":6610:6613   */\n      dup8\n        /* \"#utility.yul\":6551:6608   */\n      tag_333\n        /* \"#utility.yul\":6603:6607   */\n      dup4\n        /* \"#utility.yul\":6551:6608   */\n      tag_334\n      jump\t// in\n    tag_333:\n        /* \"#utility.yul\":6513:6614   */\n      tag_221\n      jump\t// in\n    tag_332:\n        /* \"#utility.yul\":6647:6651   */\n      0x20\n        /* \"#utility.yul\":6642:6645   */\n      dup8\n        /* \"#utility.yul\":6638:6652   */\n      add\n        /* \"#utility.yul\":6631:6652   */\n      swap7\n      pop\n        /* \"#utility.yul\":6670:6771   */\n      tag_335\n        /* \"#utility.yul\":6767:6770   */\n      dup8\n        /* \"#utility.yul\":6708:6765   */\n      tag_336\n        /* \"#utility.yul\":6760:6764   */\n      dup4\n        /* \"#utility.yul\":6708:6765   */\n      tag_337\n      jump\t// in\n    tag_336:\n        /* \"#utility.yul\":6670:6771   */\n      tag_221\n      jump\t// in\n    tag_335:\n        /* \"#utility.yul\":6804:6808   */\n      0x20\n        /* \"#utility.yul\":6799:6802   */\n      dup8\n        /* \"#utility.yul\":6795:6809   */\n      add\n        /* \"#utility.yul\":6788:6809   */\n      swap7\n      pop\n        /* \"#utility.yul\":6827:6928   */\n      tag_338\n        /* \"#utility.yul\":6924:6927   */\n      dup8\n        /* \"#utility.yul\":6865:6922   */\n      tag_339\n        /* \"#utility.yul\":6917:6921   */\n      dup4\n        /* \"#utility.yul\":6865:6922   */\n      tag_340\n      jump\t// in\n    tag_339:\n        /* \"#utility.yul\":6827:6928   */\n      tag_221\n      jump\t// in\n    tag_338:\n        /* \"#utility.yul\":6961:6965   */\n      0x20\n        /* \"#utility.yul\":6956:6959   */\n      dup8\n        /* \"#utility.yul\":6952:6966   */\n      add\n        /* \"#utility.yul\":6945:6966   */\n      swap7\n      pop\n        /* \"#utility.yul\":6984:7085   */\n      tag_341\n        /* \"#utility.yul\":7081:7084   */\n      dup8\n        /* \"#utility.yul\":7022:7079   */\n      tag_342\n        /* \"#utility.yul\":7074:7078   */\n      dup4\n        /* \"#utility.yul\":7022:7079   */\n      tag_343\n      jump\t// in\n    tag_342:\n        /* \"#utility.yul\":6984:7085   */\n      tag_221\n      jump\t// in\n    tag_341:\n        /* \"#utility.yul\":7118:7122   */\n      0x20\n        /* \"#utility.yul\":7113:7116   */\n      dup8\n        /* \"#utility.yul\":7109:7123   */\n      add\n        /* \"#utility.yul\":7102:7123   */\n      swap7\n      pop\n        /* \"#utility.yul\":7141:7242   */\n      tag_344\n        /* \"#utility.yul\":7238:7241   */\n      dup8\n        /* \"#utility.yul\":7179:7236   */\n      tag_345\n        /* \"#utility.yul\":7231:7235   */\n      dup4\n        /* \"#utility.yul\":7179:7236   */\n      tag_346\n      jump\t// in\n    tag_345:\n        /* \"#utility.yul\":7141:7242   */\n      tag_221\n      jump\t// in\n    tag_344:\n        /* \"#utility.yul\":7275:7279   */\n      0x20\n        /* \"#utility.yul\":7270:7273   */\n      dup8\n        /* \"#utility.yul\":7266:7280   */\n      add\n        /* \"#utility.yul\":7259:7280   */\n      swap7\n      pop\n        /* \"#utility.yul\":7320:7321   */\n      0x01\n        /* \"#utility.yul\":7312:7318   */\n      dup4\n        /* \"#utility.yul\":7308:7322   */\n      add\n        /* \"#utility.yul\":7298:7322   */\n      swap3\n      pop\n        /* \"#utility.yul\":2223:7336   */\n      pop\n        /* \"#utility.yul\":2205:2207   */\n      0x20\n        /* \"#utility.yul\":2192:2203   */\n      dup2\n        /* \"#utility.yul\":2188:2208   */\n      add\n        /* \"#utility.yul\":2173:2208   */\n      swap1\n      pop\n        /* \"#utility.yul\":2110:7336   */\n      jump(tag_248)\n    tag_250:\n        /* \"#utility.yul\":2043:7346   */\n    tag_247:\n        /* \"#utility.yul\":7423:7424   */\n      0x01\n        /* \"#utility.yul\":7420:15177   */\n      iszero\n      tag_347\n      jumpi\n        /* \"#utility.yul\":7457:7463   */\n      dup2\n        /* \"#utility.yul\":7451:7464   */\n      sload\n        /* \"#utility.yul\":7481:7482   */\n      0x01\n        /* \"#utility.yul\":7478:7704   */\n      iszero\n      tag_348\n      jumpi\n        /* \"#utility.yul\":7501:7601   */\n      tag_349\n        /* \"#utility.yul\":7597:7600   */\n      dup8\n        /* \"#utility.yul\":7539:7595   */\n      tag_350\n        /* \"#utility.yul\":7590:7594   */\n      dup4\n        /* \"#utility.yul\":7539:7595   */\n      tag_253\n      jump\t// in\n    tag_350:\n        /* \"#utility.yul\":7501:7601   */\n      tag_221\n      jump\t// in\n    tag_349:\n        /* \"#utility.yul\":7634:7638   */\n      0x20\n        /* \"#utility.yul\":7629:7632   */\n      dup8\n        /* \"#utility.yul\":7625:7639   */\n      add\n        /* \"#utility.yul\":7618:7639   */\n      swap7\n      pop\n        /* \"#utility.yul\":7688:7689   */\n      0x01\n        /* \"#utility.yul\":7675:7686   */\n      dup3\n        /* \"#utility.yul\":7671:7690   */\n      add\n        /* \"#utility.yul\":7656:7690   */\n      swap2\n      pop\n        /* \"#utility.yul\":7478:7704   */\n    tag_348:\n        /* \"#utility.yul\":7721:7722   */\n      0x01\n        /* \"#utility.yul\":7718:7944   */\n      iszero\n      tag_351\n      jumpi\n        /* \"#utility.yul\":7741:7841   */\n      tag_352\n        /* \"#utility.yul\":7837:7840   */\n      dup8\n        /* \"#utility.yul\":7779:7835   */\n      tag_353\n        /* \"#utility.yul\":7830:7834   */\n      dup4\n        /* \"#utility.yul\":7779:7835   */\n      tag_256\n      jump\t// in\n    tag_353:\n        /* \"#utility.yul\":7741:7841   */\n      tag_221\n      jump\t// in\n    tag_352:\n        /* \"#utility.yul\":7874:7878   */\n      0x20\n        /* \"#utility.yul\":7869:7872   */\n      dup8\n        /* \"#utility.yul\":7865:7879   */\n      add\n        /* \"#utility.yul\":7858:7879   */\n      swap7\n      pop\n        /* \"#utility.yul\":7928:7929   */\n      0x01\n        /* \"#utility.yul\":7915:7926   */\n      dup3\n        /* \"#utility.yul\":7911:7930   */\n      add\n        /* \"#utility.yul\":7896:7930   */\n      swap2\n      pop\n        /* \"#utility.yul\":7718:7944   */\n    tag_351:\n        /* \"#utility.yul\":7961:7962   */\n      0x01\n        /* \"#utility.yul\":7958:8184   */\n      iszero\n      tag_354\n      jumpi\n        /* \"#utility.yul\":7981:8081   */\n      tag_355\n        /* \"#utility.yul\":8077:8080   */\n      dup8\n        /* \"#utility.yul\":8019:8075   */\n      tag_356\n        /* \"#utility.yul\":8070:8074   */\n      dup4\n        /* \"#utility.yul\":8019:8075   */\n      tag_259\n      jump\t// in\n    tag_356:\n        /* \"#utility.yul\":7981:8081   */\n      tag_221\n      jump\t// in\n    tag_355:\n        /* \"#utility.yul\":8114:8118   */\n      0x20\n        /* \"#utility.yul\":8109:8112   */\n      dup8\n        /* \"#utility.yul\":8105:8119   */\n      add\n        /* \"#utility.yul\":8098:8119   */\n      swap7\n      pop\n        /* \"#utility.yul\":8168:8169   */\n      0x01\n        /* \"#utility.yul\":8155:8166   */\n      dup3\n        /* \"#utility.yul\":8151:8170   */\n      add\n        /* \"#utility.yul\":8136:8170   */\n      swap2\n      pop\n        /* \"#utility.yul\":7958:8184   */\n    tag_354:\n        /* \"#utility.yul\":8201:8202   */\n      0x01\n        /* \"#utility.yul\":8198:8424   */\n      iszero\n      tag_357\n      jumpi\n        /* \"#utility.yul\":8221:8321   */\n      tag_358\n        /* \"#utility.yul\":8317:8320   */\n      dup8\n        /* \"#utility.yul\":8259:8315   */\n      tag_359\n        /* \"#utility.yul\":8310:8314   */\n      dup4\n        /* \"#utility.yul\":8259:8315   */\n      tag_262\n      jump\t// in\n    tag_359:\n        /* \"#utility.yul\":8221:8321   */\n      tag_221\n      jump\t// in\n    tag_358:\n        /* \"#utility.yul\":8354:8358   */\n      0x20\n        /* \"#utility.yul\":8349:8352   */\n      dup8\n        /* \"#utility.yul\":8345:8359   */\n      add\n        /* \"#utility.yul\":8338:8359   */\n      swap7\n      pop\n        /* \"#utility.yul\":8408:8409   */\n      0x01\n        /* \"#utility.yul\":8395:8406   */\n      dup3\n        /* \"#utility.yul\":8391:8410   */\n      add\n        /* \"#utility.yul\":8376:8410   */\n      swap2\n      pop\n        /* \"#utility.yul\":8198:8424   */\n    tag_357:\n        /* \"#utility.yul\":8441:8442   */\n      0x01\n        /* \"#utility.yul\":8438:8664   */\n      iszero\n      tag_360\n      jumpi\n        /* \"#utility.yul\":8461:8561   */\n      tag_361\n        /* \"#utility.yul\":8557:8560   */\n      dup8\n        /* \"#utility.yul\":8499:8555   */\n      tag_362\n        /* \"#utility.yul\":8550:8554   */\n      dup4\n        /* \"#utility.yul\":8499:8555   */\n      tag_265\n      jump\t// in\n    tag_362:\n        /* \"#utility.yul\":8461:8561   */\n      tag_221\n      jump\t// in\n    tag_361:\n        /* \"#utility.yul\":8594:8598   */\n      0x20\n        /* \"#utility.yul\":8589:8592   */\n      dup8\n        /* \"#utility.yul\":8585:8599   */\n      add\n        /* \"#utility.yul\":8578:8599   */\n      swap7\n      pop\n        /* \"#utility.yul\":8648:8649   */\n      0x01\n        /* \"#utility.yul\":8635:8646   */\n      dup3\n        /* \"#utility.yul\":8631:8650   */\n      add\n        /* \"#utility.yul\":8616:8650   */\n      swap2\n      pop\n        /* \"#utility.yul\":8438:8664   */\n    tag_360:\n        /* \"#utility.yul\":8681:8682   */\n      0x01\n        /* \"#utility.yul\":8678:8904   */\n      iszero\n      tag_363\n      jumpi\n        /* \"#utility.yul\":8701:8801   */\n      tag_364\n        /* \"#utility.yul\":8797:8800   */\n      dup8\n        /* \"#utility.yul\":8739:8795   */\n      tag_365\n        /* \"#utility.yul\":8790:8794   */\n      dup4\n        /* \"#utility.yul\":8739:8795   */\n      tag_268\n      jump\t// in\n    tag_365:\n        /* \"#utility.yul\":8701:8801   */\n      tag_221\n      jump\t// in\n    tag_364:\n        /* \"#utility.yul\":8834:8838   */\n      0x20\n        /* \"#utility.yul\":8829:8832   */\n      dup8\n        /* \"#utility.yul\":8825:8839   */\n      add\n        /* \"#utility.yul\":8818:8839   */\n      swap7\n      pop\n        /* \"#utility.yul\":8888:8889   */\n      0x01\n        /* \"#utility.yul\":8875:8886   */\n      dup3\n        /* \"#utility.yul\":8871:8890   */\n      add\n        /* \"#utility.yul\":8856:8890   */\n      swap2\n      pop\n        /* \"#utility.yul\":8678:8904   */\n    tag_363:\n        /* \"#utility.yul\":8921:8922   */\n      0x01\n        /* \"#utility.yul\":8918:9144   */\n      iszero\n      tag_366\n      jumpi\n        /* \"#utility.yul\":8941:9041   */\n      tag_367\n        /* \"#utility.yul\":9037:9040   */\n      dup8\n        /* \"#utility.yul\":8979:9035   */\n      tag_368\n        /* \"#utility.yul\":9030:9034   */\n      dup4\n        /* \"#utility.yul\":8979:9035   */\n      tag_271\n      jump\t// in\n    tag_368:\n        /* \"#utility.yul\":8941:9041   */\n      tag_221\n      jump\t// in\n    tag_367:\n        /* \"#utility.yul\":9074:9078   */\n      0x20\n        /* \"#utility.yul\":9069:9072   */\n      dup8\n        /* \"#utility.yul\":9065:9079   */\n      add\n        /* \"#utility.yul\":9058:9079   */\n      swap7\n      pop\n        /* \"#utility.yul\":9128:9129   */\n      0x01\n        /* \"#utility.yul\":9115:9126   */\n      dup3\n        /* \"#utility.yul\":9111:9130   */\n      add\n        /* \"#utility.yul\":9096:9130   */\n      swap2\n      pop\n        /* \"#utility.yul\":8918:9144   */\n    tag_366:\n        /* \"#utility.yul\":9161:9162   */\n      0x01\n        /* \"#utility.yul\":9158:9384   */\n      iszero\n      tag_369\n      jumpi\n        /* \"#utility.yul\":9181:9281   */\n      tag_370\n        /* \"#utility.yul\":9277:9280   */\n      dup8\n        /* \"#utility.yul\":9219:9275   */\n      tag_371\n        /* \"#utility.yul\":9270:9274   */\n      dup4\n        /* \"#utility.yul\":9219:9275   */\n      tag_274\n      jump\t// in\n    tag_371:\n        /* \"#utility.yul\":9181:9281   */\n      tag_221\n      jump\t// in\n    tag_370:\n        /* \"#utility.yul\":9314:9318   */\n      0x20\n        /* \"#utility.yul\":9309:9312   */\n      dup8\n        /* \"#utility.yul\":9305:9319   */\n      add\n        /* \"#utility.yul\":9298:9319   */\n      swap7\n      pop\n        /* \"#utility.yul\":9368:9369   */\n      0x01\n        /* \"#utility.yul\":9355:9366   */\n      dup3\n        /* \"#utility.yul\":9351:9370   */\n      add\n        /* \"#utility.yul\":9336:9370   */\n      swap2\n      pop\n        /* \"#utility.yul\":9158:9384   */\n    tag_369:\n        /* \"#utility.yul\":9401:9402   */\n      0x01\n        /* \"#utility.yul\":9398:9624   */\n      iszero\n      tag_372\n      jumpi\n        /* \"#utility.yul\":9421:9521   */\n      tag_373\n        /* \"#utility.yul\":9517:9520   */\n      dup8\n        /* \"#utility.yul\":9459:9515   */\n      tag_374\n        /* \"#utility.yul\":9510:9514   */\n      dup4\n        /* \"#utility.yul\":9459:9515   */\n      tag_277\n      jump\t// in\n    tag_374:\n        /* \"#utility.yul\":9421:9521   */\n      tag_221\n      jump\t// in\n    tag_373:\n        /* \"#utility.yul\":9554:9558   */\n      0x20\n        /* \"#utility.yul\":9549:9552   */\n      dup8\n        /* \"#utility.yul\":9545:9559   */\n      add\n        /* \"#utility.yul\":9538:9559   */\n      swap7\n      pop\n        /* \"#utility.yul\":9608:9609   */\n      0x01\n        /* \"#utility.yul\":9595:9606   */\n      dup3\n        /* \"#utility.yul\":9591:9610   */\n      add\n        /* \"#utility.yul\":9576:9610   */\n      swap2\n      pop\n        /* \"#utility.yul\":9398:9624   */\n    tag_372:\n        /* \"#utility.yul\":9641:9642   */\n      0x00\n        /* \"#utility.yul\":9638:9864   */\n      iszero\n      tag_375\n      jumpi\n        /* \"#utility.yul\":9661:9761   */\n      tag_376\n        /* \"#utility.yul\":9757:9760   */\n      dup8\n        /* \"#utility.yul\":9699:9755   */\n      tag_377\n        /* \"#utility.yul\":9750:9754   */\n      dup4\n        /* \"#utility.yul\":9699:9755   */\n      tag_280\n      jump\t// in\n    tag_377:\n        /* \"#utility.yul\":9661:9761   */\n      tag_221\n      jump\t// in\n    tag_376:\n        /* \"#utility.yul\":9794:9798   */\n      0x20\n        /* \"#utility.yul\":9789:9792   */\n      dup8\n        /* \"#utility.yul\":9785:9799   */\n      add\n        /* \"#utility.yul\":9778:9799   */\n      swap7\n      pop\n        /* \"#utility.yul\":9848:9849   */\n      0x01\n        /* \"#utility.yul\":9835:9846   */\n      dup3\n        /* \"#utility.yul\":9831:9850   */\n      add\n        /* \"#utility.yul\":9816:9850   */\n      swap2\n      pop\n        /* \"#utility.yul\":9638:9864   */\n    tag_375:\n        /* \"#utility.yul\":9881:9882   */\n      0x00\n        /* \"#utility.yul\":9878:10105   */\n      iszero\n      tag_378\n      jumpi\n        /* \"#utility.yul\":9901:10002   */\n      tag_379\n        /* \"#utility.yul\":9998:10001   */\n      dup8\n        /* \"#utility.yul\":9939:9996   */\n      tag_380\n        /* \"#utility.yul\":9991:9995   */\n      dup4\n        /* \"#utility.yul\":9939:9996   */\n      tag_283\n      jump\t// in\n    tag_380:\n        /* \"#utility.yul\":9901:10002   */\n      tag_221\n      jump\t// in\n    tag_379:\n        /* \"#utility.yul\":10035:10039   */\n      0x20\n        /* \"#utility.yul\":10030:10033   */\n      dup8\n        /* \"#utility.yul\":10026:10040   */\n      add\n        /* \"#utility.yul\":10019:10040   */\n      swap7\n      pop\n        /* \"#utility.yul\":10089:10090   */\n      0x01\n        /* \"#utility.yul\":10076:10087   */\n      dup3\n        /* \"#utility.yul\":10072:10091   */\n      add\n        /* \"#utility.yul\":10057:10091   */\n      swap2\n      pop\n        /* \"#utility.yul\":9878:10105   */\n    tag_378:\n        /* \"#utility.yul\":10122:10123   */\n      0x00\n        /* \"#utility.yul\":10119:10346   */\n      iszero\n      tag_381\n      jumpi\n        /* \"#utility.yul\":10142:10243   */\n      tag_382\n        /* \"#utility.yul\":10239:10242   */\n      dup8\n        /* \"#utility.yul\":10180:10237   */\n      tag_383\n        /* \"#utility.yul\":10232:10236   */\n      dup4\n        /* \"#utility.yul\":10180:10237   */\n      tag_286\n      jump\t// in\n    tag_383:\n        /* \"#utility.yul\":10142:10243   */\n      tag_221\n      jump\t// in\n    tag_382:\n        /* \"#utility.yul\":10276:10280   */\n      0x20\n        /* \"#utility.yul\":10271:10274   */\n      dup8\n        /* \"#utility.yul\":10267:10281   */\n      add\n        /* \"#utility.yul\":10260:10281   */\n      swap7\n      pop\n        /* \"#utility.yul\":10330:10331   */\n      0x01\n        /* \"#utility.yul\":10317:10328   */\n      dup3\n        /* \"#utility.yul\":10313:10332   */\n      add\n        /* \"#utility.yul\":10298:10332   */\n      swap2\n      pop\n        /* \"#utility.yul\":10119:10346   */\n    tag_381:\n        /* \"#utility.yul\":10363:10364   */\n      0x00\n        /* \"#utility.yul\":10360:10587   */\n      iszero\n      tag_384\n      jumpi\n        /* \"#utility.yul\":10383:10484   */\n      tag_385\n        /* \"#utility.yul\":10480:10483   */\n      dup8\n        /* \"#utility.yul\":10421:10478   */\n      tag_386\n        /* \"#utility.yul\":10473:10477   */\n      dup4\n        /* \"#utility.yul\":10421:10478   */\n      tag_289\n      jump\t// in\n    tag_386:\n        /* \"#utility.yul\":10383:10484   */\n      tag_221\n      jump\t// in\n    tag_385:\n        /* \"#utility.yul\":10517:10521   */\n      0x20\n        /* \"#utility.yul\":10512:10515   */\n      dup8\n        /* \"#utility.yul\":10508:10522   */\n      add\n        /* \"#utility.yul\":10501:10522   */\n      swap7\n      pop\n        /* \"#utility.yul\":10571:10572   */\n      0x01\n        /* \"#utility.yul\":10558:10569   */\n      dup3\n        /* \"#utility.yul\":10554:10573   */\n      add\n        /* \"#utility.yul\":10539:10573   */\n      swap2\n      pop\n        /* \"#utility.yul\":10360:10587   */\n    tag_384:\n        /* \"#utility.yul\":10604:10605   */\n      0x00\n        /* \"#utility.yul\":10601:10828   */\n      iszero\n      tag_387\n      jumpi\n        /* \"#utility.yul\":10624:10725   */\n      tag_388\n        /* \"#utility.yul\":10721:10724   */\n      dup8\n        /* \"#utility.yul\":10662:10719   */\n      tag_389\n        /* \"#utility.yul\":10714:10718   */\n      dup4\n        /* \"#utility.yul\":10662:10719   */\n      tag_292\n      jump\t// in\n    tag_389:\n        /* \"#utility.yul\":10624:10725   */\n      tag_221\n      jump\t// in\n    tag_388:\n        /* \"#utility.yul\":10758:10762   */\n      0x20\n        /* \"#utility.yul\":10753:10756   */\n      dup8\n        /* \"#utility.yul\":10749:10763   */\n      add\n        /* \"#utility.yul\":10742:10763   */\n      swap7\n      pop\n        /* \"#utility.yul\":10812:10813   */\n      0x01\n        /* \"#utility.yul\":10799:10810   */\n      dup3\n        /* \"#utility.yul\":10795:10814   */\n      add\n        /* \"#utility.yul\":10780:10814   */\n      swap2\n      pop\n        /* \"#utility.yul\":10601:10828   */\n    tag_387:\n        /* \"#utility.yul\":10845:10846   */\n      0x00\n        /* \"#utility.yul\":10842:11069   */\n      iszero\n      tag_390\n      jumpi\n        /* \"#utility.yul\":10865:10966   */\n      tag_391\n        /* \"#utility.yul\":10962:10965   */\n      dup8\n        /* \"#utility.yul\":10903:10960   */\n      tag_392\n        /* \"#utility.yul\":10955:10959   */\n      dup4\n        /* \"#utility.yul\":10903:10960   */\n      tag_295\n      jump\t// in\n    tag_392:\n        /* \"#utility.yul\":10865:10966   */\n      tag_221\n      jump\t// in\n    tag_391:\n        /* \"#utility.yul\":10999:11003   */\n      0x20\n        /* \"#utility.yul\":10994:10997   */\n      dup8\n        /* \"#utility.yul\":10990:11004   */\n      add\n        /* \"#utility.yul\":10983:11004   */\n      swap7\n      pop\n        /* \"#utility.yul\":11053:11054   */\n      0x01\n        /* \"#utility.yul\":11040:11051   */\n      dup3\n        /* \"#utility.yul\":11036:11055   */\n      add\n        /* \"#utility.yul\":11021:11055   */\n      swap2\n      pop\n        /* \"#utility.yul\":10842:11069   */\n    tag_390:\n        /* \"#utility.yul\":11086:11087   */\n      0x00\n        /* \"#utility.yul\":11083:11310   */\n      iszero\n      tag_393\n      jumpi\n        /* \"#utility.yul\":11106:11207   */\n      tag_394\n        /* \"#utility.yul\":11203:11206   */\n      dup8\n        /* \"#utility.yul\":11144:11201   */\n      tag_395\n        /* \"#utility.yul\":11196:11200   */\n      dup4\n        /* \"#utility.yul\":11144:11201   */\n      tag_298\n      jump\t// in\n    tag_395:\n        /* \"#utility.yul\":11106:11207   */\n      tag_221\n      jump\t// in\n    tag_394:\n        /* \"#utility.yul\":11240:11244   */\n      0x20\n        /* \"#utility.yul\":11235:11238   */\n      dup8\n        /* \"#utility.yul\":11231:11245   */\n      add\n        /* \"#utility.yul\":11224:11245   */\n      swap7\n      pop\n        /* \"#utility.yul\":11294:11295   */\n      0x01\n        /* \"#utility.yul\":11281:11292   */\n      dup3\n        /* \"#utility.yul\":11277:11296   */\n      add\n        /* \"#utility.yul\":11262:11296   */\n      swap2\n      pop\n        /* \"#utility.yul\":11083:11310   */\n    tag_393:\n        /* \"#utility.yul\":11327:11328   */\n      0x00\n        /* \"#utility.yul\":11324:11551   */\n      iszero\n      tag_396\n      jumpi\n        /* \"#utility.yul\":11347:11448   */\n      tag_397\n        /* \"#utility.yul\":11444:11447   */\n      dup8\n        /* \"#utility.yul\":11385:11442   */\n      tag_398\n        /* \"#utility.yul\":11437:11441   */\n      dup4\n        /* \"#utility.yul\":11385:11442   */\n      tag_301\n      jump\t// in\n    tag_398:\n        /* \"#utility.yul\":11347:11448   */\n      tag_221\n      jump\t// in\n    tag_397:\n        /* \"#utility.yul\":11481:11485   */\n      0x20\n        /* \"#utility.yul\":11476:11479   */\n      dup8\n        /* \"#utility.yul\":11472:11486   */\n      add\n        /* \"#utility.yul\":11465:11486   */\n      swap7\n      pop\n        /* \"#utility.yul\":11535:11536   */\n      0x01\n        /* \"#utility.yul\":11522:11533   */\n      dup3\n        /* \"#utility.yul\":11518:11537   */\n      add\n        /* \"#utility.yul\":11503:11537   */\n      swap2\n      pop\n        /* \"#utility.yul\":11324:11551   */\n    tag_396:\n        /* \"#utility.yul\":11568:11569   */\n      0x00\n        /* \"#utility.yul\":11565:11792   */\n      iszero\n      tag_399\n      jumpi\n        /* \"#utility.yul\":11588:11689   */\n      tag_400\n        /* \"#utility.yul\":11685:11688   */\n      dup8\n        /* \"#utility.yul\":11626:11683   */\n      tag_401\n        /* \"#utility.yul\":11678:11682   */\n      dup4\n        /* \"#utility.yul\":11626:11683   */\n      tag_304\n      jump\t// in\n    tag_401:\n        /* \"#utility.yul\":11588:11689   */\n      tag_221\n      jump\t// in\n    tag_400:\n        /* \"#utility.yul\":11722:11726   */\n      0x20\n        /* \"#utility.yul\":11717:11720   */\n      dup8\n        /* \"#utility.yul\":11713:11727   */\n      add\n        /* \"#utility.yul\":11706:11727   */\n      swap7\n      pop\n        /* \"#utility.yul\":11776:11777   */\n      0x01\n        /* \"#utility.yul\":11763:11774   */\n      dup3\n        /* \"#utility.yul\":11759:11778   */\n      add\n        /* \"#utility.yul\":11744:11778   */\n      swap2\n      pop\n        /* \"#utility.yul\":11565:11792   */\n    tag_399:\n        /* \"#utility.yul\":11809:11810   */\n      0x00\n        /* \"#utility.yul\":11806:12033   */\n      iszero\n      tag_402\n      jumpi\n        /* \"#utility.yul\":11829:11930   */\n      tag_403\n        /* \"#utility.yul\":11926:11929   */\n      dup8\n        /* \"#utility.yul\":11867:11924   */\n      tag_404\n        /* \"#utility.yul\":11919:11923   */\n      dup4\n        /* \"#utility.yul\":11867:11924   */\n      tag_307\n      jump\t// in\n    tag_404:\n        /* \"#utility.yul\":11829:11930   */\n      tag_221\n      jump\t// in\n    tag_403:\n        /* \"#utility.yul\":11963:11967   */\n      0x20\n        /* \"#utility.yul\":11958:11961   */\n      dup8\n        /* \"#utility.yul\":11954:11968   */\n      add\n        /* \"#utility.yul\":11947:11968   */\n      swap7\n      pop\n        /* \"#utility.yul\":12017:12018   */\n      0x01\n        /* \"#utility.yul\":12004:12015   */\n      dup3\n        /* \"#utility.yul\":12000:12019   */\n      add\n        /* \"#utility.yul\":11985:12019   */\n      swap2\n      pop\n        /* \"#utility.yul\":11806:12033   */\n    tag_402:\n        /* \"#utility.yul\":12050:12051   */\n      0x00\n        /* \"#utility.yul\":12047:12274   */\n      iszero\n      tag_405\n      jumpi\n        /* \"#utility.yul\":12070:12171   */\n      tag_406\n        /* \"#utility.yul\":12167:12170   */\n      dup8\n        /* \"#utility.yul\":12108:12165   */\n      tag_407\n        /* \"#utility.yul\":12160:12164   */\n      dup4\n        /* \"#utility.yul\":12108:12165   */\n      tag_310\n      jump\t// in\n    tag_407:\n        /* \"#utility.yul\":12070:12171   */\n      tag_221\n      jump\t// in\n    tag_406:\n        /* \"#utility.yul\":12204:12208   */\n      0x20\n        /* \"#utility.yul\":12199:12202   */\n      dup8\n        /* \"#utility.yul\":12195:12209   */\n      add\n        /* \"#utility.yul\":12188:12209   */\n      swap7\n      pop\n        /* \"#utility.yul\":12258:12259   */\n      0x01\n        /* \"#utility.yul\":12245:12256   */\n      dup3\n        /* \"#utility.yul\":12241:12260   */\n      add\n        /* \"#utility.yul\":12226:12260   */\n      swap2\n      pop\n        /* \"#utility.yul\":12047:12274   */\n    tag_405:\n        /* \"#utility.yul\":12291:12292   */\n      0x00\n        /* \"#utility.yul\":12288:12515   */\n      iszero\n      tag_408\n      jumpi\n        /* \"#utility.yul\":12311:12412   */\n      tag_409\n        /* \"#utility.yul\":12408:12411   */\n      dup8\n        /* \"#utility.yul\":12349:12406   */\n      tag_410\n        /* \"#utility.yul\":12401:12405   */\n      dup4\n        /* \"#utility.yul\":12349:12406   */\n      tag_313\n      jump\t// in\n    tag_410:\n        /* \"#utility.yul\":12311:12412   */\n      tag_221\n      jump\t// in\n    tag_409:\n        /* \"#utility.yul\":12445:12449   */\n      0x20\n        /* \"#utility.yul\":12440:12443   */\n      dup8\n        /* \"#utility.yul\":12436:12450   */\n      add\n        /* \"#utility.yul\":12429:12450   */\n      swap7\n      pop\n        /* \"#utility.yul\":12499:12500   */\n      0x01\n        /* \"#utility.yul\":12486:12497   */\n      dup3\n        /* \"#utility.yul\":12482:12501   */\n      add\n        /* \"#utility.yul\":12467:12501   */\n      swap2\n      pop\n        /* \"#utility.yul\":12288:12515   */\n    tag_408:\n        /* \"#utility.yul\":12532:12533   */\n      0x00\n        /* \"#utility.yul\":12529:12756   */\n      iszero\n      tag_411\n      jumpi\n        /* \"#utility.yul\":12552:12653   */\n      tag_412\n        /* \"#utility.yul\":12649:12652   */\n      dup8\n        /* \"#utility.yul\":12590:12647   */\n      tag_413\n        /* \"#utility.yul\":12642:12646   */\n      dup4\n        /* \"#utility.yul\":12590:12647   */\n      tag_316\n      jump\t// in\n    tag_413:\n        /* \"#utility.yul\":12552:12653   */\n      tag_221\n      jump\t// in\n    tag_412:\n        /* \"#utility.yul\":12686:12690   */\n      0x20\n        /* \"#utility.yul\":12681:12684   */\n      dup8\n        /* \"#utility.yul\":12677:12691   */\n      add\n        /* \"#utility.yul\":12670:12691   */\n      swap7\n      pop\n        /* \"#utility.yul\":12740:12741   */\n      0x01\n        /* \"#utility.yul\":12727:12738   */\n      dup3\n        /* \"#utility.yul\":12723:12742   */\n      add\n        /* \"#utility.yul\":12708:12742   */\n      swap2\n      pop\n        /* \"#utility.yul\":12529:12756   */\n    tag_411:\n        /* \"#utility.yul\":12773:12774   */\n      0x00\n        /* \"#utility.yul\":12770:12997   */\n      iszero\n      tag_414\n      jumpi\n        /* \"#utility.yul\":12793:12894   */\n      tag_415\n        /* \"#utility.yul\":12890:12893   */\n      dup8\n        /* \"#utility.yul\":12831:12888   */\n      tag_416\n        /* \"#utility.yul\":12883:12887   */\n      dup4\n        /* \"#utility.yul\":12831:12888   */\n      tag_319\n      jump\t// in\n    tag_416:\n        /* \"#utility.yul\":12793:12894   */\n      tag_221\n      jump\t// in\n    tag_415:\n        /* \"#utility.yul\":12927:12931   */\n      0x20\n        /* \"#utility.yul\":12922:12925   */\n      dup8\n        /* \"#utility.yul\":12918:12932   */\n      add\n        /* \"#utility.yul\":12911:12932   */\n      swap7\n      pop\n        /* \"#utility.yul\":12981:12982   */\n      0x01\n        /* \"#utility.yul\":12968:12979   */\n      dup3\n        /* \"#utility.yul\":12964:12983   */\n      add\n        /* \"#utility.yul\":12949:12983   */\n      swap2\n      pop\n        /* \"#utility.yul\":12770:12997   */\n    tag_414:\n        /* \"#utility.yul\":13014:13015   */\n      0x00\n        /* \"#utility.yul\":13011:13238   */\n      iszero\n      tag_417\n      jumpi\n        /* \"#utility.yul\":13034:13135   */\n      tag_418\n        /* \"#utility.yul\":13131:13134   */\n      dup8\n        /* \"#utility.yul\":13072:13129   */\n      tag_419\n        /* \"#utility.yul\":13124:13128   */\n      dup4\n        /* \"#utility.yul\":13072:13129   */\n      tag_322\n      jump\t// in\n    tag_419:\n        /* \"#utility.yul\":13034:13135   */\n      tag_221\n      jump\t// in\n    tag_418:\n        /* \"#utility.yul\":13168:13172   */\n      0x20\n        /* \"#utility.yul\":13163:13166   */\n      dup8\n        /* \"#utility.yul\":13159:13173   */\n      add\n        /* \"#utility.yul\":13152:13173   */\n      swap7\n      pop\n        /* \"#utility.yul\":13222:13223   */\n      0x01\n        /* \"#utility.yul\":13209:13220   */\n      dup3\n        /* \"#utility.yul\":13205:13224   */\n      add\n        /* \"#utility.yul\":13190:13224   */\n      swap2\n      pop\n        /* \"#utility.yul\":13011:13238   */\n    tag_417:\n        /* \"#utility.yul\":13255:13256   */\n      0x00\n        /* \"#utility.yul\":13252:13479   */\n      iszero\n      tag_420\n      jumpi\n        /* \"#utility.yul\":13275:13376   */\n      tag_421\n        /* \"#utility.yul\":13372:13375   */\n      dup8\n        /* \"#utility.yul\":13313:13370   */\n      tag_422\n        /* \"#utility.yul\":13365:13369   */\n      dup4\n        /* \"#utility.yul\":13313:13370   */\n      tag_325\n      jump\t// in\n    tag_422:\n        /* \"#utility.yul\":13275:13376   */\n      tag_221\n      jump\t// in\n    tag_421:\n        /* \"#utility.yul\":13409:13413   */\n      0x20\n        /* \"#utility.yul\":13404:13407   */\n      dup8\n        /* \"#utility.yul\":13400:13414   */\n      add\n        /* \"#utility.yul\":13393:13414   */\n      swap7\n      pop\n        /* \"#utility.yul\":13463:13464   */\n      0x01\n        /* \"#utility.yul\":13450:13461   */\n      dup3\n        /* \"#utility.yul\":13446:13465   */\n      add\n        /* \"#utility.yul\":13431:13465   */\n      swap2\n      pop\n        /* \"#utility.yul\":13252:13479   */\n    tag_420:\n        /* \"#utility.yul\":13496:13497   */\n      0x00\n        /* \"#utility.yul\":13493:13720   */\n      iszero\n      tag_423\n      jumpi\n        /* \"#utility.yul\":13516:13617   */\n      tag_424\n        /* \"#utility.yul\":13613:13616   */\n      dup8\n        /* \"#utility.yul\":13554:13611   */\n      tag_425\n        /* \"#utility.yul\":13606:13610   */\n      dup4\n        /* \"#utility.yul\":13554:13611   */\n      tag_328\n      jump\t// in\n    tag_425:\n        /* \"#utility.yul\":13516:13617   */\n      tag_221\n      jump\t// in\n    tag_424:\n        /* \"#utility.yul\":13650:13654   */\n      0x20\n        /* \"#utility.yul\":13645:13648   */\n      dup8\n        /* \"#utility.yul\":13641:13655   */\n      add\n        /* \"#utility.yul\":13634:13655   */\n      swap7\n      pop\n        /* \"#utility.yul\":13704:13705   */\n      0x01\n        /* \"#utility.yul\":13691:13702   */\n      dup3\n        /* \"#utility.yul\":13687:13706   */\n      add\n        /* \"#utility.yul\":13672:13706   */\n      swap2\n      pop\n        /* \"#utility.yul\":13493:13720   */\n    tag_423:\n        /* \"#utility.yul\":13737:13738   */\n      0x00\n        /* \"#utility.yul\":13734:13961   */\n      iszero\n      tag_426\n      jumpi\n        /* \"#utility.yul\":13757:13858   */\n      tag_427\n        /* \"#utility.yul\":13854:13857   */\n      dup8\n        /* \"#utility.yul\":13795:13852   */\n      tag_428\n        /* \"#utility.yul\":13847:13851   */\n      dup4\n        /* \"#utility.yul\":13795:13852   */\n      tag_331\n      jump\t// in\n    tag_428:\n        /* \"#utility.yul\":13757:13858   */\n      tag_221\n      jump\t// in\n    tag_427:\n        /* \"#utility.yul\":13891:13895   */\n      0x20\n        /* \"#utility.yul\":13886:13889   */\n      dup8\n        /* \"#utility.yul\":13882:13896   */\n      add\n        /* \"#utility.yul\":13875:13896   */\n      swap7\n      pop\n        /* \"#utility.yul\":13945:13946   */\n      0x01\n        /* \"#utility.yul\":13932:13943   */\n      dup3\n        /* \"#utility.yul\":13928:13947   */\n      add\n        /* \"#utility.yul\":13913:13947   */\n      swap2\n      pop\n        /* \"#utility.yul\":13734:13961   */\n    tag_426:\n        /* \"#utility.yul\":13978:13979   */\n      0x00\n        /* \"#utility.yul\":13975:14202   */\n      iszero\n      tag_429\n      jumpi\n        /* \"#utility.yul\":13998:14099   */\n      tag_430\n        /* \"#utility.yul\":14095:14098   */\n      dup8\n        /* \"#utility.yul\":14036:14093   */\n      tag_431\n        /* \"#utility.yul\":14088:14092   */\n      dup4\n        /* \"#utility.yul\":14036:14093   */\n      tag_334\n      jump\t// in\n    tag_431:\n        /* \"#utility.yul\":13998:14099   */\n      tag_221\n      jump\t// in\n    tag_430:\n        /* \"#utility.yul\":14132:14136   */\n      0x20\n        /* \"#utility.yul\":14127:14130   */\n      dup8\n        /* \"#utility.yul\":14123:14137   */\n      add\n        /* \"#utility.yul\":14116:14137   */\n      swap7\n      pop\n        /* \"#utility.yul\":14186:14187   */\n      0x01\n        /* \"#utility.yul\":14173:14184   */\n      dup3\n        /* \"#utility.yul\":14169:14188   */\n      add\n        /* \"#utility.yul\":14154:14188   */\n      swap2\n      pop\n        /* \"#utility.yul\":13975:14202   */\n    tag_429:\n        /* \"#utility.yul\":14219:14220   */\n      0x00\n        /* \"#utility.yul\":14216:14443   */\n      iszero\n      tag_432\n      jumpi\n        /* \"#utility.yul\":14239:14340   */\n      tag_433\n        /* \"#utility.yul\":14336:14339   */\n      dup8\n        /* \"#utility.yul\":14277:14334   */\n      tag_434\n        /* \"#utility.yul\":14329:14333   */\n      dup4\n        /* \"#utility.yul\":14277:14334   */\n      tag_337\n      jump\t// in\n    tag_434:\n        /* \"#utility.yul\":14239:14340   */\n      tag_221\n      jump\t// in\n    tag_433:\n        /* \"#utility.yul\":14373:14377   */\n      0x20\n        /* \"#utility.yul\":14368:14371   */\n      dup8\n        /* \"#utility.yul\":14364:14378   */\n      add\n        /* \"#utility.yul\":14357:14378   */\n      swap7\n      pop\n        /* \"#utility.yul\":14427:14428   */\n      0x01\n        /* \"#utility.yul\":14414:14425   */\n      dup3\n        /* \"#utility.yul\":14410:14429   */\n      add\n        /* \"#utility.yul\":14395:14429   */\n      swap2\n      pop\n        /* \"#utility.yul\":14216:14443   */\n    tag_432:\n        /* \"#utility.yul\":14460:14461   */\n      0x00\n        /* \"#utility.yul\":14457:14684   */\n      iszero\n      tag_435\n      jumpi\n        /* \"#utility.yul\":14480:14581   */\n      tag_436\n        /* \"#utility.yul\":14577:14580   */\n      dup8\n        /* \"#utility.yul\":14518:14575   */\n      tag_437\n        /* \"#utility.yul\":14570:14574   */\n      dup4\n        /* \"#utility.yul\":14518:14575   */\n      tag_340\n      jump\t// in\n    tag_437:\n        /* \"#utility.yul\":14480:14581   */\n      tag_221\n      jump\t// in\n    tag_436:\n        /* \"#utility.yul\":14614:14618   */\n      0x20\n        /* \"#utility.yul\":14609:14612   */\n      dup8\n        /* \"#utility.yul\":14605:14619   */\n      add\n        /* \"#utility.yul\":14598:14619   */\n      swap7\n      pop\n        /* \"#utility.yul\":14668:14669   */\n      0x01\n        /* \"#utility.yul\":14655:14666   */\n      dup3\n        /* \"#utility.yul\":14651:14670   */\n      add\n        /* \"#utility.yul\":14636:14670   */\n      swap2\n      pop\n        /* \"#utility.yul\":14457:14684   */\n    tag_435:\n        /* \"#utility.yul\":14701:14702   */\n      0x00\n        /* \"#utility.yul\":14698:14925   */\n      iszero\n      tag_438\n      jumpi\n        /* \"#utility.yul\":14721:14822   */\n      tag_439\n        /* \"#utility.yul\":14818:14821   */\n      dup8\n        /* \"#utility.yul\":14759:14816   */\n      tag_440\n        /* \"#utility.yul\":14811:14815   */\n      dup4\n        /* \"#utility.yul\":14759:14816   */\n      tag_343\n      jump\t// in\n    tag_440:\n        /* \"#utility.yul\":14721:14822   */\n      tag_221\n      jump\t// in\n    tag_439:\n        /* \"#utility.yul\":14855:14859   */\n      0x20\n        /* \"#utility.yul\":14850:14853   */\n      dup8\n        /* \"#utility.yul\":14846:14860   */\n      add\n        /* \"#utility.yul\":14839:14860   */\n      swap7\n      pop\n        /* \"#utility.yul\":14909:14910   */\n      0x01\n        /* \"#utility.yul\":14896:14907   */\n      dup3\n        /* \"#utility.yul\":14892:14911   */\n      add\n        /* \"#utility.yul\":14877:14911   */\n      swap2\n      pop\n        /* \"#utility.yul\":14698:14925   */\n    tag_438:\n        /* \"#utility.yul\":14942:14943   */\n      0x00\n        /* \"#utility.yul\":14939:15166   */\n      iszero\n      tag_441\n      jumpi\n        /* \"#utility.yul\":14962:15063   */\n      tag_442\n        /* \"#utility.yul\":15059:15062   */\n      dup8\n        /* \"#utility.yul\":15000:15057   */\n      tag_443\n        /* \"#utility.yul\":15052:15056   */\n      dup4\n        /* \"#utility.yul\":15000:15057   */\n      tag_346\n      jump\t// in\n    tag_443:\n        /* \"#utility.yul\":14962:15063   */\n      tag_221\n      jump\t// in\n    tag_442:\n        /* \"#utility.yul\":15096:15100   */\n      0x20\n        /* \"#utility.yul\":15091:15094   */\n      dup8\n        /* \"#utility.yul\":15087:15101   */\n      add\n        /* \"#utility.yul\":15080:15101   */\n      swap7\n      pop\n        /* \"#utility.yul\":15150:15151   */\n      0x01\n        /* \"#utility.yul\":15137:15148   */\n      dup3\n        /* \"#utility.yul\":15133:15152   */\n      add\n        /* \"#utility.yul\":15118:15152   */\n      swap2\n      pop\n        /* \"#utility.yul\":14939:15166   */\n    tag_441:\n        /* \"#utility.yul\":7425:15177   */\n      pop\n        /* \"#utility.yul\":7420:15177   */\n    tag_347:\n        /* \"#utility.yul\":1717:15184   */\n      pop\n      pop\n      pop\n      pop\n        /* \"#utility.yul\":1604:15184   */\n      pop\n      pop\n      jump\t// out\n        /* \"#utility.yul\":15190:15343   */\n    tag_444:\n        /* \"#utility.yul\":15288:15336   */\n      tag_446\n        /* \"#utility.yul\":15330:15335   */\n      dup2\n        /* \"#utility.yul\":15288:15336   */\n      tag_447\n      jump\t// in\n    tag_446:\n        /* \"#utility.yul\":15283:15286   */\n      dup3\n        /* \"#utility.yul\":15276:15337   */\n      mstore\n        /* \"#utility.yul\":15190:15343   */\n      pop\n      pop\n      jump\t// out\n        /* \"#utility.yul\":15349:15478   */\n    tag_221:\n        /* \"#utility.yul\":15430:15471   */\n      tag_449\n        /* \"#utility.yul\":15465:15470   */\n      dup2\n        /* \"#utility.yul\":15430:15471   */\n      tag_450\n      jump\t// in\n    tag_449:\n        /* \"#utility.yul\":15425:15428   */\n      dup3\n        /* \"#utility.yul\":15418:15472   */\n      mstore\n        /* \"#utility.yul\":15349:15478   */\n      pop\n      pop\n      jump\t// out\n        /* \"#utility.yul\":15484:15623   */\n    tag_451:\n        /* \"#utility.yul\":15575:15616   */\n      tag_453\n        /* \"#utility.yul\":15610:15615   */\n      dup2\n        /* \"#utility.yul\":15575:15616   */\n      tag_450\n      jump\t// in\n    tag_453:\n        /* \"#utility.yul\":15570:15573   */\n      dup3\n        /* \"#utility.yul\":15563:15617   */\n      mstore\n        /* \"#utility.yul\":15484:15623   */\n      pop\n      pop\n      jump\t// out\n        /* \"#utility.yul\":15629:15995   */\n    tag_454:\n        /* \"#utility.yul\":15771:15774   */\n      0x00\n        /* \"#utility.yul\":15792:15859   */\n      tag_456\n        /* \"#utility.yul\":15856:15858   */\n      0x15\n        /* \"#utility.yul\":15851:15854   */\n      dup4\n        /* \"#utility.yul\":15792:15859   */\n      tag_457\n      jump\t// in\n    tag_456:\n        /* \"#utility.yul\":15785:15859   */\n      swap2\n      pop\n        /* \"#utility.yul\":15868:15961   */\n      tag_458\n        /* \"#utility.yul\":15957:15960   */\n      dup3\n        /* \"#utility.yul\":15868:15961   */\n      tag_459\n      jump\t// in\n    tag_458:\n        /* \"#utility.yul\":15986:15988   */\n      0x20\n        /* \"#utility.yul\":15981:15984   */\n      dup3\n        /* \"#utility.yul\":15977:15989   */\n      add\n        /* \"#utility.yul\":15970:15989   */\n      swap1\n      pop\n        /* \"#utility.yul\":15629:15995   */\n      swap2\n      swap1\n      pop\n      jump\t// out\n        /* \"#utility.yul\":16001:16367   */\n    tag_460:\n        /* \"#utility.yul\":16143:16146   */\n      0x00\n        /* \"#utility.yul\":16164:16231   */\n      tag_462\n        /* \"#utility.yul\":16228:16230   */\n      0x15\n        /* \"#utility.yul\":16223:16226   */\n      dup4\n        /* \"#utility.yul\":16164:16231   */\n      tag_457\n      jump\t// in\n    tag_462:\n        /* \"#utility.yul\":16157:16231   */\n      swap2\n      pop\n        /* \"#utility.yul\":16240:16333   */\n      tag_463\n        /* \"#utility.yul\":16329:16332   */\n      dup3\n        /* \"#utility.yul\":16240:16333   */\n      tag_464\n      jump\t// in\n    tag_463:\n        /* \"#utility.yul\":16358:16360   */\n      0x20\n        /* \"#utility.yul\":16353:16356   */\n      dup3\n        /* \"#utility.yul\":16349:16361   */\n      add\n        /* \"#utility.yul\":16342:16361   */\n      swap1\n      pop\n        /* \"#utility.yul\":16001:16367   */\n      swap2\n      swap1\n      pop\n      jump\t// out\n        /* \"#utility.yul\":16373:16739   */\n    tag_465:\n        /* \"#utility.yul\":16515:16518   */\n      0x00\n        /* \"#utility.yul\":16536:16603   */\n      tag_467\n        /* \"#utility.yul\":16600:16602   */\n      0x1c\n        /* \"#utility.yul\":16595:16598   */\n      dup4\n        /* \"#utility.yul\":16536:16603   */\n      tag_457\n      jump\t// in\n    tag_467:\n        /* \"#utility.yul\":16529:16603   */\n      swap2\n      pop\n        /* \"#utility.yul\":16612:16705   */\n      tag_468\n        /* \"#utility.yul\":16701:16704   */\n      dup3\n        /* \"#utility.yul\":16612:16705   */\n      tag_469\n      jump\t// in\n    tag_468:\n        /* \"#utility.yul\":16730:16732   */\n      0x20\n        /* \"#utility.yul\":16725:16728   */\n      dup3\n        /* \"#utility.yul\":16721:16733   */\n      add\n        /* \"#utility.yul\":16714:16733   */\n      swap1\n      pop\n        /* \"#utility.yul\":16373:16739   */\n      swap2\n      swap1\n      pop\n      jump\t// out\n        /* \"#utility.yul\":16745:17111   */\n    tag_470:\n        /* \"#utility.yul\":16887:16890   */\n      0x00\n        /* \"#utility.yul\":16908:16975   */\n      tag_472\n        /* \"#utility.yul\":16972:16974   */\n      0x12\n        /* \"#utility.yul\":16967:16970   */\n      dup4\n        /* \"#utility.yul\":16908:16975   */\n      tag_457\n      jump\t// in\n    tag_472:\n        /* \"#utility.yul\":16901:16975   */\n      swap2\n      pop\n        /* \"#utility.yul\":16984:17077   */\n      tag_473\n        /* \"#utility.yul\":17073:17076   */\n      dup3\n        /* \"#utility.yul\":16984:17077   */\n      tag_474\n      jump\t// in\n    tag_473:\n        /* \"#utility.yul\":17102:17104   */\n      0x20\n        /* \"#utility.yul\":17097:17100   */\n      dup3\n        /* \"#utility.yul\":17093:17105   */\n      add\n        /* \"#utility.yul\":17086:17105   */\n      swap1\n      pop\n        /* \"#utility.yul\":16745:17111   */\n      swap2\n      swap1\n      pop\n      jump\t// out\n        /* \"#utility.yul\":17117:17483   */\n    tag_475:\n        /* \"#utility.yul\":17259:17262   */\n      0x00\n        /* \"#utility.yul\":17280:17347   */\n      tag_477\n        /* \"#utility.yul\":17344:17346   */\n      0x0c\n        /* \"#utility.yul\":17339:17342   */\n      dup4\n        /* \"#utility.yul\":17280:17347   */\n      tag_457\n      jump\t// in\n    tag_477:\n        /* \"#utility.yul\":17273:17347   */\n      swap2\n      pop\n        /* \"#utility.yul\":17356:17449   */\n      tag_478\n        /* \"#utility.yul\":17445:17448   */\n      dup3\n        /* \"#utility.yul\":17356:17449   */\n      tag_479\n      jump\t// in\n    tag_478:\n        /* \"#utility.yul\":17474:17476   */\n      0x20\n        /* \"#utility.yul\":17469:17472   */\n      dup3\n        /* \"#utility.yul\":17465:17477   */\n      add\n        /* \"#utility.yul\":17458:17477   */\n      swap1\n      pop\n        /* \"#utility.yul\":17117:17483   */\n      swap2\n      swap1\n      pop\n      jump\t// out\n        /* \"#utility.yul\":17489:17855   */\n    tag_480:\n        /* \"#utility.yul\":17631:17634   */\n      0x00\n        /* \"#utility.yul\":17652:17719   */\n      tag_482\n        /* \"#utility.yul\":17716:17718   */\n      0x1a\n        /* \"#utility.yul\":17711:17714   */\n      dup4\n        /* \"#utility.yul\":17652:17719   */\n      tag_457\n      jump\t// in\n    tag_482:\n        /* \"#utility.yul\":17645:17719   */\n      swap2\n      pop\n        /* \"#utility.yul\":17728:17821   */\n      tag_483\n        /* \"#utility.yul\":17817:17820   */\n      dup3\n        /* \"#utility.yul\":17728:17821   */\n      tag_484\n      jump\t// in\n    tag_483:\n        /* \"#utility.yul\":17846:17848   */\n      0x20\n        /* \"#utility.yul\":17841:17844   */\n      dup3\n        /* \"#utility.yul\":17837:17849   */\n      add\n        /* \"#utility.yul\":17830:17849   */\n      swap1\n      pop\n        /* \"#utility.yul\":17489:17855   */\n      swap2\n      swap1\n      pop\n      jump\t// out\n        /* \"#utility.yul\":17861:18227   */\n    tag_485:\n        /* \"#utility.yul\":18003:18006   */\n      0x00\n        /* \"#utility.yul\":18024:18091   */\n      tag_487\n        /* \"#utility.yul\":18088:18090   */\n      0x1b\n        /* \"#utility.yul\":18083:18086   */\n      dup4\n        /* \"#utility.yul\":18024:18091   */\n      tag_457\n      jump\t// in\n    tag_487:\n        /* \"#utility.yul\":18017:18091   */\n      swap2\n      pop\n        /* \"#utility.yul\":18100:18193   */\n      tag_488\n        /* \"#utility.yul\":18189:18192   */\n      dup3\n        /* \"#utility.yul\":18100:18193   */\n      tag_489\n      jump\t// in\n    tag_488:\n        /* \"#utility.yul\":18218:18220   */\n      0x20\n        /* \"#utility.yul\":18213:18216   */\n      dup3\n        /* \"#utility.yul\":18209:18221   */\n      add\n        /* \"#utility.yul\":18202:18221   */\n      swap1\n      pop\n        /* \"#utility.yul\":17861:18227   */\n      swap2\n      swap1\n      pop\n      jump\t// out\n        /* \"#utility.yul\":18233:18599   */\n    tag_490:\n        /* \"#utility.yul\":18375:18378   */\n      0x00\n        /* \"#utility.yul\":18396:18463   */\n      tag_492\n        /* \"#utility.yul\":18460:18462   */\n      0x1e\n        /* \"#utility.yul\":18455:18458   */\n      dup4\n        /* \"#utility.yul\":18396:18463   */\n      tag_457\n      jump\t// in\n    tag_492:\n        /* \"#utility.yul\":18389:18463   */\n      swap2\n      pop\n        /* \"#utility.yul\":18472:18565   */\n      tag_493\n        /* \"#utility.yul\":18561:18564   */\n      dup3\n        /* \"#utility.yul\":18472:18565   */\n      tag_494\n      jump\t// in\n    tag_493:\n        /* \"#utility.yul\":18590:18592   */\n      0x20\n        /* \"#utility.yul\":18585:18588   */\n      dup3\n        /* \"#utility.yul\":18581:18593   */\n      add\n        /* \"#utility.yul\":18574:18593   */\n      swap1\n      pop\n        /* \"#utility.yul\":18233:18599   */\n      swap2\n      swap1\n      pop\n      jump\t// out\n        /* \"#utility.yul\":18605:18827   */\n    tag_27:\n        /* \"#utility.yul\":18698:18702   */\n      0x00\n        /* \"#utility.yul\":18736:18738   */\n      0x20\n        /* \"#utility.yul\":18725:18734   */\n      dup3\n        /* \"#utility.yul\":18721:18739   */\n      add\n        /* \"#utility.yul\":18713:18739   */\n      swap1\n      pop\n        /* \"#utility.yul\":18749:18820   */\n      tag_496\n        /* \"#utility.yul\":18817:18818   */\n      0x00\n        /* \"#utility.yul\":18806:18815   */\n      dup4\n        /* \"#utility.yul\":18802:18819   */\n      add\n        /* \"#utility.yul\":18793:18799   */\n      dup5\n        /* \"#utility.yul\":18749:18820   */\n      tag_222\n      jump\t// in\n    tag_496:\n        /* \"#utility.yul\":18605:18827   */\n      swap3\n      swap2\n      pop\n      pop\n      jump\t// out\n        /* \"#utility.yul\":18833:19156   */\n    tag_19:\n        /* \"#utility.yul\":18976:18980   */\n      0x00\n        /* \"#utility.yul\":19014:19017   */\n      0x0120\n        /* \"#utility.yul\":19003:19012   */\n      dup3\n        /* \"#utility.yul\":18999:19018   */\n      add\n        /* \"#utility.yul\":18991:19018   */\n      swap1\n      pop\n        /* \"#utility.yul\":19028:19149   */\n      tag_498\n        /* \"#utility.yul\":19146:19147   */\n      0x00\n        /* \"#utility.yul\":19135:19144   */\n      dup4\n        /* \"#utility.yul\":19131:19148   */\n      add\n        /* \"#utility.yul\":19122:19128   */\n      dup5\n        /* \"#utility.yul\":19028:19149   */\n      tag_226\n      jump\t// in\n    tag_498:\n        /* \"#utility.yul\":18833:19156   */\n      swap3\n      swap2\n      pop\n      pop\n      jump\t// out\n        /* \"#utility.yul\":19162:19612   */\n    tag_90:\n        /* \"#utility.yul\":19341:19345   */\n      0x00\n        /* \"#utility.yul\":19379:19382   */\n      0x0140\n        /* \"#utility.yul\":19368:19377   */\n      dup3\n        /* \"#utility.yul\":19364:19383   */\n      add\n        /* \"#utility.yul\":19356:19383   */\n      swap1\n      pop\n        /* \"#utility.yul\":19393:19511   */\n      tag_500\n        /* \"#utility.yul\":19508:19509   */\n      0x00\n        /* \"#utility.yul\":19497:19506   */\n      dup4\n        /* \"#utility.yul\":19493:19510   */\n      add\n        /* \"#utility.yul\":19484:19490   */\n      dup6\n        /* \"#utility.yul\":19393:19511   */\n      tag_240\n      jump\t// in\n    tag_500:\n        /* \"#utility.yul\":19521:19605   */\n      tag_501\n        /* \"#utility.yul\":19600:19603   */\n      0x0120\n        /* \"#utility.yul\":19589:19598   */\n      dup4\n        /* \"#utility.yul\":19585:19604   */\n      add\n        /* \"#utility.yul\":19576:19582   */\n      dup5\n        /* \"#utility.yul\":19521:19605   */\n      tag_444\n      jump\t// in\n    tag_501:\n        /* \"#utility.yul\":19162:19612   */\n      swap4\n      swap3\n      pop\n      pop\n      pop\n      jump\t// out\n        /* \"#utility.yul\":19618:19862   */\n    tag_15:\n        /* \"#utility.yul\":19722:19726   */\n      0x00\n        /* \"#utility.yul\":19760:19762   */\n      0x20\n        /* \"#utility.yul\":19749:19758   */\n      dup3\n        /* \"#utility.yul\":19745:19763   */\n      add\n        /* \"#utility.yul\":19737:19763   */\n      swap1\n      pop\n        /* \"#utility.yul\":19773:19855   */\n      tag_503\n        /* \"#utility.yul\":19852:19853   */\n      0x00\n        /* \"#utility.yul\":19841:19850   */\n      dup4\n        /* \"#utility.yul\":19837:19854   */\n      add\n        /* \"#utility.yul\":19828:19834   */\n      dup5\n        /* \"#utility.yul\":19773:19855   */\n      tag_444\n      jump\t// in\n    tag_503:\n        /* \"#utility.yul\":19618:19862   */\n      swap3\n      swap2\n      pop\n      pop\n      jump\t// out\n        /* \"#utility.yul\":19868:20098   */\n    tag_31:\n        /* \"#utility.yul\":19965:19969   */\n      0x00\n        /* \"#utility.yul\":20003:20005   */\n      0x20\n        /* \"#utility.yul\":19992:20001   */\n      dup3\n        /* \"#utility.yul\":19988:20006   */\n      add\n        /* \"#utility.yul\":19980:20006   */\n      swap1\n      pop\n        /* \"#utility.yul\":20016:20091   */\n      tag_505\n        /* \"#utility.yul\":20088:20089   */\n      0x00\n        /* \"#utility.yul\":20077:20086   */\n      dup4\n        /* \"#utility.yul\":20073:20090   */\n      add\n        /* \"#utility.yul\":20064:20070   */\n      dup5\n        /* \"#utility.yul\":20016:20091   */\n      tag_451\n      jump\t// in\n    tag_505:\n        /* \"#utility.yul\":19868:20098   */\n      swap3\n      swap2\n      pop\n      pop\n      jump\t// out\n        /* \"#utility.yul\":20104:20523   */\n    tag_63:\n        /* \"#utility.yul\":20270:20274   */\n      0x00\n        /* \"#utility.yul\":20308:20310   */\n      0x20\n        /* \"#utility.yul\":20297:20306   */\n      dup3\n        /* \"#utility.yul\":20293:20311   */\n      add\n        /* \"#utility.yul\":20285:20311   */\n      swap1\n      pop\n        /* \"#utility.yul\":20357:20366   */\n      dup2\n        /* \"#utility.yul\":20351:20355   */\n      dup2\n        /* \"#utility.yul\":20347:20367   */\n      sub\n        /* \"#utility.yul\":20343:20344   */\n      0x00\n        /* \"#utility.yul\":20332:20341   */\n      dup4\n        /* \"#utility.yul\":20328:20345   */\n      add\n        /* \"#utility.yul\":20321:20368   */\n      mstore\n        /* \"#utility.yul\":20385:20516   */\n      tag_507\n        /* \"#utility.yul\":20511:20515   */\n      dup2\n        /* \"#utility.yul\":20385:20516   */\n      tag_454\n      jump\t// in\n    tag_507:\n        /* \"#utility.yul\":20377:20516   */\n      swap1\n      pop\n        /* \"#utility.yul\":20104:20523   */\n      swap2\n      swap1\n      pop\n      jump\t// out\n        /* \"#utility.yul\":20529:20948   */\n    tag_98:\n        /* \"#utility.yul\":20695:20699   */\n      0x00\n        /* \"#utility.yul\":20733:20735   */\n      0x20\n        /* \"#utility.yul\":20722:20731   */\n      dup3\n        /* \"#utility.yul\":20718:20736   */\n      add\n        /* \"#utility.yul\":20710:20736   */\n      swap1\n      pop\n        /* \"#utility.yul\":20782:20791   */\n      dup2\n        /* \"#utility.yul\":20776:20780   */\n      dup2\n        /* \"#utility.yul\":20772:20792   */\n      sub\n        /* \"#utility.yul\":20768:20769   */\n      0x00\n        /* \"#utility.yul\":20757:20766   */\n      dup4\n        /* \"#utility.yul\":20753:20770   */\n      add\n        /* \"#utility.yul\":20746:20793   */\n      mstore\n        /* \"#utility.yul\":20810:20941   */\n      tag_509\n        /* \"#utility.yul\":20936:20940   */\n      dup2\n        /* \"#utility.yul\":20810:20941   */\n      tag_460\n      jump\t// in\n    tag_509:\n        /* \"#utility.yul\":20802:20941   */\n      swap1\n      pop\n        /* \"#utility.yul\":20529:20948   */\n      swap2\n      swap1\n      pop\n      jump\t// out\n        /* \"#utility.yul\":20954:21373   */\n    tag_109:\n        /* \"#utility.yul\":21120:21124   */\n      0x00\n        /* \"#utility.yul\":21158:21160   */\n      0x20\n        /* \"#utility.yul\":21147:21156   */\n      dup3\n        /* \"#utility.yul\":21143:21161   */\n      add\n        /* \"#utility.yul\":21135:21161   */\n      swap1\n      pop\n        /* \"#utility.yul\":21207:21216   */\n      dup2\n        /* \"#utility.yul\":21201:21205   */\n      dup2\n        /* \"#utility.yul\":21197:21217   */\n      sub\n        /* \"#utility.yul\":21193:21194   */\n      0x00\n        /* \"#utility.yul\":21182:21191   */\n      dup4\n        /* \"#utility.yul\":21178:21195   */\n      add\n        /* \"#utility.yul\":21171:21218   */\n      mstore\n        /* \"#utility.yul\":21235:21366   */\n      tag_511\n        /* \"#utility.yul\":21361:21365   */\n      dup2\n        /* \"#utility.yul\":21235:21366   */\n      tag_465\n      jump\t// in\n    tag_511:\n        /* \"#utility.yul\":21227:21366   */\n      swap1\n      pop\n        /* \"#utility.yul\":20954:21373   */\n      swap2\n      swap1\n      pop\n      jump\t// out\n        /* \"#utility.yul\":21379:21798   */\n    tag_68:\n        /* \"#utility.yul\":21545:21549   */\n      0x00\n        /* \"#utility.yul\":21583:21585   */\n      0x20\n        /* \"#utility.yul\":21572:21581   */\n      dup3\n        /* \"#utility.yul\":21568:21586   */\n      add\n        /* \"#utility.yul\":21560:21586   */\n      swap1\n      pop\n        /* \"#utility.yul\":21632:21641   */\n      dup2\n        /* \"#utility.yul\":21626:21630   */\n      dup2\n        /* \"#utility.yul\":21622:21642   */\n      sub\n        /* \"#utility.yul\":21618:21619   */\n      0x00\n        /* \"#utility.yul\":21607:21616   */\n      dup4\n        /* \"#utility.yul\":21603:21620   */\n      add\n        /* \"#utility.yul\":21596:21643   */\n      mstore\n        /* \"#utility.yul\":21660:21791   */\n      tag_513\n        /* \"#utility.yul\":21786:21790   */\n      dup2\n        /* \"#utility.yul\":21660:21791   */\n      tag_470\n      jump\t// in\n    tag_513:\n        /* \"#utility.yul\":21652:21791   */\n      swap1\n      pop\n        /* \"#utility.yul\":21379:21798   */\n      swap2\n      swap1\n      pop\n      jump\t// out\n        /* \"#utility.yul\":21804:22223   */\n    tag_60:\n        /* \"#utility.yul\":21970:21974   */\n      0x00\n        /* \"#utility.yul\":22008:22010   */\n      0x20\n        /* \"#utility.yul\":21997:22006   */\n      dup3\n        /* \"#utility.yul\":21993:22011   */\n      add\n        /* \"#utility.yul\":21985:22011   */\n      swap1\n      pop\n        /* \"#utility.yul\":22057:22066   */\n      dup2\n        /* \"#utility.yul\":22051:22055   */\n      dup2\n        /* \"#utility.yul\":22047:22067   */\n      sub\n        /* \"#utility.yul\":22043:22044   */\n      0x00\n        /* \"#utility.yul\":22032:22041   */\n      dup4\n        /* \"#utility.yul\":22028:22045   */\n      add\n        /* \"#utility.yul\":22021:22068   */\n      mstore\n        /* \"#utility.yul\":22085:22216   */\n      tag_515\n        /* \"#utility.yul\":22211:22215   */\n      dup2\n        /* \"#utility.yul\":22085:22216   */\n      tag_475\n      jump\t// in\n    tag_515:\n        /* \"#utility.yul\":22077:22216   */\n      swap1\n      pop\n        /* \"#utility.yul\":21804:22223   */\n      swap2\n      swap1\n      pop\n      jump\t// out\n        /* \"#utility.yul\":22229:22648   */\n    tag_50:\n        /* \"#utility.yul\":22395:22399   */\n      0x00\n        /* \"#utility.yul\":22433:22435   */\n      0x20\n        /* \"#utility.yul\":22422:22431   */\n      dup3\n        /* \"#utility.yul\":22418:22436   */\n      add\n        /* \"#utility.yul\":22410:22436   */\n      swap1\n      pop\n        /* \"#utility.yul\":22482:22491   */\n      dup2\n        /* \"#utility.yul\":22476:22480   */\n      dup2\n        /* \"#utility.yul\":22472:22492   */\n      sub\n        /* \"#utility.yul\":22468:22469   */\n      0x00\n        /* \"#utility.yul\":22457:22466   */\n      dup4\n        /* \"#utility.yul\":22453:22470   */\n      add\n        /* \"#utility.yul\":22446:22493   */\n      mstore\n        /* \"#utility.yul\":22510:22641   */\n      tag_517\n        /* \"#utility.yul\":22636:22640   */\n      dup2\n        /* \"#utility.yul\":22510:22641   */\n      tag_480\n      jump\t// in\n    tag_517:\n        /* \"#utility.yul\":22502:22641   */\n      swap1\n      pop\n        /* \"#utility.yul\":22229:22648   */\n      swap2\n      swap1\n      pop\n      jump\t// out\n        /* \"#utility.yul\":22654:23073   */\n    tag_53:\n        /* \"#utility.yul\":22820:22824   */\n      0x00\n        /* \"#utility.yul\":22858:22860   */\n      0x20\n        /* \"#utility.yul\":22847:22856   */\n      dup3\n        /* \"#utility.yul\":22843:22861   */\n      add\n        /* \"#utility.yul\":22835:22861   */\n      swap1\n      pop\n        /* \"#utility.yul\":22907:22916   */\n      dup2\n        /* \"#utility.yul\":22901:22905   */\n      dup2\n        /* \"#utility.yul\":22897:22917   */\n      sub\n        /* \"#utility.yul\":22893:22894   */\n      0x00\n        /* \"#utility.yul\":22882:22891   */\n      dup4\n        /* \"#utility.yul\":22878:22895   */\n      add\n        /* \"#utility.yul\":22871:22918   */\n      mstore\n        /* \"#utility.yul\":22935:23066   */\n      tag_519\n        /* \"#utility.yul\":23061:23065   */\n      dup2\n        /* \"#utility.yul\":22935:23066   */\n      tag_485\n      jump\t// in\n    tag_519:\n        /* \"#utility.yul\":22927:23066   */\n      swap1\n      pop\n        /* \"#utility.yul\":22654:23073   */\n      swap2\n      swap1\n      pop\n      jump\t// out\n        /* \"#utility.yul\":23079:23498   */\n    tag_79:\n        /* \"#utility.yul\":23245:23249   */\n      0x00\n        /* \"#utility.yul\":23283:23285   */\n      0x20\n        /* \"#utility.yul\":23272:23281   */\n      dup3\n        /* \"#utility.yul\":23268:23286   */\n      add\n        /* \"#utility.yul\":23260:23286   */\n      swap1\n      pop\n        /* \"#utility.yul\":23332:23341   */\n      dup2\n        /* \"#utility.yul\":23326:23330   */\n      dup2\n        /* \"#utility.yul\":23322:23342   */\n      sub\n        /* \"#utility.yul\":23318:23319   */\n      0x00\n        /* \"#utility.yul\":23307:23316   */\n      dup4\n        /* \"#utility.yul\":23303:23320   */\n      add\n        /* \"#utility.yul\":23296:23343   */\n      mstore\n        /* \"#utility.yul\":23360:23491   */\n      tag_521\n        /* \"#utility.yul\":23486:23490   */\n      dup2\n        /* \"#utility.yul\":23360:23491   */\n      tag_490\n      jump\t// in\n    tag_521:\n        /* \"#utility.yul\":23352:23491   */\n      swap1\n      pop\n        /* \"#utility.yul\":23079:23498   */\n      swap2\n      swap1\n      pop\n      jump\t// out\n        /* \"#utility.yul\":23585:23689   */\n    tag_233:\n        /* \"#utility.yul\":23656:23660   */\n      0x00\n        /* \"#utility.yul\":23679:23682   */\n      dup2\n        /* \"#utility.yul\":23671:23682   */\n      swap1\n      pop\n        /* \"#utility.yul\":23585:23689   */\n      swap2\n      swap1\n      pop\n      jump\t// out\n        /* \"#utility.yul\":23695:23796   */\n    tag_246:\n        /* \"#utility.yul\":23763:23767   */\n      0x00\n        /* \"#utility.yul\":23786:23789   */\n      dup2\n        /* \"#utility.yul\":23778:23789   */\n      swap1\n      pop\n        /* \"#utility.yul\":23695:23796   */\n      swap2\n      swap1\n      pop\n      jump\t// out\n        /* \"#utility.yul\":23802:23912   */\n    tag_229:\n        /* \"#utility.yul\":23873:23879   */\n      0x00\n        /* \"#utility.yul\":23901:23905   */\n      0x09\n        /* \"#utility.yul\":23891:23905   */\n      swap1\n      pop\n        /* \"#utility.yul\":23802:23912   */\n      swap2\n      swap1\n      pop\n      jump\t// out\n        /* \"#utility.yul\":23918:24025   */\n    tag_243:\n        /* \"#utility.yul\":23986:23992   */\n      0x00\n        /* \"#utility.yul\":24014:24018   */\n      0x09\n        /* \"#utility.yul\":24004:24018   */\n      swap1\n      pop\n        /* \"#utility.yul\":23918:24025   */\n      swap2\n      swap1\n      pop\n      jump\t// out\n        /* \"#utility.yul\":24031:24148   */\n    tag_239:\n        /* \"#utility.yul\":24105:24109   */\n      0x00\n        /* \"#utility.yul\":24137:24141   */\n      0x20\n        /* \"#utility.yul\":24132:24135   */\n      dup3\n        /* \"#utility.yul\":24128:24142   */\n      add\n        /* \"#utility.yul\":24120:24142   */\n      swap1\n      pop\n        /* \"#utility.yul\":24031:24148   */\n      swap2\n      swap1\n      pop\n      jump\t// out\n        /* \"#utility.yul\":24154:24295   */\n    tag_231:\n        /* \"#utility.yul\":24249:24260   */\n      0x00\n        /* \"#utility.yul\":24286:24289   */\n      dup2\n        /* \"#utility.yul\":24271:24289   */\n      swap1\n      pop\n        /* \"#utility.yul\":24154:24295   */\n      swap3\n      swap2\n      pop\n      pop\n      jump\t// out\n        /* \"#utility.yul\":24301:24470   */\n    tag_457:\n        /* \"#utility.yul\":24385:24396   */\n      0x00\n        /* \"#utility.yul\":24419:24425   */\n      dup3\n        /* \"#utility.yul\":24414:24417   */\n      dup3\n        /* \"#utility.yul\":24407:24426   */\n      mstore\n        /* \"#utility.yul\":24459:24463   */\n      0x20\n        /* \"#utility.yul\":24454:24457   */\n      dup3\n        /* \"#utility.yul\":24450:24464   */\n      add\n        /* \"#utility.yul\":24435:24464   */\n      swap1\n      pop\n        /* \"#utility.yul\":24301:24470   */\n      swap3\n      swap2\n      pop\n      pop\n      jump\t// out\n        /* \"#utility.yul\":24476:24583   */\n    tag_531:\n        /* \"#utility.yul\":24532:24539   */\n      0x00\n        /* \"#utility.yul\":24572:24576   */\n      0xff\n        /* \"#utility.yul\":24565:24570   */\n      dup3\n        /* \"#utility.yul\":24561:24577   */\n      and\n        /* \"#utility.yul\":24550:24577   */\n      swap1\n      pop\n        /* \"#utility.yul\":24476:24583   */\n      swap2\n      swap1\n      pop\n      jump\t// out\n        /* \"#utility.yul\":24589:24685   */\n    tag_225:\n        /* \"#utility.yul\":24626:24633   */\n      0x00\n        /* \"#utility.yul\":24655:24679   */\n      tag_534\n        /* \"#utility.yul\":24673:24678   */\n      dup3\n        /* \"#utility.yul\":24655:24679   */\n      tag_535\n      jump\t// in\n    tag_534:\n        /* \"#utility.yul\":24644:24679   */\n      swap1\n      pop\n        /* \"#utility.yul\":24589:24685   */\n      swap2\n      swap1\n      pop\n      jump\t// out\n        /* \"#utility.yul\":24691:24828   */\n    tag_536:\n        /* \"#utility.yul\":24741:24748   */\n      0x00\n        /* \"#utility.yul\":24770:24775   */\n      dup2\n        /* \"#utility.yul\":24759:24775   */\n      swap1\n      pop\n        /* \"#utility.yul\":24776:24822   */\n      tag_538\n        /* \"#utility.yul\":24816:24821   */\n      dup3\n        /* \"#utility.yul\":24776:24822   */\n      tag_539\n      jump\t// in\n    tag_538:\n        /* \"#utility.yul\":24691:24828   */\n      swap2\n      swap1\n      pop\n      jump\t// out\n        /* \"#utility.yul\":24834:24957   */\n    tag_540:\n        /* \"#utility.yul\":24877:24884   */\n      0x00\n        /* \"#utility.yul\":24906:24911   */\n      dup2\n        /* \"#utility.yul\":24895:24911   */\n      swap1\n      pop\n        /* \"#utility.yul\":24912:24951   */\n      tag_542\n        /* \"#utility.yul\":24945:24950   */\n      dup3\n        /* \"#utility.yul\":24912:24951   */\n      tag_543\n      jump\t// in\n    tag_542:\n        /* \"#utility.yul\":24834:24957   */\n      swap2\n      swap1\n      pop\n      jump\t// out\n        /* \"#utility.yul\":24963:25089   */\n    tag_535:\n        /* \"#utility.yul\":25000:25007   */\n      0x00\n        /* \"#utility.yul\":25040:25082   */\n      0xffffffffffffffffffffffffffffffffffffffff\n        /* \"#utility.yul\":25033:25038   */\n      dup3\n        /* \"#utility.yul\":25029:25083   */\n      and\n        /* \"#utility.yul\":25018:25083   */\n      swap1\n      pop\n        /* \"#utility.yul\":24963:25089   */\n      swap2\n      swap1\n      pop\n      jump\t// out\n        /* \"#utility.yul\":25095:25172   */\n    tag_545:\n        /* \"#utility.yul\":25132:25139   */\n      0x00\n        /* \"#utility.yul\":25161:25166   */\n      dup2\n        /* \"#utility.yul\":25150:25166   */\n      swap1\n      pop\n        /* \"#utility.yul\":25095:25172   */\n      swap2\n      swap1\n      pop\n      jump\t// out\n        /* \"#utility.yul\":25178:25264   */\n    tag_547:\n        /* \"#utility.yul\":25213:25220   */\n      0x00\n        /* \"#utility.yul\":25253:25257   */\n      0xff\n        /* \"#utility.yul\":25246:25251   */\n      dup3\n        /* \"#utility.yul\":25242:25258   */\n      and\n        /* \"#utility.yul\":25231:25258   */\n      swap1\n      pop\n        /* \"#utility.yul\":25178:25264   */\n      swap2\n      swap1\n      pop\n      jump\t// out\n        /* \"#utility.yul\":25270:25407   */\n    tag_447:\n        /* \"#utility.yul\":25331:25340   */\n      0x00\n        /* \"#utility.yul\":25364:25401   */\n      tag_550\n        /* \"#utility.yul\":25395:25400   */\n      dup3\n        /* \"#utility.yul\":25364:25401   */\n      tag_536\n      jump\t// in\n    tag_550:\n        /* \"#utility.yul\":25351:25401   */\n      swap1\n      pop\n        /* \"#utility.yul\":25270:25407   */\n      swap2\n      swap1\n      pop\n      jump\t// out\n        /* \"#utility.yul\":25413:25536   */\n    tag_450:\n        /* \"#utility.yul\":25467:25476   */\n      0x00\n        /* \"#utility.yul\":25500:25530   */\n      tag_552\n        /* \"#utility.yul\":25524:25529   */\n      dup3\n        /* \"#utility.yul\":25500:25530   */\n      tag_540\n      jump\t// in\n    tag_552:\n        /* \"#utility.yul\":25487:25530   */\n      swap1\n      pop\n        /* \"#utility.yul\":25413:25536   */\n      swap2\n      swap1\n      pop\n      jump\t// out\n        /* \"#utility.yul\":25542:25720   */\n    tag_253:\n        /* \"#utility.yul\":25617:25622   */\n      0x00\n        /* \"#utility.yul\":25642:25714   */\n      tag_554\n        /* \"#utility.yul\":25679:25713   */\n      tag_555\n        /* \"#utility.yul\":25702:25712   */\n      dup4\n        /* \"#utility.yul\":25679:25713   */\n      tag_556\n      jump\t// in\n    tag_555:\n        /* \"#utility.yul\":25642:25714   */\n      tag_531\n      jump\t// in\n    tag_554:\n        /* \"#utility.yul\":25633:25714   */\n      swap1\n      pop\n        /* \"#utility.yul\":25542:25720   */\n      swap2\n      swap1\n      pop\n      jump\t// out\n        /* \"#utility.yul\":25726:25906   */\n    tag_283:\n        /* \"#utility.yul\":25802:25807   */\n      0x00\n        /* \"#utility.yul\":25827:25900   */\n      tag_558\n        /* \"#utility.yul\":25864:25899   */\n      tag_559\n        /* \"#utility.yul\":25888:25898   */\n      dup4\n        /* \"#utility.yul\":25864:25899   */\n      tag_560\n      jump\t// in\n    tag_559:\n        /* \"#utility.yul\":25827:25900   */\n      tag_531\n      jump\t// in\n    tag_558:\n        /* \"#utility.yul\":25818:25900   */\n      swap1\n      pop\n        /* \"#utility.yul\":25726:25906   */\n      swap2\n      swap1\n      pop\n      jump\t// out\n        /* \"#utility.yul\":25912:26092   */\n    tag_286:\n        /* \"#utility.yul\":25988:25993   */\n      0x00\n        /* \"#utility.yul\":26013:26086   */\n      tag_562\n        /* \"#utility.yul\":26050:26085   */\n      tag_563\n        /* \"#utility.yul\":26074:26084   */\n      dup4\n        /* \"#utility.yul\":26050:26085   */\n      tag_564\n      jump\t// in\n    tag_563:\n        /* \"#utility.yul\":26013:26086   */\n      tag_531\n      jump\t// in\n    tag_562:\n        /* \"#utility.yul\":26004:26086   */\n      swap1\n      pop\n        /* \"#utility.yul\":25912:26092   */\n      swap2\n      swap1\n      pop\n      jump\t// out\n        /* \"#utility.yul\":26098:26278   */\n    tag_289:\n        /* \"#utility.yul\":26174:26179   */\n      0x00\n        /* \"#utility.yul\":26199:26272   */\n      tag_566\n        /* \"#utility.yul\":26236:26271   */\n      tag_567\n        /* \"#utility.yul\":26260:26270   */\n      dup4\n        /* \"#utility.yul\":26236:26271   */\n      tag_568\n      jump\t// in\n    tag_567:\n        /* \"#utility.yul\":26199:26272   */\n      tag_531\n      jump\t// in\n    tag_566:\n        /* \"#utility.yul\":26190:26272   */\n      swap1\n      pop\n        /* \"#utility.yul\":26098:26278   */\n      swap2\n      swap1\n      pop\n      jump\t// out\n        /* \"#utility.yul\":26284:26465   */\n    tag_292:\n        /* \"#utility.yul\":26360:26365   */\n      0x00\n        /* \"#utility.yul\":26385:26459   */\n      tag_570\n        /* \"#utility.yul\":26422:26458   */\n      tag_571\n        /* \"#utility.yul\":26447:26457   */\n      dup4\n        /* \"#utility.yul\":26422:26458   */\n      tag_572\n      jump\t// in\n    tag_571:\n        /* \"#utility.yul\":26385:26459   */\n      tag_531\n      jump\t// in\n    tag_570:\n        /* \"#utility.yul\":26376:26459   */\n      swap1\n      pop\n        /* \"#utility.yul\":26284:26465   */\n      swap2\n      swap1\n      pop\n      jump\t// out\n        /* \"#utility.yul\":26471:26652   */\n    tag_295:\n        /* \"#utility.yul\":26547:26552   */\n      0x00\n        /* \"#utility.yul\":26572:26646   */\n      tag_574\n        /* \"#utility.yul\":26609:26645   */\n      tag_575\n        /* \"#utility.yul\":26634:26644   */\n      dup4\n        /* \"#utility.yul\":26609:26645   */\n      tag_576\n      jump\t// in\n    tag_575:\n        /* \"#utility.yul\":26572:26646   */\n      tag_531\n      jump\t// in\n    tag_574:\n        /* \"#utility.yul\":26563:26646   */\n      swap1\n      pop\n        /* \"#utility.yul\":26471:26652   */\n      swap2\n      swap1\n      pop\n      jump\t// out\n        /* \"#utility.yul\":26658:26839   */\n    tag_298:\n        /* \"#utility.yul\":26734:26739   */\n      0x00\n        /* \"#utility.yul\":26759:26833   */\n      tag_578\n        /* \"#utility.yul\":26796:26832   */\n      tag_579\n        /* \"#utility.yul\":26821:26831   */\n      dup4\n        /* \"#utility.yul\":26796:26832   */\n      tag_580\n      jump\t// in\n    tag_579:\n        /* \"#utility.yul\":26759:26833   */\n      tag_531\n      jump\t// in\n    tag_578:\n        /* \"#utility.yul\":26750:26833   */\n      swap1\n      pop\n        /* \"#utility.yul\":26658:26839   */\n      swap2\n      swap1\n      pop\n      jump\t// out\n        /* \"#utility.yul\":26845:27026   */\n    tag_301:\n        /* \"#utility.yul\":26921:26926   */\n      0x00\n        /* \"#utility.yul\":26946:27020   */\n      tag_582\n        /* \"#utility.yul\":26983:27019   */\n      tag_583\n        /* \"#utility.yul\":27008:27018   */\n      dup4\n        /* \"#utility.yul\":26983:27019   */\n      tag_584\n      jump\t// in\n    tag_583:\n        /* \"#utility.yul\":26946:27020   */\n      tag_531\n      jump\t// in\n    tag_582:\n        /* \"#utility.yul\":26937:27020   */\n      swap1\n      pop\n        /* \"#utility.yul\":26845:27026   */\n      swap2\n      swap1\n      pop\n      jump\t// out\n        /* \"#utility.yul\":27032:27213   */\n    tag_304:\n        /* \"#utility.yul\":27108:27113   */\n      0x00\n        /* \"#utility.yul\":27133:27207   */\n      tag_586\n        /* \"#utility.yul\":27170:27206   */\n      tag_587\n        /* \"#utility.yul\":27195:27205   */\n      dup4\n        /* \"#utility.yul\":27170:27206   */\n      tag_588\n      jump\t// in\n    tag_587:\n        /* \"#utility.yul\":27133:27207   */\n      tag_531\n      jump\t// in\n    tag_586:\n        /* \"#utility.yul\":27124:27207   */\n      swap1\n      pop\n        /* \"#utility.yul\":27032:27213   */\n      swap2\n      swap1\n      pop\n      jump\t// out\n        /* \"#utility.yul\":27219:27400   */\n    tag_307:\n        /* \"#utility.yul\":27295:27300   */\n      0x00\n        /* \"#utility.yul\":27320:27394   */\n      tag_590\n        /* \"#utility.yul\":27357:27393   */\n      tag_591\n        /* \"#utility.yul\":27382:27392   */\n      dup4\n        /* \"#utility.yul\":27357:27393   */\n      tag_592\n      jump\t// in\n    tag_591:\n        /* \"#utility.yul\":27320:27394   */\n      tag_531\n      jump\t// in\n    tag_590:\n        /* \"#utility.yul\":27311:27394   */\n      swap1\n      pop\n        /* \"#utility.yul\":27219:27400   */\n      swap2\n      swap1\n      pop\n      jump\t// out\n        /* \"#utility.yul\":27406:27587   */\n    tag_310:\n        /* \"#utility.yul\":27482:27487   */\n      0x00\n        /* \"#utility.yul\":27507:27581   */\n      tag_594\n        /* \"#utility.yul\":27544:27580   */\n      tag_595\n        /* \"#utility.yul\":27569:27579   */\n      dup4\n        /* \"#utility.yul\":27544:27580   */\n      tag_596\n      jump\t// in\n    tag_595:\n        /* \"#utility.yul\":27507:27581   */\n      tag_531\n      jump\t// in\n    tag_594:\n        /* \"#utility.yul\":27498:27581   */\n      swap1\n      pop\n        /* \"#utility.yul\":27406:27587   */\n      swap2\n      swap1\n      pop\n      jump\t// out\n        /* \"#utility.yul\":27593:27771   */\n    tag_256:\n        /* \"#utility.yul\":27668:27673   */\n      0x00\n        /* \"#utility.yul\":27693:27765   */\n      tag_598\n        /* \"#utility.yul\":27730:27764   */\n      tag_599\n        /* \"#utility.yul\":27753:27763   */\n      dup4\n        /* \"#utility.yul\":27730:27764   */\n      tag_600\n      jump\t// in\n    tag_599:\n        /* \"#utility.yul\":27693:27765   */\n      tag_531\n      jump\t// in\n    tag_598:\n        /* \"#utility.yul\":27684:27765   */\n      swap1\n      pop\n        /* \"#utility.yul\":27593:27771   */\n      swap2\n      swap1\n      pop\n      jump\t// out\n        /* \"#utility.yul\":27777:27958   */\n    tag_313:\n        /* \"#utility.yul\":27853:27858   */\n      0x00\n        /* \"#utility.yul\":27878:27952   */\n      tag_602\n        /* \"#utility.yul\":27915:27951   */\n      tag_603\n        /* \"#utility.yul\":27940:27950   */\n      dup4\n        /* \"#utility.yul\":27915:27951   */\n      tag_604\n      jump\t// in\n    tag_603:\n        /* \"#utility.yul\":27878:27952   */\n      tag_531\n      jump\t// in\n    tag_602:\n        /* \"#utility.yul\":27869:27952   */\n      swap1\n      pop\n        /* \"#utility.yul\":27777:27958   */\n      swap2\n      swap1\n      pop\n      jump\t// out\n        /* \"#utility.yul\":27964:28145   */\n    tag_316:\n        /* \"#utility.yul\":28040:28045   */\n      0x00\n        /* \"#utility.yul\":28065:28139   */\n      tag_606\n        /* \"#utility.yul\":28102:28138   */\n      tag_607\n        /* \"#utility.yul\":28127:28137   */\n      dup4\n        /* \"#utility.yul\":28102:28138   */\n      tag_608\n      jump\t// in\n    tag_607:\n        /* \"#utility.yul\":28065:28139   */\n      tag_531\n      jump\t// in\n    tag_606:\n        /* \"#utility.yul\":28056:28139   */\n      swap1\n      pop\n        /* \"#utility.yul\":27964:28145   */\n      swap2\n      swap1\n      pop\n      jump\t// out\n        /* \"#utility.yul\":28151:28332   */\n    tag_319:\n        /* \"#utility.yul\":28227:28232   */\n      0x00\n        /* \"#utility.yul\":28252:28326   */\n      tag_610\n        /* \"#utility.yul\":28289:28325   */\n      tag_611\n        /* \"#utility.yul\":28314:28324   */\n      dup4\n        /* \"#utility.yul\":28289:28325   */\n      tag_612\n      jump\t// in\n    tag_611:\n        /* \"#utility.yul\":28252:28326   */\n      tag_531\n      jump\t// in\n    tag_610:\n        /* \"#utility.yul\":28243:28326   */\n      swap1\n      pop\n        /* \"#utility.yul\":28151:28332   */\n      swap2\n      swap1\n      pop\n      jump\t// out\n        /* \"#utility.yul\":28338:28519   */\n    tag_322:\n        /* \"#utility.yul\":28414:28419   */\n      0x00\n        /* \"#utility.yul\":28439:28513   */\n      tag_614\n        /* \"#utility.yul\":28476:28512   */\n      tag_615\n        /* \"#utility.yul\":28501:28511   */\n      dup4\n        /* \"#utility.yul\":28476:28512   */\n      tag_616\n      jump\t// in\n    tag_615:\n        /* \"#utility.yul\":28439:28513   */\n      tag_531\n      jump\t// in\n    tag_614:\n        /* \"#utility.yul\":28430:28513   */\n      swap1\n      pop\n        /* \"#utility.yul\":28338:28519   */\n      swap2\n      swap1\n      pop\n      jump\t// out\n        /* \"#utility.yul\":28525:28706   */\n    tag_325:\n        /* \"#utility.yul\":28601:28606   */\n      0x00\n        /* \"#utility.yul\":28626:28700   */\n      tag_618\n        /* \"#utility.yul\":28663:28699   */\n      tag_619\n        /* \"#utility.yul\":28688:28698   */\n      dup4\n        /* \"#utility.yul\":28663:28699   */\n      tag_620\n      jump\t// in\n    tag_619:\n        /* \"#utility.yul\":28626:28700   */\n      tag_531\n      jump\t// in\n    tag_618:\n        /* \"#utility.yul\":28617:28700   */\n      swap1\n      pop\n        /* \"#utility.yul\":28525:28706   */\n      swap2\n      swap1\n      pop\n      jump\t// out\n        /* \"#utility.yul\":28712:28893   */\n    tag_328:\n        /* \"#utility.yul\":28788:28793   */\n      0x00\n        /* \"#utility.yul\":28813:28887   */\n      tag_622\n        /* \"#utility.yul\":28850:28886   */\n      tag_623\n        /* \"#utility.yul\":28875:28885   */\n      dup4\n        /* \"#utility.yul\":28850:28886   */\n      tag_624\n      jump\t// in\n    tag_623:\n        /* \"#utility.yul\":28813:28887   */\n      tag_531\n      jump\t// in\n    tag_622:\n        /* \"#utility.yul\":28804:28887   */\n      swap1\n      pop\n        /* \"#utility.yul\":28712:28893   */\n      swap2\n      swap1\n      pop\n      jump\t// out\n        /* \"#utility.yul\":28899:29080   */\n    tag_331:\n        /* \"#utility.yul\":28975:28980   */\n      0x00\n        /* \"#utility.yul\":29000:29074   */\n      tag_626\n        /* \"#utility.yul\":29037:29073   */\n      tag_627\n        /* \"#utility.yul\":29062:29072   */\n      dup4\n        /* \"#utility.yul\":29037:29073   */\n      tag_628\n      jump\t// in\n    tag_627:\n        /* \"#utility.yul\":29000:29074   */\n      tag_531\n      jump\t// in\n    tag_626:\n        /* \"#utility.yul\":28991:29074   */\n      swap1\n      pop\n        /* \"#utility.yul\":28899:29080   */\n      swap2\n      swap1\n      pop\n      jump\t// out\n        /* \"#utility.yul\":29086:29267   */\n    tag_334:\n        /* \"#utility.yul\":29162:29167   */\n      0x00\n        /* \"#utility.yul\":29187:29261   */\n      tag_630\n        /* \"#utility.yul\":29224:29260   */\n      tag_631\n        /* \"#utility.yul\":29249:29259   */\n      dup4\n        /* \"#utility.yul\":29224:29260   */\n      tag_632\n      jump\t// in\n    tag_631:\n        /* \"#utility.yul\":29187:29261   */\n      tag_531\n      jump\t// in\n    tag_630:\n        /* \"#utility.yul\":29178:29261   */\n      swap1\n      pop\n        /* \"#utility.yul\":29086:29267   */\n      swap2\n      swap1\n      pop\n      jump\t// out\n        /* \"#utility.yul\":29273:29454   */\n    tag_337:\n        /* \"#utility.yul\":29349:29354   */\n      0x00\n        /* \"#utility.yul\":29374:29448   */\n      tag_634\n        /* \"#utility.yul\":29411:29447   */\n      tag_635\n        /* \"#utility.yul\":29436:29446   */\n      dup4\n        /* \"#utility.yul\":29411:29447   */\n      tag_636\n      jump\t// in\n    tag_635:\n        /* \"#utility.yul\":29374:29448   */\n      tag_531\n      jump\t// in\n    tag_634:\n        /* \"#utility.yul\":29365:29448   */\n      swap1\n      pop\n        /* \"#utility.yul\":29273:29454   */\n      swap2\n      swap1\n      pop\n      jump\t// out\n        /* \"#utility.yul\":29460:29641   */\n    tag_340:\n        /* \"#utility.yul\":29536:29541   */\n      0x00\n        /* \"#utility.yul\":29561:29635   */\n      tag_638\n        /* \"#utility.yul\":29598:29634   */\n      tag_639\n        /* \"#utility.yul\":29623:29633   */\n      dup4\n        /* \"#utility.yul\":29598:29634   */\n      tag_640\n      jump\t// in\n    tag_639:\n        /* \"#utility.yul\":29561:29635   */\n      tag_531\n      jump\t// in\n    tag_638:\n        /* \"#utility.yul\":29552:29635   */\n      swap1\n      pop\n        /* \"#utility.yul\":29460:29641   */\n      swap2\n      swap1\n      pop\n      jump\t// out\n        /* \"#utility.yul\":29647:29826   */\n    tag_259:\n        /* \"#utility.yul\":29722:29727   */\n      0x00\n        /* \"#utility.yul\":29747:29820   */\n      tag_642\n        /* \"#utility.yul\":29784:29819   */\n      tag_643\n        /* \"#utility.yul\":29808:29818   */\n      dup4\n        /* \"#utility.yul\":29784:29819   */\n      tag_644\n      jump\t// in\n    tag_643:\n        /* \"#utility.yul\":29747:29820   */\n      tag_531\n      jump\t// in\n    tag_642:\n        /* \"#utility.yul\":29738:29820   */\n      swap1\n      pop\n        /* \"#utility.yul\":29647:29826   */\n      swap2\n      swap1\n      pop\n      jump\t// out\n        /* \"#utility.yul\":29832:30013   */\n    tag_343:\n        /* \"#utility.yul\":29908:29913   */\n      0x00\n        /* \"#utility.yul\":29933:30007   */\n      tag_646\n        /* \"#utility.yul\":29970:30006   */\n      tag_647\n        /* \"#utility.yul\":29995:30005   */\n      dup4\n        /* \"#utility.yul\":29970:30006   */\n      tag_648\n      jump\t// in\n    tag_647:\n        /* \"#utility.yul\":29933:30007   */\n      tag_531\n      jump\t// in\n    tag_646:\n        /* \"#utility.yul\":29924:30007   */\n      swap1\n      pop\n        /* \"#utility.yul\":29832:30013   */\n      swap2\n      swap1\n      pop\n      jump\t// out\n        /* \"#utility.yul\":30019:30200   */\n    tag_346:\n        /* \"#utility.yul\":30095:30100   */\n      0x00\n        /* \"#utility.yul\":30120:30194   */\n      tag_650\n        /* \"#utility.yul\":30157:30193   */\n      tag_651\n        /* \"#utility.yul\":30182:30192   */\n      dup4\n        /* \"#utility.yul\":30157:30193   */\n      tag_652\n      jump\t// in\n    tag_651:\n        /* \"#utility.yul\":30120:30194   */\n      tag_531\n      jump\t// in\n    tag_650:\n        /* \"#utility.yul\":30111:30194   */\n      swap1\n      pop\n        /* \"#utility.yul\":30019:30200   */\n      swap2\n      swap1\n      pop\n      jump\t// out\n        /* \"#utility.yul\":30206:30385   */\n    tag_262:\n        /* \"#utility.yul\":30281:30286   */\n      0x00\n        /* \"#utility.yul\":30306:30379   */\n      tag_654\n        /* \"#utility.yul\":30343:30378   */\n      tag_655\n        /* \"#utility.yul\":30367:30377   */\n      dup4\n        /* \"#utility.yul\":30343:30378   */\n      tag_656\n      jump\t// in\n    tag_655:\n        /* \"#utility.yul\":30306:30379   */\n      tag_531\n      jump\t// in\n    tag_654:\n        /* \"#utility.yul\":30297:30379   */\n      swap1\n      pop\n        /* \"#utility.yul\":30206:30385   */\n      swap2\n      swap1\n      pop\n      jump\t// out\n        /* \"#utility.yul\":30391:30570   */\n    tag_265:\n        /* \"#utility.yul\":30466:30471   */\n      0x00\n        /* \"#utility.yul\":30491:30564   */\n      tag_658\n        /* \"#utility.yul\":30528:30563   */\n      tag_659\n        /* \"#utility.yul\":30552:30562   */\n      dup4\n        /* \"#utility.yul\":30528:30563   */\n      tag_660\n      jump\t// in\n    tag_659:\n        /* \"#utility.yul\":30491:30564   */\n      tag_531\n      jump\t// in\n    tag_658:\n        /* \"#utility.yul\":30482:30564   */\n      swap1\n      pop\n        /* \"#utility.yul\":30391:30570   */\n      swap2\n      swap1\n      pop\n      jump\t// out\n        /* \"#utility.yul\":30576:30755   */\n    tag_268:\n        /* \"#utility.yul\":30651:30656   */\n      0x00\n        /* \"#utility.yul\":30676:30749   */\n      tag_662\n        /* \"#utility.yul\":30713:30748   */\n      tag_663\n        /* \"#utility.yul\":30737:30747   */\n      dup4\n        /* \"#utility.yul\":30713:30748   */\n      tag_664\n      jump\t// in\n    tag_663:\n        /* \"#utility.yul\":30676:30749   */\n      tag_531\n      jump\t// in\n    tag_662:\n        /* \"#utility.yul\":30667:30749   */\n      swap1\n      pop\n        /* \"#utility.yul\":30576:30755   */\n      swap2\n      swap1\n      pop\n      jump\t// out\n        /* \"#utility.yul\":30761:30940   */\n    tag_271:\n        /* \"#utility.yul\":30836:30841   */\n      0x00\n        /* \"#utility.yul\":30861:30934   */\n      tag_666\n        /* \"#utility.yul\":30898:30933   */\n      tag_667\n        /* \"#utility.yul\":30922:30932   */\n      dup4\n        /* \"#utility.yul\":30898:30933   */\n      tag_668\n      jump\t// in\n    tag_667:\n        /* \"#utility.yul\":30861:30934   */\n      tag_531\n      jump\t// in\n    tag_666:\n        /* \"#utility.yul\":30852:30934   */\n      swap1\n      pop\n        /* \"#utility.yul\":30761:30940   */\n      swap2\n      swap1\n      pop\n      jump\t// out\n        /* \"#utility.yul\":30946:31125   */\n    tag_274:\n        /* \"#utility.yul\":31021:31026   */\n      0x00\n        /* \"#utility.yul\":31046:31119   */\n      tag_670\n        /* \"#utility.yul\":31083:31118   */\n      tag_671\n        /* \"#utility.yul\":31107:31117   */\n      dup4\n        /* \"#utility.yul\":31083:31118   */\n      tag_672\n      jump\t// in\n    tag_671:\n        /* \"#utility.yul\":31046:31119   */\n      tag_531\n      jump\t// in\n    tag_670:\n        /* \"#utility.yul\":31037:31119   */\n      swap1\n      pop\n        /* \"#utility.yul\":30946:31125   */\n      swap2\n      swap1\n      pop\n      jump\t// out\n        /* \"#utility.yul\":31131:31310   */\n    tag_277:\n        /* \"#utility.yul\":31206:31211   */\n      0x00\n        /* \"#utility.yul\":31231:31304   */\n      tag_674\n        /* \"#utility.yul\":31268:31303   */\n      tag_675\n        /* \"#utility.yul\":31292:31302   */\n      dup4\n        /* \"#utility.yul\":31268:31303   */\n      tag_676\n      jump\t// in\n    tag_675:\n        /* \"#utility.yul\":31231:31304   */\n      tag_531\n      jump\t// in\n    tag_674:\n        /* \"#utility.yul\":31222:31304   */\n      swap1\n      pop\n        /* \"#utility.yul\":31131:31310   */\n      swap2\n      swap1\n      pop\n      jump\t// out\n        /* \"#utility.yul\":31316:31495   */\n    tag_280:\n        /* \"#utility.yul\":31391:31396   */\n      0x00\n        /* \"#utility.yul\":31416:31489   */\n      tag_678\n        /* \"#utility.yul\":31453:31488   */\n      tag_679\n        /* \"#utility.yul\":31477:31487   */\n      dup4\n        /* \"#utility.yul\":31453:31488   */\n      tag_680\n      jump\t// in\n    tag_679:\n        /* \"#utility.yul\":31416:31489   */\n      tag_531\n      jump\t// in\n    tag_678:\n        /* \"#utility.yul\":31407:31489   */\n      swap1\n      pop\n        /* \"#utility.yul\":31316:31495   */\n      swap2\n      swap1\n      pop\n      jump\t// out\n        /* \"#utility.yul\":31501:31734   */\n    tag_207:\n        /* \"#utility.yul\":31540:31543   */\n      0x00\n        /* \"#utility.yul\":31563:31587   */\n      tag_682\n        /* \"#utility.yul\":31581:31586   */\n      dup3\n        /* \"#utility.yul\":31563:31587   */\n      tag_545\n      jump\t// in\n    tag_682:\n        /* \"#utility.yul\":31554:31587   */\n      swap2\n      pop\n        /* \"#utility.yul\":31609:31675   */\n      0xffffffffffffffffffffffffffffffffffffffffffffffffffffffffffffffff\n        /* \"#utility.yul\":31602:31607   */\n      dup3\n        /* \"#utility.yul\":31599:31676   */\n      eq\n        /* \"#utility.yul\":31596:31699   */\n      iszero\n      tag_683\n      jumpi\n        /* \"#utility.yul\":31679:31697   */\n      tag_684\n      tag_685\n      jump\t// in\n    tag_684:\n        /* \"#utility.yul\":31596:31699   */\n    tag_683:\n        /* \"#utility.yul\":31726:31727   */\n      0x01\n        /* \"#utility.yul\":31719:31724   */\n      dup3\n        /* \"#utility.yul\":31715:31728   */\n      add\n        /* \"#utility.yul\":31708:31728   */\n      swap1\n      pop\n        /* \"#utility.yul\":31501:31734   */\n      swap2\n      swap1\n      pop\n      jump\t// out\n        /* \"#utility.yul\":31740:31907   */\n    tag_190:\n        /* \"#utility.yul\":31777:31780   */\n      0x00\n        /* \"#utility.yul\":31800:31822   */\n      tag_687\n        /* \"#utility.yul\":31816:31821   */\n      dup3\n        /* \"#utility.yul\":31800:31822   */\n      tag_547\n      jump\t// in\n    tag_687:\n        /* \"#utility.yul\":31791:31822   */\n      swap2\n      pop\n        /* \"#utility.yul\":31844:31848   */\n      0xff\n        /* \"#utility.yul\":31837:31842   */\n      dup3\n        /* \"#utility.yul\":31834:31849   */\n      eq\n        /* \"#utility.yul\":31831:31872   */\n      iszero\n      tag_688\n      jumpi\n        /* \"#utility.yul\":31852:31870   */\n      tag_689\n      tag_685\n      jump\t// in\n    tag_689:\n        /* \"#utility.yul\":31831:31872   */\n    tag_688:\n        /* \"#utility.yul\":31899:31900   */\n      0x01\n        /* \"#utility.yul\":31892:31897   */\n      dup3\n        /* \"#utility.yul\":31888:31901   */\n      add\n        /* \"#utility.yul\":31881:31901   */\n      swap1\n      pop\n        /* \"#utility.yul\":31740:31907   */\n      swap2\n      swap1\n      pop\n      jump\t// out\n        /* \"#utility.yul\":31913:32093   */\n    tag_685:\n        /* \"#utility.yul\":31961:32038   */\n      0x4e487b7100000000000000000000000000000000000000000000000000000000\n        /* \"#utility.yul\":31958:31959   */\n      0x00\n        /* \"#utility.yul\":31951:32039   */\n      mstore\n        /* \"#utility.yul\":32058:32062   */\n      0x11\n        /* \"#utility.yul\":32055:32056   */\n      0x04\n        /* \"#utility.yul\":32048:32063   */\n      mstore\n        /* \"#utility.yul\":32082:32086   */\n      0x24\n        /* \"#utility.yul\":32079:32080   */\n      0x00\n        /* \"#utility.yul\":32072:32087   */\n      revert\n        /* \"#utility.yul\":32099:32279   */\n    tag_46:\n        /* \"#utility.yul\":32147:32224   */\n      0x4e487b7100000000000000000000000000000000000000000000000000000000\n        /* \"#utility.yul\":32144:32145   */\n      0x00\n        /* \"#utility.yul\":32137:32225   */\n      mstore\n        /* \"#utility.yul\":32244:32248   */\n      0x21\n        /* \"#utility.yul\":32241:32242   */\n      0x04\n        /* \"#utility.yul\":32234:32249   */\n      mstore\n        /* \"#utility.yul\":32268:32272   */\n      0x24\n        /* \"#utility.yul\":32265:32266   */\n      0x00\n        /* \"#utility.yul\":32258:32273   */\n      revert\n        /* \"#utility.yul\":32285:32465   */\n    tag_73:\n        /* \"#utility.yul\":32333:32410   */\n      0x4e487b7100000000000000000000000000000000000000000000000000000000\n        /* \"#utility.yul\":32330:32331   */\n      0x00\n        /* \"#utility.yul\":32323:32411   */\n      mstore\n        /* \"#utility.yul\":32430:32434   */\n      0x32\n        /* \"#utility.yul\":32427:32428   */\n      0x04\n        /* \"#utility.yul\":32420:32435   */\n      mstore\n        /* \"#utility.yul\":32454:32458   */\n      0x24\n        /* \"#utility.yul\":32451:32452   */\n      0x00\n        /* \"#utility.yul\":32444:32459   */\n      revert\n        /* \"#utility.yul\":32594:32711   */\n    tag_216:\n        /* \"#utility.yul\":32703:32704   */\n      0x00\n        /* \"#utility.yul\":32700:32701   */\n      dup1\n        /* \"#utility.yul\":32693:32705   */\n      revert\n        /* \"#utility.yul\":32717:32819   */\n    tag_556:\n        /* \"#utility.yul\":32759:32767   */\n      0x00\n        /* \"#utility.yul\":32806:32811   */\n      dup2\n        /* \"#utility.yul\":32803:32804   */\n      0x00\n        /* \"#utility.yul\":32799:32812   */\n      shr\n        /* \"#utility.yul\":32778:32812   */\n      swap1\n      pop\n        /* \"#utility.yul\":32717:32819   */\n      swap2\n      swap1\n      pop\n      jump\t// out\n        /* \"#utility.yul\":32825:32931   */\n    tag_572:\n        /* \"#utility.yul\":32869:32877   */\n      0x00\n        /* \"#utility.yul\":32918:32923   */\n      dup2\n        /* \"#utility.yul\":32913:32916   */\n      0x68\n        /* \"#utility.yul\":32909:32924   */\n      shr\n        /* \"#utility.yul\":32888:32924   */\n      swap1\n      pop\n        /* \"#utility.yul\":32825:32931   */\n      swap2\n      swap1\n      pop\n      jump\t// out\n        /* \"#utility.yul\":32937:33043   */\n    tag_576:\n        /* \"#utility.yul\":32981:32989   */\n      0x00\n        /* \"#utility.yul\":33030:33035   */\n      dup2\n        /* \"#utility.yul\":33025:33028   */\n      0x70\n        /* \"#utility.yul\":33021:33036   */\n      shr\n        /* \"#utility.yul\":33000:33036   */\n      swap1\n      pop\n        /* \"#utility.yul\":32937:33043   */\n      swap2\n      swap1\n      pop\n      jump\t// out\n        /* \"#utility.yul\":33049:33155   */\n    tag_580:\n        /* \"#utility.yul\":33093:33101   */\n      0x00\n        /* \"#utility.yul\":33142:33147   */\n      dup2\n        /* \"#utility.yul\":33137:33140   */\n      0x78\n        /* \"#utility.yul\":33133:33148   */\n      shr\n        /* \"#utility.yul\":33112:33148   */\n      swap1\n      pop\n        /* \"#utility.yul\":33049:33155   */\n      swap2\n      swap1\n      pop\n      jump\t// out\n        /* \"#utility.yul\":33161:33267   */\n    tag_584:\n        /* \"#utility.yul\":33205:33213   */\n      0x00\n        /* \"#utility.yul\":33254:33259   */\n      dup2\n        /* \"#utility.yul\":33249:33252   */\n      0x80\n        /* \"#utility.yul\":33245:33260   */\n      shr\n        /* \"#utility.yul\":33224:33260   */\n      swap1\n      pop\n        /* \"#utility.yul\":33161:33267   */\n      swap2\n      swap1\n      pop\n      jump\t// out\n        /* \"#utility.yul\":33273:33379   */\n    tag_588:\n        /* \"#utility.yul\":33317:33325   */\n      0x00\n        /* \"#utility.yul\":33366:33371   */\n      dup2\n        /* \"#utility.yul\":33361:33364   */\n      0x88\n        /* \"#utility.yul\":33357:33372   */\n      shr\n        /* \"#utility.yul\":33336:33372   */\n      swap1\n      pop\n        /* \"#utility.yul\":33273:33379   */\n      swap2\n      swap1\n      pop\n      jump\t// out\n        /* \"#utility.yul\":33385:33491   */\n    tag_592:\n        /* \"#utility.yul\":33429:33437   */\n      0x00\n        /* \"#utility.yul\":33478:33483   */\n      dup2\n        /* \"#utility.yul\":33473:33476   */\n      0x90\n        /* \"#utility.yul\":33469:33484   */\n      shr\n        /* \"#utility.yul\":33448:33484   */\n      swap1\n      pop\n        /* \"#utility.yul\":33385:33491   */\n      swap2\n      swap1\n      pop\n      jump\t// out\n        /* \"#utility.yul\":33497:33603   */\n    tag_596:\n        /* \"#utility.yul\":33541:33549   */\n      0x00\n        /* \"#utility.yul\":33590:33595   */\n      dup2\n        /* \"#utility.yul\":33585:33588   */\n      0x98\n        /* \"#utility.yul\":33581:33596   */\n      shr\n        /* \"#utility.yul\":33560:33596   */\n      swap1\n      pop\n        /* \"#utility.yul\":33497:33603   */\n      swap2\n      swap1\n      pop\n      jump\t// out\n        /* \"#utility.yul\":33609:33715   */\n    tag_604:\n        /* \"#utility.yul\":33653:33661   */\n      0x00\n        /* \"#utility.yul\":33702:33707   */\n      dup2\n        /* \"#utility.yul\":33697:33700   */\n      0xa0\n        /* \"#utility.yul\":33693:33708   */\n      shr\n        /* \"#utility.yul\":33672:33708   */\n      swap1\n      pop\n        /* \"#utility.yul\":33609:33715   */\n      swap2\n      swap1\n      pop\n      jump\t// out\n        /* \"#utility.yul\":33721:33827   */\n    tag_608:\n        /* \"#utility.yul\":33765:33773   */\n      0x00\n        /* \"#utility.yul\":33814:33819   */\n      dup2\n        /* \"#utility.yul\":33809:33812   */\n      0xa8\n        /* \"#utility.yul\":33805:33820   */\n      shr\n        /* \"#utility.yul\":33784:33820   */\n      swap1\n      pop\n        /* \"#utility.yul\":33721:33827   */\n      swap2\n      swap1\n      pop\n      jump\t// out\n        /* \"#utility.yul\":33833:33937   */\n    tag_644:\n        /* \"#utility.yul\":33876:33884   */\n      0x00\n        /* \"#utility.yul\":33924:33929   */\n      dup2\n        /* \"#utility.yul\":33920:33922   */\n      0x10\n        /* \"#utility.yul\":33916:33930   */\n      shr\n        /* \"#utility.yul\":33895:33930   */\n      swap1\n      pop\n        /* \"#utility.yul\":33833:33937   */\n      swap2\n      swap1\n      pop\n      jump\t// out\n        /* \"#utility.yul\":33943:34049   */\n    tag_612:\n        /* \"#utility.yul\":33987:33995   */\n      0x00\n        /* \"#utility.yul\":34036:34041   */\n      dup2\n        /* \"#utility.yul\":34031:34034   */\n      0xb0\n        /* \"#utility.yul\":34027:34042   */\n      shr\n        /* \"#utility.yul\":34006:34042   */\n      swap1\n      pop\n        /* \"#utility.yul\":33943:34049   */\n      swap2\n      swap1\n      pop\n      jump\t// out\n        /* \"#utility.yul\":34055:34161   */\n    tag_616:\n        /* \"#utility.yul\":34099:34107   */\n      0x00\n        /* \"#utility.yul\":34148:34153   */\n      dup2\n        /* \"#utility.yul\":34143:34146   */\n      0xb8\n        /* \"#utility.yul\":34139:34154   */\n      shr\n        /* \"#utility.yul\":34118:34154   */\n      swap1\n      pop\n        /* \"#utility.yul\":34055:34161   */\n      swap2\n      swap1\n      pop\n      jump\t// out\n        /* \"#utility.yul\":34167:34273   */\n    tag_620:\n        /* \"#utility.yul\":34211:34219   */\n      0x00\n        /* \"#utility.yul\":34260:34265   */\n      dup2\n        /* \"#utility.yul\":34255:34258   */\n      0xc0\n        /* \"#utility.yul\":34251:34266   */\n      shr\n        /* \"#utility.yul\":34230:34266   */\n      swap1\n      pop\n        /* \"#utility.yul\":34167:34273   */\n      swap2\n      swap1\n      pop\n      jump\t// out\n        /* \"#utility.yul\":34279:34385   */\n    tag_624:\n        /* \"#utility.yul\":34323:34331   */\n      0x00\n        /* \"#utility.yul\":34372:34377   */\n      dup2\n        /* \"#utility.yul\":34367:34370   */\n      0xc8\n        /* \"#utility.yul\":34363:34378   */\n      shr\n        /* \"#utility.yul\":34342:34378   */\n      swap1\n      pop\n        /* \"#utility.yul\":34279:34385   */\n      swap2\n      swap1\n      pop\n      jump\t// out\n        /* \"#utility.yul\":34391:34497   */\n    tag_628:\n        /* \"#utility.yul\":34435:34443   */\n      0x00\n        /* \"#utility.yul\":34484:34489   */\n      dup2\n        /* \"#utility.yul\":34479:34482   */\n      0xd0\n        /* \"#utility.yul\":34475:34490   */\n      shr\n        /* \"#utility.yul\":34454:34490   */\n      swap1\n      pop\n        /* \"#utility.yul\":34391:34497   */\n      swap2\n      swap1\n      pop\n      jump\t// out\n        /* \"#utility.yul\":34503:34609   */\n    tag_632:\n        /* \"#utility.yul\":34547:34555   */\n      0x00\n        /* \"#utility.yul\":34596:34601   */\n      dup2\n        /* \"#utility.yul\":34591:34594   */\n      0xd8\n        /* \"#utility.yul\":34587:34602   */\n      shr\n        /* \"#utility.yul\":34566:34602   */\n      swap1\n      pop\n        /* \"#utility.yul\":34503:34609   */\n      swap2\n      swap1\n      pop\n      jump\t// out\n        /* \"#utility.yul\":34615:34721   */\n    tag_636:\n        /* \"#utility.yul\":34659:34667   */\n      0x00\n        /* \"#utility.yul\":34708:34713   */\n      dup2\n        /* \"#utility.yul\":34703:34706   */\n      0xe0\n        /* \"#utility.yul\":34699:34714   */\n      shr\n        /* \"#utility.yul\":34678:34714   */\n      swap1\n      pop\n        /* \"#utility.yul\":34615:34721   */\n      swap2\n      swap1\n      pop\n      jump\t// out\n        /* \"#utility.yul\":34727:34833   */\n    tag_640:\n        /* \"#utility.yul\":34771:34779   */\n      0x00\n        /* \"#utility.yul\":34820:34825   */\n      dup2\n        /* \"#utility.yul\":34815:34818   */\n      0xe8\n        /* \"#utility.yul\":34811:34826   */\n      shr\n        /* \"#utility.yul\":34790:34826   */\n      swap1\n      pop\n        /* \"#utility.yul\":34727:34833   */\n      swap2\n      swap1\n      pop\n      jump\t// out\n        /* \"#utility.yul\":34839:34945   */\n    tag_648:\n        /* \"#utility.yul\":34883:34891   */\n      0x00\n        /* \"#utility.yul\":34932:34937   */\n      dup2\n        /* \"#utility.yul\":34927:34930   */\n      0xf0\n        /* \"#utility.yul\":34923:34938   */\n      shr\n        /* \"#utility.yul\":34902:34938   */\n      swap1\n      pop\n        /* \"#utility.yul\":34839:34945   */\n      swap2\n      swap1\n      pop\n      jump\t// out\n        /* \"#utility.yul\":34951:35057   */\n    tag_652:\n        /* \"#utility.yul\":34995:35003   */\n      0x00\n        /* \"#utility.yul\":35044:35049   */\n      dup2\n        /* \"#utility.yul\":35039:35042   */\n      0xf8\n        /* \"#utility.yul\":35035:35050   */\n      shr\n        /* \"#utility.yul\":35014:35050   */\n      swap1\n      pop\n        /* \"#utility.yul\":34951:35057   */\n      swap2\n      swap1\n      pop\n      jump\t// out\n        /* \"#utility.yul\":35063:35167   */\n    tag_656:\n        /* \"#utility.yul\":35106:35114   */\n      0x00\n        /* \"#utility.yul\":35154:35159   */\n      dup2\n        /* \"#utility.yul\":35150:35152   */\n      0x18\n        /* \"#utility.yul\":35146:35160   */\n      shr\n        /* \"#utility.yul\":35125:35160   */\n      swap1\n      pop\n        /* \"#utility.yul\":35063:35167   */\n      swap2\n      swap1\n      pop\n      jump\t// out\n        /* \"#utility.yul\":35173:35277   */\n    tag_660:\n        /* \"#utility.yul\":35216:35224   */\n      0x00\n        /* \"#utility.yul\":35264:35269   */\n      dup2\n        /* \"#utility.yul\":35260:35262   */\n      0x20\n        /* \"#utility.yul\":35256:35270   */\n      shr\n        /* \"#utility.yul\":35235:35270   */\n      swap1\n      pop\n        /* \"#utility.yul\":35173:35277   */\n      swap2\n      swap1\n      pop\n      jump\t// out\n        /* \"#utility.yul\":35283:35387   */\n    tag_664:\n        /* \"#utility.yul\":35326:35334   */\n      0x00\n        /* \"#utility.yul\":35374:35379   */\n      dup2\n        /* \"#utility.yul\":35370:35372   */\n      0x28\n        /* \"#utility.yul\":35366:35380   */\n      shr\n        /* \"#utility.yul\":35345:35380   */\n      swap1\n      pop\n        /* \"#utility.yul\":35283:35387   */\n      swap2\n      swap1\n      pop\n      jump\t// out\n        /* \"#utility.yul\":35393:35497   */\n    tag_668:\n        /* \"#utility.yul\":35436:35444   */\n      0x00\n        /* \"#utility.yul\":35484:35489   */\n      dup2\n        /* \"#utility.yul\":35480:35482   */\n      0x30\n        /* \"#utility.yul\":35476:35490   */\n      shr\n        /* \"#utility.yul\":35455:35490   */\n      swap1\n      pop\n        /* \"#utility.yul\":35393:35497   */\n      swap2\n      swap1\n      pop\n      jump\t// out\n        /* \"#utility.yul\":35503:35607   */\n    tag_672:\n        /* \"#utility.yul\":35546:35554   */\n      0x00\n        /* \"#utility.yul\":35594:35599   */\n      dup2\n        /* \"#utility.yul\":35590:35592   */\n      0x38\n        /* \"#utility.yul\":35586:35600   */\n      shr\n        /* \"#utility.yul\":35565:35600   */\n      swap1\n      pop\n        /* \"#utility.yul\":35503:35607   */\n      swap2\n      swap1\n      pop\n      jump\t// out\n        /* \"#utility.yul\":35613:35717   */\n    tag_676:\n        /* \"#utility.yul\":35656:35664   */\n      0x00\n        /* \"#utility.yul\":35704:35709   */\n      dup2\n        /* \"#utility.yul\":35700:35702   */\n      0x40\n        /* \"#utility.yul\":35696:35710   */\n      shr\n        /* \"#utility.yul\":35675:35710   */\n      swap1\n      pop\n        /* \"#utility.yul\":35613:35717   */\n      swap2\n      swap1\n      pop\n      jump\t// out\n        /* \"#utility.yul\":35723:35827   */\n    tag_680:\n        /* \"#utility.yul\":35766:35774   */\n      0x00\n        /* \"#utility.yul\":35814:35819   */\n      dup2\n        /* \"#utility.yul\":35810:35812   */\n      0x48\n        /* \"#utility.yul\":35806:35820   */\n      shr\n        /* \"#utility.yul\":35785:35820   */\n      swap1\n      pop\n        /* \"#utility.yul\":35723:35827   */\n      swap2\n      swap1\n      pop\n      jump\t// out\n        /* \"#utility.yul\":35833:35937   */\n    tag_560:\n        /* \"#utility.yul\":35876:35884   */\n      0x00\n        /* \"#utility.yul\":35924:35929   */\n      dup2\n        /* \"#utility.yul\":35920:35922   */\n      0x50\n        /* \"#utility.yul\":35916:35930   */\n      shr\n        /* \"#utility.yul\":35895:35930   */\n      swap1\n      pop\n        /* \"#utility.yul\":35833:35937   */\n      swap2\n      swap1\n      pop\n      jump\t// out\n        /* \"#utility.yul\":35943:36047   */\n    tag_564:\n        /* \"#utility.yul\":35986:35994   */\n      0x00\n        /* \"#utility.yul\":36034:36039   */\n      dup2\n        /* \"#utility.yul\":36030:36032   */\n      0x58\n        /* \"#utility.yul\":36026:36040   */\n      shr\n        /* \"#utility.yul\":36005:36040   */\n      swap1\n      pop\n        /* \"#utility.yul\":35943:36047   */\n      swap2\n      swap1\n      pop\n      jump\t// out\n        /* \"#utility.yul\":36053:36155   */\n    tag_600:\n        /* \"#utility.yul\":36095:36103   */\n      0x00\n        /* \"#utility.yul\":36142:36147   */\n      dup2\n        /* \"#utility.yul\":36139:36140   */\n      0x08\n        /* \"#utility.yul\":36135:36148   */\n      shr\n        /* \"#utility.yul\":36114:36148   */\n      swap1\n      pop\n        /* \"#utility.yul\":36053:36155   */\n      swap2\n      swap1\n      pop\n      jump\t// out\n        /* \"#utility.yul\":36161:36265   */\n    tag_568:\n        /* \"#utility.yul\":36204:36212   */\n      0x00\n        /* \"#utility.yul\":36252:36257   */\n      dup2\n        /* \"#utility.yul\":36248:36250   */\n      0x60\n        /* \"#utility.yul\":36244:36258   */\n      shr\n        /* \"#utility.yul\":36223:36258   */\n      swap1\n      pop\n        /* \"#utility.yul\":36161:36265   */\n      swap2\n      swap1\n      pop\n      jump\t// out\n        /* \"#utility.yul\":36271:36442   */\n    tag_459:\n        /* \"#utility.yul\":36411:36434   */\n      0x4769766520612076616c6964206c6f636174696f6e0000000000000000000000\n        /* \"#utility.yul\":36407:36408   */\n      0x00\n        /* \"#utility.yul\":36399:36405   */\n      dup3\n        /* \"#utility.yul\":36395:36409   */\n      add\n        /* \"#utility.yul\":36388:36435   */\n      mstore\n        /* \"#utility.yul\":36271:36442   */\n      pop\n      jump\t// out\n        /* \"#utility.yul\":36448:36619   */\n    tag_464:\n        /* \"#utility.yul\":36588:36611   */\n      0x47616d65206973207374696c6c2072756e6e696e670000000000000000000000\n        /* \"#utility.yul\":36584:36585   */\n      0x00\n        /* \"#utility.yul\":36576:36582   */\n      dup3\n        /* \"#utility.yul\":36572:36586   */\n      add\n        /* \"#utility.yul\":36565:36612   */\n      mstore\n        /* \"#utility.yul\":36448:36619   */\n      pop\n      jump\t// out\n        /* \"#utility.yul\":36625:36803   */\n    tag_469:\n        /* \"#utility.yul\":36765:36795   */\n      0x47616d652069732066756c6c2c207761697420796f7572207475726e00000000\n        /* \"#utility.yul\":36761:36762   */\n      0x00\n        /* \"#utility.yul\":36753:36759   */\n      dup3\n        /* \"#utility.yul\":36749:36763   */\n      add\n        /* \"#utility.yul\":36742:36796   */\n      mstore\n        /* \"#utility.yul\":36625:36803   */\n      pop\n      jump\t// out\n        /* \"#utility.yul\":36809:36977   */\n    tag_474:\n        /* \"#utility.yul\":36949:36969   */\n      0x49742773206e6f7420796f7572207475726e0000000000000000000000000000\n        /* \"#utility.yul\":36945:36946   */\n      0x00\n        /* \"#utility.yul\":36937:36943   */\n      dup3\n        /* \"#utility.yul\":36933:36947   */\n      add\n        /* \"#utility.yul\":36926:36970   */\n      mstore\n        /* \"#utility.yul\":36809:36977   */\n      pop\n      jump\t// out\n        /* \"#utility.yul\":36983:37145   */\n    tag_479:\n        /* \"#utility.yul\":37123:37137   */\n      0x47616d65206973206f7665720000000000000000000000000000000000000000\n        /* \"#utility.yul\":37119:37120   */\n      0x00\n        /* \"#utility.yul\":37111:37117   */\n      dup3\n        /* \"#utility.yul\":37107:37121   */\n      add\n        /* \"#utility.yul\":37100:37138   */\n      mstore\n        /* \"#utility.yul\":36983:37145   */\n      pop\n      jump\t// out\n        /* \"#utility.yul\":37151:37327   */\n    tag_484:\n        /* \"#utility.yul\":37291:37319   */\n      0x466972737420706c61796572206861736e2774206a6f696e6564000000000000\n        /* \"#utility.yul\":37287:37288   */\n      0x00\n        /* \"#utility.yul\":37279:37285   */\n      dup3\n        /* \"#utility.yul\":37275:37289   */\n      add\n        /* \"#utility.yul\":37268:37320   */\n      mstore\n        /* \"#utility.yul\":37151:37327   */\n      pop\n      jump\t// out\n        /* \"#utility.yul\":37333:37510   */\n    tag_489:\n        /* \"#utility.yul\":37473:37502   */\n      0x5365636f6e6420706c61796572206861736e2774206a6f696e65640000000000\n        /* \"#utility.yul\":37469:37470   */\n      0x00\n        /* \"#utility.yul\":37461:37467   */\n      dup3\n        /* \"#utility.yul\":37457:37471   */\n      add\n        /* \"#utility.yul\":37450:37503   */\n      mstore\n        /* \"#utility.yul\":37333:37510   */\n      pop\n      jump\t// out\n        /* \"#utility.yul\":37516:37696   */\n    tag_494:\n        /* \"#utility.yul\":37656:37688   */\n      0x536f6d656f6e6520616c7265616479206d6164652074686973206d6f76650000\n        /* \"#utility.yul\":37652:37653   */\n      0x00\n        /* \"#utility.yul\":37644:37650   */\n      dup3\n        /* \"#utility.yul\":37640:37654   */\n      add\n        /* \"#utility.yul\":37633:37689   */\n      mstore\n        /* \"#utility.yul\":37516:37696   */\n      pop\n      jump\t// out\n        /* \"#utility.yul\":37702:37820   */\n    tag_539:\n        /* \"#utility.yul\":37788:37789   */\n      0x04\n        /* \"#utility.yul\":37781:37786   */\n      dup2\n        /* \"#utility.yul\":37778:37790   */\n      lt\n        /* \"#utility.yul\":37768:37814   */\n      tag_737\n      jumpi\n        /* \"#utility.yul\":37794:37812   */\n      tag_738\n      tag_46\n      jump\t// in\n    tag_738:\n        /* \"#utility.yul\":37768:37814   */\n    tag_737:\n        /* \"#utility.yul\":37702:37820   */\n      pop\n      jump\t// out\n        /* \"#utility.yul\":37826:37937   */\n    tag_543:\n        /* \"#utility.yul\":37905:37906   */\n      0x03\n        /* \"#utility.yul\":37898:37903   */\n      dup2\n        /* \"#utility.yul\":37895:37907   */\n      lt\n        /* \"#utility.yul\":37885:37931   */\n      tag_740\n      jumpi\n        /* \"#utility.yul\":37911:37929   */\n      tag_741\n      tag_46\n      jump\t// in\n    tag_741:\n        /* \"#utility.yul\":37885:37931   */\n    tag_740:\n        /* \"#utility.yul\":37826:37937   */\n      pop\n      jump\t// out\n        /* \"#utility.yul\":37943:38061   */\n    tag_212:\n        /* \"#utility.yul\":38014:38036   */\n      tag_743\n        /* \"#utility.yul\":38030:38035   */\n      dup2\n        /* \"#utility.yul\":38014:38036   */\n      tag_547\n      jump\t// in\n    tag_743:\n        /* \"#utility.yul\":38007:38012   */\n      dup2\n        /* \"#utility.yul\":38004:38037   */\n      eq\n        /* \"#utility.yul\":37994:38055   */\n      tag_744\n      jumpi\n        /* \"#utility.yul\":38051:38052   */\n      0x00\n        /* \"#utility.yul\":38048:38049   */\n      dup1\n        /* \"#utility.yul\":38041:38053   */\n      revert\n        /* \"#utility.yul\":37994:38055   */\n    tag_744:\n        /* \"#utility.yul\":37943:38061   */\n      pop\n      jump\t// out\n\n    auxdata: 0xa2646970667358221220adab55323838c7a5fe5ad6241c0549d3264f80c24e24e1e5ffa92b2c950eeafb64736f6c63430008070033\n}\n",
				"bytecode": {
					"linkReferences": {},
					"object": "608060405234801561001057600080fd5b506003600160146101000a81548160ff0219169083600381111561003757610036610041565b5b0217905550610070565b7f4e487b7100000000000000000000000000000000000000000000000000000000600052602160045260246000fd5b6123a48061007f6000396000f3fe608060405234801561001057600080fd5b50600436106100885760003560e01c806382df52421161005b57806382df524214610103578063bb47221914610121578063d30895e41461012b578063d4f77b1c1461014957610088565b8063200d2ed21461008d5780633264a34b146100ab5780633cd56f48146100c957806359a5f12d146100e5575b600080fd5b610095610153565b6040516100a291906119d9565b60405180910390f35b6100b3610166565b6040516100c09190611992565b60405180910390f35b6100e360048036038101906100de9190610f69565b6101e6565b005b6100ed61059d565b6040516100fa9190611977565b60405180910390f35b61010b6105c3565b60405161011891906119f4565b60405180910390f35b6101296105d6565b005b610133610735565b6040516101409190611977565b60405180910390f35b610151610759565b005b600160149054906101000a900460ff1681565b61016e610f2a565b60026009806020026040519081016040528092919082600980156101dc576020028201916000905b82829054906101000a900460ff1660028111156101b6576101b5611fe4565b5b815260200190600101906020826000010492830192600103820291508084116101965790505b5050505050905090565b600073ffffffffffffffffffffffffffffffffffffffff1660008054906101000a900473ffffffffffffffffffffffffffffffffffffffff1673ffffffffffffffffffffffffffffffffffffffff161415610276576040517f08c379a000000000000000000000000000000000000000000000000000000000815260040161026d90611aaf565b60405180910390fd5b600073ffffffffffffffffffffffffffffffffffffffff16600160009054906101000a900473ffffffffffffffffffffffffffffffffffffffff1673ffffffffffffffffffffffffffffffffffffffff161415610308576040517f08c379a00000000000000000000000000000000000000000000000000000000081526004016102ff90611acf565b60405180910390fd5b60038081111561031b5761031a611fe4565b5b600160149054906101000a900460ff16600381111561033d5761033c611fe4565b5b1461037d576040517f08c379a000000000000000000000000000000000000000000000000000000000815260040161037490611a8f565b60405180910390fd5b60098160ff16106103c3576040517f08c379a00000000000000000000000000000000000000000000000000000000081526004016103ba90611a0f565b60405180910390fd5b6103cb61091f565b73ffffffffffffffffffffffffffffffffffffffff163373ffffffffffffffffffffffffffffffffffffffff1614610438576040517f08c379a000000000000000000000000000000000000000000000000000000000815260040161042f90611a6f565b60405180910390fd5b60028081111561044b5761044a611fe4565b5b60028260ff166009811061046257610461612013565b5b602091828204019190069054906101000a900460ff16600281111561048a57610489611fe4565b5b146104ca576040517f08c379a00000000000000000000000000000000000000000000000000000000081526004016104c190611aef565b60405180910390fd5b600160159054906101000a900460ff1660028260ff16600981106104f1576104f0612013565b5b602091828204019190066101000a81548160ff0219169083600281111561051b5761051a611fe4565b5b02179055506105286109f2565b600160146101000a81548160ff0219169083600381111561054c5761054b611fe4565b5b02179055507ffad320f1f1c95d3dd74b7e642c38488713b52a0eb8e3b29e04658e17bb303dc46002600160149054906101000a900460ff166040516105929291906119ae565b60405180910390a150565b600160009054906101000a900473ffffffffffffffffffffffffffffffffffffffff1681565b600160159054906101000a900460ff1681565b6003808111156105e9576105e8611fe4565b5b600160149054906101000a900460ff16600381111561060b5761060a611fe4565b5b141561064c576040517f08c379a000000000000000000000000000000000000000000000000000000000815260040161064390611a2f565b60405180910390fd5b6003600160146101000a81548160ff0219169083600381111561067257610671611fe4565b5b02179055506000600160156101000a81548160ff0219169083600281111561069d5761069c611fe4565b5b021790555060008060006101000a81548173ffffffffffffffffffffffffffffffffffffffff021916908373ffffffffffffffffffffffffffffffffffffffff1602179055506000600160006101000a81548173ffffffffffffffffffffffffffffffffffffffff021916908373ffffffffffffffffffffffffffffffffffffffff160217905550600260006107339190610f4d565b565b60008054906101000a900473ffffffffffffffffffffffffffffffffffffffff1681565b600073ffffffffffffffffffffffffffffffffffffffff1660008054906101000a900473ffffffffffffffffffffffffffffffffffffffff1673ffffffffffffffffffffffffffffffffffffffff1614806108025750600073ffffffffffffffffffffffffffffffffffffffff16600160009054906101000a900473ffffffffffffffffffffffffffffffffffffffff1673ffffffffffffffffffffffffffffffffffffffff16145b610841576040517f08c379a000000000000000000000000000000000000000000000000000000000815260040161083890611a4f565b60405180910390fd5b600073ffffffffffffffffffffffffffffffffffffffff1660008054906101000a900473ffffffffffffffffffffffffffffffffffffffff1673ffffffffffffffffffffffffffffffffffffffff1614156108db57336000806101000a81548173ffffffffffffffffffffffffffffffffffffffff021916908373ffffffffffffffffffffffffffffffffffffffff16021790555061091d565b33600160006101000a81548173ffffffffffffffffffffffffffffffffffffffff021916908373ffffffffffffffffffffffffffffffffffffffff1602179055505b565b600080600281111561093457610933611fe4565b5b600160159054906101000a900460ff16600281111561095657610955611fe4565b5b14156109845760008054906101000a900473ffffffffffffffffffffffffffffffffffffffff1690506109ef565b6001600281111561099857610997611fe4565b5b600160159054906101000a900460ff1660028111156109ba576109b9611fe4565b5b14156109ea57600160009054906101000a900473ffffffffffffffffffffffffffffffffffffffff1690506109ef565b600090505b90565b6000806040518061010001604052806040518060600160405280600060ff168152602001600160ff168152602001600260ff1681525081526020016040518060600160405280600360ff168152602001600460ff168152602001600560ff1681525081526020016040518060600160405280600660ff168152602001600760ff168152602001600860ff1681525081526020016040518060600160405280600060ff168152602001600360ff168152602001600660ff1681525081526020016040518060600160405280600160ff168152602001600460ff168152602001600760ff1681525081526020016040518060600160405280600260ff168152602001600560ff168152602001600860ff1681525081526020016040518060600160405280600060ff168152602001600460ff168152602001600860ff1681525081526020016040518060600160405280600660ff168152602001600460ff168152602001600260ff16815250815250905060005b60088160ff161015610e7d576000828260ff1660088110610b8857610b87612013565b5b60200201519050600281600160038110610ba557610ba4612013565b5b602002015160ff1660098110610bbe57610bbd612013565b5b602091828204019190069054906101000a900460ff166002811115610be657610be5611fe4565b5b600282600060038110610bfc57610bfb612013565b5b602002015160ff1660098110610c1557610c14612013565b5b602091828204019190069054906101000a900460ff166002811115610c3d57610c3c611fe4565b5b148015610cf55750600281600260038110610c5b57610c5a612013565b5b602002015160ff1660098110610c7457610c73612013565b5b602091828204019190069054906101000a900460ff166002811115610c9c57610c9b611fe4565b5b600282600160038110610cb257610cb1612013565b5b602002015160ff1660098110610ccb57610cca612013565b5b602091828204019190069054906101000a900460ff166002811115610cf357610cf2611fe4565b5b145b8015610d695750600280811115610d0f57610d0e611fe4565b5b600282600260038110610d2557610d24612013565b5b602002015160ff1660098110610d3e57610d3d612013565b5b602091828204019190069054906101000a900460ff166002811115610d6657610d65611fe4565b5b14155b15610e695760006002811115610d8257610d81611fe4565b5b600282600060038110610d9857610d97612013565b5b602002015160ff1660098110610db157610db0612013565b5b602091828204019190069054906101000a900460ff166002811115610dd957610dd8611fe4565b5b1415610deb5760019350505050610e9b565b60016002811115610dff57610dfe611fe4565b5b600282600060038110610e1557610e14612013565b5b602002015160ff1660098110610e2e57610e2d612013565b5b602091828204019190069054906101000a900460ff166002811115610e5657610e55611fe4565b5b1415610e685760029350505050610e9b565b5b508080610e7590611f8b565b915050610b64565b50610e86610e9e565b15610e95576000915050610e9b565b60039150505b90565b600080600090505b6009811015610f2157600280811115610ec257610ec1611fe4565b5b60028260098110610ed657610ed5612013565b5b602091828204019190069054906101000a900460ff166002811115610efe57610efd611fe4565b5b1415610f0e576000915050610f27565b8080610f1990611f42565b915050610ea6565b50600190505b90565b604051806101200160405280600990602082028036833780820191505090505090565b5060009055565b600081359050610f6381612357565b92915050565b600060208284031215610f7f57610f7e612042565b5b6000610f8d84828501610f54565b91505092915050565b6000610fa28383611841565b60208301905092915050565b610fb781611b6f565b82525050565b610fc681611b23565b610fd08184611b46565b9250610fdb82611b0f565b8060005b8381101561100c578151610ff38782610f96565b9650610ffe83611b39565b925050600181019050610fdf565b505050505050565b61101d81611b2e565b6110278184611b46565b92508261103383611b19565b6000801561135f575b8360016020038201101561135e57815461105e8761105983611c02565b611841565b6020870196506110768761107183611d20565b611841565b60208701965061108e8761108983611e3e565b611841565b6020870196506110a6876110a183611e8c565b611841565b6020870196506110be876110b983611ea6565b611841565b6020870196506110d6876110d183611ec0565b611841565b6020870196506110ee876110e983611eda565b611841565b6020870196506111068761110183611ef4565b611841565b60208701965061111e8761111983611f0e565b611841565b6020870196506111368761113183611f28565b611841565b60208701965061114e8761114983611c1c565b611841565b6020870196506111668761116183611c36565b611841565b60208701965061117e8761117983611c50565b611841565b6020870196506111968761119183611c6a565b611841565b6020870196506111ae876111a983611c84565b611841565b6020870196506111c6876111c183611c9e565b611841565b6020870196506111de876111d983611cb8565b611841565b6020870196506111f6876111f183611cd2565b611841565b60208701965061120e8761120983611cec565b611841565b6020870196506112268761122183611d06565b611841565b60208701965061123e8761123983611d3a565b611841565b6020870196506112568761125183611d54565b611841565b60208701965061126e8761126983611d6e565b611841565b6020870196506112868761128183611d88565b611841565b60208701965061129e8761129983611da2565b611841565b6020870196506112b6876112b183611dbc565b611841565b6020870196506112ce876112c983611dd6565b611841565b6020870196506112e6876112e183611df0565b611841565b6020870196506112fe876112f983611e0a565b611841565b6020870196506113168761131183611e24565b611841565b60208701965061132e8761132983611e58565b611841565b6020870196506113468761134183611e72565b611841565b6020870196506001830192505060208101905061103c565b5b60011561182a57815460011561138e576113818761137c83611c02565b611841565b6020870196506001820191505b6001156113b4576113a7876113a283611d20565b611841565b6020870196506001820191505b6001156113da576113cd876113c883611e3e565b611841565b6020870196506001820191505b600115611400576113f3876113ee83611e8c565b611841565b6020870196506001820191505b600115611426576114198761141483611ea6565b611841565b6020870196506001820191505b60011561144c5761143f8761143a83611ec0565b611841565b6020870196506001820191505b600115611472576114658761146083611eda565b611841565b6020870196506001820191505b6001156114985761148b8761148683611ef4565b611841565b6020870196506001820191505b6001156114be576114b1876114ac83611f0e565b611841565b6020870196506001820191505b6000156114e4576114d7876114d283611f28565b611841565b6020870196506001820191505b60001561150a576114fd876114f883611c1c565b611841565b6020870196506001820191505b600015611530576115238761151e83611c36565b611841565b6020870196506001820191505b600015611556576115498761154483611c50565b611841565b6020870196506001820191505b60001561157c5761156f8761156a83611c6a565b611841565b6020870196506001820191505b6000156115a2576115958761159083611c84565b611841565b6020870196506001820191505b6000156115c8576115bb876115b683611c9e565b611841565b6020870196506001820191505b6000156115ee576115e1876115dc83611cb8565b611841565b6020870196506001820191505b600015611614576116078761160283611cd2565b611841565b6020870196506001820191505b60001561163a5761162d8761162883611cec565b611841565b6020870196506001820191505b600015611660576116538761164e83611d06565b611841565b6020870196506001820191505b600015611686576116798761167483611d3a565b611841565b6020870196506001820191505b6000156116ac5761169f8761169a83611d54565b611841565b6020870196506001820191505b6000156116d2576116c5876116c083611d6e565b611841565b6020870196506001820191505b6000156116f8576116eb876116e683611d88565b611841565b6020870196506001820191505b60001561171e576117118761170c83611da2565b611841565b6020870196506001820191505b600015611744576117378761173283611dbc565b611841565b6020870196506001820191505b60001561176a5761175d8761175883611dd6565b611841565b6020870196506001820191505b600015611790576117838761177e83611df0565b611841565b6020870196506001820191505b6000156117b6576117a9876117a483611e0a565b611841565b6020870196506001820191505b6000156117dc576117cf876117ca83611e24565b611841565b6020870196506001820191505b600015611802576117f5876117f083611e58565b611841565b6020870196506001820191505b6000156118285761181b8761181683611e72565b611841565b6020870196506001820191505b505b505050505050565b61183b81611bde565b82525050565b61184a81611bf0565b82525050565b61185981611bf0565b82525050565b600061186c601583611b51565b9150611877826121e7565b602082019050919050565b600061188f601583611b51565b915061189a82612210565b602082019050919050565b60006118b2601c83611b51565b91506118bd82612239565b602082019050919050565b60006118d5601283611b51565b91506118e082612262565b602082019050919050565b60006118f8600c83611b51565b91506119038261228b565b602082019050919050565b600061191b601a83611b51565b9150611926826122b4565b602082019050919050565b600061193e601b83611b51565b9150611949826122dd565b602082019050919050565b6000611961601e83611b51565b915061196c82612306565b602082019050919050565b600060208201905061198c6000830184610fae565b92915050565b6000610120820190506119a86000830184610fbd565b92915050565b6000610140820190506119c46000830185611014565b6119d2610120830184611832565b9392505050565b60006020820190506119ee6000830184611832565b92915050565b6000602082019050611a096000830184611850565b92915050565b60006020820190508181036000830152611a288161185f565b9050919050565b60006020820190508181036000830152611a4881611882565b9050919050565b60006020820190508181036000830152611a68816118a5565b9050919050565b60006020820190508181036000830152611a88816118c8565b9050919050565b60006020820190508181036000830152611aa8816118eb565b9050919050565b60006020820190508181036000830152611ac88161190e565b9050919050565b60006020820190508181036000830152611ae881611931565b9050919050565b60006020820190508181036000830152611b0881611954565b9050919050565b6000819050919050565b6000819050919050565b600060099050919050565b600060099050919050565b6000602082019050919050565b600081905092915050565b600082825260208201905092915050565b600060ff82169050919050565b6000611b7a82611ba7565b9050919050565b6000819050611b8f8261232f565b919050565b6000819050611ba282612343565b919050565b600073ffffffffffffffffffffffffffffffffffffffff82169050919050565b6000819050919050565b600060ff82169050919050565b6000611be982611b81565b9050919050565b6000611bfb82611b94565b9050919050565b6000611c15611c1083612047565b611b62565b9050919050565b6000611c2f611c2a836121b3565b611b62565b9050919050565b6000611c49611c44836121c0565b611b62565b9050919050565b6000611c63611c5e836121da565b611b62565b9050919050565b6000611c7d611c7883612054565b611b62565b9050919050565b6000611c97611c9283612061565b611b62565b9050919050565b6000611cb1611cac8361206e565b611b62565b9050919050565b6000611ccb611cc68361207b565b611b62565b9050919050565b6000611ce5611ce083612088565b611b62565b9050919050565b6000611cff611cfa83612095565b611b62565b9050919050565b6000611d19611d14836120a2565b611b62565b9050919050565b6000611d33611d2e836121cd565b611b62565b9050919050565b6000611d4d611d48836120af565b611b62565b9050919050565b6000611d67611d62836120bc565b611b62565b9050919050565b6000611d81611d7c836120d6565b611b62565b9050919050565b6000611d9b611d96836120e3565b611b62565b9050919050565b6000611db5611db0836120f0565b611b62565b9050919050565b6000611dcf611dca836120fd565b611b62565b9050919050565b6000611de9611de48361210a565b611b62565b9050919050565b6000611e03611dfe83612117565b611b62565b9050919050565b6000611e1d611e1883612124565b611b62565b9050919050565b6000611e37611e3283612131565b611b62565b9050919050565b6000611e51611e4c836120c9565b611b62565b9050919050565b6000611e6b611e668361213e565b611b62565b9050919050565b6000611e85611e808361214b565b611b62565b9050919050565b6000611e9f611e9a83612158565b611b62565b9050919050565b6000611eb9611eb483612165565b611b62565b9050919050565b6000611ed3611ece83612172565b611b62565b9050919050565b6000611eed611ee88361217f565b611b62565b9050919050565b6000611f07611f028361218c565b611b62565b9050919050565b6000611f21611f1c83612199565b611b62565b9050919050565b6000611f3b611f36836121a6565b611b62565b9050919050565b6000611f4d82611bc7565b91507fffffffffffffffffffffffffffffffffffffffffffffffffffffffffffffffff821415611f8057611f7f611fb5565b5b600182019050919050565b6000611f9682611bd1565b915060ff821415611faa57611fa9611fb5565b5b600182019050919050565b7f4e487b7100000000000000000000000000000000000000000000000000000000600052601160045260246000fd5b7f4e487b7100000000000000000000000000000000000000000000000000000000600052602160045260246000fd5b7f4e487b7100000000000000000000000000000000000000000000000000000000600052603260045260246000fd5b600080fd5b60008160001c9050919050565b60008160681c9050919050565b60008160701c9050919050565b60008160781c9050919050565b60008160801c9050919050565b60008160881c9050919050565b60008160901c9050919050565b60008160981c9050919050565b60008160a01c9050919050565b60008160a81c9050919050565b60008160101c9050919050565b60008160b01c9050919050565b60008160b81c9050919050565b60008160c01c9050919050565b60008160c81c9050919050565b60008160d01c9050919050565b60008160d81c9050919050565b60008160e01c9050919050565b60008160e81c9050919050565b60008160f01c9050919050565b60008160f81c9050919050565b60008160181c9050919050565b60008160201c9050919050565b60008160281c9050919050565b60008160301c9050919050565b60008160381c9050919050565b60008160401c9050919050565b60008160481c9050919050565b60008160501c9050919050565b60008160581c9050919050565b60008160081c9050919050565b60008160601c9050919050565b7f4769766520612076616c6964206c6f636174696f6e0000000000000000000000600082015250565b7f47616d65206973207374696c6c2072756e6e696e670000000000000000000000600082015250565b7f47616d652069732066756c6c2c207761697420796f7572207475726e00000000600082015250565b7f49742773206e6f7420796f7572207475726e0000000000000000000000000000600082015250565b7f47616d65206973206f7665720000000000000000000000000000000000000000600082015250565b7f466972737420706c61796572206861736e2774206a6f696e6564000000000000600082015250565b7f5365636f6e6420706c61796572206861736e2774206a6f696e65640000000000600082015250565b7f536f6d656f6e6520616c7265616479206d6164652074686973206d6f76650000600082015250565b600481106123405761233f611fe4565b5b50565b6003811061235457612353611fe4565b5b50565b61236081611bd1565b811461236b57600080fd5b5056fea2646970667358221220adab55323838c7a5fe5ad6241c0549d3264f80c24e24e1e5ffa92b2c950eeafb64736f6c63430008070033",
					"opcodes": "PUSH1 0x80 PUSH1 0x40 MSTORE CALLVALUE DUP1 ISZERO PUSH2 0x10 JUMPI PUSH1 0x0 DUP1 REVERT JUMPDEST POP PUSH1 0x3 PUSH1 0x1 PUSH1 0x14 PUSH2 0x100 EXP DUP2 SLOAD DUP2 PUSH1 0xFF MUL NOT AND SWAP1 DUP4 PUSH1 0x3 DUP2 GT ISZERO PUSH2 0x37 JUMPI PUSH2 0x36 PUSH2 0x41 JUMP JUMPDEST JUMPDEST MUL OR SWAP1 SSTORE POP PUSH2 0x70 JUMP JUMPDEST PUSH32 0x4E487B7100000000000000000000000000000000000000000000000000000000 PUSH1 0x0 MSTORE PUSH1 0x21 PUSH1 0x4 MSTORE PUSH1 0x24 PUSH1 0x0 REVERT JUMPDEST PUSH2 0x23A4 DUP1 PUSH2 0x7F PUSH1 0x0 CODECOPY PUSH1 0x0 RETURN INVALID PUSH1 0x80 PUSH1 0x40 MSTORE CALLVALUE DUP1 ISZERO PUSH2 0x10 JUMPI PUSH1 0x0 DUP1 REVERT JUMPDEST POP PUSH1 0x4 CALLDATASIZE LT PUSH2 0x88 JUMPI PUSH1 0x0 CALLDATALOAD PUSH1 0xE0 SHR DUP1 PUSH4 0x82DF5242 GT PUSH2 0x5B JUMPI DUP1 PUSH4 0x82DF5242 EQ PUSH2 0x103 JUMPI DUP1 PUSH4 0xBB472219 EQ PUSH2 0x121 JUMPI DUP1 PUSH4 0xD30895E4 EQ PUSH2 0x12B JUMPI DUP1 PUSH4 0xD4F77B1C EQ PUSH2 0x149 JUMPI PUSH2 0x88 JUMP JUMPDEST DUP1 PUSH4 0x200D2ED2 EQ PUSH2 0x8D JUMPI DUP1 PUSH4 0x3264A34B EQ PUSH2 0xAB JUMPI DUP1 PUSH4 0x3CD56F48 EQ PUSH2 0xC9 JUMPI DUP1 PUSH4 0x59A5F12D EQ PUSH2 0xE5 JUMPI JUMPDEST PUSH1 0x0 DUP1 REVERT JUMPDEST PUSH2 0x95 PUSH2 0x153 JUMP JUMPDEST PUSH1 0x40 MLOAD PUSH2 0xA2 SWAP2 SWAP1 PUSH2 0x19D9 JUMP JUMPDEST PUSH1 0x40 MLOAD DUP1 SWAP2 SUB SWAP1 RETURN JUMPDEST PUSH2 0xB3 PUSH2 0x166 JUMP JUMPDEST PUSH1 0x40 MLOAD PUSH2 0xC0 SWAP2 SWAP1 PUSH2 0x1992 JUMP JUMPDEST PUSH1 0x40 MLOAD DUP1 SWAP2 SUB SWAP1 RETURN JUMPDEST PUSH2 0xE3 PUSH1 0x4 DUP1 CALLDATASIZE SUB DUP2 ADD SWAP1 PUSH2 0xDE SWAP2 SWAP1 PUSH2 0xF69 JUMP JUMPDEST PUSH2 0x1E6 JUMP JUMPDEST STOP JUMPDEST PUSH2 0xED PUSH2 0x59D JUMP JUMPDEST PUSH1 0x40 MLOAD PUSH2 0xFA SWAP2 SWAP1 PUSH2 0x1977 JUMP JUMPDEST PUSH1 0x40 MLOAD DUP1 SWAP2 SUB SWAP1 RETURN JUMPDEST PUSH2 0x10B PUSH2 0x5C3 JUMP JUMPDEST PUSH1 0x40 MLOAD PUSH2 0x118 SWAP2 SWAP1 PUSH2 0x19F4 JUMP JUMPDEST PUSH1 0x40 MLOAD DUP1 SWAP2 SUB SWAP1 RETURN JUMPDEST PUSH2 0x129 PUSH2 0x5D6 JUMP JUMPDEST STOP JUMPDEST PUSH2 0x133 PUSH2 0x735 JUMP JUMPDEST PUSH1 0x40 MLOAD PUSH2 0x140 SWAP2 SWAP1 PUSH2 0x1977 JUMP JUMPDEST PUSH1 0x40 MLOAD DUP1 SWAP2 SUB SWAP1 RETURN JUMPDEST PUSH2 0x151 PUSH2 0x759 JUMP JUMPDEST STOP JUMPDEST PUSH1 0x1 PUSH1 0x14 SWAP1 SLOAD SWAP1 PUSH2 0x100 EXP SWAP1 DIV PUSH1 0xFF AND DUP2 JUMP JUMPDEST PUSH2 0x16E PUSH2 0xF2A JUMP JUMPDEST PUSH1 0x2 PUSH1 0x9 DUP1 PUSH1 0x20 MUL PUSH1 0x40 MLOAD SWAP1 DUP2 ADD PUSH1 0x40 MSTORE DUP1 SWAP3 SWAP2 SWAP1 DUP3 PUSH1 0x9 DUP1 ISZERO PUSH2 0x1DC JUMPI PUSH1 0x20 MUL DUP3 ADD SWAP2 PUSH1 0x0 SWAP1 JUMPDEST DUP3 DUP3 SWAP1 SLOAD SWAP1 PUSH2 0x100 EXP SWAP1 DIV PUSH1 0xFF AND PUSH1 0x2 DUP2 GT ISZERO PUSH2 0x1B6 JUMPI PUSH2 0x1B5 PUSH2 0x1FE4 JUMP JUMPDEST JUMPDEST DUP2 MSTORE PUSH1 0x20 ADD SWAP1 PUSH1 0x1 ADD SWAP1 PUSH1 0x20 DUP3 PUSH1 0x0 ADD DIV SWAP3 DUP4 ADD SWAP3 PUSH1 0x1 SUB DUP3 MUL SWAP2 POP DUP1 DUP5 GT PUSH2 0x196 JUMPI SWAP1 POP JUMPDEST POP POP POP POP POP SWAP1 POP SWAP1 JUMP JUMPDEST PUSH1 0x0 PUSH20 0xFFFFFFFFFFFFFFFFFFFFFFFFFFFFFFFFFFFFFFFF AND PUSH1 0x0 DUP1 SLOAD SWAP1 PUSH2 0x100 EXP SWAP1 DIV PUSH20 0xFFFFFFFFFFFFFFFFFFFFFFFFFFFFFFFFFFFFFFFF AND PUSH20 0xFFFFFFFFFFFFFFFFFFFFFFFFFFFFFFFFFFFFFFFF AND EQ ISZERO PUSH2 0x276 JUMPI PUSH1 0x40 MLOAD PUSH32 0x8C379A000000000000000000000000000000000000000000000000000000000 DUP2 MSTORE PUSH1 0x4 ADD PUSH2 0x26D SWAP1 PUSH2 0x1AAF JUMP JUMPDEST PUSH1 0x40 MLOAD DUP1 SWAP2 SUB SWAP1 REVERT JUMPDEST PUSH1 0x0 PUSH20 0xFFFFFFFFFFFFFFFFFFFFFFFFFFFFFFFFFFFFFFFF AND PUSH1 0x1 PUSH1 0x0 SWAP1 SLOAD SWAP1 PUSH2 0x100 EXP SWAP1 DIV PUSH20 0xFFFFFFFFFFFFFFFFFFFFFFFFFFFFFFFFFFFFFFFF AND PUSH20 0xFFFFFFFFFFFFFFFFFFFFFFFFFFFFFFFFFFFFFFFF AND EQ ISZERO PUSH2 0x308 JUMPI PUSH1 0x40 MLOAD PUSH32 0x8C379A000000000000000000000000000000000000000000000000000000000 DUP2 MSTORE PUSH1 0x4 ADD PUSH2 0x2FF SWAP1 PUSH2 0x1ACF JUMP JUMPDEST PUSH1 0x40 MLOAD DUP1 SWAP2 SUB SWAP1 REVERT JUMPDEST PUSH1 0x3 DUP1 DUP2 GT ISZERO PUSH2 0x31B JUMPI PUSH2 0x31A PUSH2 0x1FE4 JUMP JUMPDEST JUMPDEST PUSH1 0x1 PUSH1 0x14 SWAP1 SLOAD SWAP1 PUSH2 0x100 EXP SWAP1 DIV PUSH1 0xFF AND PUSH1 0x3 DUP2 GT ISZERO PUSH2 0x33D JUMPI PUSH2 0x33C PUSH2 0x1FE4 JUMP JUMPDEST JUMPDEST EQ PUSH2 0x37D JUMPI PUSH1 0x40 MLOAD PUSH32 0x8C379A000000000000000000000000000000000000000000000000000000000 DUP2 MSTORE PUSH1 0x4 ADD PUSH2 0x374 SWAP1 PUSH2 0x1A8F JUMP JUMPDEST PUSH1 0x40 MLOAD DUP1 SWAP2 SUB SWAP1 REVERT JUMPDEST PUSH1 0x9 DUP2 PUSH1 0xFF AND LT PUSH2 0x3C3 JUMPI PUSH1 0x40 MLOAD PUSH32 0x8C379A000000000000000000000000000000000000000000000000000000000 DUP2 MSTORE PUSH1 0x4 ADD PUSH2 0x3BA SWAP1 PUSH2 0x1A0F JUMP JUMPDEST PUSH1 0x40 MLOAD DUP1 SWAP2 SUB SWAP1 REVERT JUMPDEST PUSH2 0x3CB PUSH2 0x91F JUMP JUMPDEST PUSH20 0xFFFFFFFFFFFFFFFFFFFFFFFFFFFFFFFFFFFFFFFF AND CALLER PUSH20 0xFFFFFFFFFFFFFFFFFFFFFFFFFFFFFFFFFFFFFFFF AND EQ PUSH2 0x438 JUMPI PUSH1 0x40 MLOAD PUSH32 0x8C379A000000000000000000000000000000000000000000000000000000000 DUP2 MSTORE PUSH1 0x4 ADD PUSH2 0x42F SWAP1 PUSH2 0x1A6F JUMP JUMPDEST PUSH1 0x40 MLOAD DUP1 SWAP2 SUB SWAP1 REVERT JUMPDEST PUSH1 0x2 DUP1 DUP2 GT ISZERO PUSH2 0x44B JUMPI PUSH2 0x44A PUSH2 0x1FE4 JUMP JUMPDEST JUMPDEST PUSH1 0x2 DUP3 PUSH1 0xFF AND PUSH1 0x9 DUP2 LT PUSH2 0x462 JUMPI PUSH2 0x461 PUSH2 0x2013 JUMP JUMPDEST JUMPDEST PUSH1 0x20 SWAP2 DUP3 DUP3 DIV ADD SWAP2 SWAP1 MOD SWAP1 SLOAD SWAP1 PUSH2 0x100 EXP SWAP1 DIV PUSH1 0xFF AND PUSH1 0x2 DUP2 GT ISZERO PUSH2 0x48A JUMPI PUSH2 0x489 PUSH2 0x1FE4 JUMP JUMPDEST JUMPDEST EQ PUSH2 0x4CA JUMPI PUSH1 0x40 MLOAD PUSH32 0x8C379A000000000000000000000000000000000000000000000000000000000 DUP2 MSTORE PUSH1 0x4 ADD PUSH2 0x4C1 SWAP1 PUSH2 0x1AEF JUMP JUMPDEST PUSH1 0x40 MLOAD DUP1 SWAP2 SUB SWAP1 REVERT JUMPDEST PUSH1 0x1 PUSH1 0x15 SWAP1 SLOAD SWAP1 PUSH2 0x100 EXP SWAP1 DIV PUSH1 0xFF AND PUSH1 0x2 DUP3 PUSH1 0xFF AND PUSH1 0x9 DUP2 LT PUSH2 0x4F1 JUMPI PUSH2 0x4F0 PUSH2 0x2013 JUMP JUMPDEST JUMPDEST PUSH1 0x20 SWAP2 DUP3 DUP3 DIV ADD SWAP2 SWAP1 MOD PUSH2 0x100 EXP DUP2 SLOAD DUP2 PUSH1 0xFF MUL NOT AND SWAP1 DUP4 PUSH1 0x2 DUP2 GT ISZERO PUSH2 0x51B JUMPI PUSH2 0x51A PUSH2 0x1FE4 JUMP JUMPDEST JUMPDEST MUL OR SWAP1 SSTORE POP PUSH2 0x528 PUSH2 0x9F2 JUMP JUMPDEST PUSH1 0x1 PUSH1 0x14 PUSH2 0x100 EXP DUP2 SLOAD DUP2 PUSH1 0xFF MUL NOT AND SWAP1 DUP4 PUSH1 0x3 DUP2 GT ISZERO PUSH2 0x54C JUMPI PUSH2 0x54B PUSH2 0x1FE4 JUMP JUMPDEST JUMPDEST MUL OR SWAP1 SSTORE POP PUSH32 0xFAD320F1F1C95D3DD74B7E642C38488713B52A0EB8E3B29E04658E17BB303DC4 PUSH1 0x2 PUSH1 0x1 PUSH1 0x14 SWAP1 SLOAD SWAP1 PUSH2 0x100 EXP SWAP1 DIV PUSH1 0xFF AND PUSH1 0x40 MLOAD PUSH2 0x592 SWAP3 SWAP2 SWAP1 PUSH2 0x19AE JUMP JUMPDEST PUSH1 0x40 MLOAD DUP1 SWAP2 SUB SWAP1 LOG1 POP JUMP JUMPDEST PUSH1 0x1 PUSH1 0x0 SWAP1 SLOAD SWAP1 PUSH2 0x100 EXP SWAP1 DIV PUSH20 0xFFFFFFFFFFFFFFFFFFFFFFFFFFFFFFFFFFFFFFFF AND DUP2 JUMP JUMPDEST PUSH1 0x1 PUSH1 0x15 SWAP1 SLOAD SWAP1 PUSH2 0x100 EXP SWAP1 DIV PUSH1 0xFF AND DUP2 JUMP JUMPDEST PUSH1 0x3 DUP1 DUP2 GT ISZERO PUSH2 0x5E9 JUMPI PUSH2 0x5E8 PUSH2 0x1FE4 JUMP JUMPDEST JUMPDEST PUSH1 0x1 PUSH1 0x14 SWAP1 SLOAD SWAP1 PUSH2 0x100 EXP SWAP1 DIV PUSH1 0xFF AND PUSH1 0x3 DUP2 GT ISZERO PUSH2 0x60B JUMPI PUSH2 0x60A PUSH2 0x1FE4 JUMP JUMPDEST JUMPDEST EQ ISZERO PUSH2 0x64C JUMPI PUSH1 0x40 MLOAD PUSH32 0x8C379A000000000000000000000000000000000000000000000000000000000 DUP2 MSTORE PUSH1 0x4 ADD PUSH2 0x643 SWAP1 PUSH2 0x1A2F JUMP JUMPDEST PUSH1 0x40 MLOAD DUP1 SWAP2 SUB SWAP1 REVERT JUMPDEST PUSH1 0x3 PUSH1 0x1 PUSH1 0x14 PUSH2 0x100 EXP DUP2 SLOAD DUP2 PUSH1 0xFF MUL NOT AND SWAP1 DUP4 PUSH1 0x3 DUP2 GT ISZERO PUSH2 0x672 JUMPI PUSH2 0x671 PUSH2 0x1FE4 JUMP JUMPDEST JUMPDEST MUL OR SWAP1 SSTORE POP PUSH1 0x0 PUSH1 0x1 PUSH1 0x15 PUSH2 0x100 EXP DUP2 SLOAD DUP2 PUSH1 0xFF MUL NOT AND SWAP1 DUP4 PUSH1 0x2 DUP2 GT ISZERO PUSH2 0x69D JUMPI PUSH2 0x69C PUSH2 0x1FE4 JUMP JUMPDEST JUMPDEST MUL OR SWAP1 SSTORE POP PUSH1 0x0 DUP1 PUSH1 0x0 PUSH2 0x100 EXP DUP2 SLOAD DUP2 PUSH20 0xFFFFFFFFFFFFFFFFFFFFFFFFFFFFFFFFFFFFFFFF MUL NOT AND SWAP1 DUP4 PUSH20 0xFFFFFFFFFFFFFFFFFFFFFFFFFFFFFFFFFFFFFFFF AND MUL OR SWAP1 SSTORE POP PUSH1 0x0 PUSH1 0x1 PUSH1 0x0 PUSH2 0x100 EXP DUP2 SLOAD DUP2 PUSH20 0xFFFFFFFFFFFFFFFFFFFFFFFFFFFFFFFFFFFFFFFF MUL NOT AND SWAP1 DUP4 PUSH20 0xFFFFFFFFFFFFFFFFFFFFFFFFFFFFFFFFFFFFFFFF AND MUL OR SWAP1 SSTORE POP PUSH1 0x2 PUSH1 0x0 PUSH2 0x733 SWAP2 SWAP1 PUSH2 0xF4D JUMP JUMPDEST JUMP JUMPDEST PUSH1 0x0 DUP1 SLOAD SWAP1 PUSH2 0x100 EXP SWAP1 DIV PUSH20 0xFFFFFFFFFFFFFFFFFFFFFFFFFFFFFFFFFFFFFFFF AND DUP2 JUMP JUMPDEST PUSH1 0x0 PUSH20 0xFFFFFFFFFFFFFFFFFFFFFFFFFFFFFFFFFFFFFFFF AND PUSH1 0x0 DUP1 SLOAD SWAP1 PUSH2 0x100 EXP SWAP1 DIV PUSH20 0xFFFFFFFFFFFFFFFFFFFFFFFFFFFFFFFFFFFFFFFF AND PUSH20 0xFFFFFFFFFFFFFFFFFFFFFFFFFFFFFFFFFFFFFFFF AND EQ DUP1 PUSH2 0x802 JUMPI POP PUSH1 0x0 PUSH20 0xFFFFFFFFFFFFFFFFFFFFFFFFFFFFFFFFFFFFFFFF AND PUSH1 0x1 PUSH1 0x0 SWAP1 SLOAD SWAP1 PUSH2 0x100 EXP SWAP1 DIV PUSH20 0xFFFFFFFFFFFFFFFFFFFFFFFFFFFFFFFFFFFFFFFF AND PUSH20 0xFFFFFFFFFFFFFFFFFFFFFFFFFFFFFFFFFFFFFFFF AND EQ JUMPDEST PUSH2 0x841 JUMPI PUSH1 0x40 MLOAD PUSH32 0x8C379A000000000000000000000000000000000000000000000000000000000 DUP2 MSTORE PUSH1 0x4 ADD PUSH2 0x838 SWAP1 PUSH2 0x1A4F JUMP JUMPDEST PUSH1 0x40 MLOAD DUP1 SWAP2 SUB SWAP1 REVERT JUMPDEST PUSH1 0x0 PUSH20 0xFFFFFFFFFFFFFFFFFFFFFFFFFFFFFFFFFFFFFFFF AND PUSH1 0x0 DUP1 SLOAD SWAP1 PUSH2 0x100 EXP SWAP1 DIV PUSH20 0xFFFFFFFFFFFFFFFFFFFFFFFFFFFFFFFFFFFFFFFF AND PUSH20 0xFFFFFFFFFFFFFFFFFFFFFFFFFFFFFFFFFFFFFFFF AND EQ ISZERO PUSH2 0x8DB JUMPI CALLER PUSH1 0x0 DUP1 PUSH2 0x100 EXP DUP2 SLOAD DUP2 PUSH20 0xFFFFFFFFFFFFFFFFFFFFFFFFFFFFFFFFFFFFFFFF MUL NOT AND SWAP1 DUP4 PUSH20 0xFFFFFFFFFFFFFFFFFFFFFFFFFFFFFFFFFFFFFFFF AND MUL OR SWAP1 SSTORE POP PUSH2 0x91D JUMP JUMPDEST CALLER PUSH1 0x1 PUSH1 0x0 PUSH2 0x100 EXP DUP2 SLOAD DUP2 PUSH20 0xFFFFFFFFFFFFFFFFFFFFFFFFFFFFFFFFFFFFFFFF MUL NOT AND SWAP1 DUP4 PUSH20 0xFFFFFFFFFFFFFFFFFFFFFFFFFFFFFFFFFFFFFFFF AND MUL OR SWAP1 SSTORE POP JUMPDEST JUMP JUMPDEST PUSH1 0x0 DUP1 PUSH1 0x2 DUP2 GT ISZERO PUSH2 0x934 JUMPI PUSH2 0x933 PUSH2 0x1FE4 JUMP JUMPDEST JUMPDEST PUSH1 0x1 PUSH1 0x15 SWAP1 SLOAD SWAP1 PUSH2 0x100 EXP SWAP1 DIV PUSH1 0xFF AND PUSH1 0x2 DUP2 GT ISZERO PUSH2 0x956 JUMPI PUSH2 0x955 PUSH2 0x1FE4 JUMP JUMPDEST JUMPDEST EQ ISZERO PUSH2 0x984 JUMPI PUSH1 0x0 DUP1 SLOAD SWAP1 PUSH2 0x100 EXP SWAP1 DIV PUSH20 0xFFFFFFFFFFFFFFFFFFFFFFFFFFFFFFFFFFFFFFFF AND SWAP1 POP PUSH2 0x9EF JUMP JUMPDEST PUSH1 0x1 PUSH1 0x2 DUP2 GT ISZERO PUSH2 0x998 JUMPI PUSH2 0x997 PUSH2 0x1FE4 JUMP JUMPDEST JUMPDEST PUSH1 0x1 PUSH1 0x15 SWAP1 SLOAD SWAP1 PUSH2 0x100 EXP SWAP1 DIV PUSH1 0xFF AND PUSH1 0x2 DUP2 GT ISZERO PUSH2 0x9BA JUMPI PUSH2 0x9B9 PUSH2 0x1FE4 JUMP JUMPDEST JUMPDEST EQ ISZERO PUSH2 0x9EA JUMPI PUSH1 0x1 PUSH1 0x0 SWAP1 SLOAD SWAP1 PUSH2 0x100 EXP SWAP1 DIV PUSH20 0xFFFFFFFFFFFFFFFFFFFFFFFFFFFFFFFFFFFFFFFF AND SWAP1 POP PUSH2 0x9EF JUMP JUMPDEST PUSH1 0x0 SWAP1 POP JUMPDEST SWAP1 JUMP JUMPDEST PUSH1 0x0 DUP1 PUSH1 0x40 MLOAD DUP1 PUSH2 0x100 ADD PUSH1 0x40 MSTORE DUP1 PUSH1 0x40 MLOAD DUP1 PUSH1 0x60 ADD PUSH1 0x40 MSTORE DUP1 PUSH1 0x0 PUSH1 0xFF AND DUP2 MSTORE PUSH1 0x20 ADD PUSH1 0x1 PUSH1 0xFF AND DUP2 MSTORE PUSH1 0x20 ADD PUSH1 0x2 PUSH1 0xFF AND DUP2 MSTORE POP DUP2 MSTORE PUSH1 0x20 ADD PUSH1 0x40 MLOAD DUP1 PUSH1 0x60 ADD PUSH1 0x40 MSTORE DUP1 PUSH1 0x3 PUSH1 0xFF AND DUP2 MSTORE PUSH1 0x20 ADD PUSH1 0x4 PUSH1 0xFF AND DUP2 MSTORE PUSH1 0x20 ADD PUSH1 0x5 PUSH1 0xFF AND DUP2 MSTORE POP DUP2 MSTORE PUSH1 0x20 ADD PUSH1 0x40 MLOAD DUP1 PUSH1 0x60 ADD PUSH1 0x40 MSTORE DUP1 PUSH1 0x6 PUSH1 0xFF AND DUP2 MSTORE PUSH1 0x20 ADD PUSH1 0x7 PUSH1 0xFF AND DUP2 MSTORE PUSH1 0x20 ADD PUSH1 0x8 PUSH1 0xFF AND DUP2 MSTORE POP DUP2 MSTORE PUSH1 0x20 ADD PUSH1 0x40 MLOAD DUP1 PUSH1 0x60 ADD PUSH1 0x40 MSTORE DUP1 PUSH1 0x0 PUSH1 0xFF AND DUP2 MSTORE PUSH1 0x20 ADD PUSH1 0x3 PUSH1 0xFF AND DUP2 MSTORE PUSH1 0x20 ADD PUSH1 0x6 PUSH1 0xFF AND DUP2 MSTORE POP DUP2 MSTORE PUSH1 0x20 ADD PUSH1 0x40 MLOAD DUP1 PUSH1 0x60 ADD PUSH1 0x40 MSTORE DUP1 PUSH1 0x1 PUSH1 0xFF AND DUP2 MSTORE PUSH1 0x20 ADD PUSH1 0x4 PUSH1 0xFF AND DUP2 MSTORE PUSH1 0x20 ADD PUSH1 0x7 PUSH1 0xFF AND DUP2 MSTORE POP DUP2 MSTORE PUSH1 0x20 ADD PUSH1 0x40 MLOAD DUP1 PUSH1 0x60 ADD PUSH1 0x40 MSTORE DUP1 PUSH1 0x2 PUSH1 0xFF AND DUP2 MSTORE PUSH1 0x20 ADD PUSH1 0x5 PUSH1 0xFF AND DUP2 MSTORE PUSH1 0x20 ADD PUSH1 0x8 PUSH1 0xFF AND DUP2 MSTORE POP DUP2 MSTORE PUSH1 0x20 ADD PUSH1 0x40 MLOAD DUP1 PUSH1 0x60 ADD PUSH1 0x40 MSTORE DUP1 PUSH1 0x0 PUSH1 0xFF AND DUP2 MSTORE PUSH1 0x20 ADD PUSH1 0x4 PUSH1 0xFF AND DUP2 MSTORE PUSH1 0x20 ADD PUSH1 0x8 PUSH1 0xFF AND DUP2 MSTORE POP DUP2 MSTORE PUSH1 0x20 ADD PUSH1 0x40 MLOAD DUP1 PUSH1 0x60 ADD PUSH1 0x40 MSTORE DUP1 PUSH1 0x6 PUSH1 0xFF AND DUP2 MSTORE PUSH1 0x20 ADD PUSH1 0x4 PUSH1 0xFF AND DUP2 MSTORE PUSH1 0x20 ADD PUSH1 0x2 PUSH1 0xFF AND DUP2 MSTORE POP DUP2 MSTORE POP SWAP1 POP PUSH1 0x0 JUMPDEST PUSH1 0x8 DUP2 PUSH1 0xFF AND LT ISZERO PUSH2 0xE7D JUMPI PUSH1 0x0 DUP3 DUP3 PUSH1 0xFF AND PUSH1 0x8 DUP2 LT PUSH2 0xB88 JUMPI PUSH2 0xB87 PUSH2 0x2013 JUMP JUMPDEST JUMPDEST PUSH1 0x20 MUL ADD MLOAD SWAP1 POP PUSH1 0x2 DUP2 PUSH1 0x1 PUSH1 0x3 DUP2 LT PUSH2 0xBA5 JUMPI PUSH2 0xBA4 PUSH2 0x2013 JUMP JUMPDEST JUMPDEST PUSH1 0x20 MUL ADD MLOAD PUSH1 0xFF AND PUSH1 0x9 DUP2 LT PUSH2 0xBBE JUMPI PUSH2 0xBBD PUSH2 0x2013 JUMP JUMPDEST JUMPDEST PUSH1 0x20 SWAP2 DUP3 DUP3 DIV ADD SWAP2 SWAP1 MOD SWAP1 SLOAD SWAP1 PUSH2 0x100 EXP SWAP1 DIV PUSH1 0xFF AND PUSH1 0x2 DUP2 GT ISZERO PUSH2 0xBE6 JUMPI PUSH2 0xBE5 PUSH2 0x1FE4 JUMP JUMPDEST JUMPDEST PUSH1 0x2 DUP3 PUSH1 0x0 PUSH1 0x3 DUP2 LT PUSH2 0xBFC JUMPI PUSH2 0xBFB PUSH2 0x2013 JUMP JUMPDEST JUMPDEST PUSH1 0x20 MUL ADD MLOAD PUSH1 0xFF AND PUSH1 0x9 DUP2 LT PUSH2 0xC15 JUMPI PUSH2 0xC14 PUSH2 0x2013 JUMP JUMPDEST JUMPDEST PUSH1 0x20 SWAP2 DUP3 DUP3 DIV ADD SWAP2 SWAP1 MOD SWAP1 SLOAD SWAP1 PUSH2 0x100 EXP SWAP1 DIV PUSH1 0xFF AND PUSH1 0x2 DUP2 GT ISZERO PUSH2 0xC3D JUMPI PUSH2 0xC3C PUSH2 0x1FE4 JUMP JUMPDEST JUMPDEST EQ DUP1 ISZERO PUSH2 0xCF5 JUMPI POP PUSH1 0x2 DUP2 PUSH1 0x2 PUSH1 0x3 DUP2 LT PUSH2 0xC5B JUMPI PUSH2 0xC5A PUSH2 0x2013 JUMP JUMPDEST JUMPDEST PUSH1 0x20 MUL ADD MLOAD PUSH1 0xFF AND PUSH1 0x9 DUP2 LT PUSH2 0xC74 JUMPI PUSH2 0xC73 PUSH2 0x2013 JUMP JUMPDEST JUMPDEST PUSH1 0x20 SWAP2 DUP3 DUP3 DIV ADD SWAP2 SWAP1 MOD SWAP1 SLOAD SWAP1 PUSH2 0x100 EXP SWAP1 DIV PUSH1 0xFF AND PUSH1 0x2 DUP2 GT ISZERO PUSH2 0xC9C JUMPI PUSH2 0xC9B PUSH2 0x1FE4 JUMP JUMPDEST JUMPDEST PUSH1 0x2 DUP3 PUSH1 0x1 PUSH1 0x3 DUP2 LT PUSH2 0xCB2 JUMPI PUSH2 0xCB1 PUSH2 0x2013 JUMP JUMPDEST JUMPDEST PUSH1 0x20 MUL ADD MLOAD PUSH1 0xFF AND PUSH1 0x9 DUP2 LT PUSH2 0xCCB JUMPI PUSH2 0xCCA PUSH2 0x2013 JUMP JUMPDEST JUMPDEST PUSH1 0x20 SWAP2 DUP3 DUP3 DIV ADD SWAP2 SWAP1 MOD SWAP1 SLOAD SWAP1 PUSH2 0x100 EXP SWAP1 DIV PUSH1 0xFF AND PUSH1 0x2 DUP2 GT ISZERO PUSH2 0xCF3 JUMPI PUSH2 0xCF2 PUSH2 0x1FE4 JUMP JUMPDEST JUMPDEST EQ JUMPDEST DUP1 ISZERO PUSH2 0xD69 JUMPI POP PUSH1 0x2 DUP1 DUP2 GT ISZERO PUSH2 0xD0F JUMPI PUSH2 0xD0E PUSH2 0x1FE4 JUMP JUMPDEST JUMPDEST PUSH1 0x2 DUP3 PUSH1 0x2 PUSH1 0x3 DUP2 LT PUSH2 0xD25 JUMPI PUSH2 0xD24 PUSH2 0x2013 JUMP JUMPDEST JUMPDEST PUSH1 0x20 MUL ADD MLOAD PUSH1 0xFF AND PUSH1 0x9 DUP2 LT PUSH2 0xD3E JUMPI PUSH2 0xD3D PUSH2 0x2013 JUMP JUMPDEST JUMPDEST PUSH1 0x20 SWAP2 DUP3 DUP3 DIV ADD SWAP2 SWAP1 MOD SWAP1 SLOAD SWAP1 PUSH2 0x100 EXP SWAP1 DIV PUSH1 0xFF AND PUSH1 0x2 DUP2 GT ISZERO PUSH2 0xD66 JUMPI PUSH2 0xD65 PUSH2 0x1FE4 JUMP JUMPDEST JUMPDEST EQ ISZERO JUMPDEST ISZERO PUSH2 0xE69 JUMPI PUSH1 0x0 PUSH1 0x2 DUP2 GT ISZERO PUSH2 0xD82 JUMPI PUSH2 0xD81 PUSH2 0x1FE4 JUMP JUMPDEST JUMPDEST PUSH1 0x2 DUP3 PUSH1 0x0 PUSH1 0x3 DUP2 LT PUSH2 0xD98 JUMPI PUSH2 0xD97 PUSH2 0x2013 JUMP JUMPDEST JUMPDEST PUSH1 0x20 MUL ADD MLOAD PUSH1 0xFF AND PUSH1 0x9 DUP2 LT PUSH2 0xDB1 JUMPI PUSH2 0xDB0 PUSH2 0x2013 JUMP JUMPDEST JUMPDEST PUSH1 0x20 SWAP2 DUP3 DUP3 DIV ADD SWAP2 SWAP1 MOD SWAP1 SLOAD SWAP1 PUSH2 0x100 EXP SWAP1 DIV PUSH1 0xFF AND PUSH1 0x2 DUP2 GT ISZERO PUSH2 0xDD9 JUMPI PUSH2 0xDD8 PUSH2 0x1FE4 JUMP JUMPDEST JUMPDEST EQ ISZERO PUSH2 0xDEB JUMPI PUSH1 0x1 SWAP4 POP POP POP POP PUSH2 0xE9B JUMP JUMPDEST PUSH1 0x1 PUSH1 0x2 DUP2 GT ISZERO PUSH2 0xDFF JUMPI PUSH2 0xDFE PUSH2 0x1FE4 JUMP JUMPDEST JUMPDEST PUSH1 0x2 DUP3 PUSH1 0x0 PUSH1 0x3 DUP2 LT PUSH2 0xE15 JUMPI PUSH2 0xE14 PUSH2 0x2013 JUMP JUMPDEST JUMPDEST PUSH1 0x20 MUL ADD MLOAD PUSH1 0xFF AND PUSH1 0x9 DUP2 LT PUSH2 0xE2E JUMPI PUSH2 0xE2D PUSH2 0x2013 JUMP JUMPDEST JUMPDEST PUSH1 0x20 SWAP2 DUP3 DUP3 DIV ADD SWAP2 SWAP1 MOD SWAP1 SLOAD SWAP1 PUSH2 0x100 EXP SWAP1 DIV PUSH1 0xFF AND PUSH1 0x2 DUP2 GT ISZERO PUSH2 0xE56 JUMPI PUSH2 0xE55 PUSH2 0x1FE4 JUMP JUMPDEST JUMPDEST EQ ISZERO PUSH2 0xE68 JUMPI PUSH1 0x2 SWAP4 POP POP POP POP PUSH2 0xE9B JUMP JUMPDEST JUMPDEST POP DUP1 DUP1 PUSH2 0xE75 SWAP1 PUSH2 0x1F8B JUMP JUMPDEST SWAP2 POP POP PUSH2 0xB64 JUMP JUMPDEST POP PUSH2 0xE86 PUSH2 0xE9E JUMP JUMPDEST ISZERO PUSH2 0xE95 JUMPI PUSH1 0x0 SWAP2 POP POP PUSH2 0xE9B JUMP JUMPDEST PUSH1 0x3 SWAP2 POP POP JUMPDEST SWAP1 JUMP JUMPDEST PUSH1 0x0 DUP1 PUSH1 0x0 SWAP1 POP JUMPDEST PUSH1 0x9 DUP2 LT ISZERO PUSH2 0xF21 JUMPI PUSH1 0x2 DUP1 DUP2 GT ISZERO PUSH2 0xEC2 JUMPI PUSH2 0xEC1 PUSH2 0x1FE4 JUMP JUMPDEST JUMPDEST PUSH1 0x2 DUP3 PUSH1 0x9 DUP2 LT PUSH2 0xED6 JUMPI PUSH2 0xED5 PUSH2 0x2013 JUMP JUMPDEST JUMPDEST PUSH1 0x20 SWAP2 DUP3 DUP3 DIV ADD SWAP2 SWAP1 MOD SWAP1 SLOAD SWAP1 PUSH2 0x100 EXP SWAP1 DIV PUSH1 0xFF AND PUSH1 0x2 DUP2 GT ISZERO PUSH2 0xEFE JUMPI PUSH2 0xEFD PUSH2 0x1FE4 JUMP JUMPDEST JUMPDEST EQ ISZERO PUSH2 0xF0E JUMPI PUSH1 0x0 SWAP2 POP POP PUSH2 0xF27 JUMP JUMPDEST DUP1 DUP1 PUSH2 0xF19 SWAP1 PUSH2 0x1F42 JUMP JUMPDEST SWAP2 POP POP PUSH2 0xEA6 JUMP JUMPDEST POP PUSH1 0x1 SWAP1 POP JUMPDEST SWAP1 JUMP JUMPDEST PUSH1 0x40 MLOAD DUP1 PUSH2 0x120 ADD PUSH1 0x40 MSTORE DUP1 PUSH1 0x9 SWAP1 PUSH1 0x20 DUP3 MUL DUP1 CALLDATASIZE DUP4 CALLDATACOPY DUP1 DUP3 ADD SWAP2 POP POP SWAP1 POP POP SWAP1 JUMP JUMPDEST POP PUSH1 0x0 SWAP1 SSTORE JUMP JUMPDEST PUSH1 0x0 DUP2 CALLDATALOAD SWAP1 POP PUSH2 0xF63 DUP2 PUSH2 0x2357 JUMP JUMPDEST SWAP3 SWAP2 POP POP JUMP JUMPDEST PUSH1 0x0 PUSH1 0x20 DUP3 DUP5 SUB SLT ISZERO PUSH2 0xF7F JUMPI PUSH2 0xF7E PUSH2 0x2042 JUMP JUMPDEST JUMPDEST PUSH1 0x0 PUSH2 0xF8D DUP5 DUP3 DUP6 ADD PUSH2 0xF54 JUMP JUMPDEST SWAP2 POP POP SWAP3 SWAP2 POP POP JUMP JUMPDEST PUSH1 0x0 PUSH2 0xFA2 DUP4 DUP4 PUSH2 0x1841 JUMP JUMPDEST PUSH1 0x20 DUP4 ADD SWAP1 POP SWAP3 SWAP2 POP POP JUMP JUMPDEST PUSH2 0xFB7 DUP2 PUSH2 0x1B6F JUMP JUMPDEST DUP3 MSTORE POP POP JUMP JUMPDEST PUSH2 0xFC6 DUP2 PUSH2 0x1B23 JUMP JUMPDEST PUSH2 0xFD0 DUP2 DUP5 PUSH2 0x1B46 JUMP JUMPDEST SWAP3 POP PUSH2 0xFDB DUP3 PUSH2 0x1B0F JUMP JUMPDEST DUP1 PUSH1 0x0 JUMPDEST DUP4 DUP2 LT ISZERO PUSH2 0x100C JUMPI DUP2 MLOAD PUSH2 0xFF3 DUP8 DUP3 PUSH2 0xF96 JUMP JUMPDEST SWAP7 POP PUSH2 0xFFE DUP4 PUSH2 0x1B39 JUMP JUMPDEST SWAP3 POP POP PUSH1 0x1 DUP2 ADD SWAP1 POP PUSH2 0xFDF JUMP JUMPDEST POP POP POP POP POP POP JUMP JUMPDEST PUSH2 0x101D DUP2 PUSH2 0x1B2E JUMP JUMPDEST PUSH2 0x1027 DUP2 DUP5 PUSH2 0x1B46 JUMP JUMPDEST SWAP3 POP DUP3 PUSH2 0x1033 DUP4 PUSH2 0x1B19 JUMP JUMPDEST PUSH1 0x0 DUP1 ISZERO PUSH2 0x135F JUMPI JUMPDEST DUP4 PUSH1 0x1 PUSH1 0x20 SUB DUP3 ADD LT ISZERO PUSH2 0x135E JUMPI DUP2 SLOAD PUSH2 0x105E DUP8 PUSH2 0x1059 DUP4 PUSH2 0x1C02 JUMP JUMPDEST PUSH2 0x1841 JUMP JUMPDEST PUSH1 0x20 DUP8 ADD SWAP7 POP PUSH2 0x1076 DUP8 PUSH2 0x1071 DUP4 PUSH2 0x1D20 JUMP JUMPDEST PUSH2 0x1841 JUMP JUMPDEST PUSH1 0x20 DUP8 ADD SWAP7 POP PUSH2 0x108E DUP8 PUSH2 0x1089 DUP4 PUSH2 0x1E3E JUMP JUMPDEST PUSH2 0x1841 JUMP JUMPDEST PUSH1 0x20 DUP8 ADD SWAP7 POP PUSH2 0x10A6 DUP8 PUSH2 0x10A1 DUP4 PUSH2 0x1E8C JUMP JUMPDEST PUSH2 0x1841 JUMP JUMPDEST PUSH1 0x20 DUP8 ADD SWAP7 POP PUSH2 0x10BE DUP8 PUSH2 0x10B9 DUP4 PUSH2 0x1EA6 JUMP JUMPDEST PUSH2 0x1841 JUMP JUMPDEST PUSH1 0x20 DUP8 ADD SWAP7 POP PUSH2 0x10D6 DUP8 PUSH2 0x10D1 DUP4 PUSH2 0x1EC0 JUMP JUMPDEST PUSH2 0x1841 JUMP JUMPDEST PUSH1 0x20 DUP8 ADD SWAP7 POP PUSH2 0x10EE DUP8 PUSH2 0x10E9 DUP4 PUSH2 0x1EDA JUMP JUMPDEST PUSH2 0x1841 JUMP JUMPDEST PUSH1 0x20 DUP8 ADD SWAP7 POP PUSH2 0x1106 DUP8 PUSH2 0x1101 DUP4 PUSH2 0x1EF4 JUMP JUMPDEST PUSH2 0x1841 JUMP JUMPDEST PUSH1 0x20 DUP8 ADD SWAP7 POP PUSH2 0x111E DUP8 PUSH2 0x1119 DUP4 PUSH2 0x1F0E JUMP JUMPDEST PUSH2 0x1841 JUMP JUMPDEST PUSH1 0x20 DUP8 ADD SWAP7 POP PUSH2 0x1136 DUP8 PUSH2 0x1131 DUP4 PUSH2 0x1F28 JUMP JUMPDEST PUSH2 0x1841 JUMP JUMPDEST PUSH1 0x20 DUP8 ADD SWAP7 POP PUSH2 0x114E DUP8 PUSH2 0x1149 DUP4 PUSH2 0x1C1C JUMP JUMPDEST PUSH2 0x1841 JUMP JUMPDEST PUSH1 0x20 DUP8 ADD SWAP7 POP PUSH2 0x1166 DUP8 PUSH2 0x1161 DUP4 PUSH2 0x1C36 JUMP JUMPDEST PUSH2 0x1841 JUMP JUMPDEST PUSH1 0x20 DUP8 ADD SWAP7 POP PUSH2 0x117E DUP8 PUSH2 0x1179 DUP4 PUSH2 0x1C50 JUMP JUMPDEST PUSH2 0x1841 JUMP JUMPDEST PUSH1 0x20 DUP8 ADD SWAP7 POP PUSH2 0x1196 DUP8 PUSH2 0x1191 DUP4 PUSH2 0x1C6A JUMP JUMPDEST PUSH2 0x1841 JUMP JUMPDEST PUSH1 0x20 DUP8 ADD SWAP7 POP PUSH2 0x11AE DUP8 PUSH2 0x11A9 DUP4 PUSH2 0x1C84 JUMP JUMPDEST PUSH2 0x1841 JUMP JUMPDEST PUSH1 0x20 DUP8 ADD SWAP7 POP PUSH2 0x11C6 DUP8 PUSH2 0x11C1 DUP4 PUSH2 0x1C9E JUMP JUMPDEST PUSH2 0x1841 JUMP JUMPDEST PUSH1 0x20 DUP8 ADD SWAP7 POP PUSH2 0x11DE DUP8 PUSH2 0x11D9 DUP4 PUSH2 0x1CB8 JUMP JUMPDEST PUSH2 0x1841 JUMP JUMPDEST PUSH1 0x20 DUP8 ADD SWAP7 POP PUSH2 0x11F6 DUP8 PUSH2 0x11F1 DUP4 PUSH2 0x1CD2 JUMP JUMPDEST PUSH2 0x1841 JUMP JUMPDEST PUSH1 0x20 DUP8 ADD SWAP7 POP PUSH2 0x120E DUP8 PUSH2 0x1209 DUP4 PUSH2 0x1CEC JUMP JUMPDEST PUSH2 0x1841 JUMP JUMPDEST PUSH1 0x20 DUP8 ADD SWAP7 POP PUSH2 0x1226 DUP8 PUSH2 0x1221 DUP4 PUSH2 0x1D06 JUMP JUMPDEST PUSH2 0x1841 JUMP JUMPDEST PUSH1 0x20 DUP8 ADD SWAP7 POP PUSH2 0x123E DUP8 PUSH2 0x1239 DUP4 PUSH2 0x1D3A JUMP JUMPDEST PUSH2 0x1841 JUMP JUMPDEST PUSH1 0x20 DUP8 ADD SWAP7 POP PUSH2 0x1256 DUP8 PUSH2 0x1251 DUP4 PUSH2 0x1D54 JUMP JUMPDEST PUSH2 0x1841 JUMP JUMPDEST PUSH1 0x20 DUP8 ADD SWAP7 POP PUSH2 0x126E DUP8 PUSH2 0x1269 DUP4 PUSH2 0x1D6E JUMP JUMPDEST PUSH2 0x1841 JUMP JUMPDEST PUSH1 0x20 DUP8 ADD SWAP7 POP PUSH2 0x1286 DUP8 PUSH2 0x1281 DUP4 PUSH2 0x1D88 JUMP JUMPDEST PUSH2 0x1841 JUMP JUMPDEST PUSH1 0x20 DUP8 ADD SWAP7 POP PUSH2 0x129E DUP8 PUSH2 0x1299 DUP4 PUSH2 0x1DA2 JUMP JUMPDEST PUSH2 0x1841 JUMP JUMPDEST PUSH1 0x20 DUP8 ADD SWAP7 POP PUSH2 0x12B6 DUP8 PUSH2 0x12B1 DUP4 PUSH2 0x1DBC JUMP JUMPDEST PUSH2 0x1841 JUMP JUMPDEST PUSH1 0x20 DUP8 ADD SWAP7 POP PUSH2 0x12CE DUP8 PUSH2 0x12C9 DUP4 PUSH2 0x1DD6 JUMP JUMPDEST PUSH2 0x1841 JUMP JUMPDEST PUSH1 0x20 DUP8 ADD SWAP7 POP PUSH2 0x12E6 DUP8 PUSH2 0x12E1 DUP4 PUSH2 0x1DF0 JUMP JUMPDEST PUSH2 0x1841 JUMP JUMPDEST PUSH1 0x20 DUP8 ADD SWAP7 POP PUSH2 0x12FE DUP8 PUSH2 0x12F9 DUP4 PUSH2 0x1E0A JUMP JUMPDEST PUSH2 0x1841 JUMP JUMPDEST PUSH1 0x20 DUP8 ADD SWAP7 POP PUSH2 0x1316 DUP8 PUSH2 0x1311 DUP4 PUSH2 0x1E24 JUMP JUMPDEST PUSH2 0x1841 JUMP JUMPDEST PUSH1 0x20 DUP8 ADD SWAP7 POP PUSH2 0x132E DUP8 PUSH2 0x1329 DUP4 PUSH2 0x1E58 JUMP JUMPDEST PUSH2 0x1841 JUMP JUMPDEST PUSH1 0x20 DUP8 ADD SWAP7 POP PUSH2 0x1346 DUP8 PUSH2 0x1341 DUP4 PUSH2 0x1E72 JUMP JUMPDEST PUSH2 0x1841 JUMP JUMPDEST PUSH1 0x20 DUP8 ADD SWAP7 POP PUSH1 0x1 DUP4 ADD SWAP3 POP POP PUSH1 0x20 DUP2 ADD SWAP1 POP PUSH2 0x103C JUMP JUMPDEST JUMPDEST PUSH1 0x1 ISZERO PUSH2 0x182A JUMPI DUP2 SLOAD PUSH1 0x1 ISZERO PUSH2 0x138E JUMPI PUSH2 0x1381 DUP8 PUSH2 0x137C DUP4 PUSH2 0x1C02 JUMP JUMPDEST PUSH2 0x1841 JUMP JUMPDEST PUSH1 0x20 DUP8 ADD SWAP7 POP PUSH1 0x1 DUP3 ADD SWAP2 POP JUMPDEST PUSH1 0x1 ISZERO PUSH2 0x13B4 JUMPI PUSH2 0x13A7 DUP8 PUSH2 0x13A2 DUP4 PUSH2 0x1D20 JUMP JUMPDEST PUSH2 0x1841 JUMP JUMPDEST PUSH1 0x20 DUP8 ADD SWAP7 POP PUSH1 0x1 DUP3 ADD SWAP2 POP JUMPDEST PUSH1 0x1 ISZERO PUSH2 0x13DA JUMPI PUSH2 0x13CD DUP8 PUSH2 0x13C8 DUP4 PUSH2 0x1E3E JUMP JUMPDEST PUSH2 0x1841 JUMP JUMPDEST PUSH1 0x20 DUP8 ADD SWAP7 POP PUSH1 0x1 DUP3 ADD SWAP2 POP JUMPDEST PUSH1 0x1 ISZERO PUSH2 0x1400 JUMPI PUSH2 0x13F3 DUP8 PUSH2 0x13EE DUP4 PUSH2 0x1E8C JUMP JUMPDEST PUSH2 0x1841 JUMP JUMPDEST PUSH1 0x20 DUP8 ADD SWAP7 POP PUSH1 0x1 DUP3 ADD SWAP2 POP JUMPDEST PUSH1 0x1 ISZERO PUSH2 0x1426 JUMPI PUSH2 0x1419 DUP8 PUSH2 0x1414 DUP4 PUSH2 0x1EA6 JUMP JUMPDEST PUSH2 0x1841 JUMP JUMPDEST PUSH1 0x20 DUP8 ADD SWAP7 POP PUSH1 0x1 DUP3 ADD SWAP2 POP JUMPDEST PUSH1 0x1 ISZERO PUSH2 0x144C JUMPI PUSH2 0x143F DUP8 PUSH2 0x143A DUP4 PUSH2 0x1EC0 JUMP JUMPDEST PUSH2 0x1841 JUMP JUMPDEST PUSH1 0x20 DUP8 ADD SWAP7 POP PUSH1 0x1 DUP3 ADD SWAP2 POP JUMPDEST PUSH1 0x1 ISZERO PUSH2 0x1472 JUMPI PUSH2 0x1465 DUP8 PUSH2 0x1460 DUP4 PUSH2 0x1EDA JUMP JUMPDEST PUSH2 0x1841 JUMP JUMPDEST PUSH1 0x20 DUP8 ADD SWAP7 POP PUSH1 0x1 DUP3 ADD SWAP2 POP JUMPDEST PUSH1 0x1 ISZERO PUSH2 0x1498 JUMPI PUSH2 0x148B DUP8 PUSH2 0x1486 DUP4 PUSH2 0x1EF4 JUMP JUMPDEST PUSH2 0x1841 JUMP JUMPDEST PUSH1 0x20 DUP8 ADD SWAP7 POP PUSH1 0x1 DUP3 ADD SWAP2 POP JUMPDEST PUSH1 0x1 ISZERO PUSH2 0x14BE JUMPI PUSH2 0x14B1 DUP8 PUSH2 0x14AC DUP4 PUSH2 0x1F0E JUMP JUMPDEST PUSH2 0x1841 JUMP JUMPDEST PUSH1 0x20 DUP8 ADD SWAP7 POP PUSH1 0x1 DUP3 ADD SWAP2 POP JUMPDEST PUSH1 0x0 ISZERO PUSH2 0x14E4 JUMPI PUSH2 0x14D7 DUP8 PUSH2 0x14D2 DUP4 PUSH2 0x1F28 JUMP JUMPDEST PUSH2 0x1841 JUMP JUMPDEST PUSH1 0x20 DUP8 ADD SWAP7 POP PUSH1 0x1 DUP3 ADD SWAP2 POP JUMPDEST PUSH1 0x0 ISZERO PUSH2 0x150A JUMPI PUSH2 0x14FD DUP8 PUSH2 0x14F8 DUP4 PUSH2 0x1C1C JUMP JUMPDEST PUSH2 0x1841 JUMP JUMPDEST PUSH1 0x20 DUP8 ADD SWAP7 POP PUSH1 0x1 DUP3 ADD SWAP2 POP JUMPDEST PUSH1 0x0 ISZERO PUSH2 0x1530 JUMPI PUSH2 0x1523 DUP8 PUSH2 0x151E DUP4 PUSH2 0x1C36 JUMP JUMPDEST PUSH2 0x1841 JUMP JUMPDEST PUSH1 0x20 DUP8 ADD SWAP7 POP PUSH1 0x1 DUP3 ADD SWAP2 POP JUMPDEST PUSH1 0x0 ISZERO PUSH2 0x1556 JUMPI PUSH2 0x1549 DUP8 PUSH2 0x1544 DUP4 PUSH2 0x1C50 JUMP JUMPDEST PUSH2 0x1841 JUMP JUMPDEST PUSH1 0x20 DUP8 ADD SWAP7 POP PUSH1 0x1 DUP3 ADD SWAP2 POP JUMPDEST PUSH1 0x0 ISZERO PUSH2 0x157C JUMPI PUSH2 0x156F DUP8 PUSH2 0x156A DUP4 PUSH2 0x1C6A JUMP JUMPDEST PUSH2 0x1841 JUMP JUMPDEST PUSH1 0x20 DUP8 ADD SWAP7 POP PUSH1 0x1 DUP3 ADD SWAP2 POP JUMPDEST PUSH1 0x0 ISZERO PUSH2 0x15A2 JUMPI PUSH2 0x1595 DUP8 PUSH2 0x1590 DUP4 PUSH2 0x1C84 JUMP JUMPDEST PUSH2 0x1841 JUMP JUMPDEST PUSH1 0x20 DUP8 ADD SWAP7 POP PUSH1 0x1 DUP3 ADD SWAP2 POP JUMPDEST PUSH1 0x0 ISZERO PUSH2 0x15C8 JUMPI PUSH2 0x15BB DUP8 PUSH2 0x15B6 DUP4 PUSH2 0x1C9E JUMP JUMPDEST PUSH2 0x1841 JUMP JUMPDEST PUSH1 0x20 DUP8 ADD SWAP7 POP PUSH1 0x1 DUP3 ADD SWAP2 POP JUMPDEST PUSH1 0x0 ISZERO PUSH2 0x15EE JUMPI PUSH2 0x15E1 DUP8 PUSH2 0x15DC DUP4 PUSH2 0x1CB8 JUMP JUMPDEST PUSH2 0x1841 JUMP JUMPDEST PUSH1 0x20 DUP8 ADD SWAP7 POP PUSH1 0x1 DUP3 ADD SWAP2 POP JUMPDEST PUSH1 0x0 ISZERO PUSH2 0x1614 JUMPI PUSH2 0x1607 DUP8 PUSH2 0x1602 DUP4 PUSH2 0x1CD2 JUMP JUMPDEST PUSH2 0x1841 JUMP JUMPDEST PUSH1 0x20 DUP8 ADD SWAP7 POP PUSH1 0x1 DUP3 ADD SWAP2 POP JUMPDEST PUSH1 0x0 ISZERO PUSH2 0x163A JUMPI PUSH2 0x162D DUP8 PUSH2 0x1628 DUP4 PUSH2 0x1CEC JUMP JUMPDEST PUSH2 0x1841 JUMP JUMPDEST PUSH1 0x20 DUP8 ADD SWAP7 POP PUSH1 0x1 DUP3 ADD SWAP2 POP JUMPDEST PUSH1 0x0 ISZERO PUSH2 0x1660 JUMPI PUSH2 0x1653 DUP8 PUSH2 0x164E DUP4 PUSH2 0x1D06 JUMP JUMPDEST PUSH2 0x1841 JUMP JUMPDEST PUSH1 0x20 DUP8 ADD SWAP7 POP PUSH1 0x1 DUP3 ADD SWAP2 POP JUMPDEST PUSH1 0x0 ISZERO PUSH2 0x1686 JUMPI PUSH2 0x1679 DUP8 PUSH2 0x1674 DUP4 PUSH2 0x1D3A JUMP JUMPDEST PUSH2 0x1841 JUMP JUMPDEST PUSH1 0x20 DUP8 ADD SWAP7 POP PUSH1 0x1 DUP3 ADD SWAP2 POP JUMPDEST PUSH1 0x0 ISZERO PUSH2 0x16AC JUMPI PUSH2 0x169F DUP8 PUSH2 0x169A DUP4 PUSH2 0x1D54 JUMP JUMPDEST PUSH2 0x1841 JUMP JUMPDEST PUSH1 0x20 DUP8 ADD SWAP7 POP PUSH1 0x1 DUP3 ADD SWAP2 POP JUMPDEST PUSH1 0x0 ISZERO PUSH2 0x16D2 JUMPI PUSH2 0x16C5 DUP8 PUSH2 0x16C0 DUP4 PUSH2 0x1D6E JUMP JUMPDEST PUSH2 0x1841 JUMP JUMPDEST PUSH1 0x20 DUP8 ADD SWAP7 POP PUSH1 0x1 DUP3 ADD SWAP2 POP JUMPDEST PUSH1 0x0 ISZERO PUSH2 0x16F8 JUMPI PUSH2 0x16EB DUP8 PUSH2 0x16E6 DUP4 PUSH2 0x1D88 JUMP JUMPDEST PUSH2 0x1841 JUMP JUMPDEST PUSH1 0x20 DUP8 ADD SWAP7 POP PUSH1 0x1 DUP3 ADD SWAP2 POP JUMPDEST PUSH1 0x0 ISZERO PUSH2 0x171E JUMPI PUSH2 0x1711 DUP8 PUSH2 0x170C DUP4 PUSH2 0x1DA2 JUMP JUMPDEST PUSH2 0x1841 JUMP JUMPDEST PUSH1 0x20 DUP8 ADD SWAP7 POP PUSH1 0x1 DUP3 ADD SWAP2 POP JUMPDEST PUSH1 0x0 ISZERO PUSH2 0x1744 JUMPI PUSH2 0x1737 DUP8 PUSH2 0x1732 DUP4 PUSH2 0x1DBC JUMP JUMPDEST PUSH2 0x1841 JUMP JUMPDEST PUSH1 0x20 DUP8 ADD SWAP7 POP PUSH1 0x1 DUP3 ADD SWAP2 POP JUMPDEST PUSH1 0x0 ISZERO PUSH2 0x176A JUMPI PUSH2 0x175D DUP8 PUSH2 0x1758 DUP4 PUSH2 0x1DD6 JUMP JUMPDEST PUSH2 0x1841 JUMP JUMPDEST PUSH1 0x20 DUP8 ADD SWAP7 POP PUSH1 0x1 DUP3 ADD SWAP2 POP JUMPDEST PUSH1 0x0 ISZERO PUSH2 0x1790 JUMPI PUSH2 0x1783 DUP8 PUSH2 0x177E DUP4 PUSH2 0x1DF0 JUMP JUMPDEST PUSH2 0x1841 JUMP JUMPDEST PUSH1 0x20 DUP8 ADD SWAP7 POP PUSH1 0x1 DUP3 ADD SWAP2 POP JUMPDEST PUSH1 0x0 ISZERO PUSH2 0x17B6 JUMPI PUSH2 0x17A9 DUP8 PUSH2 0x17A4 DUP4 PUSH2 0x1E0A JUMP JUMPDEST PUSH2 0x1841 JUMP JUMPDEST PUSH1 0x20 DUP8 ADD SWAP7 POP PUSH1 0x1 DUP3 ADD SWAP2 POP JUMPDEST PUSH1 0x0 ISZERO PUSH2 0x17DC JUMPI PUSH2 0x17CF DUP8 PUSH2 0x17CA DUP4 PUSH2 0x1E24 JUMP JUMPDEST PUSH2 0x1841 JUMP JUMPDEST PUSH1 0x20 DUP8 ADD SWAP7 POP PUSH1 0x1 DUP3 ADD SWAP2 POP JUMPDEST PUSH1 0x0 ISZERO PUSH2 0x1802 JUMPI PUSH2 0x17F5 DUP8 PUSH2 0x17F0 DUP4 PUSH2 0x1E58 JUMP JUMPDEST PUSH2 0x1841 JUMP JUMPDEST PUSH1 0x20 DUP8 ADD SWAP7 POP PUSH1 0x1 DUP3 ADD SWAP2 POP JUMPDEST PUSH1 0x0 ISZERO PUSH2 0x1828 JUMPI PUSH2 0x181B DUP8 PUSH2 0x1816 DUP4 PUSH2 0x1E72 JUMP JUMPDEST PUSH2 0x1841 JUMP JUMPDEST PUSH1 0x20 DUP8 ADD SWAP7 POP PUSH1 0x1 DUP3 ADD SWAP2 POP JUMPDEST POP JUMPDEST POP POP POP POP POP POP JUMP JUMPDEST PUSH2 0x183B DUP2 PUSH2 0x1BDE JUMP JUMPDEST DUP3 MSTORE POP POP JUMP JUMPDEST PUSH2 0x184A DUP2 PUSH2 0x1BF0 JUMP JUMPDEST DUP3 MSTORE POP POP JUMP JUMPDEST PUSH2 0x1859 DUP2 PUSH2 0x1BF0 JUMP JUMPDEST DUP3 MSTORE POP POP JUMP JUMPDEST PUSH1 0x0 PUSH2 0x186C PUSH1 0x15 DUP4 PUSH2 0x1B51 JUMP JUMPDEST SWAP2 POP PUSH2 0x1877 DUP3 PUSH2 0x21E7 JUMP JUMPDEST PUSH1 0x20 DUP3 ADD SWAP1 POP SWAP2 SWAP1 POP JUMP JUMPDEST PUSH1 0x0 PUSH2 0x188F PUSH1 0x15 DUP4 PUSH2 0x1B51 JUMP JUMPDEST SWAP2 POP PUSH2 0x189A DUP3 PUSH2 0x2210 JUMP JUMPDEST PUSH1 0x20 DUP3 ADD SWAP1 POP SWAP2 SWAP1 POP JUMP JUMPDEST PUSH1 0x0 PUSH2 0x18B2 PUSH1 0x1C DUP4 PUSH2 0x1B51 JUMP JUMPDEST SWAP2 POP PUSH2 0x18BD DUP3 PUSH2 0x2239 JUMP JUMPDEST PUSH1 0x20 DUP3 ADD SWAP1 POP SWAP2 SWAP1 POP JUMP JUMPDEST PUSH1 0x0 PUSH2 0x18D5 PUSH1 0x12 DUP4 PUSH2 0x1B51 JUMP JUMPDEST SWAP2 POP PUSH2 0x18E0 DUP3 PUSH2 0x2262 JUMP JUMPDEST PUSH1 0x20 DUP3 ADD SWAP1 POP SWAP2 SWAP1 POP JUMP JUMPDEST PUSH1 0x0 PUSH2 0x18F8 PUSH1 0xC DUP4 PUSH2 0x1B51 JUMP JUMPDEST SWAP2 POP PUSH2 0x1903 DUP3 PUSH2 0x228B JUMP JUMPDEST PUSH1 0x20 DUP3 ADD SWAP1 POP SWAP2 SWAP1 POP JUMP JUMPDEST PUSH1 0x0 PUSH2 0x191B PUSH1 0x1A DUP4 PUSH2 0x1B51 JUMP JUMPDEST SWAP2 POP PUSH2 0x1926 DUP3 PUSH2 0x22B4 JUMP JUMPDEST PUSH1 0x20 DUP3 ADD SWAP1 POP SWAP2 SWAP1 POP JUMP JUMPDEST PUSH1 0x0 PUSH2 0x193E PUSH1 0x1B DUP4 PUSH2 0x1B51 JUMP JUMPDEST SWAP2 POP PUSH2 0x1949 DUP3 PUSH2 0x22DD JUMP JUMPDEST PUSH1 0x20 DUP3 ADD SWAP1 POP SWAP2 SWAP1 POP JUMP JUMPDEST PUSH1 0x0 PUSH2 0x1961 PUSH1 0x1E DUP4 PUSH2 0x1B51 JUMP JUMPDEST SWAP2 POP PUSH2 0x196C DUP3 PUSH2 0x2306 JUMP JUMPDEST PUSH1 0x20 DUP3 ADD SWAP1 POP SWAP2 SWAP1 POP JUMP JUMPDEST PUSH1 0x0 PUSH1 0x20 DUP3 ADD SWAP1 POP PUSH2 0x198C PUSH1 0x0 DUP4 ADD DUP5 PUSH2 0xFAE JUMP JUMPDEST SWAP3 SWAP2 POP POP JUMP JUMPDEST PUSH1 0x0 PUSH2 0x120 DUP3 ADD SWAP1 POP PUSH2 0x19A8 PUSH1 0x0 DUP4 ADD DUP5 PUSH2 0xFBD JUMP JUMPDEST SWAP3 SWAP2 POP POP JUMP JUMPDEST PUSH1 0x0 PUSH2 0x140 DUP3 ADD SWAP1 POP PUSH2 0x19C4 PUSH1 0x0 DUP4 ADD DUP6 PUSH2 0x1014 JUMP JUMPDEST PUSH2 0x19D2 PUSH2 0x120 DUP4 ADD DUP5 PUSH2 0x1832 JUMP JUMPDEST SWAP4 SWAP3 POP POP POP JUMP JUMPDEST PUSH1 0x0 PUSH1 0x20 DUP3 ADD SWAP1 POP PUSH2 0x19EE PUSH1 0x0 DUP4 ADD DUP5 PUSH2 0x1832 JUMP JUMPDEST SWAP3 SWAP2 POP POP JUMP JUMPDEST PUSH1 0x0 PUSH1 0x20 DUP3 ADD SWAP1 POP PUSH2 0x1A09 PUSH1 0x0 DUP4 ADD DUP5 PUSH2 0x1850 JUMP JUMPDEST SWAP3 SWAP2 POP POP JUMP JUMPDEST PUSH1 0x0 PUSH1 0x20 DUP3 ADD SWAP1 POP DUP2 DUP2 SUB PUSH1 0x0 DUP4 ADD MSTORE PUSH2 0x1A28 DUP2 PUSH2 0x185F JUMP JUMPDEST SWAP1 POP SWAP2 SWAP1 POP JUMP JUMPDEST PUSH1 0x0 PUSH1 0x20 DUP3 ADD SWAP1 POP DUP2 DUP2 SUB PUSH1 0x0 DUP4 ADD MSTORE PUSH2 0x1A48 DUP2 PUSH2 0x1882 JUMP JUMPDEST SWAP1 POP SWAP2 SWAP1 POP JUMP JUMPDEST PUSH1 0x0 PUSH1 0x20 DUP3 ADD SWAP1 POP DUP2 DUP2 SUB PUSH1 0x0 DUP4 ADD MSTORE PUSH2 0x1A68 DUP2 PUSH2 0x18A5 JUMP JUMPDEST SWAP1 POP SWAP2 SWAP1 POP JUMP JUMPDEST PUSH1 0x0 PUSH1 0x20 DUP3 ADD SWAP1 POP DUP2 DUP2 SUB PUSH1 0x0 DUP4 ADD MSTORE PUSH2 0x1A88 DUP2 PUSH2 0x18C8 JUMP JUMPDEST SWAP1 POP SWAP2 SWAP1 POP JUMP JUMPDEST PUSH1 0x0 PUSH1 0x20 DUP3 ADD SWAP1 POP DUP2 DUP2 SUB PUSH1 0x0 DUP4 ADD MSTORE PUSH2 0x1AA8 DUP2 PUSH2 0x18EB JUMP JUMPDEST SWAP1 POP SWAP2 SWAP1 POP JUMP JUMPDEST PUSH1 0x0 PUSH1 0x20 DUP3 ADD SWAP1 POP DUP2 DUP2 SUB PUSH1 0x0 DUP4 ADD MSTORE PUSH2 0x1AC8 DUP2 PUSH2 0x190E JUMP JUMPDEST SWAP1 POP SWAP2 SWAP1 POP JUMP JUMPDEST PUSH1 0x0 PUSH1 0x20 DUP3 ADD SWAP1 POP DUP2 DUP2 SUB PUSH1 0x0 DUP4 ADD MSTORE PUSH2 0x1AE8 DUP2 PUSH2 0x1931 JUMP JUMPDEST SWAP1 POP SWAP2 SWAP1 POP JUMP JUMPDEST PUSH1 0x0 PUSH1 0x20 DUP3 ADD SWAP1 POP DUP2 DUP2 SUB PUSH1 0x0 DUP4 ADD MSTORE PUSH2 0x1B08 DUP2 PUSH2 0x1954 JUMP JUMPDEST SWAP1 POP SWAP2 SWAP1 POP JUMP JUMPDEST PUSH1 0x0 DUP2 SWAP1 POP SWAP2 SWAP1 POP JUMP JUMPDEST PUSH1 0x0 DUP2 SWAP1 POP SWAP2 SWAP1 POP JUMP JUMPDEST PUSH1 0x0 PUSH1 0x9 SWAP1 POP SWAP2 SWAP1 POP JUMP JUMPDEST PUSH1 0x0 PUSH1 0x9 SWAP1 POP SWAP2 SWAP1 POP JUMP JUMPDEST PUSH1 0x0 PUSH1 0x20 DUP3 ADD SWAP1 POP SWAP2 SWAP1 POP JUMP JUMPDEST PUSH1 0x0 DUP2 SWAP1 POP SWAP3 SWAP2 POP POP JUMP JUMPDEST PUSH1 0x0 DUP3 DUP3 MSTORE PUSH1 0x20 DUP3 ADD SWAP1 POP SWAP3 SWAP2 POP POP JUMP JUMPDEST PUSH1 0x0 PUSH1 0xFF DUP3 AND SWAP1 POP SWAP2 SWAP1 POP JUMP JUMPDEST PUSH1 0x0 PUSH2 0x1B7A DUP3 PUSH2 0x1BA7 JUMP JUMPDEST SWAP1 POP SWAP2 SWAP1 POP JUMP JUMPDEST PUSH1 0x0 DUP2 SWAP1 POP PUSH2 0x1B8F DUP3 PUSH2 0x232F JUMP JUMPDEST SWAP2 SWAP1 POP JUMP JUMPDEST PUSH1 0x0 DUP2 SWAP1 POP PUSH2 0x1BA2 DUP3 PUSH2 0x2343 JUMP JUMPDEST SWAP2 SWAP1 POP JUMP JUMPDEST PUSH1 0x0 PUSH20 0xFFFFFFFFFFFFFFFFFFFFFFFFFFFFFFFFFFFFFFFF DUP3 AND SWAP1 POP SWAP2 SWAP1 POP JUMP JUMPDEST PUSH1 0x0 DUP2 SWAP1 POP SWAP2 SWAP1 POP JUMP JUMPDEST PUSH1 0x0 PUSH1 0xFF DUP3 AND SWAP1 POP SWAP2 SWAP1 POP JUMP JUMPDEST PUSH1 0x0 PUSH2 0x1BE9 DUP3 PUSH2 0x1B81 JUMP JUMPDEST SWAP1 POP SWAP2 SWAP1 POP JUMP JUMPDEST PUSH1 0x0 PUSH2 0x1BFB DUP3 PUSH2 0x1B94 JUMP JUMPDEST SWAP1 POP SWAP2 SWAP1 POP JUMP JUMPDEST PUSH1 0x0 PUSH2 0x1C15 PUSH2 0x1C10 DUP4 PUSH2 0x2047 JUMP JUMPDEST PUSH2 0x1B62 JUMP JUMPDEST SWAP1 POP SWAP2 SWAP1 POP JUMP JUMPDEST PUSH1 0x0 PUSH2 0x1C2F PUSH2 0x1C2A DUP4 PUSH2 0x21B3 JUMP JUMPDEST PUSH2 0x1B62 JUMP JUMPDEST SWAP1 POP SWAP2 SWAP1 POP JUMP JUMPDEST PUSH1 0x0 PUSH2 0x1C49 PUSH2 0x1C44 DUP4 PUSH2 0x21C0 JUMP JUMPDEST PUSH2 0x1B62 JUMP JUMPDEST SWAP1 POP SWAP2 SWAP1 POP JUMP JUMPDEST PUSH1 0x0 PUSH2 0x1C63 PUSH2 0x1C5E DUP4 PUSH2 0x21DA JUMP JUMPDEST PUSH2 0x1B62 JUMP JUMPDEST SWAP1 POP SWAP2 SWAP1 POP JUMP JUMPDEST PUSH1 0x0 PUSH2 0x1C7D PUSH2 0x1C78 DUP4 PUSH2 0x2054 JUMP JUMPDEST PUSH2 0x1B62 JUMP JUMPDEST SWAP1 POP SWAP2 SWAP1 POP JUMP JUMPDEST PUSH1 0x0 PUSH2 0x1C97 PUSH2 0x1C92 DUP4 PUSH2 0x2061 JUMP JUMPDEST PUSH2 0x1B62 JUMP JUMPDEST SWAP1 POP SWAP2 SWAP1 POP JUMP JUMPDEST PUSH1 0x0 PUSH2 0x1CB1 PUSH2 0x1CAC DUP4 PUSH2 0x206E JUMP JUMPDEST PUSH2 0x1B62 JUMP JUMPDEST SWAP1 POP SWAP2 SWAP1 POP JUMP JUMPDEST PUSH1 0x0 PUSH2 0x1CCB PUSH2 0x1CC6 DUP4 PUSH2 0x207B JUMP JUMPDEST PUSH2 0x1B62 JUMP JUMPDEST SWAP1 POP SWAP2 SWAP1 POP JUMP JUMPDEST PUSH1 0x0 PUSH2 0x1CE5 PUSH2 0x1CE0 DUP4 PUSH2 0x2088 JUMP JUMPDEST PUSH2 0x1B62 JUMP JUMPDEST SWAP1 POP SWAP2 SWAP1 POP JUMP JUMPDEST PUSH1 0x0 PUSH2 0x1CFF PUSH2 0x1CFA DUP4 PUSH2 0x2095 JUMP JUMPDEST PUSH2 0x1B62 JUMP JUMPDEST SWAP1 POP SWAP2 SWAP1 POP JUMP JUMPDEST PUSH1 0x0 PUSH2 0x1D19 PUSH2 0x1D14 DUP4 PUSH2 0x20A2 JUMP JUMPDEST PUSH2 0x1B62 JUMP JUMPDEST SWAP1 POP SWAP2 SWAP1 POP JUMP JUMPDEST PUSH1 0x0 PUSH2 0x1D33 PUSH2 0x1D2E DUP4 PUSH2 0x21CD JUMP JUMPDEST PUSH2 0x1B62 JUMP JUMPDEST SWAP1 POP SWAP2 SWAP1 POP JUMP JUMPDEST PUSH1 0x0 PUSH2 0x1D4D PUSH2 0x1D48 DUP4 PUSH2 0x20AF JUMP JUMPDEST PUSH2 0x1B62 JUMP JUMPDEST SWAP1 POP SWAP2 SWAP1 POP JUMP JUMPDEST PUSH1 0x0 PUSH2 0x1D67 PUSH2 0x1D62 DUP4 PUSH2 0x20BC JUMP JUMPDEST PUSH2 0x1B62 JUMP JUMPDEST SWAP1 POP SWAP2 SWAP1 POP JUMP JUMPDEST PUSH1 0x0 PUSH2 0x1D81 PUSH2 0x1D7C DUP4 PUSH2 0x20D6 JUMP JUMPDEST PUSH2 0x1B62 JUMP JUMPDEST SWAP1 POP SWAP2 SWAP1 POP JUMP JUMPDEST PUSH1 0x0 PUSH2 0x1D9B PUSH2 0x1D96 DUP4 PUSH2 0x20E3 JUMP JUMPDEST PUSH2 0x1B62 JUMP JUMPDEST SWAP1 POP SWAP2 SWAP1 POP JUMP JUMPDEST PUSH1 0x0 PUSH2 0x1DB5 PUSH2 0x1DB0 DUP4 PUSH2 0x20F0 JUMP JUMPDEST PUSH2 0x1B62 JUMP JUMPDEST SWAP1 POP SWAP2 SWAP1 POP JUMP JUMPDEST PUSH1 0x0 PUSH2 0x1DCF PUSH2 0x1DCA DUP4 PUSH2 0x20FD JUMP JUMPDEST PUSH2 0x1B62 JUMP JUMPDEST SWAP1 POP SWAP2 SWAP1 POP JUMP JUMPDEST PUSH1 0x0 PUSH2 0x1DE9 PUSH2 0x1DE4 DUP4 PUSH2 0x210A JUMP JUMPDEST PUSH2 0x1B62 JUMP JUMPDEST SWAP1 POP SWAP2 SWAP1 POP JUMP JUMPDEST PUSH1 0x0 PUSH2 0x1E03 PUSH2 0x1DFE DUP4 PUSH2 0x2117 JUMP JUMPDEST PUSH2 0x1B62 JUMP JUMPDEST SWAP1 POP SWAP2 SWAP1 POP JUMP JUMPDEST PUSH1 0x0 PUSH2 0x1E1D PUSH2 0x1E18 DUP4 PUSH2 0x2124 JUMP JUMPDEST PUSH2 0x1B62 JUMP JUMPDEST SWAP1 POP SWAP2 SWAP1 POP JUMP JUMPDEST PUSH1 0x0 PUSH2 0x1E37 PUSH2 0x1E32 DUP4 PUSH2 0x2131 JUMP JUMPDEST PUSH2 0x1B62 JUMP JUMPDEST SWAP1 POP SWAP2 SWAP1 POP JUMP JUMPDEST PUSH1 0x0 PUSH2 0x1E51 PUSH2 0x1E4C DUP4 PUSH2 0x20C9 JUMP JUMPDEST PUSH2 0x1B62 JUMP JUMPDEST SWAP1 POP SWAP2 SWAP1 POP JUMP JUMPDEST PUSH1 0x0 PUSH2 0x1E6B PUSH2 0x1E66 DUP4 PUSH2 0x213E JUMP JUMPDEST PUSH2 0x1B62 JUMP JUMPDEST SWAP1 POP SWAP2 SWAP1 POP JUMP JUMPDEST PUSH1 0x0 PUSH2 0x1E85 PUSH2 0x1E80 DUP4 PUSH2 0x214B JUMP JUMPDEST PUSH2 0x1B62 JUMP JUMPDEST SWAP1 POP SWAP2 SWAP1 POP JUMP JUMPDEST PUSH1 0x0 PUSH2 0x1E9F PUSH2 0x1E9A DUP4 PUSH2 0x2158 JUMP JUMPDEST PUSH2 0x1B62 JUMP JUMPDEST SWAP1 POP SWAP2 SWAP1 POP JUMP JUMPDEST PUSH1 0x0 PUSH2 0x1EB9 PUSH2 0x1EB4 DUP4 PUSH2 0x2165 JUMP JUMPDEST PUSH2 0x1B62 JUMP JUMPDEST SWAP1 POP SWAP2 SWAP1 POP JUMP JUMPDEST PUSH1 0x0 PUSH2 0x1ED3 PUSH2 0x1ECE DUP4 PUSH2 0x2172 JUMP JUMPDEST PUSH2 0x1B62 JUMP JUMPDEST SWAP1 POP SWAP2 SWAP1 POP JUMP JUMPDEST PUSH1 0x0 PUSH2 0x1EED PUSH2 0x1EE8 DUP4 PUSH2 0x217F JUMP JUMPDEST PUSH2 0x1B62 JUMP JUMPDEST SWAP1 POP SWAP2 SWAP1 POP JUMP JUMPDEST PUSH1 0x0 PUSH2 0x1F07 PUSH2 0x1F02 DUP4 PUSH2 0x218C JUMP JUMPDEST PUSH2 0x1B62 JUMP JUMPDEST SWAP1 POP SWAP2 SWAP1 POP JUMP JUMPDEST PUSH1 0x0 PUSH2 0x1F21 PUSH2 0x1F1C DUP4 PUSH2 0x2199 JUMP JUMPDEST PUSH2 0x1B62 JUMP JUMPDEST SWAP1 POP SWAP2 SWAP1 POP JUMP JUMPDEST PUSH1 0x0 PUSH2 0x1F3B PUSH2 0x1F36 DUP4 PUSH2 0x21A6 JUMP JUMPDEST PUSH2 0x1B62 JUMP JUMPDEST SWAP1 POP SWAP2 SWAP1 POP JUMP JUMPDEST PUSH1 0x0 PUSH2 0x1F4D DUP3 PUSH2 0x1BC7 JUMP JUMPDEST SWAP2 POP PUSH32 0xFFFFFFFFFFFFFFFFFFFFFFFFFFFFFFFFFFFFFFFFFFFFFFFFFFFFFFFFFFFFFFFF DUP3 EQ ISZERO PUSH2 0x1F80 JUMPI PUSH2 0x1F7F PUSH2 0x1FB5 JUMP JUMPDEST JUMPDEST PUSH1 0x1 DUP3 ADD SWAP1 POP SWAP2 SWAP1 POP JUMP JUMPDEST PUSH1 0x0 PUSH2 0x1F96 DUP3 PUSH2 0x1BD1 JUMP JUMPDEST SWAP2 POP PUSH1 0xFF DUP3 EQ ISZERO PUSH2 0x1FAA JUMPI PUSH2 0x1FA9 PUSH2 0x1FB5 JUMP JUMPDEST JUMPDEST PUSH1 0x1 DUP3 ADD SWAP1 POP SWAP2 SWAP1 POP JUMP JUMPDEST PUSH32 0x4E487B7100000000000000000000000000000000000000000000000000000000 PUSH1 0x0 MSTORE PUSH1 0x11 PUSH1 0x4 MSTORE PUSH1 0x24 PUSH1 0x0 REVERT JUMPDEST PUSH32 0x4E487B7100000000000000000000000000000000000000000000000000000000 PUSH1 0x0 MSTORE PUSH1 0x21 PUSH1 0x4 MSTORE PUSH1 0x24 PUSH1 0x0 REVERT JUMPDEST PUSH32 0x4E487B7100000000000000000000000000000000000000000000000000000000 PUSH1 0x0 MSTORE PUSH1 0x32 PUSH1 0x4 MSTORE PUSH1 0x24 PUSH1 0x0 REVERT JUMPDEST PUSH1 0x0 DUP1 REVERT JUMPDEST PUSH1 0x0 DUP2 PUSH1 0x0 SHR SWAP1 POP SWAP2 SWAP1 POP JUMP JUMPDEST PUSH1 0x0 DUP2 PUSH1 0x68 SHR SWAP1 POP SWAP2 SWAP1 POP JUMP JUMPDEST PUSH1 0x0 DUP2 PUSH1 0x70 SHR SWAP1 POP SWAP2 SWAP1 POP JUMP JUMPDEST PUSH1 0x0 DUP2 PUSH1 0x78 SHR SWAP1 POP SWAP2 SWAP1 POP JUMP JUMPDEST PUSH1 0x0 DUP2 PUSH1 0x80 SHR SWAP1 POP SWAP2 SWAP1 POP JUMP JUMPDEST PUSH1 0x0 DUP2 PUSH1 0x88 SHR SWAP1 POP SWAP2 SWAP1 POP JUMP JUMPDEST PUSH1 0x0 DUP2 PUSH1 0x90 SHR SWAP1 POP SWAP2 SWAP1 POP JUMP JUMPDEST PUSH1 0x0 DUP2 PUSH1 0x98 SHR SWAP1 POP SWAP2 SWAP1 POP JUMP JUMPDEST PUSH1 0x0 DUP2 PUSH1 0xA0 SHR SWAP1 POP SWAP2 SWAP1 POP JUMP JUMPDEST PUSH1 0x0 DUP2 PUSH1 0xA8 SHR SWAP1 POP SWAP2 SWAP1 POP JUMP JUMPDEST PUSH1 0x0 DUP2 PUSH1 0x10 SHR SWAP1 POP SWAP2 SWAP1 POP JUMP JUMPDEST PUSH1 0x0 DUP2 PUSH1 0xB0 SHR SWAP1 POP SWAP2 SWAP1 POP JUMP JUMPDEST PUSH1 0x0 DUP2 PUSH1 0xB8 SHR SWAP1 POP SWAP2 SWAP1 POP JUMP JUMPDEST PUSH1 0x0 DUP2 PUSH1 0xC0 SHR SWAP1 POP SWAP2 SWAP1 POP JUMP JUMPDEST PUSH1 0x0 DUP2 PUSH1 0xC8 SHR SWAP1 POP SWAP2 SWAP1 POP JUMP JUMPDEST PUSH1 0x0 DUP2 PUSH1 0xD0 SHR SWAP1 POP SWAP2 SWAP1 POP JUMP JUMPDEST PUSH1 0x0 DUP2 PUSH1 0xD8 SHR SWAP1 POP SWAP2 SWAP1 POP JUMP JUMPDEST PUSH1 0x0 DUP2 PUSH1 0xE0 SHR SWAP1 POP SWAP2 SWAP1 POP JUMP JUMPDEST PUSH1 0x0 DUP2 PUSH1 0xE8 SHR SWAP1 POP SWAP2 SWAP1 POP JUMP JUMPDEST PUSH1 0x0 DUP2 PUSH1 0xF0 SHR SWAP1 POP SWAP2 SWAP1 POP JUMP JUMPDEST PUSH1 0x0 DUP2 PUSH1 0xF8 SHR SWAP1 POP SWAP2 SWAP1 POP JUMP JUMPDEST PUSH1 0x0 DUP2 PUSH1 0x18 SHR SWAP1 POP SWAP2 SWAP1 POP JUMP JUMPDEST PUSH1 0x0 DUP2 PUSH1 0x20 SHR SWAP1 POP SWAP2 SWAP1 POP JUMP JUMPDEST PUSH1 0x0 DUP2 PUSH1 0x28 SHR SWAP1 POP SWAP2 SWAP1 POP JUMP JUMPDEST PUSH1 0x0 DUP2 PUSH1 0x30 SHR SWAP1 POP SWAP2 SWAP1 POP JUMP JUMPDEST PUSH1 0x0 DUP2 PUSH1 0x38 SHR SWAP1 POP SWAP2 SWAP1 POP JUMP JUMPDEST PUSH1 0x0 DUP2 PUSH1 0x40 SHR SWAP1 POP SWAP2 SWAP1 POP JUMP JUMPDEST PUSH1 0x0 DUP2 PUSH1 0x48 SHR SWAP1 POP SWAP2 SWAP1 POP JUMP JUMPDEST PUSH1 0x0 DUP2 PUSH1 0x50 SHR SWAP1 POP SWAP2 SWAP1 POP JUMP JUMPDEST PUSH1 0x0 DUP2 PUSH1 0x58 SHR SWAP1 POP SWAP2 SWAP1 POP JUMP JUMPDEST PUSH1 0x0 DUP2 PUSH1 0x8 SHR SWAP1 POP SWAP2 SWAP1 POP JUMP JUMPDEST PUSH1 0x0 DUP2 PUSH1 0x60 SHR SWAP1 POP SWAP2 SWAP1 POP JUMP JUMPDEST PUSH32 0x4769766520612076616C6964206C6F636174696F6E0000000000000000000000 PUSH1 0x0 DUP3 ADD MSTORE POP JUMP JUMPDEST PUSH32 0x47616D65206973207374696C6C2072756E6E696E670000000000000000000000 PUSH1 0x0 DUP3 ADD MSTORE POP JUMP JUMPDEST PUSH32 0x47616D652069732066756C6C2C207761697420796F7572207475726E00000000 PUSH1 0x0 DUP3 ADD MSTORE POP JUMP JUMPDEST PUSH32 0x49742773206E6F7420796F7572207475726E0000000000000000000000000000 PUSH1 0x0 DUP3 ADD MSTORE POP JUMP JUMPDEST PUSH32 0x47616D65206973206F7665720000000000000000000000000000000000000000 PUSH1 0x0 DUP3 ADD MSTORE POP JUMP JUMPDEST PUSH32 0x466972737420706C61796572206861736E2774206A6F696E6564000000000000 PUSH1 0x0 DUP3 ADD MSTORE POP JUMP JUMPDEST PUSH32 0x5365636F6E6420706C61796572206861736E2774206A6F696E65640000000000 PUSH1 0x0 DUP3 ADD MSTORE POP JUMP JUMPDEST PUSH32 0x536F6D656F6E6520616C7265616479206D6164652074686973206D6F76650000 PUSH1 0x0 DUP3 ADD MSTORE POP JUMP JUMPDEST PUSH1 0x4 DUP2 LT PUSH2 0x2340 JUMPI PUSH2 0x233F PUSH2 0x1FE4 JUMP JUMPDEST JUMPDEST POP JUMP JUMPDEST PUSH1 0x3 DUP2 LT PUSH2 0x2354 JUMPI PUSH2 0x2353 PUSH2 0x1FE4 JUMP JUMPDEST JUMPDEST POP JUMP JUMPDEST PUSH2 0x2360 DUP2 PUSH2 0x1BD1 JUMP JUMPDEST DUP2 EQ PUSH2 0x236B JUMPI PUSH1 0x0 DUP1 REVERT JUMPDEST POP JUMP INVALID LOG2 PUSH5 0x6970667358 0x22 SLT KECCAK256 0xAD 0xAB SSTORE ORIGIN CODESIZE CODESIZE 0xC7 0xA5 INVALID GAS 0xD6 0x24 SHR SDIV 0x49 0xD3 0x26 0x4F DUP1 0xC2 0x4E 0x24 0xE1 0xE5 SELFDESTRUCT 0xA9 0x2B 0x2C SWAP6 0xE 0xEA 0xFB PUSH5 0x736F6C6343 STOP ADDMOD SMOD STOP CALLER "
				},
				"gasEstimates": {
					"creation": {
						"codeDepositCost": "1824800",
						"executionCost": "26275",
						"totalCost": "1851075"
					},
					"external": {
						"doMove(uint8)": "infinite",
						"getBoard()": "infinite",
						"joinGame()": "31002",
						"nextMove()": "2610",
						"player1()": "2555",
						"player2()": "2581",
						"resetGame()": "104682",
						"status()": "2611"
					},
					"internal": {
						"checkStatus()": "infinite",
						"getCurrentPlayer()": "6698",
						"isBoardFull()": "infinite"
					}
				},
				"methodIdentifiers": {
					"doMove(uint8)": "3cd56f48",
					"getBoard()": "3264a34b",
					"joinGame()": "d4f77b1c",
					"nextMove()": "82df5242",
					"player1()": "d30895e4",
					"player2()": "59a5f12d",
					"resetGame()": "bb472219",
					"status()": "200d2ed2"
				}
			},
			"storageLayout": {
				"storage": [
					{
						"astId": 13,
						"contract": "contracts/1_Tictactoe.sol:TicTacToe",
						"label": "player1",
						"offset": 0,
						"slot": "0",
						"type": "t_address"
					},
					{
						"astId": 15,
						"contract": "contracts/1_Tictactoe.sol:TicTacToe",
						"label": "player2",
						"offset": 0,
						"slot": "1",
						"type": "t_address"
					},
					{
						"astId": 28,
						"contract": "contracts/1_Tictactoe.sol:TicTacToe",
						"label": "status",
						"offset": 20,
						"slot": "1",
						"type": "t_enum(GameStatus)11"
					},
					{
						"astId": 31,
						"contract": "contracts/1_Tictactoe.sol:TicTacToe",
						"label": "nextMove",
						"offset": 21,
						"slot": "1",
						"type": "t_enum(Move)6"
					},
					{
						"astId": 37,
						"contract": "contracts/1_Tictactoe.sol:TicTacToe",
						"label": "board",
						"offset": 0,
						"slot": "2",
						"type": "t_array(t_enum(Move)6)9_storage"
					}
				],
				"types": {
					"t_address": {
						"encoding": "inplace",
						"label": "address",
						"numberOfBytes": "20"
					},
					"t_array(t_enum(Move)6)9_storage": {
						"base": "t_enum(Move)6",
						"encoding": "inplace",
						"label": "enum TicTacToe.Move[9]",
						"numberOfBytes": "32"
					},
					"t_enum(GameStatus)11": {
						"encoding": "inplace",
						"label": "enum TicTacToe.GameStatus",
						"numberOfBytes": "1"
					},
					"t_enum(Move)6": {
						"encoding": "inplace",
						"label": "enum TicTacToe.Move",
						"numberOfBytes": "1"
					}
				}
			},
			"userdoc": {
				"kind": "user",
				"methods": {},
				"version": 1
			}
		}
	}
}